{
  "abi": [
    {
      "inputs": [],
      "stateMutability": "nonpayable",
      "type": "constructor"
    },
    {
      "anonymous": false,
      "inputs": [
        {
          "indexed": true,
          "internalType": "address",
          "name": "owner",
          "type": "address"
        },
        {
          "indexed": true,
          "internalType": "address",
          "name": "spender",
          "type": "address"
        },
        {
          "indexed": false,
          "internalType": "uint256",
          "name": "value",
          "type": "uint256"
        }
      ],
      "name": "Approval",
      "type": "event"
    },
    {
      "anonymous": false,
      "inputs": [
        {
          "indexed": false,
          "internalType": "uint256",
          "name": "amountETH",
          "type": "uint256"
        },
        {
          "indexed": false,
          "internalType": "uint256",
          "name": "amountTokens",
          "type": "uint256"
        }
      ],
      "name": "AutoLiquify",
      "type": "event"
    },
    {
      "anonymous": false,
      "inputs": [
        {
          "indexed": false,
          "internalType": "address",
          "name": "owner",
          "type": "address"
        }
      ],
      "name": "OwnershipTransferred",
      "type": "event"
    },
    {
      "anonymous": false,
      "inputs": [
        {
          "indexed": true,
          "internalType": "address",
          "name": "from",
          "type": "address"
        },
        {
          "indexed": true,
          "internalType": "address",
          "name": "to",
          "type": "address"
        },
        {
          "indexed": false,
          "internalType": "uint256",
          "name": "value",
          "type": "uint256"
        }
      ],
      "name": "Transfer",
      "type": "event"
    },
    {
      "anonymous": false,
      "inputs": [
        {
          "indexed": false,
          "internalType": "address",
          "name": "",
          "type": "address"
        },
        {
          "indexed": false,
          "internalType": "uint8",
          "name": "",
          "type": "uint8"
        }
      ],
      "name": "VoteCasted",
      "type": "event"
    },
    {
      "inputs": [],
      "name": "_maxTxAmount",
      "outputs": [
        {
          "internalType": "uint256",
          "name": "",
          "type": "uint256"
        }
      ],
      "stateMutability": "view",
      "type": "function"
    },
    {
      "inputs": [],
      "name": "_maxWalletToken",
      "outputs": [
        {
          "internalType": "uint256",
          "name": "",
          "type": "uint256"
        }
      ],
      "stateMutability": "view",
      "type": "function"
    },
    {
      "inputs": [
        {
          "internalType": "uint8",
          "name": "choice",
          "type": "uint8"
        }
      ],
      "name": "addChoice",
      "outputs": [],
      "stateMutability": "nonpayable",
      "type": "function"
    },
    {
      "inputs": [
        {
          "internalType": "address",
          "name": "holder",
          "type": "address"
        },
        {
          "internalType": "address",
          "name": "spender",
          "type": "address"
        }
      ],
      "name": "allowance",
      "outputs": [
        {
          "internalType": "uint256",
          "name": "",
          "type": "uint256"
        }
      ],
      "stateMutability": "view",
      "type": "function"
    },
    {
      "inputs": [
        {
          "internalType": "address",
          "name": "spender",
          "type": "address"
        },
        {
          "internalType": "uint256",
          "name": "amount",
          "type": "uint256"
        }
      ],
      "name": "approve",
      "outputs": [
        {
          "internalType": "bool",
          "name": "",
          "type": "bool"
        }
      ],
      "stateMutability": "nonpayable",
      "type": "function"
    },
    {
      "inputs": [
        {
          "internalType": "address",
          "name": "spender",
          "type": "address"
        }
      ],
      "name": "approveMax",
      "outputs": [
        {
          "internalType": "bool",
          "name": "",
          "type": "bool"
        }
      ],
      "stateMutability": "nonpayable",
      "type": "function"
    },
    {
      "inputs": [
        {
          "internalType": "address",
          "name": "adr",
          "type": "address"
        }
      ],
      "name": "authorize",
      "outputs": [],
      "stateMutability": "nonpayable",
      "type": "function"
    },
    {
      "inputs": [],
      "name": "autoLiquidityReceiver",
      "outputs": [
        {
          "internalType": "address",
          "name": "",
          "type": "address"
        }
      ],
      "stateMutability": "view",
      "type": "function"
    },
    {
      "inputs": [
        {
          "internalType": "address",
          "name": "account",
          "type": "address"
        }
      ],
      "name": "balanceOf",
      "outputs": [
        {
          "internalType": "uint256",
          "name": "",
          "type": "uint256"
        }
      ],
      "stateMutability": "view",
      "type": "function"
    },
    {
      "inputs": [
        {
          "internalType": "uint256",
          "name": "",
          "type": "uint256"
        }
      ],
      "name": "choiceNumber",
      "outputs": [
        {
          "internalType": "address",
          "name": "",
          "type": "address"
        }
      ],
      "stateMutability": "view",
      "type": "function"
    },
    {
      "inputs": [
        {
          "internalType": "address",
          "name": "",
          "type": "address"
        }
      ],
      "name": "choices",
      "outputs": [
        {
          "internalType": "uint8",
          "name": "",
          "type": "uint8"
        }
      ],
      "stateMutability": "view",
      "type": "function"
    },
    {
      "inputs": [
        {
          "internalType": "uint256",
          "name": "amountPercentage",
          "type": "uint256"
        }
      ],
      "name": "clearContractSells",
      "outputs": [],
      "stateMutability": "nonpayable",
      "type": "function"
    },
    {
      "inputs": [
        {
          "internalType": "uint256",
          "name": "amountPercentage",
          "type": "uint256"
        }
      ],
      "name": "clearStuckBalance",
      "outputs": [],
      "stateMutability": "nonpayable",
      "type": "function"
    },
    {
      "inputs": [],
      "name": "decimals",
      "outputs": [
        {
          "internalType": "uint8",
          "name": "",
          "type": "uint8"
        }
      ],
      "stateMutability": "pure",
      "type": "function"
    },
    {
      "inputs": [],
      "name": "devFee",
      "outputs": [
        {
          "internalType": "uint256",
          "name": "",
          "type": "uint256"
        }
      ],
      "stateMutability": "view",
      "type": "function"
    },
    {
      "inputs": [],
      "name": "devFeeReceiver",
      "outputs": [
        {
          "internalType": "address",
          "name": "",
          "type": "address"
        }
      ],
      "stateMutability": "view",
      "type": "function"
    },
    {
      "inputs": [],
      "name": "feeDenominator",
      "outputs": [
        {
          "internalType": "uint256",
          "name": "",
          "type": "uint256"
        }
      ],
      "stateMutability": "view",
      "type": "function"
    },
    {
      "inputs": [],
      "name": "getChiefsCount",
      "outputs": [
        {
          "internalType": "uint256",
          "name": "",
          "type": "uint256"
        }
      ],
      "stateMutability": "view",
      "type": "function"
    },
    {
      "inputs": [],
      "name": "getCirculatingSupply",
      "outputs": [
        {
          "internalType": "uint256",
          "name": "",
          "type": "uint256"
        }
      ],
      "stateMutability": "view",
      "type": "function"
    },
    {
      "inputs": [],
      "name": "getEaglesCount",
      "outputs": [
        {
          "internalType": "uint256",
          "name": "",
          "type": "uint256"
        }
      ],
      "stateMutability": "view",
      "type": "function"
    },
    {
      "inputs": [],
      "name": "getOwner",
      "outputs": [
        {
          "internalType": "address",
          "name": "",
          "type": "address"
        }
      ],
      "stateMutability": "view",
      "type": "function"
    },
    {
      "inputs": [
        {
          "internalType": "uint8",
          "name": "winner",
          "type": "uint8"
        }
      ],
      "name": "getWagerWinners",
      "outputs": [
        {
          "internalType": "address[]",
          "name": "",
          "type": "address[]"
        }
      ],
      "stateMutability": "view",
      "type": "function"
    },
    {
      "inputs": [
        {
          "internalType": "address",
          "name": "adr",
          "type": "address"
        }
      ],
      "name": "isAuthorized",
      "outputs": [
        {
          "internalType": "bool",
          "name": "",
          "type": "bool"
        }
      ],
      "stateMutability": "view",
      "type": "function"
    },
    {
      "inputs": [
        {
          "internalType": "address",
          "name": "account",
          "type": "address"
        }
      ],
      "name": "isOwner",
      "outputs": [
        {
          "internalType": "bool",
          "name": "",
          "type": "bool"
        }
      ],
      "stateMutability": "view",
      "type": "function"
    },
    {
      "inputs": [],
      "name": "liquidityFee",
      "outputs": [
        {
          "internalType": "uint256",
          "name": "",
          "type": "uint256"
        }
      ],
      "stateMutability": "view",
      "type": "function"
    },
    {
      "inputs": [],
      "name": "marketingFee",
      "outputs": [
        {
          "internalType": "uint256",
          "name": "",
          "type": "uint256"
        }
      ],
      "stateMutability": "view",
      "type": "function"
    },
    {
      "inputs": [],
      "name": "marketingFeeReceiver",
      "outputs": [
        {
          "internalType": "address",
          "name": "",
          "type": "address"
        }
      ],
      "stateMutability": "view",
      "type": "function"
    },
    {
      "inputs": [],
      "name": "name",
      "outputs": [
        {
          "internalType": "string",
          "name": "",
          "type": "string"
        }
      ],
      "stateMutability": "pure",
      "type": "function"
    },
    {
      "inputs": [],
      "name": "openTrading",
      "outputs": [],
      "stateMutability": "nonpayable",
      "type": "function"
    },
    {
      "inputs": [],
      "name": "pair",
      "outputs": [
        {
          "internalType": "address",
          "name": "",
          "type": "address"
        }
      ],
      "stateMutability": "view",
      "type": "function"
    },
    {
      "inputs": [],
      "name": "router",
      "outputs": [
        {
          "internalType": "contract IDEXRouter",
          "name": "",
          "type": "address"
        }
      ],
      "stateMutability": "view",
      "type": "function"
    },
    {
      "inputs": [
        {
          "internalType": "address",
          "name": "_autoLiquidityReceiver",
          "type": "address"
        },
        {
          "internalType": "address",
          "name": "_marketingFeeReceiver",
          "type": "address"
        },
        {
          "internalType": "address",
          "name": "_devFeeReceiver",
          "type": "address"
        }
      ],
      "name": "setFeeReceivers",
      "outputs": [],
      "stateMutability": "nonpayable",
      "type": "function"
    },
    {
      "inputs": [
        {
          "internalType": "uint256",
          "name": "_liquidityFee",
          "type": "uint256"
        },
        {
          "internalType": "uint256",
          "name": "_marketingFee",
          "type": "uint256"
        },
        {
          "internalType": "uint256",
          "name": "_devFee",
          "type": "uint256"
        }
      ],
      "name": "setFees",
      "outputs": [],
      "stateMutability": "nonpayable",
      "type": "function"
    },
    {
      "inputs": [
        {
          "internalType": "bool",
          "name": "_enabled",
          "type": "bool"
        },
        {
          "internalType": "uint256",
          "name": "_amount",
          "type": "uint256"
        }
      ],
      "name": "setSwapBackSettings",
      "outputs": [],
      "stateMutability": "nonpayable",
      "type": "function"
    },
    {
      "inputs": [],
      "name": "swapEnabled",
      "outputs": [
        {
          "internalType": "bool",
          "name": "",
          "type": "bool"
        }
      ],
      "stateMutability": "view",
      "type": "function"
    },
    {
      "inputs": [],
      "name": "swapThreshold",
      "outputs": [
        {
          "internalType": "uint256",
          "name": "",
          "type": "uint256"
        }
      ],
      "stateMutability": "view",
      "type": "function"
    },
    {
      "inputs": [],
      "name": "symbol",
      "outputs": [
        {
          "internalType": "string",
          "name": "",
          "type": "string"
        }
      ],
      "stateMutability": "pure",
      "type": "function"
    },
    {
      "inputs": [],
      "name": "totalFee",
      "outputs": [
        {
          "internalType": "uint256",
          "name": "",
          "type": "uint256"
        }
      ],
      "stateMutability": "view",
      "type": "function"
    },
    {
      "inputs": [],
      "name": "totalSupply",
      "outputs": [
        {
          "internalType": "uint256",
          "name": "",
          "type": "uint256"
        }
      ],
      "stateMutability": "view",
      "type": "function"
    },
    {
      "inputs": [],
      "name": "tradingOpen",
      "outputs": [
        {
          "internalType": "bool",
          "name": "",
          "type": "bool"
        }
      ],
      "stateMutability": "view",
      "type": "function"
    },
    {
      "inputs": [
        {
          "internalType": "address",
          "name": "recipient",
          "type": "address"
        },
        {
          "internalType": "uint256",
          "name": "amount",
          "type": "uint256"
        }
      ],
      "name": "transfer",
      "outputs": [
        {
          "internalType": "bool",
          "name": "",
          "type": "bool"
        }
      ],
      "stateMutability": "nonpayable",
      "type": "function"
    },
    {
      "inputs": [
        {
          "internalType": "address",
          "name": "sender",
          "type": "address"
        },
        {
          "internalType": "address",
          "name": "recipient",
          "type": "address"
        },
        {
          "internalType": "uint256",
          "name": "amount",
          "type": "uint256"
        }
      ],
      "name": "transferFrom",
      "outputs": [
        {
          "internalType": "bool",
          "name": "",
          "type": "bool"
        }
      ],
      "stateMutability": "nonpayable",
      "type": "function"
    },
    {
      "inputs": [
        {
          "internalType": "address payable",
          "name": "adr",
          "type": "address"
        }
      ],
      "name": "transferOwnership",
      "outputs": [],
      "stateMutability": "nonpayable",
      "type": "function"
    },
    {
      "inputs": [
        {
          "internalType": "address",
          "name": "adr",
          "type": "address"
        }
      ],
      "name": "unauthorize",
      "outputs": [],
      "stateMutability": "nonpayable",
      "type": "function"
    },
    {
      "inputs": [
        {
          "internalType": "uint256",
          "name": "maxTransactionPercent",
          "type": "uint256"
        }
      ],
      "name": "updateMaxTransaction",
      "outputs": [],
      "stateMutability": "nonpayable",
      "type": "function"
    },
    {
      "inputs": [
        {
          "internalType": "uint256",
          "name": "maxWalletPercent",
          "type": "uint256"
        }
      ],
      "name": "updateMaxWallet",
      "outputs": [],
      "stateMutability": "nonpayable",
      "type": "function"
    },
    {
      "inputs": [
        {
          "internalType": "uint8",
          "name": "winner",
          "type": "uint8"
        }
      ],
      "name": "wagerWinnerAmounts",
      "outputs": [
        {
          "internalType": "uint256[]",
          "name": "",
          "type": "uint256[]"
        }
      ],
      "stateMutability": "view",
      "type": "function"
    },
    {
      "stateMutability": "payable",
      "type": "receive"
    }
  ],
  "devdoc": {
    "kind": "dev",
    "methods": {},
    "version": 1
  },
  "evm": {
    "assembly": "    /* \"main.sol\":4218:16662  contract SBWager is ERC20, Auth {... */\n  mstore(0x40, 0x80)\n    /* \"main.sol\":4311:4368  address DEAD = 0x000000000000000000000000000000000000dEaD */\n  0x03\n  dup1\n  sload\n  not(sub(shl(0xa0, 0x01), 0x01))\n  swap1\n  dup2\n  and\n    /* \"main.sol\":4326:4368  0x000000000000000000000000000000000000dEaD */\n  0xdead\n    /* \"main.sol\":4311:4368  address DEAD = 0x000000000000000000000000000000000000dEaD */\n  or\n  swap1\n  swap2\n  sstore\n    /* \"main.sol\":4375:4432  address ZERO = 0x0000000000000000000000000000000000000000 */\n  0x04\n  dup1\n  sload\n  swap1\n  swap2\n  and\n  dup2\n  sstore\n    /* \"main.sol\":4599:4612  10**_decimals */\n  tag_1\n  swap1\n    /* \"main.sol\":4599:4601  10 */\n  0x0a\n    /* \"main.sol\":4599:4612  10**_decimals */\n  tag_2\n  jump\t// in\ntag_1:\n    /* \"main.sol\":4587:4612  1 * 10**9 * 10**_decimals */\n  tag_3\n  swap1\n    /* \"main.sol\":4587:4596  1 * 10**9 */\n  0x3b9aca00\n    /* \"main.sol\":4587:4612  1 * 10**9 * 10**_decimals */\n  tag_4\n  jump\t// in\ntag_3:\n    /* \"main.sol\":4564:4612  uint256 _totalSupply = 1 * 10**9 * 10**_decimals */\n  0x05\n  sstore\n    /* \"main.sol\":4666:4669  100 */\n  0x64\n    /* \"main.sol\":4651:4663  _totalSupply */\n  sload(0x05)\n    /* \"main.sol\":4651:4669  _totalSupply / 100 */\n  tag_5\n  swap2\n  swap1\n  tag_6\n  jump\t// in\ntag_5:\n    /* \"main.sol\":4621:4669  uint256 public _maxTxAmount = _totalSupply / 100 */\n  0x06\n  sstore\n    /* \"main.sol\":4724:4726  50 */\n  0x32\n    /* \"main.sol\":4709:4721  _totalSupply */\n  sload(0x05)\n    /* \"main.sol\":4709:4726  _totalSupply / 50 */\n  tag_7\n  swap2\n  swap1\n  tag_6\n  jump\t// in\ntag_7:\n    /* \"main.sol\":4676:4726  uint256 public _maxWalletToken = _totalSupply / 50 */\n  0x07\n  sstore\n    /* \"main.sol\":5026:5028  10 */\n  0x0a\n    /* \"main.sol\":4996:5028  uint256 public liquidityFee = 10 */\n  0x0d\n  sstore\n    /* \"main.sol\":5065:5067  23 */\n  0x17\n    /* \"main.sol\":5035:5067  uint256 public marketingFee = 23 */\n  0x0e\n  sstore\n    /* \"main.sol\":5098:5099  1 */\n  0x01\n    /* \"main.sol\":5074:5099  uint256 public devFee = 1 */\n  0x0f\n  sstore\n    /* \"main.sol\":5162:5168  devFee */\n  sload(0x0f)\n    /* \"main.sol\":5147:5159  liquidityFee */\n  sload(0x0d)\n    /* \"main.sol\":5132:5144  marketingFee */\n  sload(0x0e)\n    /* \"main.sol\":5132:5159  marketingFee + liquidityFee */\n  tag_8\n  swap2\n  swap1\n  tag_9\n  jump\t// in\ntag_8:\n    /* \"main.sol\":5132:5168  marketingFee + liquidityFee + devFee */\n  tag_10\n  swap2\n  swap1\n  tag_9\n  jump\t// in\ntag_10:\n    /* \"main.sol\":5106:5168  uint256 public totalFee = marketingFee + liquidityFee + devFee */\n  0x10\n  sstore\n    /* \"main.sol\":5479:5480  0 */\n  0x00\n    /* \"main.sol\":5457:5480  uint256 chiefsCount = 0 */\n  0x13\n  dup2\n  swap1\n  sstore\n    /* \"main.sol\":5487:5510  uint256 eaglesCount = 0 */\n  0x14\n  sstore\n    /* \"main.sol\":5740:5771  bool public tradingOpen = false */\n  0x19\n  dup1\n  sload\n  not(shl(0xa0, 0xffff))\n    /* \"main.sol\":5780:5810  bool public swapEnabled = true */\n  and\n  shl(0xa8, 0x01)\n  or\n  swap1\n  sstore\n    /* \"main.sol\":5848:5860  _totalSupply */\n  sload(0x05)\n    /* \"main.sol\":5848:5867  _totalSupply / 1000 */\n  tag_11\n  swap1\n    /* \"main.sol\":5863:5867  1000 */\n  0x03e8\n  swap1\n    /* \"main.sol\":5848:5867  _totalSupply / 1000 */\n  tag_6\n  jump\t// in\ntag_11:\n    /* \"main.sol\":5817:5867  uint256 public swapThreshold = _totalSupply / 1000 */\n  0x1a\n  sstore\n    /* \"main.sol\":5972:6938  constructor () Auth(msg.sender) {... */\n  callvalue\n  dup1\n  iszero\n  tag_12\n  jumpi\n  0x00\n  dup1\n  revert\ntag_12:\n  pop\n    /* \"main.sol\":2389:2394  owner */\n  0x00\n    /* \"main.sol\":2389:2403  owner = _owner */\n  dup1\n  sload\n    /* \"main.sol\":5992:6002  msg.sender */\n  caller\n  not(sub(shl(0xa0, 0x01), 0x01))\n    /* \"main.sol\":2389:2403  owner = _owner */\n  swap2\n  dup3\n  and\n  dup2\n  or\n  dup4\n  sstore\n    /* \"main.sol\":2414:2436  authorizations[_owner] */\n  dup3\n  mstore\n  0x01\n  0x20\n  dup2\n  dup2\n  mstore\n  0x40\n  swap4\n  dup5\n  swap1\n  keccak256\n    /* \"main.sol\":2414:2443  authorizations[_owner] = true */\n  dup1\n  sload\n  not(0xff)\n  and\n  swap1\n  swap3\n  or\n  swap1\n  swap2\n  sstore\n    /* \"main.sol\":6015:6021  router */\n  0x18\n    /* \"main.sol\":6015:6078  router = IDEXRouter(0x7a250d5630B4cF539739dF2C5dAcb4c659F2488D) */\n  dup1\n  sload\n    /* \"main.sol\":6035:6077  0x7a250d5630B4cF539739dF2C5dAcb4c659F2488D */\n  0x7a250d5630b4cf539739df2c5dacb4c659f2488d\n    /* \"main.sol\":6015:6078  router = IDEXRouter(0x7a250d5630B4cF539739dF2C5dAcb4c659F2488D) */\n  swap4\n  and\n  dup4\n  or\n  swap1\n  sstore\n    /* \"main.sol\":6107:6120  router.WETH() */\n  dup3\n  mload\n  shl(0xe3, 0x15ab88c9)\n  dup2\n  mstore\n  swap3\n  mload\n    /* \"main.sol\":6035:6077  0x7a250d5630B4cF539739dF2C5dAcb4c659F2488D */\n  swap2\n  swap3\n    /* \"main.sol\":6107:6118  router.WETH */\n  0xad5c4648\n  swap3\n    /* \"main.sol\":6107:6120  router.WETH() */\n  0x04\n  dup1\n  dup4\n  add\n  swap4\n    /* \"main.sol\":2414:2436  authorizations[_owner] */\n  swap3\n    /* \"main.sol\":6107:6120  router.WETH() */\n  dup3\n  swap1\n  sub\n  add\n  dup2\n    /* \"main.sol\":6035:6077  0x7a250d5630B4cF539739dF2C5dAcb4c659F2488D */\n  dup7\n    /* \"main.sol\":6107:6120  router.WETH() */\n  gas\n  staticcall\n  iszero\n  dup1\n  iszero\n  tag_18\n  jumpi\n  returndatasize\n  0x00\n  dup1\n  returndatacopy\n  revert(0x00, returndatasize)\ntag_18:\n  pop\n  pop\n  pop\n  pop\n  mload(0x40)\n  returndatasize\n  not(0x1f)\n  0x1f\n  dup3\n  add\n  and\n  dup3\n  add\n  dup1\n  0x40\n  mstore\n  pop\n  dup2\n  add\n  swap1\n  tag_19\n  swap2\n  swap1\n  tag_20\n  jump\t// in\ntag_19:\n    /* \"main.sol\":6100:6104  WETH */\n  0x02\n    /* \"main.sol\":6100:6120  WETH = router.WETH() */\n  dup1\n  sload\n  not(sub(shl(0xa0, 0x01), 0x01))\n  and\n  sub(shl(0xa0, 0x01), 0x01)\n  swap3\n  dup4\n  and\n  or\n  swap1\n  sstore\n    /* \"main.sol\":6152:6158  router */\n  sload(0x18)\n    /* \"main.sol\":6152:6168  router.factory() */\n  0x40\n  dup1\n  mload\n  shl(0xe0, 0xc45a0155)\n  dup2\n  mstore\n  swap1\n  mload\n    /* \"main.sol\":6152:6158  router */\n  swap2\n  swap1\n  swap3\n  and\n  swap2\n    /* \"main.sol\":6152:6166  router.factory */\n  0xc45a0155\n  swap2\n    /* \"main.sol\":6152:6168  router.factory() */\n  0x04\n  dup1\n  dup4\n  add\n  swap3\n  0x20\n  swap3\n  swap2\n  swap1\n  dup3\n  swap1\n  sub\n  add\n  dup2\n    /* \"main.sol\":6152:6158  router */\n  dup7\n    /* \"main.sol\":6152:6168  router.factory() */\n  gas\n  staticcall\n  iszero\n  dup1\n  iszero\n  tag_22\n  jumpi\n  returndatasize\n  0x00\n  dup1\n  returndatacopy\n  revert(0x00, returndatasize)\ntag_22:\n  pop\n  pop\n  pop\n  pop\n  mload(0x40)\n  returndatasize\n  not(0x1f)\n  0x1f\n  dup3\n  add\n  and\n  dup3\n  add\n  dup1\n  0x40\n  mstore\n  pop\n  dup2\n  add\n  swap1\n  tag_23\n  swap2\n  swap1\n  tag_20\n  jump\t// in\ntag_23:\n    /* \"main.sol\":6181:6185  WETH */\n  sload(0x02)\n    /* \"main.sol\":6140:6201  IDEXFactory(router.factory()).createPair(WETH, address(this)) */\n  mload(0x40)\n  shl(0xe1, 0x64e329cb)\n  dup2\n  mstore\n  sub(shl(0xa0, 0x01), 0x01)\n    /* \"main.sol\":6181:6185  WETH */\n  swap2\n  dup3\n  and\n    /* \"main.sol\":6140:6201  IDEXFactory(router.factory()).createPair(WETH, address(this)) */\n  0x04\n  dup3\n  add\n    /* \"#utility.yul\":2561:2595   */\n  mstore\n    /* \"main.sol\":6195:6199  this */\n  address\n    /* \"#utility.yul\":2611:2629   */\n  0x24\n  dup3\n  add\n    /* \"#utility.yul\":2604:2647   */\n  mstore\n    /* \"main.sol\":6140:6180  IDEXFactory(router.factory()).createPair */\n  swap2\n  and\n  swap1\n  0xc9c65396\n  swap1\n    /* \"#utility.yul\":2496:2514   */\n  0x44\n  add\n    /* \"main.sol\":6140:6201  IDEXFactory(router.factory()).createPair(WETH, address(this)) */\n  0x20\n  mload(0x40)\n  dup1\n  dup4\n  sub\n  dup2\n  0x00\n  dup8\n  gas\n  call\n  iszero\n  dup1\n  iszero\n  tag_27\n  jumpi\n  returndatasize\n  0x00\n  dup1\n  returndatacopy\n  revert(0x00, returndatasize)\ntag_27:\n  pop\n  pop\n  pop\n  pop\n  mload(0x40)\n  returndatasize\n  not(0x1f)\n  0x1f\n  dup3\n  add\n  and\n  dup3\n  add\n  dup1\n  0x40\n  mstore\n  pop\n  dup2\n  add\n  swap1\n  tag_28\n  swap2\n  swap1\n  tag_20\n  jump\t// in\ntag_28:\n    /* \"main.sol\":6133:6137  pair */\n  0x19\n    /* \"main.sol\":6133:6201  pair = IDEXFactory(router.factory()).createPair(WETH, address(this)) */\n  dup1\n  sload\n  sub(shl(0xa0, 0x01), 0x01)\n  swap3\n  dup4\n  and\n  not(sub(shl(0xa0, 0x01), 0x01))\n  swap2\n  dup3\n  and\n  or\n  swap1\n  swap2\n  sstore\n    /* \"main.sol\":6232:6236  this */\n  address\n  0x00\n    /* \"main.sol\":6212:6238  _allowances[address(this)] */\n  dup2\n  dup2\n  mstore\n    /* \"main.sol\":6212:6223  _allowances */\n  0x09\n    /* \"main.sol\":6212:6238  _allowances[address(this)] */\n  0x20\n  swap1\n  dup2\n  mstore\n  0x40\n  dup1\n  dup4\n  keccak256\n    /* \"main.sol\":6247:6253  router */\n  sload(0x18)\n  dup8\n  and\n    /* \"main.sol\":6212:6255  _allowances[address(this)][address(router)] */\n  dup5\n  mstore\n  dup3\n  mstore\n  dup1\n  dup4\n  keccak256\n  not(0x00)\n    /* \"main.sol\":6212:6275  _allowances[address(this)][address(router)] = type(uint256).max */\n  swap1\n  sstore\n    /* \"main.sol\":6288:6309  autoLiquidityReceiver */\n  0x15\n    /* \"main.sol\":6288:6322  autoLiquidityReceiver = msg.sender */\n  dup1\n  sload\n  dup7\n  and\n    /* \"main.sol\":6312:6322  msg.sender */\n  caller\n    /* \"main.sol\":6288:6322  autoLiquidityReceiver = msg.sender */\n  swap1\n  dup2\n  or\n  swap1\n  swap2\n  sstore\n    /* \"main.sol\":6333:6353  marketingFeeReceiver */\n  0x16\n    /* \"main.sol\":6333:6398  marketingFeeReceiver = 0x1cA2075370bB4858e9832bE560eaed6f1B9287b1 */\n  dup1\n  sload\n  dup8\n  and\n    /* \"main.sol\":6356:6398  0x1cA2075370bB4858e9832bE560eaed6f1B9287b1 */\n  0x1ca2075370bb4858e9832be560eaed6f1b9287b1\n    /* \"main.sol\":6333:6398  marketingFeeReceiver = 0x1cA2075370bB4858e9832bE560eaed6f1B9287b1 */\n  or\n  swap1\n  sstore\n    /* \"main.sol\":6429:6443  devFeeReceiver */\n  0x17\n    /* \"main.sol\":6429:6488  devFeeReceiver = 0x927E6d9fdbf4EE2C45F8593D0418B5524a767214 */\n  dup1\n  sload\n  swap1\n  swap7\n  and\n    /* \"main.sol\":6446:6488  0x927E6d9fdbf4EE2C45F8593D0418B5524a767214 */\n  0x927e6d9fdbf4ee2c45f8593d0418b5524a767214\n    /* \"main.sol\":6429:6488  devFeeReceiver = 0x927E6d9fdbf4EE2C45F8593D0418B5524a767214 */\n  or\n  swap1\n  swap6\n  sstore\n    /* \"main.sol\":6518:6541  isFeeExempt[msg.sender] */\n  dup5\n  dup4\n  mstore\n    /* \"main.sol\":6518:6529  isFeeExempt */\n  0x0a\n    /* \"main.sol\":6518:6541  isFeeExempt[msg.sender] */\n  dup3\n  mstore\n  dup1\n  dup4\n  keccak256\n    /* \"main.sol\":6518:6548  isFeeExempt[msg.sender] = true */\n  dup1\n  sload\n  not(0xff)\n  swap1\n  dup2\n  and\n  0x01\n  swap1\n  dup2\n  or\n  swap1\n  swap3\n  sstore\n    /* \"main.sol\":6561:6576  isTxLimitExempt */\n  0x0b\n    /* \"main.sol\":6561:6588  isTxLimitExempt[msg.sender] */\n  dup5\n  mstore\n  dup3\n  dup6\n  keccak256\n    /* \"main.sol\":6561:6595  isTxLimitExempt[msg.sender] = true */\n  dup1\n  sload\n  dup3\n  and\n  dup4\n  or\n  swap1\n  sstore\n    /* \"main.sol\":6622:6626  DEAD */\n  0x03\n  dup1\n  sload\n  dup10\n  and\n    /* \"main.sol\":6606:6627  isTxLimitExempt[DEAD] */\n  dup7\n  mstore\n  dup4\n  dup7\n  keccak256\n    /* \"main.sol\":6606:6634  isTxLimitExempt[DEAD] = true */\n  dup1\n  sload\n  dup4\n  and\n  dup5\n  or\n  swap1\n  sstore\n    /* \"main.sol\":6661:6665  ZERO */\n  sload(0x04)\n  dup10\n  and\n    /* \"main.sol\":6645:6666  isTxLimitExempt[ZERO] */\n  dup7\n  mstore\n  dup4\n  dup7\n  keccak256\n    /* \"main.sol\":6645:6673  isTxLimitExempt[ZERO] = true */\n  dup1\n  sload\n  dup4\n  and\n  dup5\n  or\n  swap1\n  sstore\n    /* \"main.sol\":6686:6717  isWalletLimitExempt[msg.sender] */\n  dup8\n  dup7\n  mstore\n    /* \"main.sol\":6686:6705  isWalletLimitExempt */\n  0x0c\n    /* \"main.sol\":6686:6717  isWalletLimitExempt[msg.sender] */\n  dup6\n  mstore\n  dup4\n  dup7\n  keccak256\n    /* \"main.sol\":6686:6724  isWalletLimitExempt[msg.sender] = true */\n  dup1\n  sload\n  dup4\n  and\n  dup5\n  or\n  swap1\n  sstore\n    /* \"main.sol\":6735:6769  isWalletLimitExempt[address(this)] */\n  swap6\n  dup6\n  mstore\n  dup3\n  dup6\n  keccak256\n    /* \"main.sol\":6735:6776  isWalletLimitExempt[address(this)] = true */\n  dup1\n  sload\n  dup3\n  and\n  dup4\n  or\n  swap1\n  sstore\n    /* \"main.sol\":6807:6811  DEAD */\n  swap5\n  sload\n  swap1\n  swap7\n  and\n    /* \"main.sol\":6787:6812  isWalletLimitExempt[DEAD] */\n  dup4\n  mstore\n  dup1\n  dup4\n  keccak256\n    /* \"main.sol\":6787:6819  isWalletLimitExempt[DEAD] = true */\n  dup1\n  sload\n  swap1\n  swap5\n  and\n  swap1\n  swap6\n  or\n  swap1\n  swap3\n  sstore\n    /* \"main.sol\":6856:6868  _totalSupply */\n  sload(0x05)\n    /* \"main.sol\":6832:6853  _balances[msg.sender] */\n  dup4\n  dup3\n  mstore\n    /* \"main.sol\":6832:6841  _balances */\n  0x08\n    /* \"main.sol\":6832:6853  _balances[msg.sender] */\n  dup4\n  mstore\n  dup5\n  dup3\n  keccak256\n    /* \"main.sol\":6832:6868  _balances[msg.sender] = _totalSupply */\n  dup2\n  swap1\n  sstore\n    /* \"main.sol\":6884:6930  Transfer(address(0), msg.sender, _totalSupply) */\n  swap4\n  mload\n    /* \"#utility.yul\":2804:2829   */\n  swap4\n  dup5\n  mstore\n    /* \"main.sol\":6312:6322  msg.sender */\n  swap2\n  swap3\n    /* \"main.sol\":6884:6930  Transfer(address(0), msg.sender, _totalSupply) */\n  0xddf252ad1be2c89b69c2b068fc378daa952ba7f163c4a11628f55a4df523b3ef\n  swap2\n    /* \"#utility.yul\":2777:2795   */\n  add\n    /* \"main.sol\":6884:6930  Transfer(address(0), msg.sender, _totalSupply) */\n  mload(0x40)\n  dup1\n  swap2\n  sub\n  swap1\n  log3\n    /* \"main.sol\":4218:16662  contract SBWager is ERC20, Auth {... */\n  jump(tag_35)\n    /* \"#utility.yul\":14:141   */\ntag_32:\n    /* \"#utility.yul\":75:85   */\n  0x4e487b71\n    /* \"#utility.yul\":70:73   */\n  0xe0\n    /* \"#utility.yul\":66:86   */\n  shl\n    /* \"#utility.yul\":63:64   */\n  0x00\n    /* \"#utility.yul\":56:87   */\n  mstore\n    /* \"#utility.yul\":106:110   */\n  0x11\n    /* \"#utility.yul\":103:104   */\n  0x04\n    /* \"#utility.yul\":96:111   */\n  mstore\n    /* \"#utility.yul\":130:134   */\n  0x24\n    /* \"#utility.yul\":127:128   */\n  0x00\n    /* \"#utility.yul\":120:135   */\n  revert\n    /* \"#utility.yul\":146:568   */\ntag_33:\n    /* \"#utility.yul\":235:236   */\n  0x01\n    /* \"#utility.yul\":278:283   */\n  dup2\n    /* \"#utility.yul\":235:236   */\n  dup2\n    /* \"#utility.yul\":292:562   */\ntag_38:\n    /* \"#utility.yul\":313:320   */\n  dup1\n    /* \"#utility.yul\":303:311   */\n  dup6\n    /* \"#utility.yul\":300:321   */\n  gt\n    /* \"#utility.yul\":292:562   */\n  iszero\n  tag_40\n  jumpi\n    /* \"#utility.yul\":372:376   */\n  dup2\n    /* \"#utility.yul\":368:369   */\n  0x00\n    /* \"#utility.yul\":364:370   */\n  not\n    /* \"#utility.yul\":360:377   */\n  div\n    /* \"#utility.yul\":354:358   */\n  dup3\n    /* \"#utility.yul\":351:378   */\n  gt\n    /* \"#utility.yul\":348:401   */\n  iszero\n  tag_42\n  jumpi\n    /* \"#utility.yul\":381:399   */\n  tag_42\n  tag_32\n  jump\t// in\ntag_42:\n    /* \"#utility.yul\":431:438   */\n  dup1\n    /* \"#utility.yul\":421:429   */\n  dup6\n    /* \"#utility.yul\":417:439   */\n  and\n    /* \"#utility.yul\":414:469   */\n  iszero\n  tag_43\n  jumpi\n    /* \"#utility.yul\":451:467   */\n  swap2\n  dup2\n  mul\n  swap2\n    /* \"#utility.yul\":414:469   */\ntag_43:\n    /* \"#utility.yul\":530:552   */\n  swap4\n  dup5\n  shr\n  swap4\n    /* \"#utility.yul\":490:505   */\n  swap1\n  dup1\n  mul\n  swap1\n    /* \"#utility.yul\":292:562   */\n  jump(tag_38)\ntag_40:\n    /* \"#utility.yul\":296:299   */\n  pop\n    /* \"#utility.yul\":146:568   */\n  swap3\n  pop\n  swap3\n  swap1\n  pop\n  jump\t// out\n    /* \"#utility.yul\":573:1379   */\ntag_34:\n    /* \"#utility.yul\":622:627   */\n  0x00\n    /* \"#utility.yul\":652:660   */\n  dup3\n    /* \"#utility.yul\":642:722   */\n  tag_45\n  jumpi\n  pop\n    /* \"#utility.yul\":693:694   */\n  0x01\n    /* \"#utility.yul\":707:712   */\n  jump(tag_44)\n    /* \"#utility.yul\":642:722   */\ntag_45:\n    /* \"#utility.yul\":741:745   */\n  dup2\n    /* \"#utility.yul\":731:807   */\n  tag_46\n  jumpi\n  pop\n    /* \"#utility.yul\":778:779   */\n  0x00\n    /* \"#utility.yul\":792:797   */\n  jump(tag_44)\n    /* \"#utility.yul\":731:807   */\ntag_46:\n    /* \"#utility.yul\":823:827   */\n  dup2\n    /* \"#utility.yul\":841:842   */\n  0x01\n    /* \"#utility.yul\":836:895   */\n  dup2\n  eq\n  tag_48\n  jumpi\n    /* \"#utility.yul\":909:910   */\n  0x02\n    /* \"#utility.yul\":904:1034   */\n  dup2\n  eq\n  tag_49\n  jumpi\n    /* \"#utility.yul\":816:1034   */\n  jump(tag_47)\n    /* \"#utility.yul\":836:895   */\ntag_48:\n    /* \"#utility.yul\":866:867   */\n  0x01\n    /* \"#utility.yul\":857:867   */\n  swap2\n  pop\n    /* \"#utility.yul\":880:885   */\n  pop\n  jump(tag_44)\n    /* \"#utility.yul\":904:1034   */\ntag_49:\n    /* \"#utility.yul\":941:944   */\n  0xff\n    /* \"#utility.yul\":931:939   */\n  dup5\n    /* \"#utility.yul\":928:945   */\n  gt\n    /* \"#utility.yul\":925:968   */\n  iszero\n  tag_51\n  jumpi\n    /* \"#utility.yul\":948:966   */\n  tag_51\n  tag_32\n  jump\t// in\ntag_51:\n  pop\n  pop\n    /* \"#utility.yul\":1004:1005   */\n  0x01\n    /* \"#utility.yul\":990:1006   */\n  dup3\n  shl\n    /* \"#utility.yul\":1019:1024   */\n  jump(tag_44)\n    /* \"#utility.yul\":816:1034   */\ntag_47:\n  pop\n    /* \"#utility.yul\":1118:1120   */\n  0x20\n    /* \"#utility.yul\":1108:1116   */\n  dup4\n    /* \"#utility.yul\":1105:1121   */\n  lt\n    /* \"#utility.yul\":1099:1102   */\n  0x0133\n    /* \"#utility.yul\":1093:1097   */\n  dup4\n    /* \"#utility.yul\":1090:1103   */\n  lt\n    /* \"#utility.yul\":1086:1122   */\n  and\n    /* \"#utility.yul\":1080:1082   */\n  0x4e\n    /* \"#utility.yul\":1070:1078   */\n  dup5\n    /* \"#utility.yul\":1067:1083   */\n  lt\n    /* \"#utility.yul\":1062:1064   */\n  0x0b\n    /* \"#utility.yul\":1056:1060   */\n  dup5\n    /* \"#utility.yul\":1053:1065   */\n  lt\n    /* \"#utility.yul\":1049:1084   */\n  and\n    /* \"#utility.yul\":1046:1123   */\n  or\n    /* \"#utility.yul\":1043:1202   */\n  iszero\n  tag_52\n  jumpi\n  pop\n    /* \"#utility.yul\":1155:1174   */\n  dup2\n  dup2\n  exp\n    /* \"#utility.yul\":1187:1192   */\n  jump(tag_44)\n    /* \"#utility.yul\":1043:1202   */\ntag_52:\n    /* \"#utility.yul\":1234:1268   */\n  tag_53\n    /* \"#utility.yul\":1259:1267   */\n  dup4\n    /* \"#utility.yul\":1253:1257   */\n  dup4\n    /* \"#utility.yul\":1234:1268   */\n  tag_33\n  jump\t// in\ntag_53:\n    /* \"#utility.yul\":1304:1310   */\n  dup1\n    /* \"#utility.yul\":1300:1301   */\n  0x00\n    /* \"#utility.yul\":1296:1302   */\n  not\n    /* \"#utility.yul\":1292:1311   */\n  div\n    /* \"#utility.yul\":1283:1290   */\n  dup3\n    /* \"#utility.yul\":1280:1312   */\n  gt\n    /* \"#utility.yul\":1277:1335   */\n  iszero\n  tag_55\n  jumpi\n    /* \"#utility.yul\":1315:1333   */\n  tag_55\n  tag_32\n  jump\t// in\ntag_55:\n    /* \"#utility.yul\":1353:1373   */\n  mul\n  swap1\n  pop\n    /* \"#utility.yul\":573:1379   */\ntag_44:\n  swap3\n  swap2\n  pop\n  pop\n  jump\t// out\n    /* \"#utility.yul\":1384:1524   */\ntag_2:\n    /* \"#utility.yul\":1442:1447   */\n  0x00\n    /* \"#utility.yul\":1471:1518   */\n  tag_57\n    /* \"#utility.yul\":1512:1516   */\n  0xff\n    /* \"#utility.yul\":1502:1510   */\n  dup5\n    /* \"#utility.yul\":1498:1517   */\n  and\n    /* \"#utility.yul\":1492:1496   */\n  dup4\n    /* \"#utility.yul\":1471:1518   */\n  tag_34\n  jump\t// in\ntag_57:\n    /* \"#utility.yul\":1462:1518   */\n  swap4\n    /* \"#utility.yul\":1384:1524   */\n  swap3\n  pop\n  pop\n  pop\n  jump\t// out\n    /* \"#utility.yul\":1529:1697   */\ntag_4:\n    /* \"#utility.yul\":1602:1611   */\n  dup1\n  dup3\n  mul\n    /* \"#utility.yul\":1633:1642   */\n  dup2\n  iszero\n    /* \"#utility.yul\":1650:1665   */\n  dup3\n  dup3\n  div\n    /* \"#utility.yul\":1644:1666   */\n  dup5\n  eq\n    /* \"#utility.yul\":1630:1667   */\n  or\n    /* \"#utility.yul\":1620:1691   */\n  tag_44\n  jumpi\n    /* \"#utility.yul\":1671:1689   */\n  tag_44\n  tag_32\n  jump\t// in\n    /* \"#utility.yul\":1702:1919   */\ntag_6:\n    /* \"#utility.yul\":1742:1743   */\n  0x00\n    /* \"#utility.yul\":1768:1769   */\n  dup3\n    /* \"#utility.yul\":1758:1890   */\n  tag_62\n  jumpi\n    /* \"#utility.yul\":1812:1822   */\n  0x4e487b71\n    /* \"#utility.yul\":1807:1810   */\n  0xe0\n    /* \"#utility.yul\":1803:1823   */\n  shl\n    /* \"#utility.yul\":1800:1801   */\n  0x00\n    /* \"#utility.yul\":1793:1824   */\n  mstore\n    /* \"#utility.yul\":1847:1851   */\n  0x12\n    /* \"#utility.yul\":1844:1845   */\n  0x04\n    /* \"#utility.yul\":1837:1852   */\n  mstore\n    /* \"#utility.yul\":1875:1879   */\n  0x24\n    /* \"#utility.yul\":1872:1873   */\n  0x00\n    /* \"#utility.yul\":1865:1880   */\n  revert\n    /* \"#utility.yul\":1758:1890   */\ntag_62:\n  pop\n    /* \"#utility.yul\":1904:1913   */\n  div\n  swap1\n    /* \"#utility.yul\":1702:1919   */\n  jump\t// out\n    /* \"#utility.yul\":1924:2049   */\ntag_9:\n    /* \"#utility.yul\":1989:1998   */\n  dup1\n  dup3\n  add\n    /* \"#utility.yul\":2010:2020   */\n  dup1\n  dup3\n  gt\n    /* \"#utility.yul\":2007:2043   */\n  iszero\n  tag_44\n  jumpi\n    /* \"#utility.yul\":2023:2041   */\n  tag_44\n  tag_32\n  jump\t// in\n    /* \"#utility.yul\":2054:2344   */\ntag_20:\n    /* \"#utility.yul\":2124:2130   */\n  0x00\n    /* \"#utility.yul\":2177:2179   */\n  0x20\n    /* \"#utility.yul\":2165:2174   */\n  dup3\n    /* \"#utility.yul\":2156:2163   */\n  dup5\n    /* \"#utility.yul\":2152:2175   */\n  sub\n    /* \"#utility.yul\":2148:2180   */\n  slt\n    /* \"#utility.yul\":2145:2197   */\n  iszero\n  tag_67\n  jumpi\n    /* \"#utility.yul\":2193:2194   */\n  0x00\n    /* \"#utility.yul\":2190:2191   */\n  dup1\n    /* \"#utility.yul\":2183:2195   */\n  revert\n    /* \"#utility.yul\":2145:2197   */\ntag_67:\n    /* \"#utility.yul\":2219:2235   */\n  dup2\n  mload\n  sub(shl(0xa0, 0x01), 0x01)\n    /* \"#utility.yul\":2264:2295   */\n  dup2\n  and\n    /* \"#utility.yul\":2254:2296   */\n  dup2\n  eq\n    /* \"#utility.yul\":2244:2314   */\n  tag_57\n  jumpi\n    /* \"#utility.yul\":2310:2311   */\n  0x00\n    /* \"#utility.yul\":2307:2308   */\n  dup1\n    /* \"#utility.yul\":2300:2312   */\n  revert\n    /* \"#utility.yul\":2658:2835   */\ntag_35:\n    /* \"main.sol\":4218:16662  contract SBWager is ERC20, Auth {... */\n  dataSize(sub_0)\n  dup1\n  dataOffset(sub_0)\n  0x00\n  codecopy\n  0x00\n  return\nstop\n\nsub_0: assembly {\n        /* \"main.sol\":4218:16662  contract SBWager is ERC20, Auth {... */\n      mstore(0x40, 0x80)\n      jumpi(tag_1, lt(calldatasize, 0x04))\n      shr(0xe0, calldataload(0x00))\n      dup1\n      0x7b13f8c8\n      gt\n      tag_50\n      jumpi\n      dup1\n      0xd42b92fd\n      gt\n      tag_51\n      jumpi\n      dup1\n      0xe96fada2\n      gt\n      tag_52\n      jumpi\n      dup1\n      0xf887ea40\n      gt\n      tag_53\n      jumpi\n      dup1\n      0xf887ea40\n      eq\n      tag_47\n      jumpi\n      dup1\n      0xfe9fbb80\n      eq\n      tag_48\n      jumpi\n      dup1\n      0xffb54a99\n      eq\n      tag_49\n      jumpi\n      0x00\n      dup1\n      revert\n    tag_53:\n      dup1\n      0xe96fada2\n      eq\n      tag_44\n      jumpi\n      dup1\n      0xf0b37c04\n      eq\n      tag_45\n      jumpi\n      dup1\n      0xf2fde38b\n      eq\n      tag_46\n      jumpi\n      0x00\n      dup1\n      revert\n    tag_52:\n      dup1\n      0xdc62b296\n      gt\n      tag_54\n      jumpi\n      dup1\n      0xdc62b296\n      eq\n      tag_41\n      jumpi\n      dup1\n      0xdd62ed3e\n      eq\n      tag_42\n      jumpi\n      dup1\n      0xdf20fd49\n      eq\n      tag_43\n      jumpi\n      0x00\n      dup1\n      revert\n    tag_54:\n      dup1\n      0xd42b92fd\n      eq\n      tag_38\n      jumpi\n      dup1\n      0xd7c01032\n      eq\n      tag_39\n      jumpi\n      dup1\n      0xdab84ee7\n      eq\n      tag_40\n      jumpi\n      0x00\n      dup1\n      revert\n    tag_51:\n      dup1\n      0xa8aa1b31\n      gt\n      tag_55\n      jumpi\n      dup1\n      0xc9567bf9\n      gt\n      tag_56\n      jumpi\n      dup1\n      0xc9567bf9\n      eq\n      tag_35\n      jumpi\n      dup1\n      0xca33e64c\n      eq\n      tag_36\n      jumpi\n      dup1\n      0xcec10c11\n      eq\n      tag_37\n      jumpi\n      0x00\n      dup1\n      revert\n    tag_56:\n      dup1\n      0xa8aa1b31\n      eq\n      tag_32\n      jumpi\n      dup1\n      0xa9059cbb\n      eq\n      tag_33\n      jumpi\n      dup1\n      0xb6a5d7de\n      eq\n      tag_34\n      jumpi\n      0x00\n      dup1\n      revert\n    tag_55:\n      dup1\n      0x95d89b41\n      gt\n      tag_57\n      jumpi\n      dup1\n      0x95d89b41\n      eq\n      tag_29\n      jumpi\n      dup1\n      0x98118cb4\n      eq\n      tag_30\n      jumpi\n      dup1\n      0x9d608be1\n      eq\n      tag_31\n      jumpi\n      0x00\n      dup1\n      revert\n    tag_57:\n      dup1\n      0x7b13f8c8\n      eq\n      tag_26\n      jumpi\n      dup1\n      0x7d1db4a5\n      eq\n      tag_27\n      jumpi\n      dup1\n      0x893d20e8\n      eq\n      tag_28\n      jumpi\n      0x00\n      dup1\n      revert\n    tag_50:\n      dup1\n      0x2f54bf6e\n      gt\n      tag_58\n      jumpi\n      dup1\n      0x5ba5203f\n      gt\n      tag_59\n      jumpi\n      dup1\n      0x6ddd1713\n      gt\n      tag_60\n      jumpi\n      dup1\n      0x6ddd1713\n      eq\n      tag_23\n      jumpi\n      dup1\n      0x70a08231\n      eq\n      tag_24\n      jumpi\n      dup1\n      0x78109e54\n      eq\n      tag_25\n      jumpi\n      0x00\n      dup1\n      revert\n    tag_60:\n      dup1\n      0x5ba5203f\n      eq\n      tag_20\n      jumpi\n      dup1\n      0x6827e764\n      eq\n      tag_21\n      jumpi\n      dup1\n      0x6b67c4df\n      eq\n      tag_22\n      jumpi\n      0x00\n      dup1\n      revert\n    tag_59:\n      dup1\n      0x410346b3\n      gt\n      tag_61\n      jumpi\n      dup1\n      0x410346b3\n      eq\n      tag_17\n      jumpi\n      dup1\n      0x41db0fe6\n      eq\n      tag_18\n      jumpi\n      dup1\n      0x571ac8b0\n      eq\n      tag_19\n      jumpi\n      0x00\n      dup1\n      revert\n    tag_61:\n      dup1\n      0x2f54bf6e\n      eq\n      tag_14\n      jumpi\n      dup1\n      0x313ce567\n      eq\n      tag_15\n      jumpi\n      dup1\n      0x3cb5df06\n      eq\n      tag_16\n      jumpi\n      0x00\n      dup1\n      revert\n    tag_58:\n      dup1\n      0x18160ddd\n      gt\n      tag_62\n      jumpi\n      dup1\n      0x1df4ccfc\n      gt\n      tag_63\n      jumpi\n      dup1\n      0x1df4ccfc\n      eq\n      tag_11\n      jumpi\n      dup1\n      0x23b872dd\n      eq\n      tag_12\n      jumpi\n      dup1\n      0x2b112e49\n      eq\n      tag_13\n      jumpi\n      0x00\n      dup1\n      revert\n    tag_63:\n      dup1\n      0x18160ddd\n      eq\n      tag_8\n      jumpi\n      dup1\n      0x1c499ab0\n      eq\n      tag_9\n      jumpi\n      dup1\n      0x1da1db5e\n      eq\n      tag_10\n      jumpi\n      0x00\n      dup1\n      revert\n    tag_62:\n      dup1\n      0x06fdde03\n      gt\n      tag_64\n      jumpi\n      dup1\n      0x06fdde03\n      eq\n      tag_5\n      jumpi\n      dup1\n      0x095ea7b3\n      eq\n      tag_6\n      jumpi\n      dup1\n      0x180b0d7e\n      eq\n      tag_7\n      jumpi\n      0x00\n      dup1\n      revert\n    tag_64:\n      dup1\n      0x0445b667\n      eq\n      tag_3\n      jumpi\n      dup1\n      0x0517d13d\n      eq\n      tag_4\n      jumpi\n      0x00\n      dup1\n      revert\n    tag_1:\n      jumpi(tag_2, calldatasize)\n      stop\n    tag_2:\n      0x00\n      dup1\n      revert\n        /* \"main.sol\":5817:5867  uint256 public swapThreshold = _totalSupply / 1000 */\n    tag_3:\n      callvalue\n      dup1\n      iszero\n      tag_67\n      jumpi\n      0x00\n      dup1\n      revert\n    tag_67:\n      pop\n      tag_68\n      sload(0x1a)\n      dup2\n      jump\n    tag_68:\n      mload(0x40)\n        /* \"#utility.yul\":160:185   */\n      swap1\n      dup2\n      mstore\n        /* \"#utility.yul\":148:150   */\n      0x20\n        /* \"#utility.yul\":133:151   */\n      add\n        /* \"main.sol\":5817:5867  uint256 public swapThreshold = _totalSupply / 1000 */\n    tag_70:\n      mload(0x40)\n      dup1\n      swap2\n      sub\n      swap1\n      return\n        /* \"main.sol\":8830:9102  function updateMaxTransaction(uint256 maxTransactionPercent) external onlyOwner {... */\n    tag_4:\n      callvalue\n      dup1\n      iszero\n      tag_72\n      jumpi\n      0x00\n      dup1\n      revert\n    tag_72:\n      pop\n      tag_73\n      tag_74\n      calldatasize\n      0x04\n      tag_75\n      jump\t// in\n    tag_74:\n      tag_76\n      jump\t// in\n    tag_73:\n      stop\n        /* \"main.sol\":7254:7334  function name() external pure override returns (string memory) { return _name; } */\n    tag_5:\n      callvalue\n      dup1\n      iszero\n      tag_77\n      jumpi\n      0x00\n      dup1\n      revert\n    tag_77:\n      pop\n        /* \"main.sol\":7326:7331  _name */\n      0x40\n      dup1\n      mload\n      dup1\n      dup3\n      add\n      swap1\n      swap2\n      mstore\n      0x0f\n      dup2\n      mstore\n      0x5375706572626f776c2057616765720000000000000000000000000000000000\n      0x20\n      dup3\n      add\n      mstore\n        /* \"main.sol\":7254:7334  function name() external pure override returns (string memory) { return _name; } */\n    tag_78:\n      mload(0x40)\n      tag_70\n      swap2\n      swap1\n      tag_81\n      jump\t// in\n        /* \"main.sol\":7676:7892  function approve(address spender, uint256 amount) public override returns (bool) {... */\n    tag_6:\n      callvalue\n      dup1\n      iszero\n      tag_82\n      jumpi\n      0x00\n      dup1\n      revert\n    tag_82:\n      pop\n      tag_83\n      tag_84\n      calldatasize\n      0x04\n      tag_85\n      jump\t// in\n    tag_84:\n      tag_86\n      jump\t// in\n    tag_83:\n      mload(0x40)\n        /* \"#utility.yul\":1578:1592   */\n      swap1\n      iszero\n        /* \"#utility.yul\":1571:1593   */\n      iszero\n        /* \"#utility.yul\":1553:1594   */\n      dup2\n      mstore\n        /* \"#utility.yul\":1541:1543   */\n      0x20\n        /* \"#utility.yul\":1526:1544   */\n      add\n        /* \"main.sol\":7676:7892  function approve(address spender, uint256 amount) public override returns (bool) {... */\n      tag_70\n        /* \"#utility.yul\":1413:1600   */\n      jump\n        /* \"main.sol\":5175:5219  uint256 public constant feeDenominator = 100 */\n    tag_7:\n      callvalue\n      dup1\n      iszero\n      tag_89\n      jumpi\n      0x00\n      dup1\n      revert\n    tag_89:\n      pop\n      tag_68\n        /* \"main.sol\":5216:5219  100 */\n      0x64\n        /* \"main.sol\":5175:5219  uint256 public constant feeDenominator = 100 */\n      dup2\n      jump\n        /* \"main.sol\":6984:7072  function totalSupply() external view override returns (uint256) { return _totalSupply; } */\n    tag_8:\n      callvalue\n      dup1\n      iszero\n      tag_93\n      jumpi\n      0x00\n      dup1\n      revert\n    tag_93:\n      pop\n        /* \"main.sol\":7057:7069  _totalSupply */\n      sload(0x05)\n        /* \"main.sol\":6984:7072  function totalSupply() external view override returns (uint256) { return _totalSupply; } */\n      jump(tag_68)\n        /* \"main.sol\":8572:8822  function updateMaxWallet(uint256 maxWalletPercent) external onlyOwner {... */\n    tag_9:\n      callvalue\n      dup1\n      iszero\n      tag_97\n      jumpi\n      0x00\n      dup1\n      revert\n    tag_97:\n      pop\n      tag_73\n      tag_99\n      calldatasize\n      0x04\n      tag_75\n      jump\t// in\n    tag_99:\n      tag_100\n      jump\t// in\n        /* \"main.sol\":11152:11359  function clearStuckBalance(uint256 amountPercentage) external onlyOwner {... */\n    tag_10:\n      callvalue\n      dup1\n      iszero\n      tag_101\n      jumpi\n      0x00\n      dup1\n      revert\n    tag_101:\n      pop\n      tag_73\n      tag_103\n      calldatasize\n      0x04\n      tag_75\n      jump\t// in\n    tag_103:\n      tag_104\n      jump\t// in\n        /* \"main.sol\":5106:5168  uint256 public totalFee = marketingFee + liquidityFee + devFee */\n    tag_11:\n      callvalue\n      dup1\n      iszero\n      tag_105\n      jumpi\n      0x00\n      dup1\n      revert\n    tag_105:\n      pop\n      tag_68\n      sload(0x10)\n      dup2\n      jump\n        /* \"main.sol\":8194:8564  function transferFrom(address sender, address recipient, uint256 amount) external override returns (bool) {... */\n    tag_12:\n      callvalue\n      dup1\n      iszero\n      tag_109\n      jumpi\n      0x00\n      dup1\n      revert\n    tag_109:\n      pop\n      tag_83\n      tag_111\n      calldatasize\n      0x04\n      tag_112\n      jump\t// in\n    tag_111:\n      tag_113\n      jump\t// in\n        /* \"main.sol\":14051:14193  function getCirculatingSupply() public view returns (uint256) {... */\n    tag_13:\n      callvalue\n      dup1\n      iszero\n      tag_115\n      jumpi\n      0x00\n      dup1\n      revert\n    tag_115:\n      pop\n      tag_68\n      tag_117\n      jump\t// in\n        /* \"main.sol\":2917:3020  function isOwner(address account) public view returns (bool) {... */\n    tag_14:\n      callvalue\n      dup1\n      iszero\n      tag_119\n      jumpi\n      0x00\n      dup1\n      revert\n    tag_119:\n      pop\n      tag_83\n      tag_121\n      calldatasize\n      0x04\n      tag_122\n      jump\t// in\n    tag_121:\n        /* \"main.sol\":2972:2976  bool */\n      0x00\n        /* \"main.sol\":3007:3012  owner */\n      sload\n      sub(shl(0xa0, 0x01), 0x01)\n        /* \"main.sol\":2996:3012  account == owner */\n      swap2\n      dup3\n      and\n        /* \"main.sol\":3007:3012  owner */\n      swap2\n      and\n        /* \"main.sol\":2996:3012  account == owner */\n      eq\n      swap1\n        /* \"main.sol\":2917:3020  function isOwner(address account) public view returns (bool) {... */\n      jump\n        /* \"main.sol\":7078:7158  function decimals() external pure override returns (uint8) { return _decimals; } */\n    tag_15:\n      callvalue\n      dup1\n      iszero\n      tag_125\n      jumpi\n      0x00\n      dup1\n      revert\n    tag_125:\n      pop\n        /* \"main.sol\":4554:4555  4 */\n      0x04\n        /* \"main.sol\":7078:7158  function decimals() external pure override returns (uint8) { return _decimals; } */\n    tag_126:\n      mload(0x40)\n        /* \"#utility.yul\":2490:2494   */\n      0xff\n        /* \"#utility.yul\":2478:2495   */\n      swap1\n      swap2\n      and\n        /* \"#utility.yul\":2460:2496   */\n      dup2\n      mstore\n        /* \"#utility.yul\":2448:2450   */\n      0x20\n        /* \"#utility.yul\":2433:2451   */\n      add\n        /* \"main.sol\":7078:7158  function decimals() external pure override returns (uint8) { return _decimals; } */\n      tag_70\n        /* \"#utility.yul\":2318:2502   */\n      jump\n        /* \"main.sol\":15098:15191  function getChiefsCount() public view returns (uint256) {... */\n    tag_16:\n      callvalue\n      dup1\n      iszero\n      tag_130\n      jumpi\n      0x00\n      dup1\n      revert\n    tag_130:\n      pop\n        /* \"main.sol\":15172:15183  chiefsCount */\n      sload(0x13)\n        /* \"main.sol\":15098:15191  function getChiefsCount() public view returns (uint256) {... */\n      jump(tag_68)\n        /* \"main.sol\":5261:5301  mapping(address => uint8) public choices */\n    tag_17:\n      callvalue\n      dup1\n      iszero\n      tag_134\n      jumpi\n      0x00\n      dup1\n      revert\n    tag_134:\n      pop\n      tag_126\n      tag_136\n      calldatasize\n      0x04\n      tag_122\n      jump\t// in\n    tag_136:\n      mstore(0x20, 0x11)\n      0x00\n      swap1\n      dup2\n      mstore\n      0x40\n      swap1\n      keccak256\n      sload\n      0xff\n      and\n      dup2\n      jump\n        /* \"main.sol\":15199:15292  function getEaglesCount() public view returns (uint256) {... */\n    tag_18:\n      callvalue\n      dup1\n      iszero\n      tag_139\n      jumpi\n      0x00\n      dup1\n      revert\n    tag_139:\n      pop\n        /* \"main.sol\":15273:15284  eaglesCount */\n      sload(0x14)\n        /* \"main.sol\":15199:15292  function getEaglesCount() public view returns (uint256) {... */\n      jump(tag_68)\n        /* \"main.sol\":7900:8022  function approveMax(address spender) external returns (bool) {... */\n    tag_19:\n      callvalue\n      dup1\n      iszero\n      tag_143\n      jumpi\n      0x00\n      dup1\n      revert\n    tag_143:\n      pop\n      tag_83\n      tag_145\n      calldatasize\n      0x04\n      tag_122\n      jump\t// in\n    tag_145:\n      tag_146\n      jump\t// in\n        /* \"main.sol\":15891:16503  function wagerWinnerAmounts(uint8 winner) public view returns (uint256[] memory) {... */\n    tag_20:\n      callvalue\n      dup1\n      iszero\n      tag_148\n      jumpi\n      0x00\n      dup1\n      revert\n    tag_148:\n      pop\n      tag_149\n      tag_150\n      calldatasize\n      0x04\n      tag_151\n      jump\t// in\n    tag_150:\n      tag_152\n      jump\t// in\n    tag_149:\n      mload(0x40)\n      tag_70\n      swap2\n      swap1\n      tag_154\n      jump\t// in\n        /* \"main.sol\":5074:5099  uint256 public devFee = 1 */\n    tag_21:\n      callvalue\n      dup1\n      iszero\n      tag_155\n      jumpi\n      0x00\n      dup1\n      revert\n    tag_155:\n      pop\n      tag_68\n      sload(0x0f)\n      dup2\n      jump\n        /* \"main.sol\":5035:5067  uint256 public marketingFee = 23 */\n    tag_22:\n      callvalue\n      dup1\n      iszero\n      tag_159\n      jumpi\n      0x00\n      dup1\n      revert\n    tag_159:\n      pop\n      tag_68\n      sload(0x0e)\n      dup2\n      jump\n        /* \"main.sol\":5780:5810  bool public swapEnabled = true */\n    tag_23:\n      callvalue\n      dup1\n      iszero\n      tag_163\n      jumpi\n      0x00\n      dup1\n      revert\n    tag_163:\n      pop\n      sload(0x19)\n      tag_83\n      swap1\n      shl(0xa8, 0x01)\n      swap1\n      div\n      0xff\n      and\n      dup2\n      jump\n        /* \"main.sol\":7424:7529  function balanceOf(address account) public view override returns (uint256) { return _balances[account]; } */\n    tag_24:\n      callvalue\n      dup1\n      iszero\n      tag_167\n      jumpi\n      0x00\n      dup1\n      revert\n    tag_167:\n      pop\n      tag_68\n      tag_169\n      calldatasize\n      0x04\n      tag_122\n      jump\t// in\n    tag_169:\n      sub(shl(0xa0, 0x01), 0x01)\n        /* \"main.sol\":7508:7526  _balances[account] */\n      and\n        /* \"main.sol\":7490:7497  uint256 */\n      0x00\n        /* \"main.sol\":7508:7526  _balances[account] */\n      swap1\n      dup2\n      mstore\n        /* \"main.sol\":7508:7517  _balances */\n      0x08\n        /* \"main.sol\":7508:7526  _balances[account] */\n      0x20\n      mstore\n      0x40\n      swap1\n      keccak256\n      sload\n      swap1\n        /* \"main.sol\":7424:7529  function balanceOf(address account) public view override returns (uint256) { return _balances[account]; } */\n      jump\n        /* \"main.sol\":4676:4726  uint256 public _maxWalletToken = _totalSupply / 50 */\n    tag_25:\n      callvalue\n      dup1\n      iszero\n      tag_172\n      jumpi\n      0x00\n      dup1\n      revert\n    tag_172:\n      pop\n      tag_68\n      sload(0x07)\n      dup2\n      jump\n        /* \"main.sol\":11367:11655  function clearContractSells(uint256 amountPercentage) external onlyOwner {... */\n    tag_26:\n      callvalue\n      dup1\n      iszero\n      tag_176\n      jumpi\n      0x00\n      dup1\n      revert\n    tag_176:\n      pop\n      tag_73\n      tag_178\n      calldatasize\n      0x04\n      tag_75\n      jump\t// in\n    tag_178:\n      tag_179\n      jump\t// in\n        /* \"main.sol\":4621:4669  uint256 public _maxTxAmount = _totalSupply / 100 */\n    tag_27:\n      callvalue\n      dup1\n      iszero\n      tag_180\n      jumpi\n      0x00\n      dup1\n      revert\n    tag_180:\n      pop\n      tag_68\n      sload(0x06)\n      dup2\n      jump\n        /* \"main.sol\":7340:7418  function getOwner() external view override returns (address) { return owner; } */\n    tag_28:\n      callvalue\n      dup1\n      iszero\n      tag_184\n      jumpi\n      0x00\n      dup1\n      revert\n    tag_184:\n      pop\n        /* \"main.sol\":7392:7399  address */\n      0x00\n        /* \"main.sol\":7410:7415  owner */\n      sload\n      sub(shl(0xa0, 0x01), 0x01)\n      and\n        /* \"main.sol\":7340:7418  function getOwner() external view override returns (address) { return owner; } */\n    tag_185:\n      mload(0x40)\n      sub(shl(0xa0, 0x01), 0x01)\n        /* \"#utility.yul\":3582:3637   */\n      swap1\n      swap2\n      and\n        /* \"#utility.yul\":3564:3638   */\n      dup2\n      mstore\n        /* \"#utility.yul\":3552:3554   */\n      0x20\n        /* \"#utility.yul\":3537:3555   */\n      add\n        /* \"main.sol\":7340:7418  function getOwner() external view override returns (address) { return owner; } */\n      tag_70\n        /* \"#utility.yul\":3418:3644   */\n      jump\n        /* \"main.sol\":7164:7248  function symbol() external pure override returns (string memory) { return _symbol; } */\n    tag_29:\n      callvalue\n      dup1\n      iszero\n      tag_189\n      jumpi\n      0x00\n      dup1\n      revert\n    tag_189:\n      pop\n        /* \"main.sol\":7238:7245  _symbol */\n      0x40\n      dup1\n      mload\n      dup1\n      dup3\n      add\n      swap1\n      swap2\n      mstore\n      0x03\n      dup2\n      mstore\n      shl(0xe8, 0x534257)\n      0x20\n      dup3\n      add\n      mstore\n        /* \"main.sol\":7164:7248  function symbol() external pure override returns (string memory) { return _symbol; } */\n      jump(tag_78)\n        /* \"main.sol\":4996:5028  uint256 public liquidityFee = 10 */\n    tag_30:\n      callvalue\n      dup1\n      iszero\n      tag_193\n      jumpi\n      0x00\n      dup1\n      revert\n    tag_193:\n      pop\n      tag_68\n      sload(0x0d)\n      dup2\n      jump\n        /* \"main.sol\":15300:15883  function getWagerWinners(uint8 winner) public view returns (address[] memory) {... */\n    tag_31:\n      callvalue\n      dup1\n      iszero\n      tag_197\n      jumpi\n      0x00\n      dup1\n      revert\n    tag_197:\n      pop\n      tag_198\n      tag_199\n      calldatasize\n      0x04\n      tag_151\n      jump\t// in\n    tag_199:\n      tag_200\n      jump\t// in\n    tag_198:\n      mload(0x40)\n      tag_70\n      swap2\n      swap1\n      tag_202\n      jump\t// in\n        /* \"main.sol\":5712:5731  address public pair */\n    tag_32:\n      callvalue\n      dup1\n      iszero\n      tag_203\n      jumpi\n      0x00\n      dup1\n      revert\n    tag_203:\n      pop\n      sload(0x19)\n      tag_185\n      swap1\n      sub(shl(0xa0, 0x01), 0x01)\n      and\n      dup2\n      jump\n        /* \"main.sol\":8030:8186  function transfer(address recipient, uint256 amount) external override returns (bool) {... */\n    tag_33:\n      callvalue\n      dup1\n      iszero\n      tag_207\n      jumpi\n      0x00\n      dup1\n      revert\n    tag_207:\n      pop\n      tag_83\n      tag_209\n      calldatasize\n      0x04\n      tag_85\n      jump\t// in\n    tag_209:\n      tag_210\n      jump\t// in\n        /* \"main.sol\":2648:2742  function authorize(address adr) public onlyOwner {... */\n    tag_34:\n      callvalue\n      dup1\n      iszero\n      tag_212\n      jumpi\n      0x00\n      dup1\n      revert\n    tag_212:\n      pop\n      tag_73\n      tag_214\n      calldatasize\n      0x04\n      tag_122\n      jump\t// in\n    tag_214:\n      tag_215\n      jump\t// in\n        /* \"main.sol\":11663:11742  function openTrading() external onlyOwner {... */\n    tag_35:\n      callvalue\n      dup1\n      iszero\n      tag_216\n      jumpi\n      0x00\n      dup1\n      revert\n    tag_216:\n      pop\n      tag_73\n      tag_218\n      jump\t// in\n        /* \"main.sol\":5558:5594  address public autoLiquidityReceiver */\n    tag_36:\n      callvalue\n      dup1\n      iszero\n      tag_219\n      jumpi\n      0x00\n      dup1\n      revert\n    tag_219:\n      pop\n      sload(0x15)\n      tag_185\n      swap1\n      sub(shl(0xa0, 0x01), 0x01)\n      and\n      dup2\n      jump\n        /* \"main.sol\":13229:13577  function setFees(uint256 _liquidityFee,  uint256 _marketingFee, uint256 _devFee) external onlyOwner {... */\n    tag_37:\n      callvalue\n      dup1\n      iszero\n      tag_223\n      jumpi\n      0x00\n      dup1\n      revert\n    tag_223:\n      pop\n      tag_73\n      tag_225\n      calldatasize\n      0x04\n      tag_226\n      jump\t// in\n    tag_225:\n      tag_227\n      jump\t// in\n        /* \"main.sol\":14384:15090  function addChoice(uint8 choice) public {... */\n    tag_38:\n      callvalue\n      dup1\n      iszero\n      tag_228\n      jumpi\n      0x00\n      dup1\n      revert\n    tag_228:\n      pop\n      tag_73\n      tag_230\n      calldatasize\n      0x04\n      tag_151\n      jump\t// in\n    tag_230:\n      tag_231\n      jump\t// in\n        /* \"main.sol\":13585:13880  function setFeeReceivers(address _autoLiquidityReceiver, address _marketingFeeReceiver, address _devFeeReceiver) external onlyOwner {... */\n    tag_39:\n      callvalue\n      dup1\n      iszero\n      tag_232\n      jumpi\n      0x00\n      dup1\n      revert\n    tag_232:\n      pop\n      tag_73\n      tag_234\n      calldatasize\n      0x04\n      tag_235\n      jump\t// in\n    tag_234:\n      tag_236\n      jump\t// in\n        /* \"main.sol\":5643:5672  address public devFeeReceiver */\n    tag_40:\n      callvalue\n      dup1\n      iszero\n      tag_237\n      jumpi\n      0x00\n      dup1\n      revert\n    tag_237:\n      pop\n      sload(0x17)\n      tag_185\n      swap1\n      sub(shl(0xa0, 0x01), 0x01)\n      and\n      dup2\n      jump\n        /* \"main.sol\":5351:5398  mapping(uint256 => address) public choiceNumber */\n    tag_41:\n      callvalue\n      dup1\n      iszero\n      tag_241\n      jumpi\n      0x00\n      dup1\n      revert\n    tag_241:\n      pop\n      tag_185\n      tag_243\n      calldatasize\n      0x04\n      tag_75\n      jump\t// in\n    tag_243:\n      mstore(0x20, 0x12)\n      0x00\n      swap1\n      dup2\n      mstore\n      0x40\n      swap1\n      keccak256\n      sload\n      sub(shl(0xa0, 0x01), 0x01)\n      and\n      dup2\n      jump\n        /* \"main.sol\":7535:7668  function allowance(address holder, address spender) external view override returns (uint256) { return _allowances[holder][spender]; } */\n    tag_42:\n      callvalue\n      dup1\n      iszero\n      tag_246\n      jumpi\n      0x00\n      dup1\n      revert\n    tag_246:\n      pop\n      tag_68\n      tag_248\n      calldatasize\n      0x04\n      tag_249\n      jump\t// in\n    tag_248:\n      sub(shl(0xa0, 0x01), 0x01)\n        /* \"main.sol\":7637:7656  _allowances[holder] */\n      swap2\n      dup3\n      and\n        /* \"main.sol\":7619:7626  uint256 */\n      0x00\n        /* \"main.sol\":7637:7656  _allowances[holder] */\n      swap1\n      dup2\n      mstore\n        /* \"main.sol\":7637:7648  _allowances */\n      0x09\n        /* \"main.sol\":7637:7656  _allowances[holder] */\n      0x20\n      swap1\n      dup2\n      mstore\n      0x40\n      dup1\n      dup4\n      keccak256\n        /* \"main.sol\":7637:7665  _allowances[holder][spender] */\n      swap4\n      swap1\n      swap5\n      and\n      dup3\n      mstore\n      swap2\n      swap1\n      swap2\n      mstore\n      keccak256\n      sload\n      swap1\n        /* \"main.sol\":7535:7668  function allowance(address holder, address spender) external view override returns (uint256) { return _allowances[holder][spender]; } */\n      jump\n        /* \"main.sol\":13888:14043  function setSwapBackSettings(bool _enabled, uint256 _amount) external onlyOwner {... */\n    tag_43:\n      callvalue\n      dup1\n      iszero\n      tag_252\n      jumpi\n      0x00\n      dup1\n      revert\n    tag_252:\n      pop\n      tag_73\n      tag_254\n      calldatasize\n      0x04\n      tag_255\n      jump\t// in\n    tag_254:\n      tag_256\n      jump\t// in\n        /* \"main.sol\":5601:5636  address public marketingFeeReceiver */\n    tag_44:\n      callvalue\n      dup1\n      iszero\n      tag_257\n      jumpi\n      0x00\n      dup1\n      revert\n    tag_257:\n      pop\n      sload(0x16)\n      tag_185\n      swap1\n      sub(shl(0xa0, 0x01), 0x01)\n      and\n      dup2\n      jump\n        /* \"main.sol\":2750:2909  function unauthorize(address adr) public onlyOwner {... */\n    tag_45:\n      callvalue\n      dup1\n      iszero\n      tag_261\n      jumpi\n      0x00\n      dup1\n      revert\n    tag_261:\n      pop\n      tag_73\n      tag_263\n      calldatasize\n      0x04\n      tag_122\n      jump\t// in\n    tag_263:\n      tag_264\n      jump\t// in\n        /* \"main.sol\":3143:3409  function transferOwnership(address payable adr) public onlyOwner {... */\n    tag_46:\n      callvalue\n      dup1\n      iszero\n      tag_265\n      jumpi\n      0x00\n      dup1\n      revert\n    tag_265:\n      pop\n      tag_73\n      tag_267\n      calldatasize\n      0x04\n      tag_122\n      jump\t// in\n    tag_267:\n      tag_269\n      jump\t// in\n        /* \"main.sol\":5681:5705  IDEXRouter public router */\n    tag_47:\n      callvalue\n      dup1\n      iszero\n      tag_270\n      jumpi\n      0x00\n      dup1\n      revert\n    tag_270:\n      pop\n      sload(0x18)\n      tag_185\n      swap1\n      sub(shl(0xa0, 0x01), 0x01)\n      and\n      dup2\n      jump\n        /* \"main.sol\":3028:3135  function isAuthorized(address adr) public view returns (bool) {... */\n    tag_48:\n      callvalue\n      dup1\n      iszero\n      tag_275\n      jumpi\n      0x00\n      dup1\n      revert\n    tag_275:\n      pop\n      tag_83\n      tag_277\n      calldatasize\n      0x04\n      tag_122\n      jump\t// in\n    tag_277:\n      sub(shl(0xa0, 0x01), 0x01)\n        /* \"main.sol\":3108:3127  authorizations[adr] */\n      and\n        /* \"main.sol\":3084:3088  bool */\n      0x00\n        /* \"main.sol\":3108:3127  authorizations[adr] */\n      swap1\n      dup2\n      mstore\n        /* \"main.sol\":3108:3122  authorizations */\n      0x01\n        /* \"main.sol\":3108:3127  authorizations[adr] */\n      0x20\n      mstore\n      0x40\n      swap1\n      keccak256\n      sload\n      0xff\n      and\n      swap1\n        /* \"main.sol\":3028:3135  function isAuthorized(address adr) public view returns (bool) {... */\n      jump\n        /* \"main.sol\":5740:5771  bool public tradingOpen = false */\n    tag_49:\n      callvalue\n      dup1\n      iszero\n      tag_280\n      jumpi\n      0x00\n      dup1\n      revert\n    tag_280:\n      pop\n      sload(0x19)\n      tag_83\n      swap1\n      shl(0xa0, 0x01)\n      swap1\n      div\n      0xff\n      and\n      dup2\n      jump\n        /* \"main.sol\":8830:9102  function updateMaxTransaction(uint256 maxTransactionPercent) external onlyOwner {... */\n    tag_76:\n        /* \"main.sol\":2972:2976  bool */\n      0x00\n        /* \"main.sol\":3007:3012  owner */\n      sload\n      sub(shl(0xa0, 0x01), 0x01)\n      and\n        /* \"main.sol\":2507:2517  msg.sender */\n      caller\n        /* \"main.sol\":2996:3012  account == owner */\n      eq\n        /* \"main.sol\":2491:2529  require(isOwner(msg.sender), \"!OWNER\") */\n      tag_286\n      jumpi\n      mload(0x40)\n      shl(0xe5, 0x461bcd)\n      dup2\n      mstore\n        /* \"#utility.yul\":6709:6711   */\n      0x20\n        /* \"main.sol\":2491:2529  require(isOwner(msg.sender), \"!OWNER\") */\n      0x04\n      dup3\n      add\n        /* \"#utility.yul\":6691:6712   */\n      mstore\n        /* \"#utility.yul\":6748:6749   */\n      0x06\n        /* \"#utility.yul\":6728:6746   */\n      0x24\n      dup3\n      add\n        /* \"#utility.yul\":6721:6750   */\n      mstore\n      shl(0xd1, 0x10a7aba722a9)\n        /* \"#utility.yul\":6766:6784   */\n      0x44\n      dup3\n      add\n        /* \"#utility.yul\":6759:6795   */\n      mstore\n        /* \"#utility.yul\":6812:6830   */\n      0x64\n      add\n        /* \"main.sol\":2491:2529  require(isOwner(msg.sender), \"!OWNER\") */\n    tag_287:\n      mload(0x40)\n      dup1\n      swap2\n      sub\n      swap1\n      revert\n    tag_286:\n        /* \"main.sol\":8954:8955  1 */\n      0x01\n        /* \"main.sol\":8929:8950  maxTransactionPercent */\n      dup2\n        /* \"main.sol\":8929:8955  maxTransactionPercent >= 1 */\n      lt\n      iszero\n        /* \"main.sol\":8921:8966  require(maxTransactionPercent >= 1, \"Min 1%\") */\n      tag_290\n      jumpi\n      mload(0x40)\n      shl(0xe5, 0x461bcd)\n      dup2\n      mstore\n        /* \"#utility.yul\":7043:7045   */\n      0x20\n        /* \"main.sol\":8921:8966  require(maxTransactionPercent >= 1, \"Min 1%\") */\n      0x04\n      dup3\n      add\n        /* \"#utility.yul\":7025:7046   */\n      mstore\n        /* \"#utility.yul\":7082:7083   */\n      0x06\n        /* \"#utility.yul\":7062:7080   */\n      0x24\n      dup3\n      add\n        /* \"#utility.yul\":7055:7084   */\n      mstore\n        /* \"#utility.yul\":7120:7128   */\n      0x4d696e2031250000000000000000000000000000000000000000000000000000\n        /* \"#utility.yul\":7100:7118   */\n      0x44\n      dup3\n      add\n        /* \"#utility.yul\":7093:7129   */\n      mstore\n        /* \"#utility.yul\":7146:7164   */\n      0x64\n      add\n        /* \"main.sol\":8921:8966  require(maxTransactionPercent >= 1, \"Min 1%\") */\n      tag_287\n        /* \"#utility.yul\":6841:7170   */\n      jump\n        /* \"main.sol\":8921:8966  require(maxTransactionPercent >= 1, \"Min 1%\") */\n    tag_290:\n        /* \"main.sol\":9010:9013  100 */\n      0x64\n        /* \"main.sol\":8985:9006  maxTransactionPercent */\n      dup2\n        /* \"main.sol\":8985:9013  maxTransactionPercent <= 100 */\n      gt\n      iszero\n        /* \"main.sol\":8977:9026  require(maxTransactionPercent <= 100, \"Max 100%\") */\n      tag_293\n      jumpi\n      mload(0x40)\n      shl(0xe5, 0x461bcd)\n      dup2\n      mstore\n        /* \"#utility.yul\":7377:7379   */\n      0x20\n        /* \"main.sol\":8977:9026  require(maxTransactionPercent <= 100, \"Max 100%\") */\n      0x04\n      dup3\n      add\n        /* \"#utility.yul\":7359:7380   */\n      mstore\n        /* \"#utility.yul\":7416:7417   */\n      0x08\n        /* \"#utility.yul\":7396:7414   */\n      0x24\n      dup3\n      add\n        /* \"#utility.yul\":7389:7418   */\n      mstore\n      shl(0xc0, 0x4d61782031303025)\n        /* \"#utility.yul\":7434:7452   */\n      0x44\n      dup3\n      add\n        /* \"#utility.yul\":7427:7465   */\n      mstore\n        /* \"#utility.yul\":7482:7500   */\n      0x64\n      add\n        /* \"main.sol\":8977:9026  require(maxTransactionPercent <= 100, \"Max 100%\") */\n      tag_287\n        /* \"#utility.yul\":7175:7506   */\n      jump\n        /* \"main.sol\":8977:9026  require(maxTransactionPercent <= 100, \"Max 100%\") */\n    tag_293:\n        /* \"main.sol\":9091:9094  100 */\n      0x64\n        /* \"main.sol\":9067:9088  maxTransactionPercent */\n      dup2\n        /* \"main.sol\":9052:9064  _totalSupply */\n      sload(0x05)\n        /* \"main.sol\":9052:9088  _totalSupply * maxTransactionPercent */\n      tag_296\n      swap2\n      swap1\n      tag_297\n      jump\t// in\n    tag_296:\n        /* \"main.sol\":9052:9094  _totalSupply * maxTransactionPercent / 100 */\n      tag_298\n      swap2\n      swap1\n      tag_299\n      jump\t// in\n    tag_298:\n        /* \"main.sol\":9037:9049  _maxTxAmount */\n      0x06\n        /* \"main.sol\":9037:9094  _maxTxAmount = _totalSupply * maxTransactionPercent / 100 */\n      sstore\n      pop\n        /* \"main.sol\":8830:9102  function updateMaxTransaction(uint256 maxTransactionPercent) external onlyOwner {... */\n      jump\t// out\n        /* \"main.sol\":7676:7892  function approve(address spender, uint256 amount) public override returns (bool) {... */\n    tag_86:\n        /* \"main.sol\":7780:7790  msg.sender */\n      caller\n        /* \"main.sol\":7751:7755  bool */\n      0x00\n        /* \"main.sol\":7768:7791  _allowances[msg.sender] */\n      dup2\n      dup2\n      mstore\n        /* \"main.sol\":7768:7779  _allowances */\n      0x09\n        /* \"main.sol\":7768:7791  _allowances[msg.sender] */\n      0x20\n      swap1\n      dup2\n      mstore\n      0x40\n      dup1\n      dup4\n      keccak256\n      sub(shl(0xa0, 0x01), 0x01)\n        /* \"main.sol\":7768:7800  _allowances[msg.sender][spender] */\n      dup8\n      and\n      dup1\n      dup6\n      mstore\n      swap3\n      mstore\n      dup1\n      dup4\n      keccak256\n        /* \"main.sol\":7768:7809  _allowances[msg.sender][spender] = amount */\n      dup6\n      swap1\n      sstore\n        /* \"main.sol\":7825:7862  Approval(msg.sender, spender, amount) */\n      mload\n        /* \"main.sol\":7751:7755  bool */\n      swap2\n      swap3\n        /* \"main.sol\":7768:7800  _allowances[msg.sender][spender] */\n      swap1\n      swap2\n        /* \"main.sol\":7825:7862  Approval(msg.sender, spender, amount) */\n      0x8c5be1e5ebec7d5bd14f71427d1e84f3dd0314c0f7b2291e5b200ac8c7c3b925\n      swap1\n      tag_302\n      swap1\n        /* \"main.sol\":7803:7809  amount */\n      dup7\n        /* \"#utility.yul\":160:185   */\n      dup2\n      mstore\n        /* \"#utility.yul\":148:150   */\n      0x20\n        /* \"#utility.yul\":133:151   */\n      add\n      swap1\n        /* \"#utility.yul\":14:191   */\n      jump\n        /* \"main.sol\":7825:7862  Approval(msg.sender, spender, amount) */\n    tag_302:\n      mload(0x40)\n      dup1\n      swap2\n      sub\n      swap1\n      log3\n      pop\n        /* \"main.sol\":7880:7884  true */\n      0x01\n        /* \"main.sol\":7676:7892  function approve(address spender, uint256 amount) public override returns (bool) {... */\n    tag_301:\n      swap3\n      swap2\n      pop\n      pop\n      jump\t// out\n        /* \"main.sol\":8572:8822  function updateMaxWallet(uint256 maxWalletPercent) external onlyOwner {... */\n    tag_100:\n        /* \"main.sol\":2972:2976  bool */\n      0x00\n        /* \"main.sol\":3007:3012  owner */\n      sload\n      sub(shl(0xa0, 0x01), 0x01)\n      and\n        /* \"main.sol\":2507:2517  msg.sender */\n      caller\n        /* \"main.sol\":2996:3012  account == owner */\n      eq\n        /* \"main.sol\":2491:2529  require(isOwner(msg.sender), \"!OWNER\") */\n      tag_306\n      jumpi\n      mload(0x40)\n      shl(0xe5, 0x461bcd)\n      dup2\n      mstore\n        /* \"#utility.yul\":6709:6711   */\n      0x20\n        /* \"main.sol\":2491:2529  require(isOwner(msg.sender), \"!OWNER\") */\n      0x04\n      dup3\n      add\n        /* \"#utility.yul\":6691:6712   */\n      mstore\n        /* \"#utility.yul\":6748:6749   */\n      0x06\n        /* \"#utility.yul\":6728:6746   */\n      0x24\n      dup3\n      add\n        /* \"#utility.yul\":6721:6750   */\n      mstore\n      shl(0xd1, 0x10a7aba722a9)\n        /* \"#utility.yul\":6766:6784   */\n      0x44\n      dup3\n      add\n        /* \"#utility.yul\":6759:6795   */\n      mstore\n        /* \"#utility.yul\":6812:6830   */\n      0x64\n      add\n        /* \"main.sol\":2491:2529  require(isOwner(msg.sender), \"!OWNER\") */\n      tag_287\n        /* \"#utility.yul\":6507:6836   */\n      jump\n        /* \"main.sol\":2491:2529  require(isOwner(msg.sender), \"!OWNER\") */\n    tag_306:\n        /* \"main.sol\":8681:8682  2 */\n      0x02\n        /* \"main.sol\":8661:8677  maxWalletPercent */\n      dup2\n        /* \"main.sol\":8661:8682  maxWalletPercent >= 2 */\n      lt\n      iszero\n        /* \"main.sol\":8653:8693  require(maxWalletPercent >= 2, \"Min 2%\") */\n      tag_309\n      jumpi\n      mload(0x40)\n      shl(0xe5, 0x461bcd)\n      dup2\n      mstore\n        /* \"#utility.yul\":8240:8242   */\n      0x20\n        /* \"main.sol\":8653:8693  require(maxWalletPercent >= 2, \"Min 2%\") */\n      0x04\n      dup3\n      add\n        /* \"#utility.yul\":8222:8243   */\n      mstore\n        /* \"#utility.yul\":8279:8280   */\n      0x06\n        /* \"#utility.yul\":8259:8277   */\n      0x24\n      dup3\n      add\n        /* \"#utility.yul\":8252:8281   */\n      mstore\n        /* \"#utility.yul\":8317:8325   */\n      0x4d696e2032250000000000000000000000000000000000000000000000000000\n        /* \"#utility.yul\":8297:8315   */\n      0x44\n      dup3\n      add\n        /* \"#utility.yul\":8290:8326   */\n      mstore\n        /* \"#utility.yul\":8343:8361   */\n      0x64\n      add\n        /* \"main.sol\":8653:8693  require(maxWalletPercent >= 2, \"Min 2%\") */\n      tag_287\n        /* \"#utility.yul\":8038:8367   */\n      jump\n        /* \"main.sol\":8653:8693  require(maxWalletPercent >= 2, \"Min 2%\") */\n    tag_309:\n        /* \"main.sol\":8732:8735  100 */\n      0x64\n        /* \"main.sol\":8712:8728  maxWalletPercent */\n      dup2\n        /* \"main.sol\":8712:8735  maxWalletPercent <= 100 */\n      gt\n      iszero\n        /* \"main.sol\":8704:8748  require(maxWalletPercent <= 100, \"Max 100%\") */\n      tag_312\n      jumpi\n      mload(0x40)\n      shl(0xe5, 0x461bcd)\n      dup2\n      mstore\n        /* \"#utility.yul\":7377:7379   */\n      0x20\n        /* \"main.sol\":8704:8748  require(maxWalletPercent <= 100, \"Max 100%\") */\n      0x04\n      dup3\n      add\n        /* \"#utility.yul\":7359:7380   */\n      mstore\n        /* \"#utility.yul\":7416:7417   */\n      0x08\n        /* \"#utility.yul\":7396:7414   */\n      0x24\n      dup3\n      add\n        /* \"#utility.yul\":7389:7418   */\n      mstore\n      shl(0xc0, 0x4d61782031303025)\n        /* \"#utility.yul\":7434:7452   */\n      0x44\n      dup3\n      add\n        /* \"#utility.yul\":7427:7465   */\n      mstore\n        /* \"#utility.yul\":7482:7500   */\n      0x64\n      add\n        /* \"main.sol\":8704:8748  require(maxWalletPercent <= 100, \"Max 100%\") */\n      tag_287\n        /* \"#utility.yul\":7175:7506   */\n      jump\n        /* \"main.sol\":8704:8748  require(maxWalletPercent <= 100, \"Max 100%\") */\n    tag_312:\n        /* \"main.sol\":8811:8814  100 */\n      0x64\n        /* \"main.sol\":8792:8808  maxWalletPercent */\n      dup2\n        /* \"main.sol\":8777:8789  _totalSupply */\n      sload(0x05)\n        /* \"main.sol\":8777:8808  _totalSupply * maxWalletPercent */\n      tag_314\n      swap2\n      swap1\n      tag_297\n      jump\t// in\n    tag_314:\n        /* \"main.sol\":8777:8814  _totalSupply * maxWalletPercent / 100 */\n      tag_315\n      swap2\n      swap1\n      tag_299\n      jump\t// in\n    tag_315:\n        /* \"main.sol\":8759:8774  _maxWalletToken */\n      0x07\n        /* \"main.sol\":8759:8814  _maxWalletToken = _totalSupply * maxWalletPercent / 100 */\n      sstore\n      pop\n        /* \"main.sol\":8572:8822  function updateMaxWallet(uint256 maxWalletPercent) external onlyOwner {... */\n      jump\t// out\n        /* \"main.sol\":11152:11359  function clearStuckBalance(uint256 amountPercentage) external onlyOwner {... */\n    tag_104:\n        /* \"main.sol\":2972:2976  bool */\n      0x00\n        /* \"main.sol\":3007:3012  owner */\n      sload\n      sub(shl(0xa0, 0x01), 0x01)\n      and\n        /* \"main.sol\":2507:2517  msg.sender */\n      caller\n        /* \"main.sol\":2996:3012  account == owner */\n      eq\n        /* \"main.sol\":2491:2529  require(isOwner(msg.sender), \"!OWNER\") */\n      tag_318\n      jumpi\n      mload(0x40)\n      shl(0xe5, 0x461bcd)\n      dup2\n      mstore\n        /* \"#utility.yul\":6709:6711   */\n      0x20\n        /* \"main.sol\":2491:2529  require(isOwner(msg.sender), \"!OWNER\") */\n      0x04\n      dup3\n      add\n        /* \"#utility.yul\":6691:6712   */\n      mstore\n        /* \"#utility.yul\":6748:6749   */\n      0x06\n        /* \"#utility.yul\":6728:6746   */\n      0x24\n      dup3\n      add\n        /* \"#utility.yul\":6721:6750   */\n      mstore\n      shl(0xd1, 0x10a7aba722a9)\n        /* \"#utility.yul\":6766:6784   */\n      0x44\n      dup3\n      add\n        /* \"#utility.yul\":6759:6795   */\n      mstore\n        /* \"#utility.yul\":6812:6830   */\n      0x64\n      add\n        /* \"main.sol\":2491:2529  require(isOwner(msg.sender), \"!OWNER\") */\n      tag_287\n        /* \"#utility.yul\":6507:6836   */\n      jump\n        /* \"main.sol\":2491:2529  require(isOwner(msg.sender), \"!OWNER\") */\n    tag_318:\n        /* \"main.sol\":11255:11276  address(this).balance */\n      selfbalance\n        /* \"main.sol\":11295:11305  msg.sender */\n      caller\n        /* \"main.sol\":11287:11351  payable(msg.sender).transfer(amountETH * amountPercentage / 100) */\n      0x08fc\n        /* \"main.sol\":11347:11350  100 */\n      0x64\n        /* \"main.sol\":11316:11344  amountETH * amountPercentage */\n      tag_321\n        /* \"main.sol\":11328:11344  amountPercentage */\n      dup6\n        /* \"main.sol\":11255:11276  address(this).balance */\n      dup6\n        /* \"main.sol\":11316:11344  amountETH * amountPercentage */\n      tag_297\n      jump\t// in\n    tag_321:\n        /* \"main.sol\":11316:11350  amountETH * amountPercentage / 100 */\n      tag_322\n      swap2\n      swap1\n      tag_299\n      jump\t// in\n    tag_322:\n        /* \"main.sol\":11287:11351  payable(msg.sender).transfer(amountETH * amountPercentage / 100) */\n      mload(0x40)\n      dup2\n      iszero\n      swap1\n      swap3\n      mul\n      swap2\n      0x00\n      dup2\n      dup2\n      dup2\n      dup6\n      dup9\n      dup9\n      call\n      swap4\n      pop\n      pop\n      pop\n      pop\n      iszero\n      dup1\n      iszero\n      tag_324\n      jumpi\n      returndatasize\n      0x00\n      dup1\n      returndatacopy\n      revert(0x00, returndatasize)\n    tag_324:\n      pop\n        /* \"main.sol\":11224:11359  {... */\n      pop\n        /* \"main.sol\":11152:11359  function clearStuckBalance(uint256 amountPercentage) external onlyOwner {... */\n      pop\n      jump\t// out\n        /* \"main.sol\":8194:8564  function transferFrom(address sender, address recipient, uint256 amount) external override returns (bool) {... */\n    tag_113:\n      sub(shl(0xa0, 0x01), 0x01)\n        /* \"main.sol\":8314:8333  _allowances[sender] */\n      dup4\n      and\n        /* \"main.sol\":8294:8298  bool */\n      0x00\n        /* \"main.sol\":8314:8333  _allowances[sender] */\n      swap1\n      dup2\n      mstore\n        /* \"main.sol\":8314:8325  _allowances */\n      0x09\n        /* \"main.sol\":8314:8333  _allowances[sender] */\n      0x20\n      swap1\n      dup2\n      mstore\n      0x40\n      dup1\n      dup4\n      keccak256\n        /* \"main.sol\":8334:8344  msg.sender */\n      caller\n        /* \"main.sol\":8314:8345  _allowances[sender][msg.sender] */\n      dup5\n      mstore\n      swap1\n      swap2\n      mstore\n      dup2\n      keccak256\n      sload\n      not(0x00)\n        /* \"main.sol\":8314:8366  _allowances[sender][msg.sender] != type(uint256).max */\n      eq\n        /* \"main.sol\":8311:8497  if(_allowances[sender][msg.sender] != type(uint256).max){... */\n      tag_326\n      jumpi\n        /* \"main.sol\":8416:8485  _allowances[sender][msg.sender].sub(amount, \"Insufficient Allowance\") */\n      0x40\n      dup1\n      mload\n      dup1\n      dup3\n      add\n      dup3\n      mstore\n      0x16\n      dup2\n      mstore\n      0x496e73756666696369656e7420416c6c6f77616e636500000000000000000000\n      0x20\n      dup1\n      dup4\n      add\n      swap2\n      swap1\n      swap2\n      mstore\n      sub(shl(0xa0, 0x01), 0x01)\n        /* \"main.sol\":8416:8435  _allowances[sender] */\n      dup8\n      and\n      0x00\n      swap1\n      dup2\n      mstore\n        /* \"main.sol\":8416:8427  _allowances */\n      0x09\n        /* \"main.sol\":8416:8435  _allowances[sender] */\n      dup3\n      mstore\n      dup4\n      dup2\n      keccak256\n        /* \"main.sol\":8436:8446  msg.sender */\n      caller\n        /* \"main.sol\":8416:8447  _allowances[sender][msg.sender] */\n      dup3\n      mstore\n      swap1\n      swap2\n      mstore\n      swap2\n      swap1\n      swap2\n      keccak256\n      sload\n        /* \"main.sol\":8416:8485  _allowances[sender][msg.sender].sub(amount, \"Insufficient Allowance\") */\n      tag_327\n      swap2\n        /* \"main.sol\":8452:8458  amount */\n      dup5\n      swap1\n        /* \"main.sol\":8416:8451  _allowances[sender][msg.sender].sub */\n      tag_328\n        /* \"main.sol\":8416:8485  _allowances[sender][msg.sender].sub(amount, \"Insufficient Allowance\") */\n      jump\t// in\n    tag_327:\n      sub(shl(0xa0, 0x01), 0x01)\n        /* \"main.sol\":8382:8401  _allowances[sender] */\n      dup6\n      and\n      0x00\n      swap1\n      dup2\n      mstore\n        /* \"main.sol\":8382:8393  _allowances */\n      0x09\n        /* \"main.sol\":8382:8401  _allowances[sender] */\n      0x20\n      swap1\n      dup2\n      mstore\n      0x40\n      dup1\n      dup4\n      keccak256\n        /* \"main.sol\":8402:8412  msg.sender */\n      caller\n        /* \"main.sol\":8382:8413  _allowances[sender][msg.sender] */\n      dup5\n      mstore\n      swap1\n      swap2\n      mstore\n      swap1\n      keccak256\n        /* \"main.sol\":8382:8485  _allowances[sender][msg.sender] = _allowances[sender][msg.sender].sub(amount, \"Insufficient Allowance\") */\n      sstore\n        /* \"main.sol\":8311:8497  if(_allowances[sender][msg.sender] != type(uint256).max){... */\n    tag_326:\n        /* \"main.sol\":8516:8556  _transferFrom(sender, recipient, amount) */\n      tag_329\n        /* \"main.sol\":8530:8536  sender */\n      dup5\n        /* \"main.sol\":8538:8547  recipient */\n      dup5\n        /* \"main.sol\":8549:8555  amount */\n      dup5\n        /* \"main.sol\":8516:8529  _transferFrom */\n      tag_330\n        /* \"main.sol\":8516:8556  _transferFrom(sender, recipient, amount) */\n      jump\t// in\n    tag_329:\n        /* \"main.sol\":8509:8556  return _transferFrom(sender, recipient, amount) */\n      swap1\n      pop\n        /* \"main.sol\":8194:8564  function transferFrom(address sender, address recipient, uint256 amount) external override returns (bool) {... */\n    tag_325:\n      swap4\n      swap3\n      pop\n      pop\n      pop\n      jump\t// out\n        /* \"main.sol\":14051:14193  function getCirculatingSupply() public view returns (uint256) {... */\n    tag_117:\n        /* \"main.sol\":14179:14183  ZERO */\n      and(sub(shl(0xa0, 0x01), 0x01), sload(0x04))\n        /* \"main.sol\":14104:14111  uint256 */\n      0x00\n        /* \"main.sol\":7508:7526  _balances[account] */\n      swap1\n      dup2\n      mstore\n        /* \"main.sol\":7508:7517  _balances */\n      0x08\n        /* \"main.sol\":7508:7526  _balances[account] */\n      0x20\n      mstore\n      0x40\n      dup2\n      keccak256\n      sload\n        /* \"main.sol\":14131:14185  _totalSupply.sub(balanceOf(DEAD)).sub(balanceOf(ZERO)) */\n      tag_332\n      swap1\n        /* \"main.sol\":14158:14162  DEAD */\n      and(sub(shl(0xa0, 0x01), 0x01), sload(0x03))\n        /* \"main.sol\":7490:7497  uint256 */\n      0x00\n        /* \"main.sol\":7508:7526  _balances[account] */\n      swap1\n      dup2\n      mstore\n        /* \"main.sol\":7508:7517  _balances */\n      0x08\n        /* \"main.sol\":7508:7526  _balances[account] */\n      0x20\n      mstore\n      0x40\n      swap1\n      keccak256\n      sload\n        /* \"main.sol\":14131:14164  _totalSupply.sub(balanceOf(DEAD)) */\n      tag_334\n      swap1\n        /* \"main.sol\":14131:14143  _totalSupply */\n      sload(0x05)\n      swap1\n        /* \"main.sol\":14131:14147  _totalSupply.sub */\n      tag_336\n        /* \"main.sol\":14131:14164  _totalSupply.sub(balanceOf(DEAD)) */\n      jump\t// in\n    tag_334:\n        /* \"main.sol\":14131:14168  _totalSupply.sub(balanceOf(DEAD)).sub */\n      swap1\n      tag_336\n        /* \"main.sol\":14131:14185  _totalSupply.sub(balanceOf(DEAD)).sub(balanceOf(ZERO)) */\n      jump\t// in\n    tag_332:\n        /* \"main.sol\":14124:14185  return _totalSupply.sub(balanceOf(DEAD)).sub(balanceOf(ZERO)) */\n      swap1\n      pop\n        /* \"main.sol\":14051:14193  function getCirculatingSupply() public view returns (uint256) {... */\n      swap1\n      jump\t// out\n        /* \"main.sol\":7900:8022  function approveMax(address spender) external returns (bool) {... */\n    tag_146:\n        /* \"main.sol\":7955:7959  bool */\n      0x00\n        /* \"main.sol\":7979:8014  approve(spender, type(uint256).max) */\n      tag_301\n        /* \"main.sol\":7987:7994  spender */\n      dup3\n      not(0x00)\n        /* \"main.sol\":7979:7986  approve */\n      tag_86\n        /* \"main.sol\":7979:8014  approve(spender, type(uint256).max) */\n      jump\t// in\n        /* \"main.sol\":15891:16503  function wagerWinnerAmounts(uint8 winner) public view returns (uint256[] memory) {... */\n    tag_152:\n        /* \"main.sol\":15954:15970  uint256[] memory */\n      0x60\n        /* \"main.sol\":16035:16059  uint256[] memory amounts */\n      0x00\n        /* \"main.sol\":16090:16101  eaglesCount */\n      sload(0x14)\n        /* \"main.sol\":16076:16087  chiefsCount */\n      sload(0x13)\n        /* \"main.sol\":16076:16101  chiefsCount + eaglesCount */\n      tag_344\n      swap2\n      swap1\n      tag_345\n      jump\t// in\n    tag_344:\n        /* \"main.sol\":16062:16102  new uint256[](chiefsCount + eaglesCount) */\n      0xffffffffffffffff\n      dup2\n      gt\n      iszero\n      tag_347\n      jumpi\n      tag_347\n      tag_348\n      jump\t// in\n    tag_347:\n      mload(0x40)\n      swap1\n      dup1\n      dup3\n      mstore\n      dup1\n      0x20\n      mul\n      0x20\n      add\n      dup3\n      add\n      0x40\n      mstore\n      dup1\n      iszero\n      tag_349\n      jumpi\n      dup2\n      0x20\n      add\n      0x20\n      dup3\n      mul\n      dup1\n      calldatasize\n      dup4\n      calldatacopy\n      add\n      swap1\n      pop\n    tag_349:\n      pop\n        /* \"main.sol\":16035:16102  uint256[] memory amounts = new uint256[](chiefsCount + eaglesCount) */\n      swap1\n      pop\n        /* \"main.sol\":16113:16126  uint256 count */\n      0x00\n        /* \"main.sol\":16183:16192  uint256 i */\n      dup1\n        /* \"main.sol\":16178:16471  for (uint256 i = 0; i < chiefsCount + eaglesCount; i++) {... */\n    tag_350:\n        /* \"main.sol\":16216:16227  eaglesCount */\n      sload(0x14)\n        /* \"main.sol\":16202:16213  chiefsCount */\n      sload(0x13)\n        /* \"main.sol\":16202:16227  chiefsCount + eaglesCount */\n      tag_353\n      swap2\n      swap1\n      tag_345\n      jump\t// in\n    tag_353:\n        /* \"main.sol\":16198:16199  i */\n      dup2\n        /* \"main.sol\":16198:16227  i < chiefsCount + eaglesCount */\n      lt\n        /* \"main.sol\":16178:16471  for (uint256 i = 0; i < chiefsCount + eaglesCount; i++) {... */\n      iszero\n      tag_351\n      jumpi\n        /* \"main.sol\":16253:16277  choices[choiceNumber[i]] */\n      0x00\n        /* \"main.sol\":16261:16276  choiceNumber[i] */\n      dup2\n      dup2\n      mstore\n        /* \"main.sol\":16261:16273  choiceNumber */\n      0x12\n        /* \"main.sol\":16261:16276  choiceNumber[i] */\n      0x20\n      swap1\n      dup2\n      mstore\n      0x40\n      dup1\n      dup4\n      keccak256\n      sload\n      sub(shl(0xa0, 0x01), 0x01)\n      and\n        /* \"main.sol\":16253:16277  choices[choiceNumber[i]] */\n      dup4\n      mstore\n        /* \"main.sol\":16253:16260  choices */\n      0x11\n        /* \"main.sol\":16253:16277  choices[choiceNumber[i]] */\n      swap1\n      swap2\n      mstore\n      swap1\n      keccak256\n      sload\n        /* \"main.sol\":16253:16287  choices[choiceNumber[i]] == winner */\n      0xff\n      dup7\n      dup2\n      and\n        /* \"main.sol\":16253:16277  choices[choiceNumber[i]] */\n      swap2\n      and\n        /* \"main.sol\":16253:16287  choices[choiceNumber[i]] == winner */\n      eq\n        /* \"main.sol\":16253:16339  choices[choiceNumber[i]] == winner && _balances[choiceNumber[i]] >= _totalSupply / 500 */\n      dup1\n      iszero\n      tag_354\n      jumpi\n      pop\n        /* \"main.sol\":16336:16339  500 */\n      0x01f4\n        /* \"main.sol\":16321:16333  _totalSupply */\n      sload(0x05)\n        /* \"main.sol\":16321:16339  _totalSupply / 500 */\n      tag_355\n      swap2\n      swap1\n      tag_299\n      jump\t// in\n    tag_355:\n        /* \"main.sol\":16291:16317  _balances[choiceNumber[i]] */\n      0x00\n        /* \"main.sol\":16301:16316  choiceNumber[i] */\n      dup3\n      dup2\n      mstore\n        /* \"main.sol\":16301:16313  choiceNumber */\n      0x12\n        /* \"main.sol\":16301:16316  choiceNumber[i] */\n      0x20\n      swap1\n      dup2\n      mstore\n      0x40\n      dup1\n      dup4\n      keccak256\n      sload\n      sub(shl(0xa0, 0x01), 0x01)\n      and\n        /* \"main.sol\":16291:16317  _balances[choiceNumber[i]] */\n      dup4\n      mstore\n        /* \"main.sol\":16291:16300  _balances */\n      0x08\n        /* \"main.sol\":16291:16317  _balances[choiceNumber[i]] */\n      swap1\n      swap2\n      mstore\n      swap1\n      keccak256\n      sload\n        /* \"main.sol\":16291:16339  _balances[choiceNumber[i]] >= _totalSupply / 500 */\n      lt\n      iszero\n        /* \"main.sol\":16253:16339  choices[choiceNumber[i]] == winner && _balances[choiceNumber[i]] >= _totalSupply / 500 */\n    tag_354:\n        /* \"main.sol\":16249:16460  if (choices[choiceNumber[i]] == winner && _balances[choiceNumber[i]] >= _totalSupply / 500) {... */\n      iszero\n      tag_356\n      jumpi\n        /* \"main.sol\":16406:16418  _totalSupply */\n      sload(0x05)\n        /* \"main.sol\":16377:16403  _balances[choiceNumber[i]] */\n      0x00\n        /* \"main.sol\":16387:16402  choiceNumber[i] */\n      dup3\n      dup2\n      mstore\n        /* \"main.sol\":16387:16399  choiceNumber */\n      0x12\n        /* \"main.sol\":16387:16402  choiceNumber[i] */\n      0x20\n      swap1\n      dup2\n      mstore\n      0x40\n      dup1\n      dup4\n      keccak256\n      sload\n      sub(shl(0xa0, 0x01), 0x01)\n      and\n        /* \"main.sol\":16377:16403  _balances[choiceNumber[i]] */\n      dup4\n      mstore\n        /* \"main.sol\":16377:16386  _balances */\n      0x08\n        /* \"main.sol\":16377:16403  _balances[choiceNumber[i]] */\n      swap1\n      swap2\n      mstore\n      swap1\n      keccak256\n      sload\n        /* \"main.sol\":16377:16418  _balances[choiceNumber[i]] / _totalSupply */\n      tag_357\n      swap2\n        /* \"main.sol\":16406:16418  _totalSupply */\n      swap1\n        /* \"main.sol\":16377:16418  _balances[choiceNumber[i]] / _totalSupply */\n      tag_299\n      jump\t// in\n    tag_357:\n        /* \"main.sol\":16360:16367  amounts */\n      dup4\n        /* \"main.sol\":16368:16373  count */\n      dup4\n        /* \"main.sol\":16360:16374  amounts[count] */\n      dup2\n      mload\n      dup2\n      lt\n      tag_359\n      jumpi\n      tag_359\n      tag_360\n      jump\t// in\n    tag_359:\n      0x20\n      swap1\n      dup2\n      mul\n      swap2\n      swap1\n      swap2\n      add\n      add\n        /* \"main.sol\":16360:16418  amounts[count] = _balances[choiceNumber[i]] / _totalSupply */\n      mstore\n        /* \"main.sol\":16437:16444  count++ */\n      dup2\n      tag_361\n      dup2\n      tag_362\n      jump\t// in\n    tag_361:\n      swap3\n      pop\n      pop\n        /* \"main.sol\":16249:16460  if (choices[choiceNumber[i]] == winner && _balances[choiceNumber[i]] >= _totalSupply / 500) {... */\n    tag_356:\n        /* \"main.sol\":16229:16232  i++ */\n      dup1\n      tag_363\n      dup2\n      tag_362\n      jump\t// in\n    tag_363:\n      swap2\n      pop\n      pop\n        /* \"main.sol\":16178:16471  for (uint256 i = 0; i < chiefsCount + eaglesCount; i++) {... */\n      jump(tag_350)\n    tag_351:\n      pop\n        /* \"main.sol\":16488:16495  amounts */\n      swap1\n      swap4\n        /* \"main.sol\":15891:16503  function wagerWinnerAmounts(uint8 winner) public view returns (uint256[] memory) {... */\n      swap3\n      pop\n      pop\n      pop\n      jump\t// out\n        /* \"main.sol\":11367:11655  function clearContractSells(uint256 amountPercentage) external onlyOwner {... */\n    tag_179:\n        /* \"main.sol\":2972:2976  bool */\n      0x00\n        /* \"main.sol\":3007:3012  owner */\n      sload\n      sub(shl(0xa0, 0x01), 0x01)\n      and\n        /* \"main.sol\":2507:2517  msg.sender */\n      caller\n        /* \"main.sol\":2996:3012  account == owner */\n      eq\n        /* \"main.sol\":2491:2529  require(isOwner(msg.sender), \"!OWNER\") */\n      tag_367\n      jumpi\n      mload(0x40)\n      shl(0xe5, 0x461bcd)\n      dup2\n      mstore\n        /* \"#utility.yul\":6709:6711   */\n      0x20\n        /* \"main.sol\":2491:2529  require(isOwner(msg.sender), \"!OWNER\") */\n      0x04\n      dup3\n      add\n        /* \"#utility.yul\":6691:6712   */\n      mstore\n        /* \"#utility.yul\":6748:6749   */\n      0x06\n        /* \"#utility.yul\":6728:6746   */\n      0x24\n      dup3\n      add\n        /* \"#utility.yul\":6721:6750   */\n      mstore\n      shl(0xd1, 0x10a7aba722a9)\n        /* \"#utility.yul\":6766:6784   */\n      0x44\n      dup3\n      add\n        /* \"#utility.yul\":6759:6795   */\n      mstore\n        /* \"#utility.yul\":6812:6830   */\n      0x64\n      add\n        /* \"main.sol\":2491:2529  require(isOwner(msg.sender), \"!OWNER\") */\n      tag_287\n        /* \"#utility.yul\":6507:6836   */\n      jump\n        /* \"main.sol\":2491:2529  require(isOwner(msg.sender), \"!OWNER\") */\n    tag_367:\n        /* \"main.sol\":11496:11500  this */\n      address\n        /* \"main.sol\":11451:11475  uint256 tokensInContract */\n      0x00\n        /* \"main.sol\":7508:7526  _balances[account] */\n      swap1\n      dup2\n      mstore\n        /* \"main.sol\":7508:7517  _balances */\n      0x08\n        /* \"main.sol\":7508:7526  _balances[account] */\n      0x20\n      mstore\n      0x40\n      dup2\n      keccak256\n      sload\n      swap1\n        /* \"main.sol\":11536:11583  tokensInContract.mul(amountPercentage).div(100) */\n      tag_371\n        /* \"main.sol\":11579:11582  100 */\n      0x64\n        /* \"main.sol\":11536:11574  tokensInContract.mul(amountPercentage) */\n      tag_372\n        /* \"main.sol\":7508:7526  _balances[account] */\n      dup5\n        /* \"main.sol\":11557:11573  amountPercentage */\n      dup7\n        /* \"main.sol\":11536:11556  tokensInContract.mul */\n      tag_373\n        /* \"main.sol\":11536:11574  tokensInContract.mul(amountPercentage) */\n      jump\t// in\n    tag_372:\n        /* \"main.sol\":11536:11578  tokensInContract.mul(amountPercentage).div */\n      swap1\n      tag_374\n        /* \"main.sol\":11536:11583  tokensInContract.mul(amountPercentage).div(100) */\n      jump\t// in\n    tag_371:\n        /* \"main.sol\":11513:11583  uint256 tokenstosell = tokensInContract.mul(amountPercentage).div(100) */\n      swap1\n      pop\n        /* \"main.sol\":11594:11647  _basicTransfer(address(this),msg.sender,tokenstosell) */\n      tag_375\n        /* \"main.sol\":11617:11621  this */\n      address\n        /* \"main.sol\":11623:11633  msg.sender */\n      caller\n        /* \"main.sol\":11634:11646  tokenstosell */\n      dup4\n        /* \"main.sol\":11594:11608  _basicTransfer */\n      tag_376\n        /* \"main.sol\":11594:11647  _basicTransfer(address(this),msg.sender,tokenstosell) */\n      jump\t// in\n    tag_375:\n      pop\n        /* \"main.sol\":11440:11655  {... */\n      pop\n      pop\n        /* \"main.sol\":11367:11655  function clearContractSells(uint256 amountPercentage) external onlyOwner {... */\n      pop\n      jump\t// out\n        /* \"main.sol\":15300:15883  function getWagerWinners(uint8 winner) public view returns (address[] memory) {... */\n    tag_200:\n        /* \"main.sol\":15360:15376  address[] memory */\n      0x60\n        /* \"main.sol\":15441:15465  address[] memory winners */\n      0x00\n        /* \"main.sol\":15496:15507  eaglesCount */\n      sload(0x14)\n        /* \"main.sol\":15482:15493  chiefsCount */\n      sload(0x13)\n        /* \"main.sol\":15482:15507  chiefsCount + eaglesCount */\n      tag_380\n      swap2\n      swap1\n      tag_345\n      jump\t// in\n    tag_380:\n        /* \"main.sol\":15468:15508  new address[](chiefsCount + eaglesCount) */\n      0xffffffffffffffff\n      dup2\n      gt\n      iszero\n      tag_382\n      jumpi\n      tag_382\n      tag_348\n      jump\t// in\n    tag_382:\n      mload(0x40)\n      swap1\n      dup1\n      dup3\n      mstore\n      dup1\n      0x20\n      mul\n      0x20\n      add\n      dup3\n      add\n      0x40\n      mstore\n      dup1\n      iszero\n      tag_383\n      jumpi\n      dup2\n      0x20\n      add\n      0x20\n      dup3\n      mul\n      dup1\n      calldatasize\n      dup4\n      calldatacopy\n      add\n      swap1\n      pop\n    tag_383:\n      pop\n        /* \"main.sol\":15441:15508  address[] memory winners = new address[](chiefsCount + eaglesCount) */\n      swap1\n      pop\n        /* \"main.sol\":15519:15532  uint256 count */\n      0x00\n        /* \"main.sol\":15589:15598  uint256 i */\n      dup1\n        /* \"main.sol\":15584:15851  for (uint256 i = 0; i < chiefsCount + eaglesCount; i++) {... */\n    tag_384:\n        /* \"main.sol\":15622:15633  eaglesCount */\n      sload(0x14)\n        /* \"main.sol\":15608:15619  chiefsCount */\n      sload(0x13)\n        /* \"main.sol\":15608:15633  chiefsCount + eaglesCount */\n      tag_387\n      swap2\n      swap1\n      tag_345\n      jump\t// in\n    tag_387:\n        /* \"main.sol\":15604:15605  i */\n      dup2\n        /* \"main.sol\":15604:15633  i < chiefsCount + eaglesCount */\n      lt\n        /* \"main.sol\":15584:15851  for (uint256 i = 0; i < chiefsCount + eaglesCount; i++) {... */\n      iszero\n      tag_351\n      jumpi\n        /* \"main.sol\":15659:15683  choices[choiceNumber[i]] */\n      0x00\n        /* \"main.sol\":15667:15682  choiceNumber[i] */\n      dup2\n      dup2\n      mstore\n        /* \"main.sol\":15667:15679  choiceNumber */\n      0x12\n        /* \"main.sol\":15667:15682  choiceNumber[i] */\n      0x20\n      swap1\n      dup2\n      mstore\n      0x40\n      dup1\n      dup4\n      keccak256\n      sload\n      sub(shl(0xa0, 0x01), 0x01)\n      and\n        /* \"main.sol\":15659:15683  choices[choiceNumber[i]] */\n      dup4\n      mstore\n        /* \"main.sol\":15659:15666  choices */\n      0x11\n        /* \"main.sol\":15659:15683  choices[choiceNumber[i]] */\n      swap1\n      swap2\n      mstore\n      swap1\n      keccak256\n      sload\n        /* \"main.sol\":15659:15693  choices[choiceNumber[i]] == winner */\n      0xff\n      dup7\n      dup2\n      and\n        /* \"main.sol\":15659:15683  choices[choiceNumber[i]] */\n      swap2\n      and\n        /* \"main.sol\":15659:15693  choices[choiceNumber[i]] == winner */\n      eq\n        /* \"main.sol\":15659:15745  choices[choiceNumber[i]] == winner && _balances[choiceNumber[i]] >= _totalSupply / 500 */\n      dup1\n      iszero\n      tag_388\n      jumpi\n      pop\n        /* \"main.sol\":15742:15745  500 */\n      0x01f4\n        /* \"main.sol\":15727:15739  _totalSupply */\n      sload(0x05)\n        /* \"main.sol\":15727:15745  _totalSupply / 500 */\n      tag_389\n      swap2\n      swap1\n      tag_299\n      jump\t// in\n    tag_389:\n        /* \"main.sol\":15697:15723  _balances[choiceNumber[i]] */\n      0x00\n        /* \"main.sol\":15707:15722  choiceNumber[i] */\n      dup3\n      dup2\n      mstore\n        /* \"main.sol\":15707:15719  choiceNumber */\n      0x12\n        /* \"main.sol\":15707:15722  choiceNumber[i] */\n      0x20\n      swap1\n      dup2\n      mstore\n      0x40\n      dup1\n      dup4\n      keccak256\n      sload\n      sub(shl(0xa0, 0x01), 0x01)\n      and\n        /* \"main.sol\":15697:15723  _balances[choiceNumber[i]] */\n      dup4\n      mstore\n        /* \"main.sol\":15697:15706  _balances */\n      0x08\n        /* \"main.sol\":15697:15723  _balances[choiceNumber[i]] */\n      swap1\n      swap2\n      mstore\n      swap1\n      keccak256\n      sload\n        /* \"main.sol\":15697:15745  _balances[choiceNumber[i]] >= _totalSupply / 500 */\n      lt\n      iszero\n        /* \"main.sol\":15659:15745  choices[choiceNumber[i]] == winner && _balances[choiceNumber[i]] >= _totalSupply / 500 */\n    tag_388:\n        /* \"main.sol\":15655:15840  if (choices[choiceNumber[i]] == winner && _balances[choiceNumber[i]] >= _totalSupply / 500) {... */\n      iszero\n      tag_390\n      jumpi\n        /* \"main.sol\":15783:15798  choiceNumber[i] */\n      0x00\n      dup2\n      dup2\n      mstore\n        /* \"main.sol\":15783:15795  choiceNumber */\n      0x12\n        /* \"main.sol\":15783:15798  choiceNumber[i] */\n      0x20\n      mstore\n      0x40\n      swap1\n      keccak256\n      sload\n        /* \"main.sol\":15766:15780  winners[count] */\n      dup4\n      mload\n      sub(shl(0xa0, 0x01), 0x01)\n        /* \"main.sol\":15783:15798  choiceNumber[i] */\n      swap1\n      swap2\n      and\n      swap1\n        /* \"main.sol\":15766:15773  winners */\n      dup5\n      swap1\n        /* \"main.sol\":15774:15779  count */\n      dup5\n      swap1\n        /* \"main.sol\":15766:15780  winners[count] */\n      dup2\n      lt\n      tag_392\n      jumpi\n      tag_392\n      tag_360\n      jump\t// in\n    tag_392:\n      sub(shl(0xa0, 0x01), 0x01)\n        /* \"main.sol\":15766:15798  winners[count] = choiceNumber[i] */\n      swap1\n      swap3\n      and\n        /* \"main.sol\":15766:15780  winners[count] */\n      0x20\n      swap3\n      dup4\n      mul\n      swap2\n      swap1\n      swap2\n      add\n      swap1\n      swap2\n      add\n        /* \"main.sol\":15766:15798  winners[count] = choiceNumber[i] */\n      mstore\n        /* \"main.sol\":15817:15824  count++ */\n      dup2\n      tag_393\n      dup2\n      tag_362\n      jump\t// in\n    tag_393:\n      swap3\n      pop\n      pop\n        /* \"main.sol\":15655:15840  if (choices[choiceNumber[i]] == winner && _balances[choiceNumber[i]] >= _totalSupply / 500) {... */\n    tag_390:\n        /* \"main.sol\":15635:15638  i++ */\n      dup1\n      tag_394\n      dup2\n      tag_362\n      jump\t// in\n    tag_394:\n      swap2\n      pop\n      pop\n        /* \"main.sol\":15584:15851  for (uint256 i = 0; i < chiefsCount + eaglesCount; i++) {... */\n      jump(tag_384)\n        /* \"main.sol\":8030:8186  function transfer(address recipient, uint256 amount) external override returns (bool) {... */\n    tag_210:\n        /* \"main.sol\":8110:8114  bool */\n      0x00\n        /* \"main.sol\":8134:8178  _transferFrom(msg.sender, recipient, amount) */\n      tag_325\n        /* \"main.sol\":8148:8158  msg.sender */\n      caller\n        /* \"main.sol\":8160:8169  recipient */\n      dup5\n        /* \"main.sol\":8171:8177  amount */\n      dup5\n        /* \"main.sol\":8134:8147  _transferFrom */\n      tag_330\n        /* \"main.sol\":8134:8178  _transferFrom(msg.sender, recipient, amount) */\n      jump\t// in\n        /* \"main.sol\":2648:2742  function authorize(address adr) public onlyOwner {... */\n    tag_215:\n        /* \"main.sol\":2972:2976  bool */\n      0x00\n        /* \"main.sol\":3007:3012  owner */\n      sload\n      sub(shl(0xa0, 0x01), 0x01)\n      and\n        /* \"main.sol\":2507:2517  msg.sender */\n      caller\n        /* \"main.sol\":2996:3012  account == owner */\n      eq\n        /* \"main.sol\":2491:2529  require(isOwner(msg.sender), \"!OWNER\") */\n      tag_399\n      jumpi\n      mload(0x40)\n      shl(0xe5, 0x461bcd)\n      dup2\n      mstore\n        /* \"#utility.yul\":6709:6711   */\n      0x20\n        /* \"main.sol\":2491:2529  require(isOwner(msg.sender), \"!OWNER\") */\n      0x04\n      dup3\n      add\n        /* \"#utility.yul\":6691:6712   */\n      mstore\n        /* \"#utility.yul\":6748:6749   */\n      0x06\n        /* \"#utility.yul\":6728:6746   */\n      0x24\n      dup3\n      add\n        /* \"#utility.yul\":6721:6750   */\n      mstore\n      shl(0xd1, 0x10a7aba722a9)\n        /* \"#utility.yul\":6766:6784   */\n      0x44\n      dup3\n      add\n        /* \"#utility.yul\":6759:6795   */\n      mstore\n        /* \"#utility.yul\":6812:6830   */\n      0x64\n      add\n        /* \"main.sol\":2491:2529  require(isOwner(msg.sender), \"!OWNER\") */\n      tag_287\n        /* \"#utility.yul\":6507:6836   */\n      jump\n        /* \"main.sol\":2491:2529  require(isOwner(msg.sender), \"!OWNER\") */\n    tag_399:\n      sub(shl(0xa0, 0x01), 0x01)\n        /* \"main.sol\":2708:2727  authorizations[adr] */\n      and\n      0x00\n      swap1\n      dup2\n      mstore\n        /* \"main.sol\":2730:2734  true */\n      0x01\n        /* \"main.sol\":2708:2727  authorizations[adr] */\n      0x20\n      dup2\n      swap1\n      mstore\n      0x40\n      swap1\n      swap2\n      keccak256\n        /* \"main.sol\":2708:2734  authorizations[adr] = true */\n      dup1\n      sload\n      not(0xff)\n      and\n      swap1\n      swap2\n      or\n      swap1\n      sstore\n        /* \"main.sol\":2648:2742  function authorize(address adr) public onlyOwner {... */\n      jump\t// out\n        /* \"main.sol\":11663:11742  function openTrading() external onlyOwner {... */\n    tag_218:\n        /* \"main.sol\":2972:2976  bool */\n      0x00\n        /* \"main.sol\":3007:3012  owner */\n      sload\n      sub(shl(0xa0, 0x01), 0x01)\n      and\n        /* \"main.sol\":2507:2517  msg.sender */\n      caller\n        /* \"main.sol\":2996:3012  account == owner */\n      eq\n        /* \"main.sol\":2491:2529  require(isOwner(msg.sender), \"!OWNER\") */\n      tag_404\n      jumpi\n      mload(0x40)\n      shl(0xe5, 0x461bcd)\n      dup2\n      mstore\n        /* \"#utility.yul\":6709:6711   */\n      0x20\n        /* \"main.sol\":2491:2529  require(isOwner(msg.sender), \"!OWNER\") */\n      0x04\n      dup3\n      add\n        /* \"#utility.yul\":6691:6712   */\n      mstore\n        /* \"#utility.yul\":6748:6749   */\n      0x06\n        /* \"#utility.yul\":6728:6746   */\n      0x24\n      dup3\n      add\n        /* \"#utility.yul\":6721:6750   */\n      mstore\n      shl(0xd1, 0x10a7aba722a9)\n        /* \"#utility.yul\":6766:6784   */\n      0x44\n      dup3\n      add\n        /* \"#utility.yul\":6759:6795   */\n      mstore\n        /* \"#utility.yul\":6812:6830   */\n      0x64\n      add\n        /* \"main.sol\":2491:2529  require(isOwner(msg.sender), \"!OWNER\") */\n      tag_287\n        /* \"#utility.yul\":6507:6836   */\n      jump\n        /* \"main.sol\":2491:2529  require(isOwner(msg.sender), \"!OWNER\") */\n    tag_404:\n        /* \"main.sol\":11716:11727  tradingOpen */\n      0x19\n        /* \"main.sol\":11716:11734  tradingOpen = true */\n      dup1\n      sload\n      0xffffffffffffffffffffff00ffffffffffffffffffffffffffffffffffffffff\n      and\n      shl(0xa0, 0x01)\n      or\n      swap1\n      sstore\n        /* \"main.sol\":11663:11742  function openTrading() external onlyOwner {... */\n      jump\t// out\n        /* \"main.sol\":13229:13577  function setFees(uint256 _liquidityFee,  uint256 _marketingFee, uint256 _devFee) external onlyOwner {... */\n    tag_227:\n        /* \"main.sol\":2972:2976  bool */\n      0x00\n        /* \"main.sol\":3007:3012  owner */\n      sload\n      sub(shl(0xa0, 0x01), 0x01)\n      and\n        /* \"main.sol\":2507:2517  msg.sender */\n      caller\n        /* \"main.sol\":2996:3012  account == owner */\n      eq\n        /* \"main.sol\":2491:2529  require(isOwner(msg.sender), \"!OWNER\") */\n      tag_409\n      jumpi\n      mload(0x40)\n      shl(0xe5, 0x461bcd)\n      dup2\n      mstore\n        /* \"#utility.yul\":6709:6711   */\n      0x20\n        /* \"main.sol\":2491:2529  require(isOwner(msg.sender), \"!OWNER\") */\n      0x04\n      dup3\n      add\n        /* \"#utility.yul\":6691:6712   */\n      mstore\n        /* \"#utility.yul\":6748:6749   */\n      0x06\n        /* \"#utility.yul\":6728:6746   */\n      0x24\n      dup3\n      add\n        /* \"#utility.yul\":6721:6750   */\n      mstore\n      shl(0xd1, 0x10a7aba722a9)\n        /* \"#utility.yul\":6766:6784   */\n      0x44\n      dup3\n      add\n        /* \"#utility.yul\":6759:6795   */\n      mstore\n        /* \"#utility.yul\":6812:6830   */\n      0x64\n      add\n        /* \"main.sol\":2491:2529  require(isOwner(msg.sender), \"!OWNER\") */\n      tag_287\n        /* \"#utility.yul\":6507:6836   */\n      jump\n        /* \"main.sol\":2491:2529  require(isOwner(msg.sender), \"!OWNER\") */\n    tag_409:\n        /* \"main.sol\":13340:13352  liquidityFee */\n      0x0d\n        /* \"main.sol\":13340:13368  liquidityFee = _liquidityFee */\n      dup4\n      swap1\n      sstore\n        /* \"main.sol\":13379:13391  marketingFee */\n      0x0e\n        /* \"main.sol\":13379:13407  marketingFee = _marketingFee */\n      dup3\n      swap1\n      sstore\n        /* \"main.sol\":13418:13424  devFee */\n      0x0f\n        /* \"main.sol\":13418:13434  devFee = _devFee */\n      dup2\n      swap1\n      sstore\n        /* \"main.sol\":13427:13434  _devFee */\n      dup1\n        /* \"main.sol\":13456:13485  _liquidityFee + _marketingFee */\n      tag_412\n        /* \"main.sol\":13394:13407  _marketingFee */\n      dup4\n        /* \"main.sol\":13355:13368  _liquidityFee */\n      dup6\n        /* \"main.sol\":13456:13485  _liquidityFee + _marketingFee */\n      tag_345\n      jump\t// in\n    tag_412:\n        /* \"main.sol\":13456:13495  _liquidityFee + _marketingFee + _devFee */\n      tag_413\n      swap2\n      swap1\n      tag_345\n      jump\t// in\n    tag_413:\n        /* \"main.sol\":13445:13453  totalFee */\n      0x10\n        /* \"main.sol\":13445:13495  totalFee = _liquidityFee + _marketingFee + _devFee */\n      dup2\n      swap1\n      sstore\n        /* \"main.sol\":13535:13537  21 */\n      0x15\n      gt\n        /* \"main.sol\":13516:13569  require(totalFee < 21, \"Tax cannot be more than 20%\") */\n      tag_324\n      jumpi\n      mload(0x40)\n      shl(0xe5, 0x461bcd)\n      dup2\n      mstore\n        /* \"#utility.yul\":9108:9110   */\n      0x20\n        /* \"main.sol\":13516:13569  require(totalFee < 21, \"Tax cannot be more than 20%\") */\n      0x04\n      dup3\n      add\n        /* \"#utility.yul\":9090:9111   */\n      mstore\n        /* \"#utility.yul\":9147:9149   */\n      0x1b\n        /* \"#utility.yul\":9127:9145   */\n      0x24\n      dup3\n      add\n        /* \"#utility.yul\":9120:9150   */\n      mstore\n        /* \"#utility.yul\":9186:9215   */\n      0x5461782063616e6e6f74206265206d6f7265207468616e203230250000000000\n        /* \"#utility.yul\":9166:9184   */\n      0x44\n      dup3\n      add\n        /* \"#utility.yul\":9159:9216   */\n      mstore\n        /* \"#utility.yul\":9233:9251   */\n      0x64\n      add\n        /* \"main.sol\":13516:13569  require(totalFee < 21, \"Tax cannot be more than 20%\") */\n      tag_287\n        /* \"#utility.yul\":8906:9257   */\n      jump\n        /* \"main.sol\":14384:15090  function addChoice(uint8 choice) public {... */\n    tag_231:\n        /* \"main.sol\":14483:14486  500 */\n      0x01f4\n        /* \"main.sol\":14468:14480  _totalSupply */\n      sload(0x05)\n        /* \"main.sol\":14468:14486  _totalSupply / 500 */\n      tag_418\n      swap2\n      swap1\n      tag_299\n      jump\t// in\n    tag_418:\n        /* \"main.sol\":14453:14463  msg.sender */\n      caller\n        /* \"main.sol\":14443:14464  _balances[msg.sender] */\n      0x00\n      swap1\n      dup2\n      mstore\n        /* \"main.sol\":14443:14452  _balances */\n      0x08\n        /* \"main.sol\":14443:14464  _balances[msg.sender] */\n      0x20\n      mstore\n      0x40\n      swap1\n      keccak256\n      sload\n        /* \"main.sol\":14443:14486  _balances[msg.sender] >= _totalSupply / 500 */\n      lt\n      iszero\n        /* \"main.sol\":14435:14512  require(_balances[msg.sender] >= _totalSupply / 500, \"You need to hold more\") */\n      tag_419\n      jumpi\n      mload(0x40)\n      shl(0xe5, 0x461bcd)\n      dup2\n      mstore\n        /* \"#utility.yul\":9464:9466   */\n      0x20\n        /* \"main.sol\":14435:14512  require(_balances[msg.sender] >= _totalSupply / 500, \"You need to hold more\") */\n      0x04\n      dup3\n      add\n        /* \"#utility.yul\":9446:9467   */\n      mstore\n        /* \"#utility.yul\":9503:9505   */\n      0x15\n        /* \"#utility.yul\":9483:9501   */\n      0x24\n      dup3\n      add\n        /* \"#utility.yul\":9476:9506   */\n      mstore\n        /* \"#utility.yul\":9542:9565   */\n      0x596f75206e65656420746f20686f6c64206d6f72650000000000000000000000\n        /* \"#utility.yul\":9522:9540   */\n      0x44\n      dup3\n      add\n        /* \"#utility.yul\":9515:9566   */\n      mstore\n        /* \"#utility.yul\":9583:9601   */\n      0x64\n      add\n        /* \"main.sol\":14435:14512  require(_balances[msg.sender] >= _totalSupply / 500, \"You need to hold more\") */\n      tag_287\n        /* \"#utility.yul\":9262:9607   */\n      jump\n        /* \"main.sol\":14435:14512  require(_balances[msg.sender] >= _totalSupply / 500, \"You need to hold more\") */\n    tag_419:\n        /* \"main.sol\":14583:14589  choice */\n      dup1\n        /* \"main.sol\":14583:14594  choice == 1 */\n      0xff\n      and\n        /* \"main.sol\":14593:14594  1 */\n      0x01\n        /* \"main.sol\":14583:14594  choice == 1 */\n      eq\n        /* \"main.sol\":14583:14609  choice == 1 || choice == 2 */\n      dup1\n      tag_422\n      jumpi\n      pop\n        /* \"main.sol\":14598:14604  choice */\n      dup1\n        /* \"main.sol\":14598:14609  choice == 2 */\n      0xff\n      and\n        /* \"main.sol\":14608:14609  2 */\n      0x02\n        /* \"main.sol\":14598:14609  choice == 2 */\n      eq\n        /* \"main.sol\":14583:14609  choice == 1 || choice == 2 */\n    tag_422:\n        /* \"main.sol\":14575:14633  require(choice == 1 || choice == 2, \"Not choosing a team\") */\n      tag_423\n      jumpi\n      mload(0x40)\n      shl(0xe5, 0x461bcd)\n      dup2\n      mstore\n        /* \"#utility.yul\":9814:9816   */\n      0x20\n        /* \"main.sol\":14575:14633  require(choice == 1 || choice == 2, \"Not choosing a team\") */\n      0x04\n      dup3\n      add\n        /* \"#utility.yul\":9796:9817   */\n      mstore\n        /* \"#utility.yul\":9853:9855   */\n      0x13\n        /* \"#utility.yul\":9833:9851   */\n      0x24\n      dup3\n      add\n        /* \"#utility.yul\":9826:9856   */\n      mstore\n        /* \"#utility.yul\":9892:9913   */\n      0x4e6f742063686f6f73696e672061207465616d00000000000000000000000000\n        /* \"#utility.yul\":9872:9890   */\n      0x44\n      dup3\n      add\n        /* \"#utility.yul\":9865:9914   */\n      mstore\n        /* \"#utility.yul\":9931:9949   */\n      0x64\n      add\n        /* \"main.sol\":14575:14633  require(choice == 1 || choice == 2, \"Not choosing a team\") */\n      tag_287\n        /* \"#utility.yul\":9612:9955   */\n      jump\n        /* \"main.sol\":14575:14633  require(choice == 1 || choice == 2, \"Not choosing a team\") */\n    tag_423:\n        /* \"main.sol\":14715:14725  msg.sender */\n      caller\n        /* \"main.sol\":14707:14726  choices[msg.sender] */\n      0x00\n      swap1\n      dup2\n      mstore\n        /* \"main.sol\":14707:14714  choices */\n      0x11\n        /* \"main.sol\":14707:14726  choices[msg.sender] */\n      0x20\n      mstore\n      0x40\n      swap1\n      keccak256\n      sload\n      0xff\n      and\n        /* \"main.sol\":14707:14731  choices[msg.sender] == 0 */\n      iszero\n        /* \"main.sol\":14699:14766  require(choices[msg.sender] == 0, \"You have already chosen a team\") */\n      tag_426\n      jumpi\n      mload(0x40)\n      shl(0xe5, 0x461bcd)\n      dup2\n      mstore\n        /* \"#utility.yul\":10162:10164   */\n      0x20\n        /* \"main.sol\":14699:14766  require(choices[msg.sender] == 0, \"You have already chosen a team\") */\n      0x04\n      dup3\n      add\n        /* \"#utility.yul\":10144:10165   */\n      mstore\n        /* \"#utility.yul\":10201:10203   */\n      0x1e\n        /* \"#utility.yul\":10181:10199   */\n      0x24\n      dup3\n      add\n        /* \"#utility.yul\":10174:10204   */\n      mstore\n        /* \"#utility.yul\":10240:10272   */\n      0x596f75206861766520616c72656164792063686f73656e2061207465616d0000\n        /* \"#utility.yul\":10220:10238   */\n      0x44\n      dup3\n      add\n        /* \"#utility.yul\":10213:10273   */\n      mstore\n        /* \"#utility.yul\":10290:10308   */\n      0x64\n      add\n        /* \"main.sol\":14699:14766  require(choices[msg.sender] == 0, \"You have already chosen a team\") */\n      tag_287\n        /* \"#utility.yul\":9960:10314   */\n      jump\n        /* \"main.sol\":14699:14766  require(choices[msg.sender] == 0, \"You have already chosen a team\") */\n    tag_426:\n        /* \"main.sol\":14841:14851  msg.sender */\n      caller\n        /* \"main.sol\":14833:14852  choices[msg.sender] */\n      0x00\n      dup2\n      dup2\n      mstore\n        /* \"main.sol\":14833:14840  choices */\n      0x11\n        /* \"main.sol\":14833:14852  choices[msg.sender] */\n      0x20\n      mstore\n      0x40\n      dup2\n      keccak256\n        /* \"main.sol\":14833:14861  choices[msg.sender] = choice */\n      dup1\n      sload\n      not(0xff)\n      and\n      0xff\n      dup6\n      and\n      or\n      swap1\n      sstore\n        /* \"main.sol\":14897:14908  chiefsCount */\n      sload(0x13)\n        /* \"main.sol\":14885:14896  eaglesCount */\n      sload(0x14)\n        /* \"main.sol\":14872:14884  choiceNumber */\n      0x12\n      swap3\n        /* \"main.sol\":14833:14852  choices[msg.sender] */\n      swap2\n        /* \"main.sol\":14885:14908  eaglesCount+chiefsCount */\n      tag_429\n      swap2\n      tag_345\n      jump\t// in\n    tag_429:\n        /* \"main.sol\":14872:14909  choiceNumber[eaglesCount+chiefsCount] */\n      dup2\n      mstore\n      0x20\n      add\n      swap1\n      dup2\n      mstore\n      0x20\n      add\n      0x00\n      keccak256\n      0x00\n        /* \"main.sol\":14872:14922  choiceNumber[eaglesCount+chiefsCount] = msg.sender */\n      0x0100\n      exp\n      dup2\n      sload\n      dup2\n      sub(shl(0xa0, 0x01), 0x01)\n      mul\n      not\n      and\n      swap1\n      dup4\n      sub(shl(0xa0, 0x01), 0x01)\n      and\n      mul\n      or\n      swap1\n      sstore\n      pop\n        /* \"main.sol\":14993:14999  choice */\n      dup1\n        /* \"main.sol\":14993:15004  choice == 1 */\n      0xff\n      and\n        /* \"main.sol\":15003:15004  1 */\n      0x01\n        /* \"main.sol\":14993:15004  choice == 1 */\n      eq\n        /* \"main.sol\":14993:15036  choice == 1 ? chiefsCount++ : eaglesCount++ */\n      tag_430\n      jumpi\n        /* \"main.sol\":15023:15034  eaglesCount */\n      0x14\n        /* \"main.sol\":15023:15036  eaglesCount++ */\n      dup1\n      sload\n      swap1\n        /* \"main.sol\":15023:15034  eaglesCount */\n      0x00\n        /* \"main.sol\":15023:15036  eaglesCount++ */\n      tag_431\n      dup4\n      tag_362\n      jump\t// in\n    tag_431:\n      swap2\n      swap1\n      pop\n      sstore\n        /* \"main.sol\":14993:15036  choice == 1 ? chiefsCount++ : eaglesCount++ */\n      jump(tag_432)\n    tag_430:\n        /* \"main.sol\":15007:15018  chiefsCount */\n      0x13\n        /* \"main.sol\":15007:15020  chiefsCount++ */\n      dup1\n      sload\n      swap1\n        /* \"main.sol\":15007:15018  chiefsCount */\n      0x00\n        /* \"main.sol\":15007:15020  chiefsCount++ */\n      tag_433\n      dup4\n      tag_362\n      jump\t// in\n    tag_433:\n      swap2\n      swap1\n      pop\n      sstore\n        /* \"main.sol\":14993:15036  choice == 1 ? chiefsCount++ : eaglesCount++ */\n    tag_432:\n      pop\n        /* \"main.sol\":15052:15082  VoteCasted(msg.sender, choice) */\n      0x40\n      dup1\n      mload\n        /* \"main.sol\":15063:15073  msg.sender */\n      caller\n        /* \"#utility.yul\":10489:10563   */\n      dup2\n      mstore\n        /* \"#utility.yul\":10611:10615   */\n      0xff\n        /* \"#utility.yul\":10599:10616   */\n      dup4\n      and\n        /* \"#utility.yul\":10594:10596   */\n      0x20\n        /* \"#utility.yul\":10579:10597   */\n      dup3\n      add\n        /* \"#utility.yul\":10572:10617   */\n      mstore\n        /* \"main.sol\":15052:15082  VoteCasted(msg.sender, choice) */\n      0x76580ac7c171cd3d2029d56fd501d1351f2db92da148447b53227803bf940c02\n      swap2\n        /* \"#utility.yul\":10462:10480   */\n      add\n        /* \"main.sol\":15052:15082  VoteCasted(msg.sender, choice) */\n    tag_434:\n      mload(0x40)\n      dup1\n      swap2\n      sub\n      swap1\n      log1\n        /* \"main.sol\":14384:15090  function addChoice(uint8 choice) public {... */\n      pop\n      jump\t// out\n        /* \"main.sol\":13585:13880  function setFeeReceivers(address _autoLiquidityReceiver, address _marketingFeeReceiver, address _devFeeReceiver) external onlyOwner {... */\n    tag_236:\n        /* \"main.sol\":2972:2976  bool */\n      0x00\n        /* \"main.sol\":3007:3012  owner */\n      sload\n      sub(shl(0xa0, 0x01), 0x01)\n      and\n        /* \"main.sol\":2507:2517  msg.sender */\n      caller\n        /* \"main.sol\":2996:3012  account == owner */\n      eq\n        /* \"main.sol\":2491:2529  require(isOwner(msg.sender), \"!OWNER\") */\n      tag_438\n      jumpi\n      mload(0x40)\n      shl(0xe5, 0x461bcd)\n      dup2\n      mstore\n        /* \"#utility.yul\":6709:6711   */\n      0x20\n        /* \"main.sol\":2491:2529  require(isOwner(msg.sender), \"!OWNER\") */\n      0x04\n      dup3\n      add\n        /* \"#utility.yul\":6691:6712   */\n      mstore\n        /* \"#utility.yul\":6748:6749   */\n      0x06\n        /* \"#utility.yul\":6728:6746   */\n      0x24\n      dup3\n      add\n        /* \"#utility.yul\":6721:6750   */\n      mstore\n      shl(0xd1, 0x10a7aba722a9)\n        /* \"#utility.yul\":6766:6784   */\n      0x44\n      dup3\n      add\n        /* \"#utility.yul\":6759:6795   */\n      mstore\n        /* \"#utility.yul\":6812:6830   */\n      0x64\n      add\n        /* \"main.sol\":2491:2529  require(isOwner(msg.sender), \"!OWNER\") */\n      tag_287\n        /* \"#utility.yul\":6507:6836   */\n      jump\n        /* \"main.sol\":2491:2529  require(isOwner(msg.sender), \"!OWNER\") */\n    tag_438:\n        /* \"main.sol\":13728:13749  autoLiquidityReceiver */\n      0x15\n        /* \"main.sol\":13728:13774  autoLiquidityReceiver = _autoLiquidityReceiver */\n      dup1\n      sload\n      sub(shl(0xa0, 0x01), 0x01)\n      swap5\n      dup6\n      and\n      not(0xffffffffffffffffffffffffffffffffffffffff)\n      swap2\n      dup3\n      and\n      or\n      swap1\n      swap2\n      sstore\n        /* \"main.sol\":13785:13805  marketingFeeReceiver */\n      0x16\n        /* \"main.sol\":13785:13829  marketingFeeReceiver = _marketingFeeReceiver */\n      dup1\n      sload\n      swap4\n      dup6\n      and\n      swap4\n      dup3\n      and\n      swap4\n      swap1\n      swap4\n      or\n      swap1\n      swap3\n      sstore\n        /* \"main.sol\":13840:13854  devFeeReceiver */\n      0x17\n        /* \"main.sol\":13840:13872  devFeeReceiver = _devFeeReceiver */\n      dup1\n      sload\n      swap2\n      swap1\n      swap4\n      and\n      swap2\n      and\n      or\n      swap1\n      sstore\n        /* \"main.sol\":13585:13880  function setFeeReceivers(address _autoLiquidityReceiver, address _marketingFeeReceiver, address _devFeeReceiver) external onlyOwner {... */\n      jump\t// out\n        /* \"main.sol\":13888:14043  function setSwapBackSettings(bool _enabled, uint256 _amount) external onlyOwner {... */\n    tag_256:\n        /* \"main.sol\":2972:2976  bool */\n      0x00\n        /* \"main.sol\":3007:3012  owner */\n      sload\n      sub(shl(0xa0, 0x01), 0x01)\n      and\n        /* \"main.sol\":2507:2517  msg.sender */\n      caller\n        /* \"main.sol\":2996:3012  account == owner */\n      eq\n        /* \"main.sol\":2491:2529  require(isOwner(msg.sender), \"!OWNER\") */\n      tag_444\n      jumpi\n      mload(0x40)\n      shl(0xe5, 0x461bcd)\n      dup2\n      mstore\n        /* \"#utility.yul\":6709:6711   */\n      0x20\n        /* \"main.sol\":2491:2529  require(isOwner(msg.sender), \"!OWNER\") */\n      0x04\n      dup3\n      add\n        /* \"#utility.yul\":6691:6712   */\n      mstore\n        /* \"#utility.yul\":6748:6749   */\n      0x06\n        /* \"#utility.yul\":6728:6746   */\n      0x24\n      dup3\n      add\n        /* \"#utility.yul\":6721:6750   */\n      mstore\n      shl(0xd1, 0x10a7aba722a9)\n        /* \"#utility.yul\":6766:6784   */\n      0x44\n      dup3\n      add\n        /* \"#utility.yul\":6759:6795   */\n      mstore\n        /* \"#utility.yul\":6812:6830   */\n      0x64\n      add\n        /* \"main.sol\":2491:2529  require(isOwner(msg.sender), \"!OWNER\") */\n      tag_287\n        /* \"#utility.yul\":6507:6836   */\n      jump\n        /* \"main.sol\":2491:2529  require(isOwner(msg.sender), \"!OWNER\") */\n    tag_444:\n        /* \"main.sol\":13979:13990  swapEnabled */\n      0x19\n        /* \"main.sol\":13979:14001  swapEnabled = _enabled */\n      dup1\n      sload\n      swap3\n      iszero\n      iszero\n      shl(0xa8, 0x01)\n      mul\n      0xffffffffffffffffffff00ffffffffffffffffffffffffffffffffffffffffff\n      swap1\n      swap4\n      and\n      swap3\n      swap1\n      swap3\n      or\n      swap1\n      swap2\n      sstore\n        /* \"main.sol\":14012:14025  swapThreshold */\n      0x1a\n        /* \"main.sol\":14012:14035  swapThreshold = _amount */\n      sstore\n        /* \"main.sol\":13888:14043  function setSwapBackSettings(bool _enabled, uint256 _amount) external onlyOwner {... */\n      jump\t// out\n        /* \"main.sol\":2750:2909  function unauthorize(address adr) public onlyOwner {... */\n    tag_264:\n        /* \"main.sol\":2972:2976  bool */\n      0x00\n        /* \"main.sol\":3007:3012  owner */\n      sload\n      sub(shl(0xa0, 0x01), 0x01)\n      and\n        /* \"main.sol\":2507:2517  msg.sender */\n      caller\n        /* \"main.sol\":2996:3012  account == owner */\n      eq\n        /* \"main.sol\":2491:2529  require(isOwner(msg.sender), \"!OWNER\") */\n      tag_449\n      jumpi\n      mload(0x40)\n      shl(0xe5, 0x461bcd)\n      dup2\n      mstore\n        /* \"#utility.yul\":6709:6711   */\n      0x20\n        /* \"main.sol\":2491:2529  require(isOwner(msg.sender), \"!OWNER\") */\n      0x04\n      dup3\n      add\n        /* \"#utility.yul\":6691:6712   */\n      mstore\n        /* \"#utility.yul\":6748:6749   */\n      0x06\n        /* \"#utility.yul\":6728:6746   */\n      0x24\n      dup3\n      add\n        /* \"#utility.yul\":6721:6750   */\n      mstore\n      shl(0xd1, 0x10a7aba722a9)\n        /* \"#utility.yul\":6766:6784   */\n      0x44\n      dup3\n      add\n        /* \"#utility.yul\":6759:6795   */\n      mstore\n        /* \"#utility.yul\":6812:6830   */\n      0x64\n      add\n        /* \"main.sol\":2491:2529  require(isOwner(msg.sender), \"!OWNER\") */\n      tag_287\n        /* \"#utility.yul\":6507:6836   */\n      jump\n        /* \"main.sol\":2491:2529  require(isOwner(msg.sender), \"!OWNER\") */\n    tag_449:\n        /* \"main.sol\":2827:2832  owner */\n      sload(0x00)\n      sub(shl(0xa0, 0x01), 0x01)\n      swap1\n      dup2\n      and\n        /* \"main.sol\":2820:2832  adr != owner */\n      swap1\n      dup3\n      and\n      sub\n        /* \"main.sol\":2812:2863  require(adr != owner, \"OWNER cant be unauthorized\") */\n      tag_452\n      jumpi\n      mload(0x40)\n      shl(0xe5, 0x461bcd)\n      dup2\n      mstore\n        /* \"#utility.yul\":10830:10832   */\n      0x20\n        /* \"main.sol\":2812:2863  require(adr != owner, \"OWNER cant be unauthorized\") */\n      0x04\n      dup3\n      add\n        /* \"#utility.yul\":10812:10833   */\n      mstore\n        /* \"#utility.yul\":10869:10871   */\n      0x1a\n        /* \"#utility.yul\":10849:10867   */\n      0x24\n      dup3\n      add\n        /* \"#utility.yul\":10842:10872   */\n      mstore\n        /* \"#utility.yul\":10908:10936   */\n      0x4f574e45522063616e7420626520756e617574686f72697a6564000000000000\n        /* \"#utility.yul\":10888:10906   */\n      0x44\n      dup3\n      add\n        /* \"#utility.yul\":10881:10937   */\n      mstore\n        /* \"#utility.yul\":10954:10972   */\n      0x64\n      add\n        /* \"main.sol\":2812:2863  require(adr != owner, \"OWNER cant be unauthorized\") */\n      tag_287\n        /* \"#utility.yul\":10628:10978   */\n      jump\n        /* \"main.sol\":2812:2863  require(adr != owner, \"OWNER cant be unauthorized\") */\n    tag_452:\n      sub(shl(0xa0, 0x01), 0x01)\n        /* \"main.sol\":2874:2893  authorizations[adr] */\n      and\n        /* \"main.sol\":2896:2901  false */\n      0x00\n        /* \"main.sol\":2874:2893  authorizations[adr] */\n      swap1\n      dup2\n      mstore\n        /* \"main.sol\":2874:2888  authorizations */\n      0x01\n        /* \"main.sol\":2874:2893  authorizations[adr] */\n      0x20\n      mstore\n      0x40\n      swap1\n      keccak256\n        /* \"main.sol\":2874:2901  authorizations[adr] = false */\n      dup1\n      sload\n      not(0xff)\n      and\n      swap1\n      sstore\n        /* \"main.sol\":2750:2909  function unauthorize(address adr) public onlyOwner {... */\n      jump\t// out\n        /* \"main.sol\":3143:3409  function transferOwnership(address payable adr) public onlyOwner {... */\n    tag_269:\n        /* \"main.sol\":2972:2976  bool */\n      0x00\n        /* \"main.sol\":3007:3012  owner */\n      sload\n      sub(shl(0xa0, 0x01), 0x01)\n      and\n        /* \"main.sol\":2507:2517  msg.sender */\n      caller\n        /* \"main.sol\":2996:3012  account == owner */\n      eq\n        /* \"main.sol\":2491:2529  require(isOwner(msg.sender), \"!OWNER\") */\n      tag_457\n      jumpi\n      mload(0x40)\n      shl(0xe5, 0x461bcd)\n      dup2\n      mstore\n        /* \"#utility.yul\":6709:6711   */\n      0x20\n        /* \"main.sol\":2491:2529  require(isOwner(msg.sender), \"!OWNER\") */\n      0x04\n      dup3\n      add\n        /* \"#utility.yul\":6691:6712   */\n      mstore\n        /* \"#utility.yul\":6748:6749   */\n      0x06\n        /* \"#utility.yul\":6728:6746   */\n      0x24\n      dup3\n      add\n        /* \"#utility.yul\":6721:6750   */\n      mstore\n      shl(0xd1, 0x10a7aba722a9)\n        /* \"#utility.yul\":6766:6784   */\n      0x44\n      dup3\n      add\n        /* \"#utility.yul\":6759:6795   */\n      mstore\n        /* \"#utility.yul\":6812:6830   */\n      0x64\n      add\n        /* \"main.sol\":2491:2529  require(isOwner(msg.sender), \"!OWNER\") */\n      tag_287\n        /* \"#utility.yul\":6507:6836   */\n      jump\n        /* \"main.sol\":2491:2529  require(isOwner(msg.sender), \"!OWNER\") */\n    tag_457:\n        /* \"main.sol\":3234:3239  owner */\n      sload(0x00)\n      sub(shl(0xa0, 0x01), 0x01)\n      swap1\n      dup2\n      and\n        /* \"main.sol\":3227:3239  adr != owner */\n      swap1\n      dup3\n      and\n      sub\n        /* \"main.sol\":3219:3261  require(adr != owner, \"Already the owner\") */\n      tag_460\n      jumpi\n      mload(0x40)\n      shl(0xe5, 0x461bcd)\n      dup2\n      mstore\n        /* \"#utility.yul\":11185:11187   */\n      0x20\n        /* \"main.sol\":3219:3261  require(adr != owner, \"Already the owner\") */\n      0x04\n      dup3\n      add\n        /* \"#utility.yul\":11167:11188   */\n      mstore\n        /* \"#utility.yul\":11224:11226   */\n      0x11\n        /* \"#utility.yul\":11204:11222   */\n      0x24\n      dup3\n      add\n        /* \"#utility.yul\":11197:11227   */\n      mstore\n        /* \"#utility.yul\":11263:11282   */\n      0x416c726561647920746865206f776e6572000000000000000000000000000000\n        /* \"#utility.yul\":11243:11261   */\n      0x44\n      dup3\n      add\n        /* \"#utility.yul\":11236:11283   */\n      mstore\n        /* \"#utility.yul\":11300:11318   */\n      0x64\n      add\n        /* \"main.sol\":3219:3261  require(adr != owner, \"Already the owner\") */\n      tag_287\n        /* \"#utility.yul\":10983:11324   */\n      jump\n        /* \"main.sol\":3219:3261  require(adr != owner, \"Already the owner\") */\n    tag_460:\n        /* \"main.sol\":3296:3301  false */\n      0x00\n        /* \"main.sol\":3287:3292  owner */\n      dup1\n      sload\n      sub(shl(0xa0, 0x01), 0x01)\n      swap1\n      dup2\n      and\n        /* \"main.sol\":3272:3293  authorizations[owner] */\n      dup3\n      mstore\n        /* \"main.sol\":3272:3286  authorizations */\n      0x01\n        /* \"main.sol\":3272:3293  authorizations[owner] */\n      0x20\n      dup2\n      dup2\n      mstore\n      0x40\n      dup1\n      dup6\n      keccak256\n        /* \"main.sol\":3272:3301  authorizations[owner] = false */\n      dup1\n      sload\n      not(0xff)\n      swap1\n      dup2\n      and\n      swap1\n      swap2\n      sstore\n        /* \"main.sol\":3312:3323  owner = adr */\n      dup6\n      sload\n      not(0xffffffffffffffffffffffffffffffffffffffff)\n      and\n      swap5\n      dup8\n      and\n      swap5\n      dup6\n      or\n      dup7\n      sstore\n        /* \"main.sol\":3334:3353  authorizations[adr] */\n      dup5\n      dup7\n      mstore\n      swap5\n      dup2\n      swap1\n      keccak256\n        /* \"main.sol\":3334:3360  authorizations[adr] = true */\n      dup1\n      sload\n      swap1\n      swap6\n      and\n      swap1\n      swap3\n      or\n      swap1\n      swap4\n      sstore\n        /* \"main.sol\":3376:3401  OwnershipTransferred(adr) */\n      mload\n        /* \"#utility.yul\":3564:3638   */\n      swap1\n      dup2\n      mstore\n        /* \"main.sol\":3376:3401  OwnershipTransferred(adr) */\n      0x04dba622d284ed0014ee4b9a6a68386be1a4c08a4913ae272de89199cc686163\n      swap2\n        /* \"#utility.yul\":3537:3555   */\n      add\n        /* \"main.sol\":3376:3401  OwnershipTransferred(adr) */\n      tag_434\n        /* \"#utility.yul\":3418:3644   */\n      jump\n        /* \"main.sol\":532:724  function sub(uint256 a, uint256 b, string memory errorMessage) internal pure returns (uint256) {... */\n    tag_328:\n        /* \"main.sol\":618:625  uint256 */\n      0x00\n        /* \"main.sol\":654:666  errorMessage */\n      dup2\n        /* \"main.sol\":646:652  b <= a */\n      dup5\n      dup5\n      gt\n      iszero\n        /* \"main.sol\":638:667  require(b <= a, errorMessage) */\n      tag_467\n      jumpi\n      mload(0x40)\n      shl(0xe5, 0x461bcd)\n      dup2\n      mstore\n      0x04\n      add\n      tag_287\n      swap2\n      swap1\n      tag_81\n      jump\t// in\n    tag_467:\n      pop\n        /* \"main.sol\":678:687  uint256 c */\n      0x00\n        /* \"main.sol\":690:695  a - b */\n      tag_469\n        /* \"main.sol\":694:695  b */\n      dup5\n        /* \"main.sol\":690:691  a */\n      dup7\n        /* \"main.sol\":690:695  a - b */\n      tag_470\n      jump\t// in\n    tag_469:\n        /* \"main.sol\":678:695  uint256 c = a - b */\n      swap6\n        /* \"main.sol\":532:724  function sub(uint256 a, uint256 b, string memory errorMessage) internal pure returns (uint256) {... */\n      swap5\n      pop\n      pop\n      pop\n      pop\n      pop\n      jump\t// out\n        /* \"main.sol\":9110:10206  function _transferFrom(address sender, address recipient, uint256 amount) internal returns (bool) {... */\n    tag_330:\n        /* \"main.sol\":9222:9228  inSwap */\n      sload(0x1b)\n        /* \"main.sol\":9202:9206  bool */\n      0x00\n      swap1\n        /* \"main.sol\":9222:9228  inSwap */\n      0xff\n      and\n        /* \"main.sol\":9219:9282  if(inSwap){ return _basicTransfer(sender, recipient, amount); } */\n      iszero\n      tag_472\n      jumpi\n        /* \"main.sol\":9238:9279  _basicTransfer(sender, recipient, amount) */\n      tag_473\n        /* \"main.sol\":9253:9259  sender */\n      dup5\n        /* \"main.sol\":9261:9270  recipient */\n      dup5\n        /* \"main.sol\":9272:9278  amount */\n      dup5\n        /* \"main.sol\":9238:9252  _basicTransfer */\n      tag_376\n        /* \"main.sol\":9238:9279  _basicTransfer(sender, recipient, amount) */\n      jump\t// in\n    tag_473:\n        /* \"main.sol\":9231:9279  return _basicTransfer(sender, recipient, amount) */\n      swap1\n      pop\n      jump(tag_325)\n        /* \"main.sol\":9219:9282  if(inSwap){ return _basicTransfer(sender, recipient, amount); } */\n    tag_472:\n      sub(shl(0xa0, 0x01), 0x01)\n        /* \"main.sol\":9298:9320  authorizations[sender] */\n      dup5\n      and\n      0x00\n      swap1\n      dup2\n      mstore\n        /* \"main.sol\":9298:9312  authorizations */\n      0x01\n        /* \"main.sol\":9298:9320  authorizations[sender] */\n      0x20\n      mstore\n      0x40\n      swap1\n      keccak256\n      sload\n      0xff\n      and\n        /* \"main.sol\":9297:9320  !authorizations[sender] */\n      iszero\n        /* \"main.sol\":9297:9350  !authorizations[sender] && !authorizations[recipient] */\n      dup1\n      iszero\n      tag_474\n      jumpi\n      pop\n      sub(shl(0xa0, 0x01), 0x01)\n        /* \"main.sol\":9325:9350  authorizations[recipient] */\n      dup4\n      and\n      0x00\n      swap1\n      dup2\n      mstore\n        /* \"main.sol\":9325:9339  authorizations */\n      0x01\n        /* \"main.sol\":9325:9350  authorizations[recipient] */\n      0x20\n      mstore\n      0x40\n      swap1\n      keccak256\n      sload\n      0xff\n      and\n        /* \"main.sol\":9324:9350  !authorizations[recipient] */\n      iszero\n        /* \"main.sol\":9297:9350  !authorizations[sender] && !authorizations[recipient] */\n    tag_474:\n        /* \"main.sol\":9294:9421  if(!authorizations[sender] && !authorizations[recipient]){... */\n      iszero\n      tag_476\n      jumpi\n        /* \"main.sol\":9374:9385  tradingOpen */\n      sload(0x19)\n      shl(0xa0, 0x01)\n      swap1\n      div\n      0xff\n      and\n        /* \"main.sol\":9366:9409  require(tradingOpen,\"Trading not open yet\") */\n      tag_476\n      jumpi\n      mload(0x40)\n      shl(0xe5, 0x461bcd)\n      dup2\n      mstore\n        /* \"#utility.yul\":11903:11905   */\n      0x20\n        /* \"main.sol\":9366:9409  require(tradingOpen,\"Trading not open yet\") */\n      0x04\n      dup3\n      add\n        /* \"#utility.yul\":11885:11906   */\n      mstore\n        /* \"#utility.yul\":11942:11944   */\n      0x14\n        /* \"#utility.yul\":11922:11940   */\n      0x24\n      dup3\n      add\n        /* \"#utility.yul\":11915:11945   */\n      mstore\n        /* \"#utility.yul\":11981:12003   */\n      0x54726164696e67206e6f74206f70656e20796574000000000000000000000000\n        /* \"#utility.yul\":11961:11979   */\n      0x44\n      dup3\n      add\n        /* \"#utility.yul\":11954:12004   */\n      mstore\n        /* \"#utility.yul\":12021:12039   */\n      0x64\n      add\n        /* \"main.sol\":9366:9409  require(tradingOpen,\"Trading not open yet\") */\n      tag_287\n        /* \"#utility.yul\":11701:12045   */\n      jump\n        /* \"main.sol\":9366:9409  require(tradingOpen,\"Trading not open yet\") */\n    tag_476:\n      sub(shl(0xa0, 0x01), 0x01)\n        /* \"main.sol\":9438:9460  authorizations[sender] */\n      dup5\n      and\n      0x00\n      swap1\n      dup2\n      mstore\n        /* \"main.sol\":9438:9452  authorizations */\n      0x01\n        /* \"main.sol\":9438:9460  authorizations[sender] */\n      0x20\n      mstore\n      0x40\n      swap1\n      keccak256\n      sload\n      0xff\n      and\n        /* \"main.sol\":9437:9460  !authorizations[sender] */\n      iszero\n        /* \"main.sol\":9437:9492  !authorizations[sender] && !isWalletLimitExempt[sender] */\n      dup1\n      iszero\n      tag_479\n      jumpi\n      pop\n      sub(shl(0xa0, 0x01), 0x01)\n        /* \"main.sol\":9465:9492  isWalletLimitExempt[sender] */\n      dup5\n      and\n      0x00\n      swap1\n      dup2\n      mstore\n        /* \"main.sol\":9465:9484  isWalletLimitExempt */\n      0x0c\n        /* \"main.sol\":9465:9492  isWalletLimitExempt[sender] */\n      0x20\n      mstore\n      0x40\n      swap1\n      keccak256\n      sload\n      0xff\n      and\n        /* \"main.sol\":9464:9492  !isWalletLimitExempt[sender] */\n      iszero\n        /* \"main.sol\":9437:9492  !authorizations[sender] && !isWalletLimitExempt[sender] */\n    tag_479:\n        /* \"main.sol\":9437:9527  !authorizations[sender] && !isWalletLimitExempt[sender] && !isWalletLimitExempt[recipient] */\n      dup1\n      iszero\n      tag_480\n      jumpi\n      pop\n      sub(shl(0xa0, 0x01), 0x01)\n        /* \"main.sol\":9497:9527  isWalletLimitExempt[recipient] */\n      dup4\n      and\n      0x00\n      swap1\n      dup2\n      mstore\n        /* \"main.sol\":9497:9516  isWalletLimitExempt */\n      0x0c\n        /* \"main.sol\":9497:9527  isWalletLimitExempt[recipient] */\n      0x20\n      mstore\n      0x40\n      swap1\n      keccak256\n      sload\n      0xff\n      and\n        /* \"main.sol\":9496:9527  !isWalletLimitExempt[recipient] */\n      iszero\n        /* \"main.sol\":9437:9527  !authorizations[sender] && !isWalletLimitExempt[sender] && !isWalletLimitExempt[recipient] */\n    tag_480:\n        /* \"main.sol\":9437:9548  !authorizations[sender] && !isWalletLimitExempt[sender] && !isWalletLimitExempt[recipient] && recipient != pair */\n      dup1\n      iszero\n      tag_481\n      jumpi\n      pop\n        /* \"main.sol\":9544:9548  pair */\n      sload(0x19)\n      sub(shl(0xa0, 0x01), 0x01)\n        /* \"main.sol\":9531:9548  recipient != pair */\n      dup5\n      dup2\n      and\n        /* \"main.sol\":9544:9548  pair */\n      swap2\n      and\n        /* \"main.sol\":9531:9548  recipient != pair */\n      eq\n      iszero\n        /* \"main.sol\":9437:9548  !authorizations[sender] && !isWalletLimitExempt[sender] && !isWalletLimitExempt[recipient] && recipient != pair */\n    tag_481:\n        /* \"main.sol\":9433:9663  if (!authorizations[sender] && !isWalletLimitExempt[sender] && !isWalletLimitExempt[recipient] && recipient != pair) {... */\n      iszero\n      tag_485\n      jumpi\n        /* \"main.sol\":9608:9623  _maxWalletToken */\n      sload(0x07)\n        /* \"main.sol\":9597:9603  amount */\n      dup3\n        /* \"main.sol\":9574:9594  balanceOf(recipient) */\n      tag_483\n        /* \"main.sol\":9584:9593  recipient */\n      dup6\n      sub(shl(0xa0, 0x01), 0x01)\n        /* \"main.sol\":7508:7526  _balances[account] */\n      and\n        /* \"main.sol\":7490:7497  uint256 */\n      0x00\n        /* \"main.sol\":7508:7526  _balances[account] */\n      swap1\n      dup2\n      mstore\n        /* \"main.sol\":7508:7517  _balances */\n      0x08\n        /* \"main.sol\":7508:7526  _balances[account] */\n      0x20\n      mstore\n      0x40\n      swap1\n      keccak256\n      sload\n      swap1\n        /* \"main.sol\":7424:7529  function balanceOf(address account) public view override returns (uint256) { return _balances[account]; } */\n      jump\n        /* \"main.sol\":9574:9594  balanceOf(recipient) */\n    tag_483:\n        /* \"main.sol\":9574:9603  balanceOf(recipient) + amount */\n      tag_484\n      swap2\n      swap1\n      tag_345\n      jump\t// in\n    tag_484:\n        /* \"main.sol\":9573:9623  (balanceOf(recipient) + amount) <= _maxWalletToken */\n      gt\n      iszero\n        /* \"main.sol\":9565:9651  require((balanceOf(recipient) + amount) <= _maxWalletToken,\"max wallet limit reached\") */\n      tag_485\n      jumpi\n      mload(0x40)\n      shl(0xe5, 0x461bcd)\n      dup2\n      mstore\n        /* \"#utility.yul\":12252:12254   */\n      0x20\n        /* \"main.sol\":9565:9651  require((balanceOf(recipient) + amount) <= _maxWalletToken,\"max wallet limit reached\") */\n      0x04\n      dup3\n      add\n        /* \"#utility.yul\":12234:12255   */\n      mstore\n        /* \"#utility.yul\":12291:12293   */\n      0x18\n        /* \"#utility.yul\":12271:12289   */\n      0x24\n      dup3\n      add\n        /* \"#utility.yul\":12264:12294   */\n      mstore\n        /* \"#utility.yul\":12330:12356   */\n      0x6d61782077616c6c6574206c696d697420726561636865640000000000000000\n        /* \"#utility.yul\":12310:12328   */\n      0x44\n      dup3\n      add\n        /* \"#utility.yul\":12303:12357   */\n      mstore\n        /* \"#utility.yul\":12374:12392   */\n      0x64\n      add\n        /* \"main.sol\":9565:9651  require((balanceOf(recipient) + amount) <= _maxWalletToken,\"max wallet limit reached\") */\n      tag_287\n        /* \"#utility.yul\":12050:12398   */\n      jump\n        /* \"main.sol\":9565:9651  require((balanceOf(recipient) + amount) <= _maxWalletToken,\"max wallet limit reached\") */\n    tag_485:\n        /* \"main.sol\":9694:9706  _maxTxAmount */\n      sload(0x06)\n        /* \"main.sol\":9684:9690  amount */\n      dup3\n        /* \"main.sol\":9684:9706  amount <= _maxTxAmount */\n      gt\n      iszero\n        /* \"main.sol\":9683:9734  (amount <= _maxTxAmount) || isTxLimitExempt[sender] */\n      dup1\n      tag_488\n      jumpi\n      pop\n      sub(shl(0xa0, 0x01), 0x01)\n        /* \"main.sol\":9711:9734  isTxLimitExempt[sender] */\n      dup5\n      and\n      0x00\n      swap1\n      dup2\n      mstore\n        /* \"main.sol\":9711:9726  isTxLimitExempt */\n      0x0b\n        /* \"main.sol\":9711:9734  isTxLimitExempt[sender] */\n      0x20\n      mstore\n      0x40\n      swap1\n      keccak256\n      sload\n      0xff\n      and\n        /* \"main.sol\":9683:9734  (amount <= _maxTxAmount) || isTxLimitExempt[sender] */\n    tag_488:\n        /* \"main.sol\":9683:9764  (amount <= _maxTxAmount) || isTxLimitExempt[sender] || isTxLimitExempt[recipient] */\n      dup1\n      tag_489\n      jumpi\n      pop\n      sub(shl(0xa0, 0x01), 0x01)\n        /* \"main.sol\":9738:9764  isTxLimitExempt[recipient] */\n      dup4\n      and\n      0x00\n      swap1\n      dup2\n      mstore\n        /* \"main.sol\":9738:9753  isTxLimitExempt */\n      0x0b\n        /* \"main.sol\":9738:9764  isTxLimitExempt[recipient] */\n      0x20\n      mstore\n      0x40\n      swap1\n      keccak256\n      sload\n      0xff\n      and\n        /* \"main.sol\":9683:9764  (amount <= _maxTxAmount) || isTxLimitExempt[sender] || isTxLimitExempt[recipient] */\n    tag_489:\n        /* \"main.sol\":9675:9786  require((amount <= _maxTxAmount) || isTxLimitExempt[sender] || isTxLimitExempt[recipient], \"TX Limit Exceeded\") */\n      tag_490\n      jumpi\n      mload(0x40)\n      shl(0xe5, 0x461bcd)\n      dup2\n      mstore\n        /* \"#utility.yul\":12605:12607   */\n      0x20\n        /* \"main.sol\":9675:9786  require((amount <= _maxTxAmount) || isTxLimitExempt[sender] || isTxLimitExempt[recipient], \"TX Limit Exceeded\") */\n      0x04\n      dup3\n      add\n        /* \"#utility.yul\":12587:12608   */\n      mstore\n        /* \"#utility.yul\":12644:12646   */\n      0x11\n        /* \"#utility.yul\":12624:12642   */\n      0x24\n      dup3\n      add\n        /* \"#utility.yul\":12617:12647   */\n      mstore\n        /* \"#utility.yul\":12683:12702   */\n      0x5458204c696d6974204578636565646564000000000000000000000000000000\n        /* \"#utility.yul\":12663:12681   */\n      0x44\n      dup3\n      add\n        /* \"#utility.yul\":12656:12703   */\n      mstore\n        /* \"#utility.yul\":12720:12738   */\n      0x64\n      add\n        /* \"main.sol\":9675:9786  require((amount <= _maxTxAmount) || isTxLimitExempt[sender] || isTxLimitExempt[recipient], \"TX Limit Exceeded\") */\n      tag_287\n        /* \"#utility.yul\":12403:12744   */\n      jump\n        /* \"main.sol\":9675:9786  require((amount <= _maxTxAmount) || isTxLimitExempt[sender] || isTxLimitExempt[recipient], \"TX Limit Exceeded\") */\n    tag_490:\n        /* \"main.sol\":9802:9818  shouldSwapBack() */\n      tag_493\n        /* \"main.sol\":9802:9816  shouldSwapBack */\n      tag_494\n        /* \"main.sol\":9802:9818  shouldSwapBack() */\n      jump\t// in\n    tag_493:\n        /* \"main.sol\":9799:9834  if(shouldSwapBack()){ swapBack(); } */\n      iszero\n      tag_496\n      jumpi\n        /* \"main.sol\":9821:9831  swapBack() */\n      tag_496\n        /* \"main.sol\":9821:9829  swapBack */\n      tag_497\n        /* \"main.sol\":9821:9831  swapBack() */\n      jump\t// in\n    tag_496:\n        /* \"main.sol\":9866:9919  _balances[sender].sub(amount, \"Insufficient Balance\") */\n      0x40\n      dup1\n      mload\n      dup1\n      dup3\n      add\n      dup3\n      mstore\n      0x14\n      dup2\n      mstore\n      0x496e73756666696369656e742042616c616e6365000000000000000000000000\n      0x20\n      dup1\n      dup4\n      add\n      swap2\n      swap1\n      swap2\n      mstore\n      sub(shl(0xa0, 0x01), 0x01)\n        /* \"main.sol\":9866:9883  _balances[sender] */\n      dup8\n      and\n      0x00\n      swap1\n      dup2\n      mstore\n        /* \"main.sol\":9866:9875  _balances */\n      0x08\n        /* \"main.sol\":9866:9883  _balances[sender] */\n      swap1\n      swap2\n      mstore\n      swap2\n      swap1\n      swap2\n      keccak256\n      sload\n        /* \"main.sol\":9866:9919  _balances[sender].sub(amount, \"Insufficient Balance\") */\n      tag_498\n      swap2\n        /* \"main.sol\":9888:9894  amount */\n      dup5\n      swap1\n        /* \"main.sol\":9866:9887  _balances[sender].sub */\n      tag_328\n        /* \"main.sol\":9866:9919  _balances[sender].sub(amount, \"Insufficient Balance\") */\n      jump\t// in\n    tag_498:\n      sub(shl(0xa0, 0x01), 0x01)\n        /* \"main.sol\":9846:9863  _balances[sender] */\n      dup6\n      and\n      0x00\n      swap1\n      dup2\n      mstore\n        /* \"main.sol\":9846:9855  _balances */\n      0x08\n        /* \"main.sol\":9846:9863  _balances[sender] */\n      0x20\n      swap1\n      dup2\n      mstore\n      0x40\n      dup1\n      dup4\n      keccak256\n        /* \"main.sol\":9846:9919  _balances[sender] = _balances[sender].sub(amount, \"Insufficient Balance\") */\n      swap4\n      swap1\n      swap4\n      sstore\n        /* \"main.sol\":9958:9969  isFeeExempt */\n      0x0a\n        /* \"main.sol\":9958:9977  isFeeExempt[sender] */\n      swap1\n      mstore\n      swap1\n      dup2\n      keccak256\n      sload\n      0xff\n      and\n      dup1\n        /* \"main.sol\":9958:10003  isFeeExempt[sender] || isFeeExempt[recipient] */\n      tag_499\n      jumpi\n      pop\n      sub(shl(0xa0, 0x01), 0x01)\n        /* \"main.sol\":9981:10003  isFeeExempt[recipient] */\n      dup5\n      and\n      0x00\n      swap1\n      dup2\n      mstore\n        /* \"main.sol\":9981:9992  isFeeExempt */\n      0x0a\n        /* \"main.sol\":9981:10003  isFeeExempt[recipient] */\n      0x20\n      mstore\n      0x40\n      swap1\n      keccak256\n      sload\n      0xff\n      and\n        /* \"main.sol\":9958:10003  isFeeExempt[sender] || isFeeExempt[recipient] */\n    tag_499:\n        /* \"main.sol\":9957:10039  (isFeeExempt[sender] || isFeeExempt[recipient]) ? amount : takeFee(sender, amount) */\n      tag_500\n      jumpi\n        /* \"main.sol\":10016:10039  takeFee(sender, amount) */\n      tag_501\n        /* \"main.sol\":10024:10030  sender */\n      dup6\n        /* \"main.sol\":10032:10038  amount */\n      dup5\n        /* \"main.sol\":10016:10023  takeFee */\n      tag_502\n        /* \"main.sol\":10016:10039  takeFee(sender, amount) */\n      jump\t// in\n    tag_501:\n        /* \"main.sol\":9957:10039  (isFeeExempt[sender] || isFeeExempt[recipient]) ? amount : takeFee(sender, amount) */\n      jump(tag_503)\n    tag_500:\n        /* \"main.sol\":10007:10013  amount */\n      dup3\n        /* \"main.sol\":9957:10039  (isFeeExempt[sender] || isFeeExempt[recipient]) ? amount : takeFee(sender, amount) */\n    tag_503:\n      sub(shl(0xa0, 0x01), 0x01)\n        /* \"main.sol\":10075:10095  _balances[recipient] */\n      dup6\n      and\n      0x00\n      swap1\n      dup2\n      mstore\n        /* \"main.sol\":10075:10084  _balances */\n      0x08\n        /* \"main.sol\":10075:10095  _balances[recipient] */\n      0x20\n      mstore\n      0x40\n      swap1\n      keccak256\n      sload\n        /* \"main.sol\":9932:10039  uint256 amountReceived = (isFeeExempt[sender] || isFeeExempt[recipient]) ? amount : takeFee(sender, amount) */\n      swap1\n      swap2\n      pop\n        /* \"main.sol\":10075:10115  _balances[recipient].add(amountReceived) */\n      tag_504\n      swap1\n        /* \"main.sol\":9932:10039  uint256 amountReceived = (isFeeExempt[sender] || isFeeExempt[recipient]) ? amount : takeFee(sender, amount) */\n      dup3\n        /* \"main.sol\":10075:10099  _balances[recipient].add */\n      tag_505\n        /* \"main.sol\":10075:10115  _balances[recipient].add(amountReceived) */\n      jump\t// in\n    tag_504:\n      sub(shl(0xa0, 0x01), 0x01)\n        /* \"main.sol\":10052:10072  _balances[recipient] */\n      dup1\n      dup7\n      and\n      0x00\n      dup2\n      dup2\n      mstore\n        /* \"main.sol\":10052:10061  _balances */\n      0x08\n        /* \"main.sol\":10052:10072  _balances[recipient] */\n      0x20\n      mstore\n      0x40\n      swap1\n      dup2\n      swap1\n      keccak256\n        /* \"main.sol\":10052:10115  _balances[recipient] = _balances[recipient].add(amountReceived) */\n      swap4\n      swap1\n      swap4\n      sstore\n        /* \"main.sol\":10133:10176  Transfer(sender, recipient, amountReceived) */\n      swap2\n      mload\n      swap1\n      dup8\n      and\n      swap1\n      0xddf252ad1be2c89b69c2b068fc378daa952ba7f163c4a11628f55a4df523b3ef\n      swap1\n      tag_506\n      swap1\n        /* \"main.sol\":10161:10175  amountReceived */\n      dup6\n        /* \"#utility.yul\":160:185   */\n      dup2\n      mstore\n        /* \"#utility.yul\":148:150   */\n      0x20\n        /* \"#utility.yul\":133:151   */\n      add\n      swap1\n        /* \"#utility.yul\":14:191   */\n      jump\n        /* \"main.sol\":10133:10176  Transfer(sender, recipient, amountReceived) */\n    tag_506:\n      mload(0x40)\n      dup1\n      swap2\n      sub\n      swap1\n      log3\n      pop\n        /* \"main.sol\":10194:10198  true */\n      0x01\n      swap5\n        /* \"main.sol\":9110:10206  function _transferFrom(address sender, address recipient, uint256 amount) internal returns (bool) {... */\n      swap4\n      pop\n      pop\n      pop\n      pop\n      jump\t// out\n        /* \"main.sol\":390:526  function sub(uint256 a, uint256 b) internal pure returns (uint256) {... */\n    tag_336:\n        /* \"main.sol\":448:455  uint256 */\n      0x00\n        /* \"main.sol\":475:518  sub(a, b, \"SafeMath: subtraction overflow\") */\n      tag_325\n        /* \"main.sol\":479:480  a */\n      dup4\n        /* \"main.sol\":482:483  b */\n      dup4\n        /* \"main.sol\":475:518  sub(a, b, \"SafeMath: subtraction overflow\") */\n      mload(0x40)\n      dup1\n      0x40\n      add\n      0x40\n      mstore\n      dup1\n      0x1e\n      dup2\n      mstore\n      0x20\n      add\n      0x536166654d6174683a207375627472616374696f6e206f766572666c6f770000\n      dup2\n      mstore\n      pop\n        /* \"main.sol\":475:478  sub */\n      tag_328\n        /* \"main.sol\":475:518  sub(a, b, \"SafeMath: subtraction overflow\") */\n      jump\t// in\n        /* \"main.sol\":730:980  function mul(uint256 a, uint256 b) internal pure returns (uint256) {... */\n    tag_373:\n        /* \"main.sol\":788:795  uint256 */\n      0x00\n        /* \"main.sol\":812:813  a */\n      dup3\n        /* \"main.sol\":817:818  0 */\n      0x00\n        /* \"main.sol\":812:818  a == 0 */\n      sub\n        /* \"main.sol\":808:855  if (a == 0) {... */\n      tag_510\n      jumpi\n      pop\n        /* \"main.sol\":842:843  0 */\n      0x00\n        /* \"main.sol\":835:843  return 0 */\n      jump(tag_301)\n        /* \"main.sol\":808:855  if (a == 0) {... */\n    tag_510:\n        /* \"main.sol\":867:876  uint256 c */\n      0x00\n        /* \"main.sol\":879:884  a * b */\n      tag_511\n        /* \"main.sol\":883:884  b */\n      dup4\n        /* \"main.sol\":879:880  a */\n      dup6\n        /* \"main.sol\":879:884  a * b */\n      tag_297\n      jump\t// in\n    tag_511:\n        /* \"main.sol\":867:884  uint256 c = a * b */\n      swap1\n      pop\n        /* \"main.sol\":912:913  b */\n      dup3\n        /* \"main.sol\":903:908  c / a */\n      tag_512\n        /* \"main.sol\":907:908  a */\n      dup6\n        /* \"main.sol\":867:884  uint256 c = a * b */\n      dup4\n        /* \"main.sol\":903:908  c / a */\n      tag_299\n      jump\t// in\n    tag_512:\n        /* \"main.sol\":903:913  c / a == b */\n      eq\n        /* \"main.sol\":895:951  require(c / a == b, \"SafeMath: multiplication overflow\") */\n      tag_325\n      jumpi\n      mload(0x40)\n      shl(0xe5, 0x461bcd)\n      dup2\n      mstore\n        /* \"#utility.yul\":12951:12953   */\n      0x20\n        /* \"main.sol\":895:951  require(c / a == b, \"SafeMath: multiplication overflow\") */\n      0x04\n      dup3\n      add\n        /* \"#utility.yul\":12933:12954   */\n      mstore\n        /* \"#utility.yul\":12990:12992   */\n      0x21\n        /* \"#utility.yul\":12970:12988   */\n      0x24\n      dup3\n      add\n        /* \"#utility.yul\":12963:12993   */\n      mstore\n        /* \"#utility.yul\":13029:13063   */\n      0x536166654d6174683a206d756c7469706c69636174696f6e206f766572666c6f\n        /* \"#utility.yul\":13009:13027   */\n      0x44\n      dup3\n      add\n        /* \"#utility.yul\":13002:13064   */\n      mstore\n      shl(0xf8, 0x77)\n        /* \"#utility.yul\":13080:13098   */\n      0x64\n      dup3\n      add\n        /* \"#utility.yul\":13073:13104   */\n      mstore\n        /* \"#utility.yul\":13121:13140   */\n      0x84\n      add\n        /* \"main.sol\":895:951  require(c / a == b, \"SafeMath: multiplication overflow\") */\n      tag_287\n        /* \"#utility.yul\":12749:13146   */\n      jump\n        /* \"main.sol\":986:1118  function div(uint256 a, uint256 b) internal pure returns (uint256) {... */\n    tag_374:\n        /* \"main.sol\":1044:1051  uint256 */\n      0x00\n        /* \"main.sol\":1071:1110  div(a, b, \"SafeMath: division by zero\") */\n      tag_325\n        /* \"main.sol\":1075:1076  a */\n      dup4\n        /* \"main.sol\":1078:1079  b */\n      dup4\n        /* \"main.sol\":1071:1110  div(a, b, \"SafeMath: division by zero\") */\n      mload(0x40)\n      dup1\n      0x40\n      add\n      0x40\n      mstore\n      dup1\n      0x1a\n      dup2\n      mstore\n      0x20\n      add\n      0x536166654d6174683a206469766973696f6e206279207a65726f000000000000\n      dup2\n      mstore\n      pop\n        /* \"main.sol\":1071:1074  div */\n      tag_518\n        /* \"main.sol\":1071:1110  div(a, b, \"SafeMath: division by zero\") */\n      jump\t// in\n        /* \"main.sol\":10218:10548  function _basicTransfer(address sender, address recipient, uint256 amount) internal returns (bool) {... */\n    tag_376:\n        /* \"main.sol\":10348:10401  _balances[sender].sub(amount, \"Insufficient Balance\") */\n      0x40\n      dup1\n      mload\n      dup1\n      dup3\n      add\n      dup3\n      mstore\n      0x14\n      dup2\n      mstore\n      0x496e73756666696369656e742042616c616e6365000000000000000000000000\n      0x20\n      dup1\n      dup4\n      add\n      swap2\n      swap1\n      swap2\n      mstore\n      sub(shl(0xa0, 0x01), 0x01)\n        /* \"main.sol\":10348:10365  _balances[sender] */\n      dup7\n      and\n        /* \"main.sol\":10311:10315  bool */\n      0x00\n        /* \"main.sol\":10348:10365  _balances[sender] */\n      swap1\n      dup2\n      mstore\n        /* \"main.sol\":10348:10357  _balances */\n      0x08\n        /* \"main.sol\":10348:10365  _balances[sender] */\n      swap1\n      swap2\n      mstore\n      swap2\n      dup3\n      keccak256\n      sload\n        /* \"main.sol\":10348:10401  _balances[sender].sub(amount, \"Insufficient Balance\") */\n      tag_520\n      swap2\n        /* \"main.sol\":10370:10376  amount */\n      dup5\n      swap1\n        /* \"main.sol\":10348:10369  _balances[sender].sub */\n      tag_328\n        /* \"main.sol\":10348:10401  _balances[sender].sub(amount, \"Insufficient Balance\") */\n      jump\t// in\n    tag_520:\n      sub(shl(0xa0, 0x01), 0x01)\n        /* \"main.sol\":10328:10345  _balances[sender] */\n      dup1\n      dup7\n      and\n      0x00\n      swap1\n      dup2\n      mstore\n        /* \"main.sol\":10328:10337  _balances */\n      0x08\n        /* \"main.sol\":10328:10345  _balances[sender] */\n      0x20\n      mstore\n      0x40\n      dup1\n      dup3\n      keccak256\n        /* \"main.sol\":10328:10401  _balances[sender] = _balances[sender].sub(amount, \"Insufficient Balance\") */\n      swap4\n      swap1\n      swap4\n      sstore\n        /* \"main.sol\":10435:10455  _balances[recipient] */\n      swap1\n      dup6\n      and\n      dup2\n      mstore\n      keccak256\n      sload\n        /* \"main.sol\":10435:10467  _balances[recipient].add(amount) */\n      tag_521\n      swap1\n        /* \"main.sol\":10460:10466  amount */\n      dup4\n        /* \"main.sol\":10435:10459  _balances[recipient].add */\n      tag_505\n        /* \"main.sol\":10435:10467  _balances[recipient].add(amount) */\n      jump\t// in\n    tag_521:\n      sub(shl(0xa0, 0x01), 0x01)\n        /* \"main.sol\":10412:10432  _balances[recipient] */\n      dup1\n      dup6\n      and\n      0x00\n      dup2\n      dup2\n      mstore\n        /* \"main.sol\":10412:10421  _balances */\n      0x08\n        /* \"main.sol\":10412:10432  _balances[recipient] */\n      0x20\n      mstore\n      0x40\n      swap1\n      dup2\n      swap1\n      keccak256\n        /* \"main.sol\":10412:10467  _balances[recipient] = _balances[recipient].add(amount) */\n      swap4\n      swap1\n      swap4\n      sstore\n        /* \"main.sol\":10483:10518  Transfer(sender, recipient, amount) */\n      swap2\n      mload\n      swap1\n      dup7\n      and\n      swap1\n      0xddf252ad1be2c89b69c2b068fc378daa952ba7f163c4a11628f55a4df523b3ef\n      swap1\n      tag_522\n      swap1\n        /* \"main.sol\":10511:10517  amount */\n      dup7\n        /* \"#utility.yul\":160:185   */\n      dup2\n      mstore\n        /* \"#utility.yul\":148:150   */\n      0x20\n        /* \"#utility.yul\":133:151   */\n      add\n      swap1\n        /* \"#utility.yul\":14:191   */\n      jump\n        /* \"main.sol\":10483:10518  Transfer(sender, recipient, amount) */\n    tag_522:\n      mload(0x40)\n      dup1\n      swap2\n      sub\n      swap1\n      log3\n      pop\n        /* \"main.sol\":10536:10540  true */\n      0x01\n        /* \"main.sol\":10218:10548  function _basicTransfer(address sender, address recipient, uint256 amount) internal returns (bool) {... */\n      swap4\n      swap3\n      pop\n      pop\n      pop\n      jump\t// out\n        /* \"main.sol\":10947:11144  function shouldSwapBack() internal view returns (bool) {... */\n    tag_494:\n        /* \"main.sol\":11034:11038  pair */\n      sload(0x19)\n        /* \"main.sol\":10996:11000  bool */\n      0x00\n      swap1\n      sub(shl(0xa0, 0x01), 0x01)\n        /* \"main.sol\":11034:11038  pair */\n      and\n        /* \"main.sol\":11020:11030  msg.sender */\n      caller\n        /* \"main.sol\":11020:11038  msg.sender != pair */\n      eq\n      dup1\n      iszero\n      swap1\n        /* \"main.sol\":11020:11058  msg.sender != pair... */\n      tag_524\n      jumpi\n      pop\n        /* \"main.sol\":11052:11058  inSwap */\n      and(0xff, sload(0x1b))\n        /* \"main.sol\":11051:11058  !inSwap */\n      iszero\n        /* \"main.sol\":11020:11058  msg.sender != pair... */\n    tag_524:\n        /* \"main.sol\":11020:11082  msg.sender != pair... */\n      dup1\n      iszero\n      tag_525\n      jumpi\n      pop\n        /* \"main.sol\":11071:11082  swapEnabled */\n      sload(0x19)\n      shl(0xa8, 0x01)\n      swap1\n      div\n      0xff\n      and\n        /* \"main.sol\":11020:11082  msg.sender != pair... */\n    tag_525:\n        /* \"main.sol\":11020:11136  msg.sender != pair... */\n      dup1\n      iszero\n      tag_332\n      jumpi\n      pop\n      pop\n        /* \"main.sol\":11123:11136  swapThreshold */\n      sload(0x1a)\n        /* \"main.sol\":11113:11117  this */\n      address\n        /* \"main.sol\":11095:11119  _balances[address(this)] */\n      0x00\n      swap1\n      dup2\n      mstore\n        /* \"main.sol\":11095:11104  _balances */\n      0x08\n        /* \"main.sol\":11095:11119  _balances[address(this)] */\n      0x20\n      mstore\n      0x40\n      swap1\n      keccak256\n      sload\n        /* \"main.sol\":11095:11136  _balances[address(this)] >= swapThreshold */\n      lt\n      iszero\n      swap1\n        /* \"main.sol\":10947:11144  function shouldSwapBack() internal view returns (bool) {... */\n      jump\t// out\n        /* \"main.sol\":11750:13221  function swapBack() internal swapping {... */\n    tag_497:\n        /* \"main.sol\":5929:5935  inSwap */\n      0x1b\n        /* \"main.sol\":5929:5942  inSwap = true */\n      dup1\n      sload\n      not(0xff)\n      and\n        /* \"main.sol\":5938:5942  true */\n      0x01\n        /* \"main.sol\":5929:5942  inSwap = true */\n      or\n      swap1\n      sstore\n        /* \"main.sol\":11829:11841  liquidityFee */\n      sload(0x0d)\n        /* \"main.sol\":11921:11929  totalFee */\n      sload(0x10)\n        /* \"main.sol\":11878:11891  swapThreshold */\n      sload(0x1a)\n        /* \"main.sol\":5929:5935  inSwap */\n      0x00\n      swap2\n        /* \"main.sol\":11878:11937  swapThreshold.mul(dynamicLiquidityFee).div(totalFee).div(2) */\n      tag_529\n      swap2\n        /* \"main.sol\":11935:11936  2 */\n      0x02\n      swap2\n        /* \"main.sol\":11878:11930  swapThreshold.mul(dynamicLiquidityFee).div(totalFee) */\n      tag_372\n      swap2\n      dup3\n      swap1\n        /* \"main.sol\":11829:11841  liquidityFee */\n      dup8\n        /* \"main.sol\":11878:11895  swapThreshold.mul */\n      tag_373\n        /* \"main.sol\":11878:11916  swapThreshold.mul(dynamicLiquidityFee) */\n      jump\t// in\n        /* \"main.sol\":11878:11937  swapThreshold.mul(dynamicLiquidityFee).div(totalFee).div(2) */\n    tag_529:\n        /* \"main.sol\":11852:11937  uint256 amountToLiquify = swapThreshold.mul(dynamicLiquidityFee).div(totalFee).div(2) */\n      swap1\n      pop\n        /* \"main.sol\":11948:11968  uint256 amountToSwap */\n      0x00\n        /* \"main.sol\":11971:12005  swapThreshold.sub(amountToLiquify) */\n      tag_532\n        /* \"main.sol\":11989:12004  amountToLiquify */\n      dup3\n        /* \"main.sol\":11971:11984  swapThreshold */\n      sload(0x1a)\n        /* \"main.sol\":11971:11988  swapThreshold.sub */\n      tag_336\n      swap1\n        /* \"main.sol\":11971:12005  swapThreshold.sub(amountToLiquify) */\n      swap2\n      swap1\n      0xffffffff\n      and\n      jump\t// in\n    tag_532:\n        /* \"main.sol\":12042:12058  new address[](2) */\n      0x40\n      dup1\n      mload\n        /* \"main.sol\":12056:12057  2 */\n      0x02\n        /* \"main.sol\":12042:12058  new address[](2) */\n      dup1\n      dup3\n      mstore\n      0x60\n      dup3\n      add\n      dup4\n      mstore\n        /* \"main.sol\":11948:12005  uint256 amountToSwap = swapThreshold.sub(amountToLiquify) */\n      swap3\n      swap4\n      pop\n        /* \"main.sol\":12018:12039  address[] memory path */\n      0x00\n      swap3\n        /* \"main.sol\":12042:12058  new address[](2) */\n      swap1\n      swap2\n      0x20\n      dup4\n      add\n      swap1\n      dup1\n      calldatasize\n      dup4\n      calldatacopy\n      add\n      swap1\n      pop\n      pop\n        /* \"main.sol\":12018:12058  address[] memory path = new address[](2) */\n      swap1\n      pop\n        /* \"main.sol\":12087:12091  this */\n      address\n        /* \"main.sol\":12069:12073  path */\n      dup2\n        /* \"main.sol\":12074:12075  0 */\n      0x00\n        /* \"main.sol\":12069:12076  path[0] */\n      dup2\n      mload\n      dup2\n      lt\n      tag_537\n      jumpi\n      tag_537\n      tag_360\n      jump\t// in\n    tag_537:\n      sub(shl(0xa0, 0x01), 0x01)\n        /* \"main.sol\":12069:12092  path[0] = address(this) */\n      swap3\n      dup4\n      and\n        /* \"main.sol\":12069:12076  path[0] */\n      0x20\n      swap2\n      dup3\n      mul\n      swap3\n      swap1\n      swap3\n      add\n      add\n        /* \"main.sol\":12069:12092  path[0] = address(this) */\n      mstore\n        /* \"main.sol\":12113:12117  WETH */\n      sload(0x02)\n        /* \"main.sol\":12103:12110  path[1] */\n      dup3\n      mload\n        /* \"main.sol\":12113:12117  WETH */\n      swap2\n      and\n      swap1\n        /* \"main.sol\":12103:12107  path */\n      dup3\n      swap1\n        /* \"main.sol\":12113:12117  WETH */\n      0x01\n      swap1\n        /* \"main.sol\":12103:12110  path[1] */\n      dup2\n      lt\n      tag_539\n      jumpi\n      tag_539\n      tag_360\n      jump\t// in\n    tag_539:\n      sub(shl(0xa0, 0x01), 0x01)\n        /* \"main.sol\":12103:12117  path[1] = WETH */\n      swap3\n      dup4\n      and\n        /* \"main.sol\":12103:12110  path[1] */\n      0x20\n      swap2\n      dup3\n      mul\n      swap3\n      swap1\n      swap3\n      add\n      add\n        /* \"main.sol\":12103:12117  path[1] = WETH */\n      mstore\n        /* \"main.sol\":12130:12136  router */\n      sload(0x18)\n        /* \"main.sol\":12130:12318  router.swapExactTokensForETHSupportingFeeOnTransferTokens(... */\n      mload(0x40)\n      shl(0xe0, 0x791ac947)\n      dup2\n      mstore\n        /* \"main.sol\":12130:12136  router */\n      swap2\n      and\n      swap1\n        /* \"main.sol\":12130:12187  router.swapExactTokensForETHSupportingFeeOnTransferTokens */\n      0x791ac947\n      swap1\n        /* \"main.sol\":12130:12318  router.swapExactTokensForETHSupportingFeeOnTransferTokens(... */\n      tag_540\n      swap1\n        /* \"main.sol\":12202:12214  amountToSwap */\n      dup6\n      swap1\n        /* \"main.sol\":12130:12136  router */\n      0x00\n      swap1\n        /* \"main.sol\":12245:12249  path */\n      dup7\n      swap1\n        /* \"main.sol\":12272:12276  this */\n      address\n      swap1\n        /* \"main.sol\":12292:12307  block.timestamp */\n      timestamp\n      swap1\n        /* \"main.sol\":12130:12318  router.swapExactTokensForETHSupportingFeeOnTransferTokens(... */\n      0x04\n      add\n      tag_541\n      jump\t// in\n    tag_540:\n      0x00\n      mload(0x40)\n      dup1\n      dup4\n      sub\n      dup2\n      0x00\n      dup8\n      dup1\n      extcodesize\n      iszero\n      dup1\n      iszero\n      tag_542\n      jumpi\n      0x00\n      dup1\n      revert\n    tag_542:\n      pop\n      gas\n      call\n      iszero\n      dup1\n      iszero\n      tag_544\n      jumpi\n      returndatasize\n      0x00\n      dup1\n      returndatacopy\n      revert(0x00, returndatasize)\n    tag_544:\n      pop\n        /* \"main.sol\":12351:12372  address(this).balance */\n      selfbalance\n      swap3\n      pop\n        /* \"main.sol\":12331:12348  uint256 amountETH */\n      0x00\n      swap2\n      pop\n        /* \"main.sol\":12407:12447  totalFee.sub(dynamicLiquidityFee.div(2)) */\n      tag_545\n      swap1\n      pop\n        /* \"main.sol\":12420:12446  dynamicLiquidityFee.div(2) */\n      tag_546\n        /* \"main.sol\":12420:12439  dynamicLiquidityFee */\n      dup8\n        /* \"main.sol\":12444:12445  2 */\n      0x02\n        /* \"main.sol\":12420:12443  dynamicLiquidityFee.div */\n      tag_374\n        /* \"main.sol\":12420:12446  dynamicLiquidityFee.div(2) */\n      jump\t// in\n    tag_546:\n        /* \"main.sol\":12407:12415  totalFee */\n      sload(0x10)\n      swap1\n        /* \"main.sol\":12407:12419  totalFee.sub */\n      tag_336\n        /* \"main.sol\":12407:12447  totalFee.sub(dynamicLiquidityFee.div(2)) */\n      jump\t// in\n    tag_545:\n        /* \"main.sol\":12385:12447  uint256 totalETHFee = totalFee.sub(dynamicLiquidityFee.div(2)) */\n      swap1\n      pop\n        /* \"main.sol\":12468:12494  uint256 amountETHLiquidity */\n      0x00\n        /* \"main.sol\":12497:12555  amountETH.mul(dynamicLiquidityFee).div(totalETHFee).div(2) */\n      tag_547\n        /* \"main.sol\":12553:12554  2 */\n      0x02\n        /* \"main.sol\":12497:12548  amountETH.mul(dynamicLiquidityFee).div(totalETHFee) */\n      tag_372\n        /* \"main.sol\":12385:12447  uint256 totalETHFee = totalFee.sub(dynamicLiquidityFee.div(2)) */\n      dup5\n        /* \"main.sol\":12497:12548  amountETH.mul(dynamicLiquidityFee).div(totalETHFee) */\n      dup2\n        /* \"main.sol\":12497:12506  amountETH */\n      dup8\n        /* \"main.sol\":12511:12530  dynamicLiquidityFee */\n      dup13\n        /* \"main.sol\":12497:12510  amountETH.mul */\n      tag_373\n        /* \"main.sol\":12497:12531  amountETH.mul(dynamicLiquidityFee) */\n      jump\t// in\n        /* \"main.sol\":12497:12555  amountETH.mul(dynamicLiquidityFee).div(totalETHFee).div(2) */\n    tag_547:\n        /* \"main.sol\":12468:12555  uint256 amountETHLiquidity = amountETH.mul(dynamicLiquidityFee).div(totalETHFee).div(2) */\n      swap1\n      pop\n        /* \"main.sol\":12566:12592  uint256 amountETHMarketing */\n      0x00\n        /* \"main.sol\":12595:12639  amountETH.mul(marketingFee).div(totalETHFee) */\n      tag_550\n        /* \"main.sol\":12627:12638  totalETHFee */\n      dup4\n        /* \"main.sol\":12595:12622  amountETH.mul(marketingFee) */\n      tag_372\n        /* \"main.sol\":12609:12621  marketingFee */\n      sload(0x0e)\n        /* \"main.sol\":12595:12604  amountETH */\n      dup8\n        /* \"main.sol\":12595:12608  amountETH.mul */\n      tag_373\n      swap1\n        /* \"main.sol\":12595:12622  amountETH.mul(marketingFee) */\n      swap2\n      swap1\n      0xffffffff\n      and\n      jump\t// in\n        /* \"main.sol\":12595:12639  amountETH.mul(marketingFee).div(totalETHFee) */\n    tag_550:\n        /* \"main.sol\":12566:12639  uint256 amountETHMarketing = amountETH.mul(marketingFee).div(totalETHFee) */\n      swap1\n      pop\n        /* \"main.sol\":12650:12670  uint256 amountETHDev */\n      0x00\n        /* \"main.sol\":12673:12711  amountETH.mul(devFee).div(totalETHFee) */\n      tag_552\n        /* \"main.sol\":12699:12710  totalETHFee */\n      dup5\n        /* \"main.sol\":12673:12694  amountETH.mul(devFee) */\n      tag_372\n        /* \"main.sol\":12687:12693  devFee */\n      sload(0x0f)\n        /* \"main.sol\":12673:12682  amountETH */\n      dup9\n        /* \"main.sol\":12673:12686  amountETH.mul */\n      tag_373\n      swap1\n        /* \"main.sol\":12673:12694  amountETH.mul(devFee) */\n      swap2\n      swap1\n      0xffffffff\n      and\n      jump\t// in\n        /* \"main.sol\":12673:12711  amountETH.mul(devFee).div(totalETHFee) */\n    tag_552:\n        /* \"main.sol\":12732:12752  marketingFeeReceiver */\n      sload(0x16)\n        /* \"main.sol\":12724:12782  payable(marketingFeeReceiver).transfer(amountETHMarketing) */\n      mload(0x40)\n        /* \"main.sol\":12650:12711  uint256 amountETHDev = amountETH.mul(devFee).div(totalETHFee) */\n      swap2\n      swap3\n      pop\n      sub(shl(0xa0, 0x01), 0x01)\n        /* \"main.sol\":12732:12752  marketingFeeReceiver */\n      and\n      swap1\n        /* \"main.sol\":12724:12782  payable(marketingFeeReceiver).transfer(amountETHMarketing) */\n      dup4\n      iszero\n      0x08fc\n      mul\n      swap1\n        /* \"main.sol\":12763:12781  amountETHMarketing */\n      dup5\n      swap1\n        /* \"main.sol\":12732:12752  marketingFeeReceiver */\n      0x00\n        /* \"main.sol\":12724:12782  payable(marketingFeeReceiver).transfer(amountETHMarketing) */\n      dup2\n        /* \"main.sol\":12732:12752  marketingFeeReceiver */\n      dup2\n        /* \"main.sol\":12724:12782  payable(marketingFeeReceiver).transfer(amountETHMarketing) */\n      dup2\n        /* \"main.sol\":12763:12781  amountETHMarketing */\n      dup6\n        /* \"main.sol\":12732:12752  marketingFeeReceiver */\n      dup9\n        /* \"main.sol\":12724:12782  payable(marketingFeeReceiver).transfer(amountETHMarketing) */\n      dup9\n      call\n      swap4\n      pop\n      pop\n      pop\n      pop\n      iszero\n      dup1\n      iszero\n      tag_555\n      jumpi\n      returndatasize\n      0x00\n      dup1\n      returndatacopy\n      revert(0x00, returndatasize)\n    tag_555:\n      pop\n        /* \"main.sol\":12801:12815  devFeeReceiver */\n      sload(0x17)\n        /* \"main.sol\":12793:12839  payable(devFeeReceiver).transfer(amountETHDev) */\n      mload(0x40)\n      sub(shl(0xa0, 0x01), 0x01)\n        /* \"main.sol\":12801:12815  devFeeReceiver */\n      swap1\n      swap2\n      and\n      swap1\n        /* \"main.sol\":12793:12839  payable(devFeeReceiver).transfer(amountETHDev) */\n      dup3\n      iszero\n      0x08fc\n      mul\n      swap1\n        /* \"main.sol\":12826:12838  amountETHDev */\n      dup4\n      swap1\n        /* \"main.sol\":12801:12815  devFeeReceiver */\n      0x00\n        /* \"main.sol\":12793:12839  payable(devFeeReceiver).transfer(amountETHDev) */\n      dup2\n        /* \"main.sol\":12801:12815  devFeeReceiver */\n      dup2\n        /* \"main.sol\":12793:12839  payable(devFeeReceiver).transfer(amountETHDev) */\n      dup2\n        /* \"main.sol\":12826:12838  amountETHDev */\n      dup6\n        /* \"main.sol\":12801:12815  devFeeReceiver */\n      dup9\n        /* \"main.sol\":12793:12839  payable(devFeeReceiver).transfer(amountETHDev) */\n      dup9\n      call\n      swap4\n      pop\n      pop\n      pop\n      pop\n      iszero\n      dup1\n      iszero\n      tag_557\n      jumpi\n      returndatasize\n      0x00\n      dup1\n      returndatacopy\n      revert(0x00, returndatasize)\n    tag_557:\n      pop\n        /* \"main.sol\":12855:12874  amountToLiquify > 0 */\n      dup8\n      iszero\n        /* \"main.sol\":12852:13214  if(amountToLiquify > 0){... */\n      tag_558\n      jumpi\n        /* \"main.sol\":12890:12896  router */\n      sload(0x18)\n        /* \"main.sol\":13064:13085  autoLiquidityReceiver */\n      sload(0x15)\n        /* \"main.sol\":12890:13134  router.addLiquidityETH{value: amountETHLiquidity}(... */\n      mload(0x40)\n      shl(0xe0, 0xf305d719)\n      dup2\n      mstore\n        /* \"main.sol\":12966:12970  this */\n      address\n        /* \"main.sol\":12890:13134  router.addLiquidityETH{value: amountETHLiquidity}(... */\n      0x04\n      dup3\n      add\n        /* \"#utility.yul\":14125:14159   */\n      mstore\n        /* \"#utility.yul\":14175:14193   */\n      0x24\n      dup2\n      add\n        /* \"#utility.yul\":14168:14202   */\n      dup12\n      swap1\n      mstore\n        /* \"main.sol\":12890:12896  router */\n      0x00\n        /* \"#utility.yul\":14218:14236   */\n      0x44\n      dup3\n      add\n        /* \"#utility.yul\":14211:14245   */\n      dup2\n      swap1\n      mstore\n        /* \"#utility.yul\":14261:14279   */\n      0x64\n      dup3\n      add\n        /* \"#utility.yul\":14254:14288   */\n      mstore\n      sub(shl(0xa0, 0x01), 0x01)\n        /* \"main.sol\":13064:13085  autoLiquidityReceiver */\n      swap2\n      dup3\n      and\n        /* \"#utility.yul\":14304:14323   */\n      0x84\n      dup3\n      add\n        /* \"#utility.yul\":14297:14341   */\n      mstore\n        /* \"main.sol\":13104:13119  block.timestamp */\n      timestamp\n        /* \"#utility.yul\":14357:14376   */\n      0xa4\n      dup3\n      add\n        /* \"#utility.yul\":14350:14385   */\n      mstore\n        /* \"main.sol\":12890:12896  router */\n      swap2\n      and\n      swap1\n        /* \"main.sol\":12890:12912  router.addLiquidityETH */\n      0xf305d719\n      swap1\n        /* \"main.sol\":12920:12938  amountETHLiquidity */\n      dup6\n      swap1\n        /* \"#utility.yul\":14036:14055   */\n      0xc4\n      add\n        /* \"main.sol\":12890:13134  router.addLiquidityETH{value: amountETHLiquidity}(... */\n      0x60\n      mload(0x40)\n      dup1\n      dup4\n      sub\n      dup2\n      dup6\n      dup9\n      gas\n      call\n      iszero\n      dup1\n      iszero\n      tag_562\n      jumpi\n      returndatasize\n      0x00\n      dup1\n      returndatacopy\n      revert(0x00, returndatasize)\n    tag_562:\n      pop\n      pop\n      pop\n      pop\n      pop\n      mload(0x40)\n      returndatasize\n      not(0x1f)\n      0x1f\n      dup3\n      add\n      and\n      dup3\n      add\n      dup1\n      0x40\n      mstore\n      pop\n      dup2\n      add\n      swap1\n      tag_563\n      swap2\n      swap1\n      tag_564\n      jump\t// in\n    tag_563:\n      pop\n      pop\n        /* \"main.sol\":13154:13202  AutoLiquify(amountETHLiquidity, amountToLiquify) */\n      0x40\n      dup1\n      mload\n        /* \"#utility.yul\":14881:14906   */\n      dup6\n      dup2\n      mstore\n        /* \"#utility.yul\":14937:14939   */\n      0x20\n        /* \"#utility.yul\":14922:14940   */\n      dup2\n      add\n        /* \"#utility.yul\":14915:14949   */\n      dup12\n      swap1\n      mstore\n        /* \"main.sol\":13154:13202  AutoLiquify(amountETHLiquidity, amountToLiquify) */\n      0x424db2872186fa7e7afa7a5e902ed3b49a2ef19c2f5431e672462495dd6b4506\n      swap3\n      pop\n        /* \"#utility.yul\":14854:14872   */\n      add\n        /* \"main.sol\":13154:13202  AutoLiquify(amountETHLiquidity, amountToLiquify) */\n      mload(0x40)\n      dup1\n      swap2\n      sub\n      swap1\n      log1\n        /* \"main.sol\":12852:13214  if(amountToLiquify > 0){... */\n    tag_558:\n      pop\n      pop\n        /* \"main.sol\":5947:5953  inSwap */\n      0x1b\n        /* \"main.sol\":5947:5961  inSwap = false */\n      dup1\n      sload\n      not(0xff)\n      and\n      swap1\n      sstore\n      pop\n      pop\n      pop\n      pop\n      pop\n      pop\n      pop\n        /* \"main.sol\":11750:13221  function swapBack() internal swapping {... */\n      jump\t// out\n        /* \"main.sol\":10556:10939  function takeFee(address sender, uint256 amount) internal returns (uint256) {... */\n    tag_502:\n        /* \"main.sol\":10623:10630  uint256 */\n      0x00\n        /* \"main.sol\":10645:10662  uint256 feeAmount */\n      dup1\n        /* \"main.sol\":10665:10705  amount.mul(totalFee).div(feeDenominator) */\n      tag_568\n        /* \"main.sol\":5216:5219  100 */\n      0x64\n        /* \"main.sol\":10665:10685  amount.mul(totalFee) */\n      tag_372\n        /* \"main.sol\":10676:10684  totalFee */\n      sload(0x10)\n        /* \"main.sol\":10665:10671  amount */\n      dup7\n        /* \"main.sol\":10665:10675  amount.mul */\n      tag_373\n      swap1\n        /* \"main.sol\":10665:10685  amount.mul(totalFee) */\n      swap2\n      swap1\n      0xffffffff\n      and\n      jump\t// in\n        /* \"main.sol\":10665:10705  amount.mul(totalFee).div(feeDenominator) */\n    tag_568:\n        /* \"main.sol\":10645:10705  uint256 feeAmount = amount.mul(totalFee).div(feeDenominator) */\n      swap1\n      pop\n        /* \"main.sol\":10721:10734  feeAmount > 0 */\n      dup1\n      iszero\n        /* \"main.sol\":10718:10890  if(feeAmount > 0){... */\n      tag_570\n      jumpi\n        /* \"main.sol\":10795:10799  this */\n      address\n        /* \"main.sol\":10777:10801  _balances[address(this)] */\n      0x00\n      swap1\n      dup2\n      mstore\n        /* \"main.sol\":10777:10786  _balances */\n      0x08\n        /* \"main.sol\":10777:10801  _balances[address(this)] */\n      0x20\n      mstore\n      0x40\n      swap1\n      keccak256\n      sload\n        /* \"main.sol\":10777:10816  _balances[address(this)].add(feeAmount) */\n      tag_571\n      swap1\n        /* \"main.sol\":10806:10815  feeAmount */\n      dup3\n        /* \"main.sol\":10777:10805  _balances[address(this)].add */\n      tag_505\n        /* \"main.sol\":10777:10816  _balances[address(this)].add(feeAmount) */\n      jump\t// in\n    tag_571:\n        /* \"main.sol\":10768:10772  this */\n      address\n        /* \"main.sol\":10750:10774  _balances[address(this)] */\n      0x00\n      dup2\n      dup2\n      mstore\n        /* \"main.sol\":10750:10759  _balances */\n      0x08\n        /* \"main.sol\":10750:10774  _balances[address(this)] */\n      0x20\n      mstore\n      0x40\n      swap1\n      dup2\n      swap1\n      keccak256\n        /* \"main.sol\":10750:10816  _balances[address(this)] = _balances[address(this)].add(feeAmount) */\n      swap3\n      swap1\n      swap3\n      sstore\n        /* \"main.sol\":10836:10878  Transfer(sender, address(this), feeAmount) */\n      swap1\n      mload\n      sub(shl(0xa0, 0x01), 0x01)\n      dup7\n      and\n      swap1\n      0xddf252ad1be2c89b69c2b068fc378daa952ba7f163c4a11628f55a4df523b3ef\n      swap1\n      tag_572\n      swap1\n        /* \"main.sol\":10868:10877  feeAmount */\n      dup6\n        /* \"#utility.yul\":160:185   */\n      dup2\n      mstore\n        /* \"#utility.yul\":148:150   */\n      0x20\n        /* \"#utility.yul\":133:151   */\n      add\n      swap1\n        /* \"#utility.yul\":14:191   */\n      jump\n        /* \"main.sol\":10836:10878  Transfer(sender, address(this), feeAmount) */\n    tag_572:\n      mload(0x40)\n      dup1\n      swap2\n      sub\n      swap1\n      log3\n        /* \"main.sol\":10718:10890  if(feeAmount > 0){... */\n    tag_570:\n        /* \"main.sol\":10910:10931  amount.sub(feeAmount) */\n      tag_573\n        /* \"main.sol\":10910:10916  amount */\n      dup4\n        /* \"main.sol\":10921:10930  feeAmount */\n      dup3\n        /* \"main.sol\":10910:10920  amount.sub */\n      tag_336\n        /* \"main.sol\":10910:10931  amount.sub(feeAmount) */\n      jump\t// in\n    tag_573:\n        /* \"main.sol\":10903:10931  return amount.sub(feeAmount) */\n      swap5\n        /* \"main.sol\":10556:10939  function takeFee(address sender, uint256 amount) internal returns (uint256) {... */\n      swap4\n      pop\n      pop\n      pop\n      pop\n      jump\t// out\n        /* \"main.sol\":203:384  function add(uint256 a, uint256 b) internal pure returns (uint256) {... */\n    tag_505:\n        /* \"main.sol\":261:268  uint256 */\n      0x00\n      dup1\n        /* \"main.sol\":293:298  a + b */\n      tag_575\n        /* \"main.sol\":297:298  b */\n      dup4\n        /* \"main.sol\":293:294  a */\n      dup6\n        /* \"main.sol\":293:298  a + b */\n      tag_345\n      jump\t// in\n    tag_575:\n        /* \"main.sol\":281:298  uint256 c = a + b */\n      swap1\n      pop\n        /* \"main.sol\":322:323  a */\n      dup4\n        /* \"main.sol\":317:318  c */\n      dup2\n        /* \"main.sol\":317:323  c >= a */\n      lt\n      iszero\n        /* \"main.sol\":309:355  require(c >= a, \"SafeMath: addition overflow\") */\n      tag_325\n      jumpi\n      mload(0x40)\n      shl(0xe5, 0x461bcd)\n      dup2\n      mstore\n        /* \"#utility.yul\":15162:15164   */\n      0x20\n        /* \"main.sol\":309:355  require(c >= a, \"SafeMath: addition overflow\") */\n      0x04\n      dup3\n      add\n        /* \"#utility.yul\":15144:15165   */\n      mstore\n        /* \"#utility.yul\":15201:15203   */\n      0x1b\n        /* \"#utility.yul\":15181:15199   */\n      0x24\n      dup3\n      add\n        /* \"#utility.yul\":15174:15204   */\n      mstore\n        /* \"#utility.yul\":15240:15269   */\n      0x536166654d6174683a206164646974696f6e206f766572666c6f770000000000\n        /* \"#utility.yul\":15220:15238   */\n      0x44\n      dup3\n      add\n        /* \"#utility.yul\":15213:15270   */\n      mstore\n        /* \"#utility.yul\":15287:15305   */\n      0x64\n      add\n        /* \"main.sol\":309:355  require(c >= a, \"SafeMath: addition overflow\") */\n      tag_287\n        /* \"#utility.yul\":14960:15311   */\n      jump\n        /* \"main.sol\":1124:1313  function div(uint256 a, uint256 b, string memory errorMessage) internal pure returns (uint256) {... */\n    tag_518:\n        /* \"main.sol\":1210:1217  uint256 */\n      0x00\n        /* \"main.sol\":1245:1257  errorMessage */\n      dup2\n        /* \"main.sol\":1238:1243  b > 0 */\n      dup4\n        /* \"main.sol\":1230:1258  require(b > 0, errorMessage) */\n      tag_580\n      jumpi\n      mload(0x40)\n      shl(0xe5, 0x461bcd)\n      dup2\n      mstore\n      0x04\n      add\n      tag_287\n      swap2\n      swap1\n      tag_81\n      jump\t// in\n    tag_580:\n      pop\n        /* \"main.sol\":1269:1278  uint256 c */\n      0x00\n        /* \"main.sol\":1281:1286  a / b */\n      tag_469\n        /* \"main.sol\":1285:1286  b */\n      dup5\n        /* \"main.sol\":1281:1282  a */\n      dup7\n        /* \"main.sol\":1281:1286  a / b */\n      tag_299\n      jump\t// in\n        /* \"#utility.yul\":196:376   */\n    tag_75:\n        /* \"#utility.yul\":255:261   */\n      0x00\n        /* \"#utility.yul\":308:310   */\n      0x20\n        /* \"#utility.yul\":296:305   */\n      dup3\n        /* \"#utility.yul\":287:294   */\n      dup5\n        /* \"#utility.yul\":283:306   */\n      sub\n        /* \"#utility.yul\":279:311   */\n      slt\n        /* \"#utility.yul\":276:328   */\n      iszero\n      tag_589\n      jumpi\n        /* \"#utility.yul\":324:325   */\n      0x00\n        /* \"#utility.yul\":321:322   */\n      dup1\n        /* \"#utility.yul\":314:326   */\n      revert\n        /* \"#utility.yul\":276:328   */\n    tag_589:\n      pop\n        /* \"#utility.yul\":347:370   */\n      calldataload\n      swap2\n        /* \"#utility.yul\":196:376   */\n      swap1\n      pop\n      jump\t// out\n        /* \"#utility.yul\":381:929   */\n    tag_81:\n        /* \"#utility.yul\":493:497   */\n      0x00\n        /* \"#utility.yul\":522:524   */\n      0x20\n        /* \"#utility.yul\":551:553   */\n      dup1\n        /* \"#utility.yul\":540:549   */\n      dup4\n        /* \"#utility.yul\":533:554   */\n      mstore\n        /* \"#utility.yul\":583:589   */\n      dup4\n        /* \"#utility.yul\":577:590   */\n      mload\n        /* \"#utility.yul\":626:632   */\n      dup1\n        /* \"#utility.yul\":621:623   */\n      dup3\n        /* \"#utility.yul\":610:619   */\n      dup6\n        /* \"#utility.yul\":606:624   */\n      add\n        /* \"#utility.yul\":599:633   */\n      mstore\n        /* \"#utility.yul\":651:652   */\n      0x00\n        /* \"#utility.yul\":661:801   */\n    tag_591:\n        /* \"#utility.yul\":675:681   */\n      dup2\n        /* \"#utility.yul\":672:673   */\n      dup2\n        /* \"#utility.yul\":669:682   */\n      lt\n        /* \"#utility.yul\":661:801   */\n      iszero\n      tag_593\n      jumpi\n        /* \"#utility.yul\":770:784   */\n      dup6\n      dup2\n      add\n        /* \"#utility.yul\":766:789   */\n      dup4\n      add\n        /* \"#utility.yul\":760:790   */\n      mload\n        /* \"#utility.yul\":736:753   */\n      dup6\n      dup3\n      add\n        /* \"#utility.yul\":755:757   */\n      0x40\n        /* \"#utility.yul\":732:758   */\n      add\n        /* \"#utility.yul\":725:791   */\n      mstore\n        /* \"#utility.yul\":690:700   */\n      dup3\n      add\n        /* \"#utility.yul\":661:801   */\n      jump(tag_591)\n    tag_593:\n        /* \"#utility.yul\":665:668   */\n      pop\n        /* \"#utility.yul\":850:851   */\n      0x00\n        /* \"#utility.yul\":845:847   */\n      0x40\n        /* \"#utility.yul\":836:842   */\n      dup3\n        /* \"#utility.yul\":825:834   */\n      dup7\n        /* \"#utility.yul\":821:843   */\n      add\n        /* \"#utility.yul\":817:848   */\n      add\n        /* \"#utility.yul\":810:852   */\n      mstore\n        /* \"#utility.yul\":920:922   */\n      0x40\n        /* \"#utility.yul\":913:915   */\n      0x1f\n        /* \"#utility.yul\":909:916   */\n      not\n        /* \"#utility.yul\":904:906   */\n      0x1f\n        /* \"#utility.yul\":896:902   */\n      dup4\n        /* \"#utility.yul\":892:907   */\n      add\n        /* \"#utility.yul\":888:917   */\n      and\n        /* \"#utility.yul\":877:886   */\n      dup6\n        /* \"#utility.yul\":873:918   */\n      add\n        /* \"#utility.yul\":869:923   */\n      add\n        /* \"#utility.yul\":861:923   */\n      swap3\n      pop\n      pop\n      pop\n        /* \"#utility.yul\":381:929   */\n      swap3\n      swap2\n      pop\n      pop\n      jump\t// out\n        /* \"#utility.yul\":934:1088   */\n    tag_583:\n      sub(shl(0xa0, 0x01), 0x01)\n        /* \"#utility.yul\":1013:1018   */\n      dup2\n        /* \"#utility.yul\":1009:1063   */\n      and\n        /* \"#utility.yul\":1002:1007   */\n      dup2\n        /* \"#utility.yul\":999:1064   */\n      eq\n        /* \"#utility.yul\":989:1082   */\n      tag_595\n      jumpi\n        /* \"#utility.yul\":1078:1079   */\n      0x00\n        /* \"#utility.yul\":1075:1076   */\n      dup1\n        /* \"#utility.yul\":1068:1080   */\n      revert\n        /* \"#utility.yul\":989:1082   */\n    tag_595:\n        /* \"#utility.yul\":934:1088   */\n      pop\n      jump\t// out\n        /* \"#utility.yul\":1093:1408   */\n    tag_85:\n        /* \"#utility.yul\":1161:1167   */\n      0x00\n        /* \"#utility.yul\":1169:1175   */\n      dup1\n        /* \"#utility.yul\":1222:1224   */\n      0x40\n        /* \"#utility.yul\":1210:1219   */\n      dup4\n        /* \"#utility.yul\":1201:1208   */\n      dup6\n        /* \"#utility.yul\":1197:1220   */\n      sub\n        /* \"#utility.yul\":1193:1225   */\n      slt\n        /* \"#utility.yul\":1190:1242   */\n      iszero\n      tag_597\n      jumpi\n        /* \"#utility.yul\":1238:1239   */\n      0x00\n        /* \"#utility.yul\":1235:1236   */\n      dup1\n        /* \"#utility.yul\":1228:1240   */\n      revert\n        /* \"#utility.yul\":1190:1242   */\n    tag_597:\n        /* \"#utility.yul\":1277:1286   */\n      dup3\n        /* \"#utility.yul\":1264:1287   */\n      calldataload\n        /* \"#utility.yul\":1296:1327   */\n      tag_598\n        /* \"#utility.yul\":1321:1326   */\n      dup2\n        /* \"#utility.yul\":1296:1327   */\n      tag_583\n      jump\t// in\n    tag_598:\n        /* \"#utility.yul\":1346:1351   */\n      swap5\n        /* \"#utility.yul\":1398:1400   */\n      0x20\n        /* \"#utility.yul\":1383:1401   */\n      swap4\n      swap1\n      swap4\n      add\n        /* \"#utility.yul\":1370:1402   */\n      calldataload\n      swap4\n      pop\n      pop\n      pop\n        /* \"#utility.yul\":1093:1408   */\n      jump\t// out\n        /* \"#utility.yul\":1605:2061   */\n    tag_112:\n        /* \"#utility.yul\":1682:1688   */\n      0x00\n        /* \"#utility.yul\":1690:1696   */\n      dup1\n        /* \"#utility.yul\":1698:1704   */\n      0x00\n        /* \"#utility.yul\":1751:1753   */\n      0x60\n        /* \"#utility.yul\":1739:1748   */\n      dup5\n        /* \"#utility.yul\":1730:1737   */\n      dup7\n        /* \"#utility.yul\":1726:1749   */\n      sub\n        /* \"#utility.yul\":1722:1754   */\n      slt\n        /* \"#utility.yul\":1719:1771   */\n      iszero\n      tag_601\n      jumpi\n        /* \"#utility.yul\":1767:1768   */\n      0x00\n        /* \"#utility.yul\":1764:1765   */\n      dup1\n        /* \"#utility.yul\":1757:1769   */\n      revert\n        /* \"#utility.yul\":1719:1771   */\n    tag_601:\n        /* \"#utility.yul\":1806:1815   */\n      dup4\n        /* \"#utility.yul\":1793:1816   */\n      calldataload\n        /* \"#utility.yul\":1825:1856   */\n      tag_602\n        /* \"#utility.yul\":1850:1855   */\n      dup2\n        /* \"#utility.yul\":1825:1856   */\n      tag_583\n      jump\t// in\n    tag_602:\n        /* \"#utility.yul\":1875:1880   */\n      swap3\n      pop\n        /* \"#utility.yul\":1932:1934   */\n      0x20\n        /* \"#utility.yul\":1917:1935   */\n      dup5\n      add\n        /* \"#utility.yul\":1904:1936   */\n      calldataload\n        /* \"#utility.yul\":1945:1978   */\n      tag_603\n        /* \"#utility.yul\":1904:1936   */\n      dup2\n        /* \"#utility.yul\":1945:1978   */\n      tag_583\n      jump\t// in\n    tag_603:\n        /* \"#utility.yul\":1605:2061   */\n      swap3\n      swap6\n        /* \"#utility.yul\":1997:2004   */\n      swap3\n      swap5\n      pop\n      pop\n      pop\n        /* \"#utility.yul\":2051:2053   */\n      0x40\n        /* \"#utility.yul\":2036:2054   */\n      swap2\n      swap1\n      swap2\n      add\n        /* \"#utility.yul\":2023:2055   */\n      calldataload\n      swap1\n        /* \"#utility.yul\":1605:2061   */\n      jump\t// out\n        /* \"#utility.yul\":2066:2313   */\n    tag_122:\n        /* \"#utility.yul\":2125:2131   */\n      0x00\n        /* \"#utility.yul\":2178:2180   */\n      0x20\n        /* \"#utility.yul\":2166:2175   */\n      dup3\n        /* \"#utility.yul\":2157:2164   */\n      dup5\n        /* \"#utility.yul\":2153:2176   */\n      sub\n        /* \"#utility.yul\":2149:2181   */\n      slt\n        /* \"#utility.yul\":2146:2198   */\n      iszero\n      tag_605\n      jumpi\n        /* \"#utility.yul\":2194:2195   */\n      0x00\n        /* \"#utility.yul\":2191:2192   */\n      dup1\n        /* \"#utility.yul\":2184:2196   */\n      revert\n        /* \"#utility.yul\":2146:2198   */\n    tag_605:\n        /* \"#utility.yul\":2233:2242   */\n      dup2\n        /* \"#utility.yul\":2220:2243   */\n      calldataload\n        /* \"#utility.yul\":2252:2283   */\n      tag_325\n        /* \"#utility.yul\":2277:2282   */\n      dup2\n        /* \"#utility.yul\":2252:2283   */\n      tag_583\n      jump\t// in\n        /* \"#utility.yul\":2507:2776   */\n    tag_151:\n        /* \"#utility.yul\":2564:2570   */\n      0x00\n        /* \"#utility.yul\":2617:2619   */\n      0x20\n        /* \"#utility.yul\":2605:2614   */\n      dup3\n        /* \"#utility.yul\":2596:2603   */\n      dup5\n        /* \"#utility.yul\":2592:2615   */\n      sub\n        /* \"#utility.yul\":2588:2620   */\n      slt\n        /* \"#utility.yul\":2585:2637   */\n      iszero\n      tag_609\n      jumpi\n        /* \"#utility.yul\":2633:2634   */\n      0x00\n        /* \"#utility.yul\":2630:2631   */\n      dup1\n        /* \"#utility.yul\":2623:2635   */\n      revert\n        /* \"#utility.yul\":2585:2637   */\n    tag_609:\n        /* \"#utility.yul\":2672:2681   */\n      dup2\n        /* \"#utility.yul\":2659:2682   */\n      calldataload\n        /* \"#utility.yul\":2722:2726   */\n      0xff\n        /* \"#utility.yul\":2715:2720   */\n      dup2\n        /* \"#utility.yul\":2711:2727   */\n      and\n        /* \"#utility.yul\":2704:2709   */\n      dup2\n        /* \"#utility.yul\":2701:2728   */\n      eq\n        /* \"#utility.yul\":2691:2746   */\n      tag_325\n      jumpi\n        /* \"#utility.yul\":2742:2743   */\n      0x00\n        /* \"#utility.yul\":2739:2740   */\n      dup1\n        /* \"#utility.yul\":2732:2744   */\n      revert\n        /* \"#utility.yul\":2781:3413   */\n    tag_154:\n        /* \"#utility.yul\":2952:2954   */\n      0x20\n        /* \"#utility.yul\":3004:3025   */\n      dup1\n      dup3\n      mstore\n        /* \"#utility.yul\":3074:3087   */\n      dup3\n      mload\n        /* \"#utility.yul\":2977:2995   */\n      dup3\n      dup3\n      add\n        /* \"#utility.yul\":3096:3118   */\n      dup2\n      swap1\n      mstore\n        /* \"#utility.yul\":2923:2927   */\n      0x00\n      swap2\n        /* \"#utility.yul\":2952:2954   */\n      swap1\n        /* \"#utility.yul\":3175:3190   */\n      dup5\n      dup3\n      add\n      swap1\n        /* \"#utility.yul\":3149:3151   */\n      0x40\n        /* \"#utility.yul\":3134:3152   */\n      dup6\n      add\n      swap1\n        /* \"#utility.yul\":2923:2927   */\n      dup5\n        /* \"#utility.yul\":3218:3387   */\n    tag_612:\n        /* \"#utility.yul\":3232:3238   */\n      dup2\n        /* \"#utility.yul\":3229:3230   */\n      dup2\n        /* \"#utility.yul\":3226:3239   */\n      lt\n        /* \"#utility.yul\":3218:3387   */\n      iszero\n      tag_614\n      jumpi\n        /* \"#utility.yul\":3293:3306   */\n      dup4\n      mload\n        /* \"#utility.yul\":3281:3307   */\n      dup4\n      mstore\n        /* \"#utility.yul\":3362:3377   */\n      swap3\n      dup5\n      add\n      swap3\n        /* \"#utility.yul\":3327:3339   */\n      swap2\n      dup5\n      add\n      swap2\n        /* \"#utility.yul\":3254:3255   */\n      0x01\n        /* \"#utility.yul\":3247:3256   */\n      add\n        /* \"#utility.yul\":3218:3387   */\n      jump(tag_612)\n    tag_614:\n      pop\n        /* \"#utility.yul\":3404:3407   */\n      swap1\n      swap7\n        /* \"#utility.yul\":2781:3413   */\n      swap6\n      pop\n      pop\n      pop\n      pop\n      pop\n      pop\n      jump\t// out\n        /* \"#utility.yul\":3649:4133   */\n    tag_584:\n        /* \"#utility.yul\":3702:3705   */\n      0x00\n        /* \"#utility.yul\":3740:3745   */\n      dup2\n        /* \"#utility.yul\":3734:3746   */\n      mload\n        /* \"#utility.yul\":3767:3773   */\n      dup1\n        /* \"#utility.yul\":3762:3765   */\n      dup5\n        /* \"#utility.yul\":3755:3774   */\n      mstore\n        /* \"#utility.yul\":3793:3797   */\n      0x20\n        /* \"#utility.yul\":3822:3824   */\n      dup1\n        /* \"#utility.yul\":3817:3820   */\n      dup6\n        /* \"#utility.yul\":3813:3825   */\n      add\n        /* \"#utility.yul\":3806:3825   */\n      swap5\n      pop\n        /* \"#utility.yul\":3859:3861   */\n      dup1\n        /* \"#utility.yul\":3852:3857   */\n      dup5\n        /* \"#utility.yul\":3848:3862   */\n      add\n        /* \"#utility.yul\":3880:3881   */\n      0x00\n        /* \"#utility.yul\":3890:4108   */\n    tag_617:\n        /* \"#utility.yul\":3904:3910   */\n      dup4\n        /* \"#utility.yul\":3901:3902   */\n      dup2\n        /* \"#utility.yul\":3898:3911   */\n      lt\n        /* \"#utility.yul\":3890:4108   */\n      iszero\n      tag_619\n      jumpi\n        /* \"#utility.yul\":3969:3982   */\n      dup2\n      mload\n      sub(shl(0xa0, 0x01), 0x01)\n        /* \"#utility.yul\":3965:4027   */\n      and\n        /* \"#utility.yul\":3953:4028   */\n      dup8\n      mstore\n        /* \"#utility.yul\":4048:4060   */\n      swap6\n      dup3\n      add\n      swap6\n        /* \"#utility.yul\":4083:4098   */\n      swap1\n      dup3\n      add\n      swap1\n        /* \"#utility.yul\":3926:3927   */\n      0x01\n        /* \"#utility.yul\":3919:3928   */\n      add\n        /* \"#utility.yul\":3890:4108   */\n      jump(tag_617)\n    tag_619:\n      pop\n        /* \"#utility.yul\":4124:4127   */\n      swap5\n      swap6\n        /* \"#utility.yul\":3649:4133   */\n      swap5\n      pop\n      pop\n      pop\n      pop\n      pop\n      jump\t// out\n        /* \"#utility.yul\":4138:4399   */\n    tag_202:\n        /* \"#utility.yul\":4317:4319   */\n      0x20\n        /* \"#utility.yul\":4306:4315   */\n      dup2\n        /* \"#utility.yul\":4299:4320   */\n      mstore\n        /* \"#utility.yul\":4280:4284   */\n      0x00\n        /* \"#utility.yul\":4337:4393   */\n      tag_325\n        /* \"#utility.yul\":4389:4391   */\n      0x20\n        /* \"#utility.yul\":4378:4387   */\n      dup4\n        /* \"#utility.yul\":4374:4392   */\n      add\n        /* \"#utility.yul\":4366:4372   */\n      dup5\n        /* \"#utility.yul\":4337:4393   */\n      tag_584\n      jump\t// in\n        /* \"#utility.yul\":4404:4720   */\n    tag_226:\n        /* \"#utility.yul\":4481:4487   */\n      0x00\n        /* \"#utility.yul\":4489:4495   */\n      dup1\n        /* \"#utility.yul\":4497:4503   */\n      0x00\n        /* \"#utility.yul\":4550:4552   */\n      0x60\n        /* \"#utility.yul\":4538:4547   */\n      dup5\n        /* \"#utility.yul\":4529:4536   */\n      dup7\n        /* \"#utility.yul\":4525:4548   */\n      sub\n        /* \"#utility.yul\":4521:4553   */\n      slt\n        /* \"#utility.yul\":4518:4570   */\n      iszero\n      tag_623\n      jumpi\n        /* \"#utility.yul\":4566:4567   */\n      0x00\n        /* \"#utility.yul\":4563:4564   */\n      dup1\n        /* \"#utility.yul\":4556:4568   */\n      revert\n        /* \"#utility.yul\":4518:4570   */\n    tag_623:\n      pop\n      pop\n        /* \"#utility.yul\":4589:4612   */\n      dup2\n      calldataload\n      swap4\n        /* \"#utility.yul\":4659:4661   */\n      0x20\n        /* \"#utility.yul\":4644:4662   */\n      dup4\n      add\n        /* \"#utility.yul\":4631:4663   */\n      calldataload\n      swap4\n      pop\n        /* \"#utility.yul\":4710:4712   */\n      0x40\n        /* \"#utility.yul\":4695:4713   */\n      swap1\n      swap3\n      add\n        /* \"#utility.yul\":4682:4714   */\n      calldataload\n      swap2\n        /* \"#utility.yul\":4404:4720   */\n      swap1\n      pop\n      jump\t// out\n        /* \"#utility.yul\":4725:5254   */\n    tag_235:\n        /* \"#utility.yul\":4802:4808   */\n      0x00\n        /* \"#utility.yul\":4810:4816   */\n      dup1\n        /* \"#utility.yul\":4818:4824   */\n      0x00\n        /* \"#utility.yul\":4871:4873   */\n      0x60\n        /* \"#utility.yul\":4859:4868   */\n      dup5\n        /* \"#utility.yul\":4850:4857   */\n      dup7\n        /* \"#utility.yul\":4846:4869   */\n      sub\n        /* \"#utility.yul\":4842:4874   */\n      slt\n        /* \"#utility.yul\":4839:4891   */\n      iszero\n      tag_625\n      jumpi\n        /* \"#utility.yul\":4887:4888   */\n      0x00\n        /* \"#utility.yul\":4884:4885   */\n      dup1\n        /* \"#utility.yul\":4877:4889   */\n      revert\n        /* \"#utility.yul\":4839:4891   */\n    tag_625:\n        /* \"#utility.yul\":4926:4935   */\n      dup4\n        /* \"#utility.yul\":4913:4936   */\n      calldataload\n        /* \"#utility.yul\":4945:4976   */\n      tag_626\n        /* \"#utility.yul\":4970:4975   */\n      dup2\n        /* \"#utility.yul\":4945:4976   */\n      tag_583\n      jump\t// in\n    tag_626:\n        /* \"#utility.yul\":4995:5000   */\n      swap3\n      pop\n        /* \"#utility.yul\":5052:5054   */\n      0x20\n        /* \"#utility.yul\":5037:5055   */\n      dup5\n      add\n        /* \"#utility.yul\":5024:5056   */\n      calldataload\n        /* \"#utility.yul\":5065:5098   */\n      tag_627\n        /* \"#utility.yul\":5024:5056   */\n      dup2\n        /* \"#utility.yul\":5065:5098   */\n      tag_583\n      jump\t// in\n    tag_627:\n        /* \"#utility.yul\":5117:5124   */\n      swap2\n      pop\n        /* \"#utility.yul\":5176:5178   */\n      0x40\n        /* \"#utility.yul\":5161:5179   */\n      dup5\n      add\n        /* \"#utility.yul\":5148:5180   */\n      calldataload\n        /* \"#utility.yul\":5189:5222   */\n      tag_628\n        /* \"#utility.yul\":5148:5180   */\n      dup2\n        /* \"#utility.yul\":5189:5222   */\n      tag_583\n      jump\t// in\n    tag_628:\n        /* \"#utility.yul\":5241:5248   */\n      dup1\n        /* \"#utility.yul\":5231:5248   */\n      swap2\n      pop\n      pop\n        /* \"#utility.yul\":4725:5254   */\n      swap3\n      pop\n      swap3\n      pop\n      swap3\n      jump\t// out\n        /* \"#utility.yul\":5259:5647   */\n    tag_249:\n        /* \"#utility.yul\":5327:5333   */\n      0x00\n        /* \"#utility.yul\":5335:5341   */\n      dup1\n        /* \"#utility.yul\":5388:5390   */\n      0x40\n        /* \"#utility.yul\":5376:5385   */\n      dup4\n        /* \"#utility.yul\":5367:5374   */\n      dup6\n        /* \"#utility.yul\":5363:5386   */\n      sub\n        /* \"#utility.yul\":5359:5391   */\n      slt\n        /* \"#utility.yul\":5356:5408   */\n      iszero\n      tag_630\n      jumpi\n        /* \"#utility.yul\":5404:5405   */\n      0x00\n        /* \"#utility.yul\":5401:5402   */\n      dup1\n        /* \"#utility.yul\":5394:5406   */\n      revert\n        /* \"#utility.yul\":5356:5408   */\n    tag_630:\n        /* \"#utility.yul\":5443:5452   */\n      dup3\n        /* \"#utility.yul\":5430:5453   */\n      calldataload\n        /* \"#utility.yul\":5462:5493   */\n      tag_631\n        /* \"#utility.yul\":5487:5492   */\n      dup2\n        /* \"#utility.yul\":5462:5493   */\n      tag_583\n      jump\t// in\n    tag_631:\n        /* \"#utility.yul\":5512:5517   */\n      swap2\n      pop\n        /* \"#utility.yul\":5569:5571   */\n      0x20\n        /* \"#utility.yul\":5554:5572   */\n      dup4\n      add\n        /* \"#utility.yul\":5541:5573   */\n      calldataload\n        /* \"#utility.yul\":5582:5615   */\n      tag_632\n        /* \"#utility.yul\":5541:5573   */\n      dup2\n        /* \"#utility.yul\":5582:5615   */\n      tag_583\n      jump\t// in\n    tag_632:\n        /* \"#utility.yul\":5634:5641   */\n      dup1\n        /* \"#utility.yul\":5624:5641   */\n      swap2\n      pop\n      pop\n        /* \"#utility.yul\":5259:5647   */\n      swap3\n      pop\n      swap3\n      swap1\n      pop\n      jump\t// out\n        /* \"#utility.yul\":5652:5993   */\n    tag_255:\n        /* \"#utility.yul\":5717:5723   */\n      0x00\n        /* \"#utility.yul\":5725:5731   */\n      dup1\n        /* \"#utility.yul\":5778:5780   */\n      0x40\n        /* \"#utility.yul\":5766:5775   */\n      dup4\n        /* \"#utility.yul\":5757:5764   */\n      dup6\n        /* \"#utility.yul\":5753:5776   */\n      sub\n        /* \"#utility.yul\":5749:5781   */\n      slt\n        /* \"#utility.yul\":5746:5798   */\n      iszero\n      tag_634\n      jumpi\n        /* \"#utility.yul\":5794:5795   */\n      0x00\n        /* \"#utility.yul\":5791:5792   */\n      dup1\n        /* \"#utility.yul\":5784:5796   */\n      revert\n        /* \"#utility.yul\":5746:5798   */\n    tag_634:\n        /* \"#utility.yul\":5833:5842   */\n      dup3\n        /* \"#utility.yul\":5820:5843   */\n      calldataload\n        /* \"#utility.yul\":5886:5891   */\n      dup1\n        /* \"#utility.yul\":5879:5892   */\n      iszero\n        /* \"#utility.yul\":5872:5893   */\n      iszero\n        /* \"#utility.yul\":5865:5870   */\n      dup2\n        /* \"#utility.yul\":5862:5894   */\n      eq\n        /* \"#utility.yul\":5852:5912   */\n      tag_598\n      jumpi\n        /* \"#utility.yul\":5908:5909   */\n      0x00\n        /* \"#utility.yul\":5905:5906   */\n      dup1\n        /* \"#utility.yul\":5898:5910   */\n      revert\n        /* \"#utility.yul\":7511:7638   */\n    tag_585:\n        /* \"#utility.yul\":7572:7582   */\n      0x4e487b71\n        /* \"#utility.yul\":7567:7570   */\n      0xe0\n        /* \"#utility.yul\":7563:7583   */\n      shl\n        /* \"#utility.yul\":7560:7561   */\n      0x00\n        /* \"#utility.yul\":7553:7584   */\n      mstore\n        /* \"#utility.yul\":7603:7607   */\n      0x11\n        /* \"#utility.yul\":7600:7601   */\n      0x04\n        /* \"#utility.yul\":7593:7608   */\n      mstore\n        /* \"#utility.yul\":7627:7631   */\n      0x24\n        /* \"#utility.yul\":7624:7625   */\n      0x00\n        /* \"#utility.yul\":7617:7632   */\n      revert\n        /* \"#utility.yul\":7643:7811   */\n    tag_297:\n        /* \"#utility.yul\":7716:7725   */\n      dup1\n      dup3\n      mul\n        /* \"#utility.yul\":7747:7756   */\n      dup2\n      iszero\n        /* \"#utility.yul\":7764:7779   */\n      dup3\n      dup3\n      div\n        /* \"#utility.yul\":7758:7780   */\n      dup5\n      eq\n        /* \"#utility.yul\":7744:7781   */\n      or\n        /* \"#utility.yul\":7734:7805   */\n      tag_301\n      jumpi\n        /* \"#utility.yul\":7785:7803   */\n      tag_301\n      tag_585\n      jump\t// in\n        /* \"#utility.yul\":7816:8033   */\n    tag_299:\n        /* \"#utility.yul\":7856:7857   */\n      0x00\n        /* \"#utility.yul\":7882:7883   */\n      dup3\n        /* \"#utility.yul\":7872:8004   */\n      tag_648\n      jumpi\n        /* \"#utility.yul\":7926:7936   */\n      0x4e487b71\n        /* \"#utility.yul\":7921:7924   */\n      0xe0\n        /* \"#utility.yul\":7917:7937   */\n      shl\n        /* \"#utility.yul\":7914:7915   */\n      0x00\n        /* \"#utility.yul\":7907:7938   */\n      mstore\n        /* \"#utility.yul\":7961:7965   */\n      0x12\n        /* \"#utility.yul\":7958:7959   */\n      0x04\n        /* \"#utility.yul\":7951:7966   */\n      mstore\n        /* \"#utility.yul\":7989:7993   */\n      0x24\n        /* \"#utility.yul\":7986:7987   */\n      0x00\n        /* \"#utility.yul\":7979:7994   */\n      revert\n        /* \"#utility.yul\":7872:8004   */\n    tag_648:\n      pop\n        /* \"#utility.yul\":8018:8027   */\n      div\n      swap1\n        /* \"#utility.yul\":7816:8033   */\n      jump\t// out\n        /* \"#utility.yul\":8372:8497   */\n    tag_345:\n        /* \"#utility.yul\":8437:8446   */\n      dup1\n      dup3\n      add\n        /* \"#utility.yul\":8458:8468   */\n      dup1\n      dup3\n      gt\n        /* \"#utility.yul\":8455:8491   */\n      iszero\n      tag_301\n      jumpi\n        /* \"#utility.yul\":8471:8489   */\n      tag_301\n      tag_585\n      jump\t// in\n        /* \"#utility.yul\":8502:8629   */\n    tag_348:\n        /* \"#utility.yul\":8563:8573   */\n      0x4e487b71\n        /* \"#utility.yul\":8558:8561   */\n      0xe0\n        /* \"#utility.yul\":8554:8574   */\n      shl\n        /* \"#utility.yul\":8551:8552   */\n      0x00\n        /* \"#utility.yul\":8544:8575   */\n      mstore\n        /* \"#utility.yul\":8594:8598   */\n      0x41\n        /* \"#utility.yul\":8591:8592   */\n      0x04\n        /* \"#utility.yul\":8584:8599   */\n      mstore\n        /* \"#utility.yul\":8618:8622   */\n      0x24\n        /* \"#utility.yul\":8615:8616   */\n      0x00\n        /* \"#utility.yul\":8608:8623   */\n      revert\n        /* \"#utility.yul\":8634:8761   */\n    tag_360:\n        /* \"#utility.yul\":8695:8705   */\n      0x4e487b71\n        /* \"#utility.yul\":8690:8693   */\n      0xe0\n        /* \"#utility.yul\":8686:8706   */\n      shl\n        /* \"#utility.yul\":8683:8684   */\n      0x00\n        /* \"#utility.yul\":8676:8707   */\n      mstore\n        /* \"#utility.yul\":8726:8730   */\n      0x32\n        /* \"#utility.yul\":8723:8724   */\n      0x04\n        /* \"#utility.yul\":8716:8731   */\n      mstore\n        /* \"#utility.yul\":8750:8754   */\n      0x24\n        /* \"#utility.yul\":8747:8748   */\n      0x00\n        /* \"#utility.yul\":8740:8755   */\n      revert\n        /* \"#utility.yul\":8766:8901   */\n    tag_362:\n        /* \"#utility.yul\":8805:8808   */\n      0x00\n        /* \"#utility.yul\":8826:8843   */\n      0x01\n      dup3\n      add\n        /* \"#utility.yul\":8823:8866   */\n      tag_657\n      jumpi\n        /* \"#utility.yul\":8846:8864   */\n      tag_657\n      tag_585\n      jump\t// in\n    tag_657:\n      pop\n        /* \"#utility.yul\":8893:8894   */\n      0x01\n        /* \"#utility.yul\":8882:8895   */\n      add\n      swap1\n        /* \"#utility.yul\":8766:8901   */\n      jump\t// out\n        /* \"#utility.yul\":11568:11696   */\n    tag_470:\n        /* \"#utility.yul\":11635:11644   */\n      dup2\n      dup2\n      sub\n        /* \"#utility.yul\":11656:11667   */\n      dup2\n      dup2\n      gt\n        /* \"#utility.yul\":11653:11690   */\n      iszero\n      tag_301\n      jumpi\n        /* \"#utility.yul\":11670:11688   */\n      tag_301\n      tag_585\n      jump\t// in\n        /* \"#utility.yul\":13151:13756   */\n    tag_541:\n        /* \"#utility.yul\":13450:13456   */\n      dup6\n        /* \"#utility.yul\":13439:13448   */\n      dup2\n        /* \"#utility.yul\":13432:13457   */\n      mstore\n        /* \"#utility.yul\":13493:13499   */\n      dup5\n        /* \"#utility.yul\":13488:13490   */\n      0x20\n        /* \"#utility.yul\":13477:13486   */\n      dup3\n        /* \"#utility.yul\":13473:13491   */\n      add\n        /* \"#utility.yul\":13466:13500   */\n      mstore\n        /* \"#utility.yul\":13536:13539   */\n      0xa0\n        /* \"#utility.yul\":13531:13533   */\n      0x40\n        /* \"#utility.yul\":13520:13529   */\n      dup3\n        /* \"#utility.yul\":13516:13534   */\n      add\n        /* \"#utility.yul\":13509:13540   */\n      mstore\n        /* \"#utility.yul\":13413:13417   */\n      0x00\n        /* \"#utility.yul\":13557:13614   */\n      tag_674\n        /* \"#utility.yul\":13609:13612   */\n      0xa0\n        /* \"#utility.yul\":13598:13607   */\n      dup4\n        /* \"#utility.yul\":13594:13613   */\n      add\n        /* \"#utility.yul\":13586:13592   */\n      dup7\n        /* \"#utility.yul\":13557:13614   */\n      tag_584\n      jump\t// in\n    tag_674:\n      sub(shl(0xa0, 0x01), 0x01)\n        /* \"#utility.yul\":13650:13705   */\n      swap5\n      swap1\n      swap5\n      and\n        /* \"#utility.yul\":13645:13647   */\n      0x60\n        /* \"#utility.yul\":13630:13648   */\n      dup4\n      add\n        /* \"#utility.yul\":13623:13706   */\n      mstore\n      pop\n        /* \"#utility.yul\":13737:13740   */\n      0x80\n        /* \"#utility.yul\":13722:13741   */\n      add\n        /* \"#utility.yul\":13715:13750   */\n      mstore\n        /* \"#utility.yul\":13549:13614   */\n      swap4\n        /* \"#utility.yul\":13151:13756   */\n      swap3\n      pop\n      pop\n      pop\n      jump\t// out\n        /* \"#utility.yul\":14396:14702   */\n    tag_564:\n        /* \"#utility.yul\":14484:14490   */\n      0x00\n        /* \"#utility.yul\":14492:14498   */\n      dup1\n        /* \"#utility.yul\":14500:14506   */\n      0x00\n        /* \"#utility.yul\":14553:14555   */\n      0x60\n        /* \"#utility.yul\":14541:14550   */\n      dup5\n        /* \"#utility.yul\":14532:14539   */\n      dup7\n        /* \"#utility.yul\":14528:14551   */\n      sub\n        /* \"#utility.yul\":14524:14556   */\n      slt\n        /* \"#utility.yul\":14521:14573   */\n      iszero\n      tag_677\n      jumpi\n        /* \"#utility.yul\":14569:14570   */\n      0x00\n        /* \"#utility.yul\":14566:14567   */\n      dup1\n        /* \"#utility.yul\":14559:14571   */\n      revert\n        /* \"#utility.yul\":14521:14573   */\n    tag_677:\n        /* \"#utility.yul\":14598:14607   */\n      dup4\n        /* \"#utility.yul\":14592:14608   */\n      mload\n        /* \"#utility.yul\":14582:14608   */\n      swap3\n      pop\n        /* \"#utility.yul\":14648:14650   */\n      0x20\n        /* \"#utility.yul\":14637:14646   */\n      dup5\n        /* \"#utility.yul\":14633:14651   */\n      add\n        /* \"#utility.yul\":14627:14652   */\n      mload\n        /* \"#utility.yul\":14617:14652   */\n      swap2\n      pop\n        /* \"#utility.yul\":14692:14694   */\n      0x40\n        /* \"#utility.yul\":14681:14690   */\n      dup5\n        /* \"#utility.yul\":14677:14695   */\n      add\n        /* \"#utility.yul\":14671:14696   */\n      mload\n        /* \"#utility.yul\":14661:14696   */\n      swap1\n      pop\n        /* \"#utility.yul\":14396:14702   */\n      swap3\n      pop\n      swap3\n      pop\n      swap3\n      jump\t// out\n\n    auxdata: 0xa26469706673582212204d3c21bdb62e8cf65b703dd339e5411ed3247134612f75835fa0501065a73e3d64736f6c63430008110033\n}\n",
    "bytecode": {
      "linkReferences": {},
      "object": "6080604052600380546001600160a01b031990811661dead179091556004805490911681556200003190600a620004f6565b6200004190633b9aca006200050e565b600555606460055462000055919062000528565b600655603260055462000069919062000528565b600755600a600d556017600e556001600f55600f54600d54600e546200009091906200054b565b6200009c91906200054b565b601055600060138190556014556019805461ffff60a01b1916600160a81b179055600554620000cf906103e89062000528565b601a55348015620000df57600080fd5b5060008054336001600160a01b031991821681178355825260016020818152604093849020805460ff191690921790915560188054737a250d5630b4cf539739df2c5dacb4c659f2488d93168317905582516315ab88c960e31b81529251919263ad5c464892600480830193928290030181865afa15801562000166573d6000803e3d6000fd5b505050506040513d601f19601f820116820180604052508101906200018c919062000561565b600280546001600160a01b0319166001600160a01b039283161790556018546040805163c45a015560e01b81529051919092169163c45a01559160048083019260209291908290030181865afa158015620001eb573d6000803e3d6000fd5b505050506040513d601f19601f8201168201806040525081019062000211919062000561565b6002546040516364e329cb60e11b81526001600160a01b03918216600482015230602482015291169063c9c65396906044016020604051808303816000875af115801562000263573d6000803e3d6000fd5b505050506040513d601f19601f8201168201806040525081019062000289919062000561565b601980546001600160a01b039283166001600160a01b031991821617909155306000818152600960209081526040808320601854871684528252808320600019905560158054861633908117909155601680548716731ca2075370bb4858e9832be560eaed6f1b9287b11790556017805490961673927e6d9fdbf4ee2c45f8593d0418b5524a76721417909555848352600a8252808320805460ff199081166001908117909255600b8452828520805482168317905560038054891686528386208054831684179055600454891686528386208054831684179055878652600c85528386208054831684179055958552828520805482168317905594549096168352808320805490941690951790925560055483825260088352848220819055935193845291927fddf252ad1be2c89b69c2b068fc378daa952ba7f163c4a11628f55a4df523b3ef910160405180910390a36200058c565b634e487b7160e01b600052601160045260246000fd5b600181815b80851115620004385781600019048211156200041c576200041c620003e1565b808516156200042a57918102915b93841c9390800290620003fc565b509250929050565b6000826200045157506001620004f0565b816200046057506000620004f0565b81600181146200047957600281146200048457620004a4565b6001915050620004f0565b60ff841115620004985762000498620003e1565b50506001821b620004f0565b5060208310610133831016604e8410600b8410161715620004c9575081810a620004f0565b620004d58383620003f7565b8060001904821115620004ec57620004ec620003e1565b0290505b92915050565b60006200050760ff84168362000440565b9392505050565b8082028115828204841417620004f057620004f0620003e1565b6000826200054657634e487b7160e01b600052601260045260246000fd5b500490565b80820180821115620004f057620004f0620003e1565b6000602082840312156200057457600080fd5b81516001600160a01b03811681146200050757600080fd5b6125bb806200059c6000396000f3fe60806040526004361061030c5760003560e01c80637b13f8c81161019a578063d42b92fd116100e1578063e96fada21161008a578063f887ea4011610064578063f887ea4014610910578063fe9fbb8014610930578063ffb54a991461096957600080fd5b8063e96fada2146108b0578063f0b37c04146108d0578063f2fde38b146108f057600080fd5b8063dc62b296116100bb578063dc62b29614610814578063dd62ed3e1461084a578063df20fd491461089057600080fd5b8063d42b92fd146107b4578063d7c01032146107d4578063dab84ee7146107f457600080fd5b8063a8aa1b3111610143578063c9567bf91161011d578063c9567bf91461075f578063ca33e64c14610774578063cec10c111461079457600080fd5b8063a8aa1b31146106ff578063a9059cbb1461071f578063b6a5d7de1461073f57600080fd5b806395d89b411161017457806395d89b411461069057806398118cb4146106bc5780639d608be1146106d257600080fd5b80637b13f8c8146106285780637d1db4a514610648578063893d20e81461065e57600080fd5b80632f54bf6e1161025e5780635ba5203f116102075780636ddd1713116101e15780636ddd1713146105bb57806370a08231146105dc57806378109e541461061257600080fd5b80635ba5203f146105625780636827e7641461058f5780636b67c4df146105a557600080fd5b8063410346b311610238578063410346b3146104fd57806341db0fe61461052d578063571ac8b01461054257600080fd5b80632f54bf6e14610497578063313ce567146104c65780633cb5df06146104e857600080fd5b806318160ddd116102c05780631df4ccfc1161029a5780631df4ccfc1461044c57806323b872dd146104625780632b112e491461048257600080fd5b806318160ddd146103f75780631c499ab01461040c5780631da1db5e1461042c57600080fd5b806306fdde03116102f157806306fdde0314610363578063095ea7b3146103b2578063180b0d7e146103e257600080fd5b80630445b667146103185780630517d13d1461034157600080fd5b3661031357005b600080fd5b34801561032457600080fd5b5061032e601a5481565b6040519081526020015b60405180910390f35b34801561034d57600080fd5b5061036161035c3660046121c7565b61098a565b005b34801561036f57600080fd5b5060408051808201909152600f81527f5375706572626f776c205761676572000000000000000000000000000000000060208201525b60405161033891906121e0565b3480156103be57600080fd5b506103d26103cd366004612246565b610a7f565b6040519015158152602001610338565b3480156103ee57600080fd5b5061032e606481565b34801561040357600080fd5b5060055461032e565b34801561041857600080fd5b506103616104273660046121c7565b610aec565b34801561043857600080fd5b506103616104473660046121c7565b610bdc565b34801561045857600080fd5b5061032e60105481565b34801561046e57600080fd5b506103d261047d366004612272565b610c67565b34801561048e57600080fd5b5061032e610d30565b3480156104a357600080fd5b506103d26104b23660046122b3565b6000546001600160a01b0391821691161490565b3480156104d257600080fd5b5060045b60405160ff9091168152602001610338565b3480156104f457600080fd5b5060135461032e565b34801561050957600080fd5b506104d66105183660046122b3565b60116020526000908152604090205460ff1681565b34801561053957600080fd5b5060145461032e565b34801561054e57600080fd5b506103d261055d3660046122b3565b610d82565b34801561056e57600080fd5b5061058261057d3660046122d0565b610d90565b60405161033891906122f3565b34801561059b57600080fd5b5061032e600f5481565b3480156105b157600080fd5b5061032e600e5481565b3480156105c757600080fd5b506019546103d290600160a81b900460ff1681565b3480156105e857600080fd5b5061032e6105f73660046122b3565b6001600160a01b031660009081526008602052604090205490565b34801561061e57600080fd5b5061032e60075481565b34801561063457600080fd5b506103616106433660046121c7565b610eec565b34801561065457600080fd5b5061032e60065481565b34801561066a57600080fd5b506000546001600160a01b03165b6040516001600160a01b039091168152602001610338565b34801561069c57600080fd5b5060408051808201909152600381526253425760e81b60208201526103a5565b3480156106c857600080fd5b5061032e600d5481565b3480156106de57600080fd5b506106f26106ed3660046122d0565b610f68565b604051610338919061237b565b34801561070b57600080fd5b50601954610678906001600160a01b031681565b34801561072b57600080fd5b506103d261073a366004612246565b6110b3565b34801561074b57600080fd5b5061036161075a3660046122b3565b6110c0565b34801561076b57600080fd5b5061036161112a565b34801561078057600080fd5b50601554610678906001600160a01b031681565b3480156107a057600080fd5b506103616107af36600461238e565b61119d565b3480156107c057600080fd5b506103616107cf3660046122d0565b611258565b3480156107e057600080fd5b506103616107ef3660046123ba565b611461565b34801561080057600080fd5b50601754610678906001600160a01b031681565b34801561082057600080fd5b5061067861082f3660046121c7565b6012602052600090815260409020546001600160a01b031681565b34801561085657600080fd5b5061032e610865366004612405565b6001600160a01b03918216600090815260096020908152604080832093909416825291909152205490565b34801561089c57600080fd5b506103616108ab36600461243e565b6114f0565b3480156108bc57600080fd5b50601654610678906001600160a01b031681565b3480156108dc57600080fd5b506103616108eb3660046122b3565b611570565b3480156108fc57600080fd5b5061036161090b3660046122b3565b611632565b34801561091c57600080fd5b50601854610678906001600160a01b031681565b34801561093c57600080fd5b506103d261094b3660046122b3565b6001600160a01b031660009081526001602052604090205460ff1690565b34801561097557600080fd5b506019546103d290600160a01b900460ff1681565b6000546001600160a01b031633146109d25760405162461bcd60e51b815260206004820152600660248201526510a7aba722a960d11b60448201526064015b60405180910390fd5b6001811015610a235760405162461bcd60e51b815260206004820152600660248201527f4d696e203125000000000000000000000000000000000000000000000000000060448201526064016109c9565b6064811115610a5f5760405162461bcd60e51b81526020600482015260086024820152674d6178203130302560c01b60448201526064016109c9565b606481600554610a6f9190612477565b610a79919061248e565b60065550565b3360008181526009602090815260408083206001600160a01b038716808552925280832085905551919290917f8c5be1e5ebec7d5bd14f71427d1e84f3dd0314c0f7b2291e5b200ac8c7c3b92590610ada9086815260200190565b60405180910390a35060015b92915050565b6000546001600160a01b03163314610b2f5760405162461bcd60e51b815260206004820152600660248201526510a7aba722a960d11b60448201526064016109c9565b6002811015610b805760405162461bcd60e51b815260206004820152600660248201527f4d696e203225000000000000000000000000000000000000000000000000000060448201526064016109c9565b6064811115610bbc5760405162461bcd60e51b81526020600482015260086024820152674d6178203130302560c01b60448201526064016109c9565b606481600554610bcc9190612477565b610bd6919061248e565b60075550565b6000546001600160a01b03163314610c1f5760405162461bcd60e51b815260206004820152600660248201526510a7aba722a960d11b60448201526064016109c9565b47336108fc6064610c308585612477565b610c3a919061248e565b6040518115909202916000818181858888f19350505050158015610c62573d6000803e3d6000fd5b505050565b6001600160a01b038316600090815260096020908152604080832033845290915281205460001914610d1b57604080518082018252601681527f496e73756666696369656e7420416c6c6f77616e6365000000000000000000006020808301919091526001600160a01b0387166000908152600982528381203382529091529190912054610cf691849061175a565b6001600160a01b03851660009081526009602090815260408083203384529091529020555b610d26848484611794565b90505b9392505050565b6004546001600160a01b0316600090815260086020526040812054610d7d906003546001600160a01b0316600090815260086020526040902054610d779060055490611b4c565b90611b4c565b905090565b6000610ae682600019610a7f565b60606000601454601354610da491906124b0565b67ffffffffffffffff811115610dbc57610dbc6124c3565b604051908082528060200260200182016040528015610de5578160200160208202803683370190505b5090506000805b601454601354610dfc91906124b0565b811015610ee3576000818152601260209081526040808320546001600160a01b03168352601190915290205460ff8681169116148015610e6f57506101f4600554610e47919061248e565b6000828152601260209081526040808320546001600160a01b03168352600890915290205410155b15610ed1576005546000828152601260209081526040808320546001600160a01b031683526008909152902054610ea6919061248e565b838381518110610eb857610eb86124d9565b602090810291909101015281610ecd816124ef565b9250505b80610edb816124ef565b915050610dec565b50909392505050565b6000546001600160a01b03163314610f2f5760405162461bcd60e51b815260206004820152600660248201526510a7aba722a960d11b60448201526064016109c9565b3060009081526008602052604081205490610f556064610f4f8486611b8e565b90611c10565b9050610f62303383611c52565b50505050565b60606000601454601354610f7c91906124b0565b67ffffffffffffffff811115610f9457610f946124c3565b604051908082528060200260200182016040528015610fbd578160200160208202803683370190505b5090506000805b601454601354610fd491906124b0565b811015610ee3576000818152601260209081526040808320546001600160a01b03168352601190915290205460ff868116911614801561104757506101f460055461101f919061248e565b6000828152601260209081526040808320546001600160a01b03168352600890915290205410155b156110a15760008181526012602052604090205483516001600160a01b039091169084908490811061107b5761107b6124d9565b6001600160a01b03909216602092830291909101909101528161109d816124ef565b9250505b806110ab816124ef565b915050610fc4565b6000610d29338484611794565b6000546001600160a01b031633146111035760405162461bcd60e51b815260206004820152600660248201526510a7aba722a960d11b60448201526064016109c9565b6001600160a01b03166000908152600160208190526040909120805460ff19169091179055565b6000546001600160a01b0316331461116d5760405162461bcd60e51b815260206004820152600660248201526510a7aba722a960d11b60448201526064016109c9565b601980547fffffffffffffffffffffff00ffffffffffffffffffffffffffffffffffffffff16600160a01b179055565b6000546001600160a01b031633146111e05760405162461bcd60e51b815260206004820152600660248201526510a7aba722a960d11b60448201526064016109c9565b600d839055600e829055600f819055806111fa83856124b0565b61120491906124b0565b6010819055601511610c625760405162461bcd60e51b815260206004820152601b60248201527f5461782063616e6e6f74206265206d6f7265207468616e20323025000000000060448201526064016109c9565b6101f4600554611268919061248e565b3360009081526008602052604090205410156112c65760405162461bcd60e51b815260206004820152601560248201527f596f75206e65656420746f20686f6c64206d6f7265000000000000000000000060448201526064016109c9565b8060ff16600114806112db57508060ff166002145b6113275760405162461bcd60e51b815260206004820152601360248201527f4e6f742063686f6f73696e672061207465616d0000000000000000000000000060448201526064016109c9565b3360009081526011602052604090205460ff16156113875760405162461bcd60e51b815260206004820152601e60248201527f596f75206861766520616c72656164792063686f73656e2061207465616d000060448201526064016109c9565b336000818152601160205260408120805460ff191660ff8516179055601354601454601292916113b6916124b0565b815260200190815260200160002060006101000a8154816001600160a01b0302191690836001600160a01b031602179055508060ff1660011461140c5760148054906000611403836124ef565b91905055611421565b6013805490600061141c836124ef565b919050555b506040805133815260ff831660208201527f76580ac7c171cd3d2029d56fd501d1351f2db92da148447b53227803bf940c0291015b60405180910390a150565b6000546001600160a01b031633146114a45760405162461bcd60e51b815260206004820152600660248201526510a7aba722a960d11b60448201526064016109c9565b601580546001600160a01b0394851673ffffffffffffffffffffffffffffffffffffffff1991821617909155601680549385169382169390931790925560178054919093169116179055565b6000546001600160a01b031633146115335760405162461bcd60e51b815260206004820152600660248201526510a7aba722a960d11b60448201526064016109c9565b60198054921515600160a81b027fffffffffffffffffffff00ffffffffffffffffffffffffffffffffffffffffff90931692909217909155601a55565b6000546001600160a01b031633146115b35760405162461bcd60e51b815260206004820152600660248201526510a7aba722a960d11b60448201526064016109c9565b6000546001600160a01b03908116908216036116115760405162461bcd60e51b815260206004820152601a60248201527f4f574e45522063616e7420626520756e617574686f72697a656400000000000060448201526064016109c9565b6001600160a01b03166000908152600160205260409020805460ff19169055565b6000546001600160a01b031633146116755760405162461bcd60e51b815260206004820152600660248201526510a7aba722a960d11b60448201526064016109c9565b6000546001600160a01b03908116908216036116d35760405162461bcd60e51b815260206004820152601160248201527f416c726561647920746865206f776e657200000000000000000000000000000060448201526064016109c9565b600080546001600160a01b039081168252600160208181526040808520805460ff19908116909155855473ffffffffffffffffffffffffffffffffffffffff19169487169485178655848652948190208054909516909217909355519081527f04dba622d284ed0014ee4b9a6a68386be1a4c08a4913ae272de89199cc6861639101611456565b6000818484111561177e5760405162461bcd60e51b81526004016109c991906121e0565b50600061178b8486612508565b95945050505050565b601b5460009060ff16156117b4576117ad848484611c52565b9050610d29565b6001600160a01b03841660009081526001602052604090205460ff161580156117f657506001600160a01b03831660009081526001602052604090205460ff16155b1561185457601954600160a01b900460ff166118545760405162461bcd60e51b815260206004820152601460248201527f54726164696e67206e6f74206f70656e2079657400000000000000000000000060448201526064016109c9565b6001600160a01b03841660009081526001602052604090205460ff1615801561189657506001600160a01b0384166000908152600c602052604090205460ff16155b80156118bb57506001600160a01b0383166000908152600c602052604090205460ff16155b80156118d557506019546001600160a01b03848116911614155b1561195557600754826118fd856001600160a01b031660009081526008602052604090205490565b61190791906124b0565b11156119555760405162461bcd60e51b815260206004820152601860248201527f6d61782077616c6c6574206c696d69742072656163686564000000000000000060448201526064016109c9565b6006548211158061197e57506001600160a01b0384166000908152600b602052604090205460ff165b806119a157506001600160a01b0383166000908152600b602052604090205460ff165b6119ed5760405162461bcd60e51b815260206004820152601160248201527f5458204c696d697420457863656564656400000000000000000000000000000060448201526064016109c9565b6119f5611d41565b15611a0257611a02611d97565b604080518082018252601481527f496e73756666696369656e742042616c616e63650000000000000000000000006020808301919091526001600160a01b038716600090815260089091529190912054611a5d91849061175a565b6001600160a01b038516600090815260086020908152604080832093909355600a90529081205460ff1680611aaa57506001600160a01b0384166000908152600a602052604090205460ff165b611abd57611ab8858461208f565b611abf565b825b6001600160a01b038516600090815260086020526040902054909150611ae5908261213a565b6001600160a01b0380861660008181526008602052604090819020939093559151908716907fddf252ad1be2c89b69c2b068fc378daa952ba7f163c4a11628f55a4df523b3ef90611b399085815260200190565b60405180910390a3506001949350505050565b6000610d2983836040518060400160405280601e81526020017f536166654d6174683a207375627472616374696f6e206f766572666c6f77000081525061175a565b600082600003611ba057506000610ae6565b6000611bac8385612477565b905082611bb9858361248e565b14610d295760405162461bcd60e51b815260206004820152602160248201527f536166654d6174683a206d756c7469706c69636174696f6e206f766572666c6f6044820152607760f81b60648201526084016109c9565b6000610d2983836040518060400160405280601a81526020017f536166654d6174683a206469766973696f6e206279207a65726f000000000000815250612199565b604080518082018252601481527f496e73756666696369656e742042616c616e63650000000000000000000000006020808301919091526001600160a01b0386166000908152600890915291822054611cac91849061175a565b6001600160a01b038086166000908152600860205260408082209390935590851681522054611cdb908361213a565b6001600160a01b0380851660008181526008602052604090819020939093559151908616907fddf252ad1be2c89b69c2b068fc378daa952ba7f163c4a11628f55a4df523b3ef90611d2f9086815260200190565b60405180910390a35060019392505050565b6019546000906001600160a01b03163314801590611d625750601b5460ff16155b8015611d775750601954600160a81b900460ff165b8015610d7d575050601a5430600090815260086020526040902054101590565b601b805460ff19166001179055600d54601054601a54600091611dc391600291610f4f91829087611b8e565b90506000611ddc82601a54611b4c90919063ffffffff16565b60408051600280825260608201835292935060009290916020830190803683370190505090503081600081518110611e1657611e166124d9565b6001600160a01b039283166020918202929092010152600254825191169082906001908110611e4757611e476124d9565b6001600160a01b03928316602091820292909201015260185460405163791ac94760e01b815291169063791ac94790611e8d90859060009086903090429060040161251b565b600060405180830381600087803b158015611ea757600080fd5b505af1158015611ebb573d6000803e3d6000fd5b5047925060009150611edc9050611ed3876002611c10565b60105490611b4c565b90506000611ef16002610f4f8481878c611b8e565b90506000611f0e83610f4f600e5487611b8e90919063ffffffff16565b90506000611f2b84610f4f600f5488611b8e90919063ffffffff16565b6016546040519192506001600160a01b03169083156108fc029084906000818181858888f19350505050158015611f66573d6000803e3d6000fd5b506017546040516001600160a01b039091169082156108fc029083906000818181858888f19350505050158015611fa1573d6000803e3d6000fd5b50871561207a5760185460155460405163f305d71960e01b8152306004820152602481018b905260006044820181905260648201526001600160a01b0391821660848201524260a482015291169063f305d71990859060c40160606040518083038185885af1158015612018573d6000803e3d6000fd5b50505050506040513d601f19601f8201168201806040525081019061203d9190612557565b505060408051858152602081018b90527f424db2872186fa7e7afa7a5e902ed3b49a2ef19c2f5431e672462495dd6b450692500160405180910390a15b5050601b805460ff1916905550505050505050565b6000806120ac6064610f4f60105486611b8e90919063ffffffff16565b9050801561212857306000908152600860205260409020546120ce908261213a565b30600081815260086020526040908190209290925590516001600160a01b038616907fddf252ad1be2c89b69c2b068fc378daa952ba7f163c4a11628f55a4df523b3ef9061211f9085815260200190565b60405180910390a35b6121328382611b4c565b949350505050565b60008061214783856124b0565b905083811015610d295760405162461bcd60e51b815260206004820152601b60248201527f536166654d6174683a206164646974696f6e206f766572666c6f77000000000060448201526064016109c9565b600081836121ba5760405162461bcd60e51b81526004016109c991906121e0565b50600061178b848661248e565b6000602082840312156121d957600080fd5b5035919050565b600060208083528351808285015260005b8181101561220d578581018301518582016040015282016121f1565b506000604082860101526040601f19601f8301168501019250505092915050565b6001600160a01b038116811461224357600080fd5b50565b6000806040838503121561225957600080fd5b82356122648161222e565b946020939093013593505050565b60008060006060848603121561228757600080fd5b83356122928161222e565b925060208401356122a28161222e565b929592945050506040919091013590565b6000602082840312156122c557600080fd5b8135610d298161222e565b6000602082840312156122e257600080fd5b813560ff81168114610d2957600080fd5b6020808252825182820181905260009190848201906040850190845b8181101561232b5783518352928401929184019160010161230f565b50909695505050505050565b600081518084526020808501945080840160005b838110156123705781516001600160a01b03168752958201959082019060010161234b565b509495945050505050565b602081526000610d296020830184612337565b6000806000606084860312156123a357600080fd5b505081359360208301359350604090920135919050565b6000806000606084860312156123cf57600080fd5b83356123da8161222e565b925060208401356123ea8161222e565b915060408401356123fa8161222e565b809150509250925092565b6000806040838503121561241857600080fd5b82356124238161222e565b915060208301356124338161222e565b809150509250929050565b6000806040838503121561245157600080fd5b8235801515811461226457600080fd5b634e487b7160e01b600052601160045260246000fd5b8082028115828204841417610ae657610ae6612461565b6000826124ab57634e487b7160e01b600052601260045260246000fd5b500490565b80820180821115610ae657610ae6612461565b634e487b7160e01b600052604160045260246000fd5b634e487b7160e01b600052603260045260246000fd5b60006001820161250157612501612461565b5060010190565b81810381811115610ae657610ae6612461565b85815284602082015260a06040820152600061253a60a0830186612337565b6001600160a01b0394909416606083015250608001529392505050565b60008060006060848603121561256c57600080fd5b835192506020840151915060408401519050925092509256fea26469706673582212204d3c21bdb62e8cf65b703dd339e5411ed3247134612f75835fa0501065a73e3d64736f6c63430008110033",
      "opcodes": "PUSH1 0x80 PUSH1 0x40 MSTORE PUSH1 0x3 DUP1 SLOAD PUSH1 0x1 PUSH1 0x1 PUSH1 0xA0 SHL SUB NOT SWAP1 DUP2 AND PUSH2 0xDEAD OR SWAP1 SWAP2 SSTORE PUSH1 0x4 DUP1 SLOAD SWAP1 SWAP2 AND DUP2 SSTORE PUSH3 0x31 SWAP1 PUSH1 0xA PUSH3 0x4F6 JUMP JUMPDEST PUSH3 0x41 SWAP1 PUSH4 0x3B9ACA00 PUSH3 0x50E JUMP JUMPDEST PUSH1 0x5 SSTORE PUSH1 0x64 PUSH1 0x5 SLOAD PUSH3 0x55 SWAP2 SWAP1 PUSH3 0x528 JUMP JUMPDEST PUSH1 0x6 SSTORE PUSH1 0x32 PUSH1 0x5 SLOAD PUSH3 0x69 SWAP2 SWAP1 PUSH3 0x528 JUMP JUMPDEST PUSH1 0x7 SSTORE PUSH1 0xA PUSH1 0xD SSTORE PUSH1 0x17 PUSH1 0xE SSTORE PUSH1 0x1 PUSH1 0xF SSTORE PUSH1 0xF SLOAD PUSH1 0xD SLOAD PUSH1 0xE SLOAD PUSH3 0x90 SWAP2 SWAP1 PUSH3 0x54B JUMP JUMPDEST PUSH3 0x9C SWAP2 SWAP1 PUSH3 0x54B JUMP JUMPDEST PUSH1 0x10 SSTORE PUSH1 0x0 PUSH1 0x13 DUP2 SWAP1 SSTORE PUSH1 0x14 SSTORE PUSH1 0x19 DUP1 SLOAD PUSH2 0xFFFF PUSH1 0xA0 SHL NOT AND PUSH1 0x1 PUSH1 0xA8 SHL OR SWAP1 SSTORE PUSH1 0x5 SLOAD PUSH3 0xCF SWAP1 PUSH2 0x3E8 SWAP1 PUSH3 0x528 JUMP JUMPDEST PUSH1 0x1A SSTORE CALLVALUE DUP1 ISZERO PUSH3 0xDF JUMPI PUSH1 0x0 DUP1 REVERT JUMPDEST POP PUSH1 0x0 DUP1 SLOAD CALLER PUSH1 0x1 PUSH1 0x1 PUSH1 0xA0 SHL SUB NOT SWAP2 DUP3 AND DUP2 OR DUP4 SSTORE DUP3 MSTORE PUSH1 0x1 PUSH1 0x20 DUP2 DUP2 MSTORE PUSH1 0x40 SWAP4 DUP5 SWAP1 KECCAK256 DUP1 SLOAD PUSH1 0xFF NOT AND SWAP1 SWAP3 OR SWAP1 SWAP2 SSTORE PUSH1 0x18 DUP1 SLOAD PUSH20 0x7A250D5630B4CF539739DF2C5DACB4C659F2488D SWAP4 AND DUP4 OR SWAP1 SSTORE DUP3 MLOAD PUSH4 0x15AB88C9 PUSH1 0xE3 SHL DUP2 MSTORE SWAP3 MLOAD SWAP2 SWAP3 PUSH4 0xAD5C4648 SWAP3 PUSH1 0x4 DUP1 DUP4 ADD SWAP4 SWAP3 DUP3 SWAP1 SUB ADD DUP2 DUP7 GAS STATICCALL ISZERO DUP1 ISZERO PUSH3 0x166 JUMPI RETURNDATASIZE PUSH1 0x0 DUP1 RETURNDATACOPY RETURNDATASIZE PUSH1 0x0 REVERT JUMPDEST POP POP POP POP PUSH1 0x40 MLOAD RETURNDATASIZE PUSH1 0x1F NOT PUSH1 0x1F DUP3 ADD AND DUP3 ADD DUP1 PUSH1 0x40 MSTORE POP DUP2 ADD SWAP1 PUSH3 0x18C SWAP2 SWAP1 PUSH3 0x561 JUMP JUMPDEST PUSH1 0x2 DUP1 SLOAD PUSH1 0x1 PUSH1 0x1 PUSH1 0xA0 SHL SUB NOT AND PUSH1 0x1 PUSH1 0x1 PUSH1 0xA0 SHL SUB SWAP3 DUP4 AND OR SWAP1 SSTORE PUSH1 0x18 SLOAD PUSH1 0x40 DUP1 MLOAD PUSH4 0xC45A0155 PUSH1 0xE0 SHL DUP2 MSTORE SWAP1 MLOAD SWAP2 SWAP1 SWAP3 AND SWAP2 PUSH4 0xC45A0155 SWAP2 PUSH1 0x4 DUP1 DUP4 ADD SWAP3 PUSH1 0x20 SWAP3 SWAP2 SWAP1 DUP3 SWAP1 SUB ADD DUP2 DUP7 GAS STATICCALL ISZERO DUP1 ISZERO PUSH3 0x1EB JUMPI RETURNDATASIZE PUSH1 0x0 DUP1 RETURNDATACOPY RETURNDATASIZE PUSH1 0x0 REVERT JUMPDEST POP POP POP POP PUSH1 0x40 MLOAD RETURNDATASIZE PUSH1 0x1F NOT PUSH1 0x1F DUP3 ADD AND DUP3 ADD DUP1 PUSH1 0x40 MSTORE POP DUP2 ADD SWAP1 PUSH3 0x211 SWAP2 SWAP1 PUSH3 0x561 JUMP JUMPDEST PUSH1 0x2 SLOAD PUSH1 0x40 MLOAD PUSH4 0x64E329CB PUSH1 0xE1 SHL DUP2 MSTORE PUSH1 0x1 PUSH1 0x1 PUSH1 0xA0 SHL SUB SWAP2 DUP3 AND PUSH1 0x4 DUP3 ADD MSTORE ADDRESS PUSH1 0x24 DUP3 ADD MSTORE SWAP2 AND SWAP1 PUSH4 0xC9C65396 SWAP1 PUSH1 0x44 ADD PUSH1 0x20 PUSH1 0x40 MLOAD DUP1 DUP4 SUB DUP2 PUSH1 0x0 DUP8 GAS CALL ISZERO DUP1 ISZERO PUSH3 0x263 JUMPI RETURNDATASIZE PUSH1 0x0 DUP1 RETURNDATACOPY RETURNDATASIZE PUSH1 0x0 REVERT JUMPDEST POP POP POP POP PUSH1 0x40 MLOAD RETURNDATASIZE PUSH1 0x1F NOT PUSH1 0x1F DUP3 ADD AND DUP3 ADD DUP1 PUSH1 0x40 MSTORE POP DUP2 ADD SWAP1 PUSH3 0x289 SWAP2 SWAP1 PUSH3 0x561 JUMP JUMPDEST PUSH1 0x19 DUP1 SLOAD PUSH1 0x1 PUSH1 0x1 PUSH1 0xA0 SHL SUB SWAP3 DUP4 AND PUSH1 0x1 PUSH1 0x1 PUSH1 0xA0 SHL SUB NOT SWAP2 DUP3 AND OR SWAP1 SWAP2 SSTORE ADDRESS PUSH1 0x0 DUP2 DUP2 MSTORE PUSH1 0x9 PUSH1 0x20 SWAP1 DUP2 MSTORE PUSH1 0x40 DUP1 DUP4 KECCAK256 PUSH1 0x18 SLOAD DUP8 AND DUP5 MSTORE DUP3 MSTORE DUP1 DUP4 KECCAK256 PUSH1 0x0 NOT SWAP1 SSTORE PUSH1 0x15 DUP1 SLOAD DUP7 AND CALLER SWAP1 DUP2 OR SWAP1 SWAP2 SSTORE PUSH1 0x16 DUP1 SLOAD DUP8 AND PUSH20 0x1CA2075370BB4858E9832BE560EAED6F1B9287B1 OR SWAP1 SSTORE PUSH1 0x17 DUP1 SLOAD SWAP1 SWAP7 AND PUSH20 0x927E6D9FDBF4EE2C45F8593D0418B5524A767214 OR SWAP1 SWAP6 SSTORE DUP5 DUP4 MSTORE PUSH1 0xA DUP3 MSTORE DUP1 DUP4 KECCAK256 DUP1 SLOAD PUSH1 0xFF NOT SWAP1 DUP2 AND PUSH1 0x1 SWAP1 DUP2 OR SWAP1 SWAP3 SSTORE PUSH1 0xB DUP5 MSTORE DUP3 DUP6 KECCAK256 DUP1 SLOAD DUP3 AND DUP4 OR SWAP1 SSTORE PUSH1 0x3 DUP1 SLOAD DUP10 AND DUP7 MSTORE DUP4 DUP7 KECCAK256 DUP1 SLOAD DUP4 AND DUP5 OR SWAP1 SSTORE PUSH1 0x4 SLOAD DUP10 AND DUP7 MSTORE DUP4 DUP7 KECCAK256 DUP1 SLOAD DUP4 AND DUP5 OR SWAP1 SSTORE DUP8 DUP7 MSTORE PUSH1 0xC DUP6 MSTORE DUP4 DUP7 KECCAK256 DUP1 SLOAD DUP4 AND DUP5 OR SWAP1 SSTORE SWAP6 DUP6 MSTORE DUP3 DUP6 KECCAK256 DUP1 SLOAD DUP3 AND DUP4 OR SWAP1 SSTORE SWAP5 SLOAD SWAP1 SWAP7 AND DUP4 MSTORE DUP1 DUP4 KECCAK256 DUP1 SLOAD SWAP1 SWAP5 AND SWAP1 SWAP6 OR SWAP1 SWAP3 SSTORE PUSH1 0x5 SLOAD DUP4 DUP3 MSTORE PUSH1 0x8 DUP4 MSTORE DUP5 DUP3 KECCAK256 DUP2 SWAP1 SSTORE SWAP4 MLOAD SWAP4 DUP5 MSTORE SWAP2 SWAP3 PUSH32 0xDDF252AD1BE2C89B69C2B068FC378DAA952BA7F163C4A11628F55A4DF523B3EF SWAP2 ADD PUSH1 0x40 MLOAD DUP1 SWAP2 SUB SWAP1 LOG3 PUSH3 0x58C JUMP JUMPDEST PUSH4 0x4E487B71 PUSH1 0xE0 SHL PUSH1 0x0 MSTORE PUSH1 0x11 PUSH1 0x4 MSTORE PUSH1 0x24 PUSH1 0x0 REVERT JUMPDEST PUSH1 0x1 DUP2 DUP2 JUMPDEST DUP1 DUP6 GT ISZERO PUSH3 0x438 JUMPI DUP2 PUSH1 0x0 NOT DIV DUP3 GT ISZERO PUSH3 0x41C JUMPI PUSH3 0x41C PUSH3 0x3E1 JUMP JUMPDEST DUP1 DUP6 AND ISZERO PUSH3 0x42A JUMPI SWAP2 DUP2 MUL SWAP2 JUMPDEST SWAP4 DUP5 SHR SWAP4 SWAP1 DUP1 MUL SWAP1 PUSH3 0x3FC JUMP JUMPDEST POP SWAP3 POP SWAP3 SWAP1 POP JUMP JUMPDEST PUSH1 0x0 DUP3 PUSH3 0x451 JUMPI POP PUSH1 0x1 PUSH3 0x4F0 JUMP JUMPDEST DUP2 PUSH3 0x460 JUMPI POP PUSH1 0x0 PUSH3 0x4F0 JUMP JUMPDEST DUP2 PUSH1 0x1 DUP2 EQ PUSH3 0x479 JUMPI PUSH1 0x2 DUP2 EQ PUSH3 0x484 JUMPI PUSH3 0x4A4 JUMP JUMPDEST PUSH1 0x1 SWAP2 POP POP PUSH3 0x4F0 JUMP JUMPDEST PUSH1 0xFF DUP5 GT ISZERO PUSH3 0x498 JUMPI PUSH3 0x498 PUSH3 0x3E1 JUMP JUMPDEST POP POP PUSH1 0x1 DUP3 SHL PUSH3 0x4F0 JUMP JUMPDEST POP PUSH1 0x20 DUP4 LT PUSH2 0x133 DUP4 LT AND PUSH1 0x4E DUP5 LT PUSH1 0xB DUP5 LT AND OR ISZERO PUSH3 0x4C9 JUMPI POP DUP2 DUP2 EXP PUSH3 0x4F0 JUMP JUMPDEST PUSH3 0x4D5 DUP4 DUP4 PUSH3 0x3F7 JUMP JUMPDEST DUP1 PUSH1 0x0 NOT DIV DUP3 GT ISZERO PUSH3 0x4EC JUMPI PUSH3 0x4EC PUSH3 0x3E1 JUMP JUMPDEST MUL SWAP1 POP JUMPDEST SWAP3 SWAP2 POP POP JUMP JUMPDEST PUSH1 0x0 PUSH3 0x507 PUSH1 0xFF DUP5 AND DUP4 PUSH3 0x440 JUMP JUMPDEST SWAP4 SWAP3 POP POP POP JUMP JUMPDEST DUP1 DUP3 MUL DUP2 ISZERO DUP3 DUP3 DIV DUP5 EQ OR PUSH3 0x4F0 JUMPI PUSH3 0x4F0 PUSH3 0x3E1 JUMP JUMPDEST PUSH1 0x0 DUP3 PUSH3 0x546 JUMPI PUSH4 0x4E487B71 PUSH1 0xE0 SHL PUSH1 0x0 MSTORE PUSH1 0x12 PUSH1 0x4 MSTORE PUSH1 0x24 PUSH1 0x0 REVERT JUMPDEST POP DIV SWAP1 JUMP JUMPDEST DUP1 DUP3 ADD DUP1 DUP3 GT ISZERO PUSH3 0x4F0 JUMPI PUSH3 0x4F0 PUSH3 0x3E1 JUMP JUMPDEST PUSH1 0x0 PUSH1 0x20 DUP3 DUP5 SUB SLT ISZERO PUSH3 0x574 JUMPI PUSH1 0x0 DUP1 REVERT JUMPDEST DUP2 MLOAD PUSH1 0x1 PUSH1 0x1 PUSH1 0xA0 SHL SUB DUP2 AND DUP2 EQ PUSH3 0x507 JUMPI PUSH1 0x0 DUP1 REVERT JUMPDEST PUSH2 0x25BB DUP1 PUSH3 0x59C PUSH1 0x0 CODECOPY PUSH1 0x0 RETURN INVALID PUSH1 0x80 PUSH1 0x40 MSTORE PUSH1 0x4 CALLDATASIZE LT PUSH2 0x30C JUMPI PUSH1 0x0 CALLDATALOAD PUSH1 0xE0 SHR DUP1 PUSH4 0x7B13F8C8 GT PUSH2 0x19A JUMPI DUP1 PUSH4 0xD42B92FD GT PUSH2 0xE1 JUMPI DUP1 PUSH4 0xE96FADA2 GT PUSH2 0x8A JUMPI DUP1 PUSH4 0xF887EA40 GT PUSH2 0x64 JUMPI DUP1 PUSH4 0xF887EA40 EQ PUSH2 0x910 JUMPI DUP1 PUSH4 0xFE9FBB80 EQ PUSH2 0x930 JUMPI DUP1 PUSH4 0xFFB54A99 EQ PUSH2 0x969 JUMPI PUSH1 0x0 DUP1 REVERT JUMPDEST DUP1 PUSH4 0xE96FADA2 EQ PUSH2 0x8B0 JUMPI DUP1 PUSH4 0xF0B37C04 EQ PUSH2 0x8D0 JUMPI DUP1 PUSH4 0xF2FDE38B EQ PUSH2 0x8F0 JUMPI PUSH1 0x0 DUP1 REVERT JUMPDEST DUP1 PUSH4 0xDC62B296 GT PUSH2 0xBB JUMPI DUP1 PUSH4 0xDC62B296 EQ PUSH2 0x814 JUMPI DUP1 PUSH4 0xDD62ED3E EQ PUSH2 0x84A JUMPI DUP1 PUSH4 0xDF20FD49 EQ PUSH2 0x890 JUMPI PUSH1 0x0 DUP1 REVERT JUMPDEST DUP1 PUSH4 0xD42B92FD EQ PUSH2 0x7B4 JUMPI DUP1 PUSH4 0xD7C01032 EQ PUSH2 0x7D4 JUMPI DUP1 PUSH4 0xDAB84EE7 EQ PUSH2 0x7F4 JUMPI PUSH1 0x0 DUP1 REVERT JUMPDEST DUP1 PUSH4 0xA8AA1B31 GT PUSH2 0x143 JUMPI DUP1 PUSH4 0xC9567BF9 GT PUSH2 0x11D JUMPI DUP1 PUSH4 0xC9567BF9 EQ PUSH2 0x75F JUMPI DUP1 PUSH4 0xCA33E64C EQ PUSH2 0x774 JUMPI DUP1 PUSH4 0xCEC10C11 EQ PUSH2 0x794 JUMPI PUSH1 0x0 DUP1 REVERT JUMPDEST DUP1 PUSH4 0xA8AA1B31 EQ PUSH2 0x6FF JUMPI DUP1 PUSH4 0xA9059CBB EQ PUSH2 0x71F JUMPI DUP1 PUSH4 0xB6A5D7DE EQ PUSH2 0x73F JUMPI PUSH1 0x0 DUP1 REVERT JUMPDEST DUP1 PUSH4 0x95D89B41 GT PUSH2 0x174 JUMPI DUP1 PUSH4 0x95D89B41 EQ PUSH2 0x690 JUMPI DUP1 PUSH4 0x98118CB4 EQ PUSH2 0x6BC JUMPI DUP1 PUSH4 0x9D608BE1 EQ PUSH2 0x6D2 JUMPI PUSH1 0x0 DUP1 REVERT JUMPDEST DUP1 PUSH4 0x7B13F8C8 EQ PUSH2 0x628 JUMPI DUP1 PUSH4 0x7D1DB4A5 EQ PUSH2 0x648 JUMPI DUP1 PUSH4 0x893D20E8 EQ PUSH2 0x65E JUMPI PUSH1 0x0 DUP1 REVERT JUMPDEST DUP1 PUSH4 0x2F54BF6E GT PUSH2 0x25E JUMPI DUP1 PUSH4 0x5BA5203F GT PUSH2 0x207 JUMPI DUP1 PUSH4 0x6DDD1713 GT PUSH2 0x1E1 JUMPI DUP1 PUSH4 0x6DDD1713 EQ PUSH2 0x5BB JUMPI DUP1 PUSH4 0x70A08231 EQ PUSH2 0x5DC JUMPI DUP1 PUSH4 0x78109E54 EQ PUSH2 0x612 JUMPI PUSH1 0x0 DUP1 REVERT JUMPDEST DUP1 PUSH4 0x5BA5203F EQ PUSH2 0x562 JUMPI DUP1 PUSH4 0x6827E764 EQ PUSH2 0x58F JUMPI DUP1 PUSH4 0x6B67C4DF EQ PUSH2 0x5A5 JUMPI PUSH1 0x0 DUP1 REVERT JUMPDEST DUP1 PUSH4 0x410346B3 GT PUSH2 0x238 JUMPI DUP1 PUSH4 0x410346B3 EQ PUSH2 0x4FD JUMPI DUP1 PUSH4 0x41DB0FE6 EQ PUSH2 0x52D JUMPI DUP1 PUSH4 0x571AC8B0 EQ PUSH2 0x542 JUMPI PUSH1 0x0 DUP1 REVERT JUMPDEST DUP1 PUSH4 0x2F54BF6E EQ PUSH2 0x497 JUMPI DUP1 PUSH4 0x313CE567 EQ PUSH2 0x4C6 JUMPI DUP1 PUSH4 0x3CB5DF06 EQ PUSH2 0x4E8 JUMPI PUSH1 0x0 DUP1 REVERT JUMPDEST DUP1 PUSH4 0x18160DDD GT PUSH2 0x2C0 JUMPI DUP1 PUSH4 0x1DF4CCFC GT PUSH2 0x29A JUMPI DUP1 PUSH4 0x1DF4CCFC EQ PUSH2 0x44C JUMPI DUP1 PUSH4 0x23B872DD EQ PUSH2 0x462 JUMPI DUP1 PUSH4 0x2B112E49 EQ PUSH2 0x482 JUMPI PUSH1 0x0 DUP1 REVERT JUMPDEST DUP1 PUSH4 0x18160DDD EQ PUSH2 0x3F7 JUMPI DUP1 PUSH4 0x1C499AB0 EQ PUSH2 0x40C JUMPI DUP1 PUSH4 0x1DA1DB5E EQ PUSH2 0x42C JUMPI PUSH1 0x0 DUP1 REVERT JUMPDEST DUP1 PUSH4 0x6FDDE03 GT PUSH2 0x2F1 JUMPI DUP1 PUSH4 0x6FDDE03 EQ PUSH2 0x363 JUMPI DUP1 PUSH4 0x95EA7B3 EQ PUSH2 0x3B2 JUMPI DUP1 PUSH4 0x180B0D7E EQ PUSH2 0x3E2 JUMPI PUSH1 0x0 DUP1 REVERT JUMPDEST DUP1 PUSH4 0x445B667 EQ PUSH2 0x318 JUMPI DUP1 PUSH4 0x517D13D EQ PUSH2 0x341 JUMPI PUSH1 0x0 DUP1 REVERT JUMPDEST CALLDATASIZE PUSH2 0x313 JUMPI STOP JUMPDEST PUSH1 0x0 DUP1 REVERT JUMPDEST CALLVALUE DUP1 ISZERO PUSH2 0x324 JUMPI PUSH1 0x0 DUP1 REVERT JUMPDEST POP PUSH2 0x32E PUSH1 0x1A SLOAD DUP2 JUMP JUMPDEST PUSH1 0x40 MLOAD SWAP1 DUP2 MSTORE PUSH1 0x20 ADD JUMPDEST PUSH1 0x40 MLOAD DUP1 SWAP2 SUB SWAP1 RETURN JUMPDEST CALLVALUE DUP1 ISZERO PUSH2 0x34D JUMPI PUSH1 0x0 DUP1 REVERT JUMPDEST POP PUSH2 0x361 PUSH2 0x35C CALLDATASIZE PUSH1 0x4 PUSH2 0x21C7 JUMP JUMPDEST PUSH2 0x98A JUMP JUMPDEST STOP JUMPDEST CALLVALUE DUP1 ISZERO PUSH2 0x36F JUMPI PUSH1 0x0 DUP1 REVERT JUMPDEST POP PUSH1 0x40 DUP1 MLOAD DUP1 DUP3 ADD SWAP1 SWAP2 MSTORE PUSH1 0xF DUP2 MSTORE PUSH32 0x5375706572626F776C2057616765720000000000000000000000000000000000 PUSH1 0x20 DUP3 ADD MSTORE JUMPDEST PUSH1 0x40 MLOAD PUSH2 0x338 SWAP2 SWAP1 PUSH2 0x21E0 JUMP JUMPDEST CALLVALUE DUP1 ISZERO PUSH2 0x3BE JUMPI PUSH1 0x0 DUP1 REVERT JUMPDEST POP PUSH2 0x3D2 PUSH2 0x3CD CALLDATASIZE PUSH1 0x4 PUSH2 0x2246 JUMP JUMPDEST PUSH2 0xA7F JUMP JUMPDEST PUSH1 0x40 MLOAD SWAP1 ISZERO ISZERO DUP2 MSTORE PUSH1 0x20 ADD PUSH2 0x338 JUMP JUMPDEST CALLVALUE DUP1 ISZERO PUSH2 0x3EE JUMPI PUSH1 0x0 DUP1 REVERT JUMPDEST POP PUSH2 0x32E PUSH1 0x64 DUP2 JUMP JUMPDEST CALLVALUE DUP1 ISZERO PUSH2 0x403 JUMPI PUSH1 0x0 DUP1 REVERT JUMPDEST POP PUSH1 0x5 SLOAD PUSH2 0x32E JUMP JUMPDEST CALLVALUE DUP1 ISZERO PUSH2 0x418 JUMPI PUSH1 0x0 DUP1 REVERT JUMPDEST POP PUSH2 0x361 PUSH2 0x427 CALLDATASIZE PUSH1 0x4 PUSH2 0x21C7 JUMP JUMPDEST PUSH2 0xAEC JUMP JUMPDEST CALLVALUE DUP1 ISZERO PUSH2 0x438 JUMPI PUSH1 0x0 DUP1 REVERT JUMPDEST POP PUSH2 0x361 PUSH2 0x447 CALLDATASIZE PUSH1 0x4 PUSH2 0x21C7 JUMP JUMPDEST PUSH2 0xBDC JUMP JUMPDEST CALLVALUE DUP1 ISZERO PUSH2 0x458 JUMPI PUSH1 0x0 DUP1 REVERT JUMPDEST POP PUSH2 0x32E PUSH1 0x10 SLOAD DUP2 JUMP JUMPDEST CALLVALUE DUP1 ISZERO PUSH2 0x46E JUMPI PUSH1 0x0 DUP1 REVERT JUMPDEST POP PUSH2 0x3D2 PUSH2 0x47D CALLDATASIZE PUSH1 0x4 PUSH2 0x2272 JUMP JUMPDEST PUSH2 0xC67 JUMP JUMPDEST CALLVALUE DUP1 ISZERO PUSH2 0x48E JUMPI PUSH1 0x0 DUP1 REVERT JUMPDEST POP PUSH2 0x32E PUSH2 0xD30 JUMP JUMPDEST CALLVALUE DUP1 ISZERO PUSH2 0x4A3 JUMPI PUSH1 0x0 DUP1 REVERT JUMPDEST POP PUSH2 0x3D2 PUSH2 0x4B2 CALLDATASIZE PUSH1 0x4 PUSH2 0x22B3 JUMP JUMPDEST PUSH1 0x0 SLOAD PUSH1 0x1 PUSH1 0x1 PUSH1 0xA0 SHL SUB SWAP2 DUP3 AND SWAP2 AND EQ SWAP1 JUMP JUMPDEST CALLVALUE DUP1 ISZERO PUSH2 0x4D2 JUMPI PUSH1 0x0 DUP1 REVERT JUMPDEST POP PUSH1 0x4 JUMPDEST PUSH1 0x40 MLOAD PUSH1 0xFF SWAP1 SWAP2 AND DUP2 MSTORE PUSH1 0x20 ADD PUSH2 0x338 JUMP JUMPDEST CALLVALUE DUP1 ISZERO PUSH2 0x4F4 JUMPI PUSH1 0x0 DUP1 REVERT JUMPDEST POP PUSH1 0x13 SLOAD PUSH2 0x32E JUMP JUMPDEST CALLVALUE DUP1 ISZERO PUSH2 0x509 JUMPI PUSH1 0x0 DUP1 REVERT JUMPDEST POP PUSH2 0x4D6 PUSH2 0x518 CALLDATASIZE PUSH1 0x4 PUSH2 0x22B3 JUMP JUMPDEST PUSH1 0x11 PUSH1 0x20 MSTORE PUSH1 0x0 SWAP1 DUP2 MSTORE PUSH1 0x40 SWAP1 KECCAK256 SLOAD PUSH1 0xFF AND DUP2 JUMP JUMPDEST CALLVALUE DUP1 ISZERO PUSH2 0x539 JUMPI PUSH1 0x0 DUP1 REVERT JUMPDEST POP PUSH1 0x14 SLOAD PUSH2 0x32E JUMP JUMPDEST CALLVALUE DUP1 ISZERO PUSH2 0x54E JUMPI PUSH1 0x0 DUP1 REVERT JUMPDEST POP PUSH2 0x3D2 PUSH2 0x55D CALLDATASIZE PUSH1 0x4 PUSH2 0x22B3 JUMP JUMPDEST PUSH2 0xD82 JUMP JUMPDEST CALLVALUE DUP1 ISZERO PUSH2 0x56E JUMPI PUSH1 0x0 DUP1 REVERT JUMPDEST POP PUSH2 0x582 PUSH2 0x57D CALLDATASIZE PUSH1 0x4 PUSH2 0x22D0 JUMP JUMPDEST PUSH2 0xD90 JUMP JUMPDEST PUSH1 0x40 MLOAD PUSH2 0x338 SWAP2 SWAP1 PUSH2 0x22F3 JUMP JUMPDEST CALLVALUE DUP1 ISZERO PUSH2 0x59B JUMPI PUSH1 0x0 DUP1 REVERT JUMPDEST POP PUSH2 0x32E PUSH1 0xF SLOAD DUP2 JUMP JUMPDEST CALLVALUE DUP1 ISZERO PUSH2 0x5B1 JUMPI PUSH1 0x0 DUP1 REVERT JUMPDEST POP PUSH2 0x32E PUSH1 0xE SLOAD DUP2 JUMP JUMPDEST CALLVALUE DUP1 ISZERO PUSH2 0x5C7 JUMPI PUSH1 0x0 DUP1 REVERT JUMPDEST POP PUSH1 0x19 SLOAD PUSH2 0x3D2 SWAP1 PUSH1 0x1 PUSH1 0xA8 SHL SWAP1 DIV PUSH1 0xFF AND DUP2 JUMP JUMPDEST CALLVALUE DUP1 ISZERO PUSH2 0x5E8 JUMPI PUSH1 0x0 DUP1 REVERT JUMPDEST POP PUSH2 0x32E PUSH2 0x5F7 CALLDATASIZE PUSH1 0x4 PUSH2 0x22B3 JUMP JUMPDEST PUSH1 0x1 PUSH1 0x1 PUSH1 0xA0 SHL SUB AND PUSH1 0x0 SWAP1 DUP2 MSTORE PUSH1 0x8 PUSH1 0x20 MSTORE PUSH1 0x40 SWAP1 KECCAK256 SLOAD SWAP1 JUMP JUMPDEST CALLVALUE DUP1 ISZERO PUSH2 0x61E JUMPI PUSH1 0x0 DUP1 REVERT JUMPDEST POP PUSH2 0x32E PUSH1 0x7 SLOAD DUP2 JUMP JUMPDEST CALLVALUE DUP1 ISZERO PUSH2 0x634 JUMPI PUSH1 0x0 DUP1 REVERT JUMPDEST POP PUSH2 0x361 PUSH2 0x643 CALLDATASIZE PUSH1 0x4 PUSH2 0x21C7 JUMP JUMPDEST PUSH2 0xEEC JUMP JUMPDEST CALLVALUE DUP1 ISZERO PUSH2 0x654 JUMPI PUSH1 0x0 DUP1 REVERT JUMPDEST POP PUSH2 0x32E PUSH1 0x6 SLOAD DUP2 JUMP JUMPDEST CALLVALUE DUP1 ISZERO PUSH2 0x66A JUMPI PUSH1 0x0 DUP1 REVERT JUMPDEST POP PUSH1 0x0 SLOAD PUSH1 0x1 PUSH1 0x1 PUSH1 0xA0 SHL SUB AND JUMPDEST PUSH1 0x40 MLOAD PUSH1 0x1 PUSH1 0x1 PUSH1 0xA0 SHL SUB SWAP1 SWAP2 AND DUP2 MSTORE PUSH1 0x20 ADD PUSH2 0x338 JUMP JUMPDEST CALLVALUE DUP1 ISZERO PUSH2 0x69C JUMPI PUSH1 0x0 DUP1 REVERT JUMPDEST POP PUSH1 0x40 DUP1 MLOAD DUP1 DUP3 ADD SWAP1 SWAP2 MSTORE PUSH1 0x3 DUP2 MSTORE PUSH3 0x534257 PUSH1 0xE8 SHL PUSH1 0x20 DUP3 ADD MSTORE PUSH2 0x3A5 JUMP JUMPDEST CALLVALUE DUP1 ISZERO PUSH2 0x6C8 JUMPI PUSH1 0x0 DUP1 REVERT JUMPDEST POP PUSH2 0x32E PUSH1 0xD SLOAD DUP2 JUMP JUMPDEST CALLVALUE DUP1 ISZERO PUSH2 0x6DE JUMPI PUSH1 0x0 DUP1 REVERT JUMPDEST POP PUSH2 0x6F2 PUSH2 0x6ED CALLDATASIZE PUSH1 0x4 PUSH2 0x22D0 JUMP JUMPDEST PUSH2 0xF68 JUMP JUMPDEST PUSH1 0x40 MLOAD PUSH2 0x338 SWAP2 SWAP1 PUSH2 0x237B JUMP JUMPDEST CALLVALUE DUP1 ISZERO PUSH2 0x70B JUMPI PUSH1 0x0 DUP1 REVERT JUMPDEST POP PUSH1 0x19 SLOAD PUSH2 0x678 SWAP1 PUSH1 0x1 PUSH1 0x1 PUSH1 0xA0 SHL SUB AND DUP2 JUMP JUMPDEST CALLVALUE DUP1 ISZERO PUSH2 0x72B JUMPI PUSH1 0x0 DUP1 REVERT JUMPDEST POP PUSH2 0x3D2 PUSH2 0x73A CALLDATASIZE PUSH1 0x4 PUSH2 0x2246 JUMP JUMPDEST PUSH2 0x10B3 JUMP JUMPDEST CALLVALUE DUP1 ISZERO PUSH2 0x74B JUMPI PUSH1 0x0 DUP1 REVERT JUMPDEST POP PUSH2 0x361 PUSH2 0x75A CALLDATASIZE PUSH1 0x4 PUSH2 0x22B3 JUMP JUMPDEST PUSH2 0x10C0 JUMP JUMPDEST CALLVALUE DUP1 ISZERO PUSH2 0x76B JUMPI PUSH1 0x0 DUP1 REVERT JUMPDEST POP PUSH2 0x361 PUSH2 0x112A JUMP JUMPDEST CALLVALUE DUP1 ISZERO PUSH2 0x780 JUMPI PUSH1 0x0 DUP1 REVERT JUMPDEST POP PUSH1 0x15 SLOAD PUSH2 0x678 SWAP1 PUSH1 0x1 PUSH1 0x1 PUSH1 0xA0 SHL SUB AND DUP2 JUMP JUMPDEST CALLVALUE DUP1 ISZERO PUSH2 0x7A0 JUMPI PUSH1 0x0 DUP1 REVERT JUMPDEST POP PUSH2 0x361 PUSH2 0x7AF CALLDATASIZE PUSH1 0x4 PUSH2 0x238E JUMP JUMPDEST PUSH2 0x119D JUMP JUMPDEST CALLVALUE DUP1 ISZERO PUSH2 0x7C0 JUMPI PUSH1 0x0 DUP1 REVERT JUMPDEST POP PUSH2 0x361 PUSH2 0x7CF CALLDATASIZE PUSH1 0x4 PUSH2 0x22D0 JUMP JUMPDEST PUSH2 0x1258 JUMP JUMPDEST CALLVALUE DUP1 ISZERO PUSH2 0x7E0 JUMPI PUSH1 0x0 DUP1 REVERT JUMPDEST POP PUSH2 0x361 PUSH2 0x7EF CALLDATASIZE PUSH1 0x4 PUSH2 0x23BA JUMP JUMPDEST PUSH2 0x1461 JUMP JUMPDEST CALLVALUE DUP1 ISZERO PUSH2 0x800 JUMPI PUSH1 0x0 DUP1 REVERT JUMPDEST POP PUSH1 0x17 SLOAD PUSH2 0x678 SWAP1 PUSH1 0x1 PUSH1 0x1 PUSH1 0xA0 SHL SUB AND DUP2 JUMP JUMPDEST CALLVALUE DUP1 ISZERO PUSH2 0x820 JUMPI PUSH1 0x0 DUP1 REVERT JUMPDEST POP PUSH2 0x678 PUSH2 0x82F CALLDATASIZE PUSH1 0x4 PUSH2 0x21C7 JUMP JUMPDEST PUSH1 0x12 PUSH1 0x20 MSTORE PUSH1 0x0 SWAP1 DUP2 MSTORE PUSH1 0x40 SWAP1 KECCAK256 SLOAD PUSH1 0x1 PUSH1 0x1 PUSH1 0xA0 SHL SUB AND DUP2 JUMP JUMPDEST CALLVALUE DUP1 ISZERO PUSH2 0x856 JUMPI PUSH1 0x0 DUP1 REVERT JUMPDEST POP PUSH2 0x32E PUSH2 0x865 CALLDATASIZE PUSH1 0x4 PUSH2 0x2405 JUMP JUMPDEST PUSH1 0x1 PUSH1 0x1 PUSH1 0xA0 SHL SUB SWAP2 DUP3 AND PUSH1 0x0 SWAP1 DUP2 MSTORE PUSH1 0x9 PUSH1 0x20 SWAP1 DUP2 MSTORE PUSH1 0x40 DUP1 DUP4 KECCAK256 SWAP4 SWAP1 SWAP5 AND DUP3 MSTORE SWAP2 SWAP1 SWAP2 MSTORE KECCAK256 SLOAD SWAP1 JUMP JUMPDEST CALLVALUE DUP1 ISZERO PUSH2 0x89C JUMPI PUSH1 0x0 DUP1 REVERT JUMPDEST POP PUSH2 0x361 PUSH2 0x8AB CALLDATASIZE PUSH1 0x4 PUSH2 0x243E JUMP JUMPDEST PUSH2 0x14F0 JUMP JUMPDEST CALLVALUE DUP1 ISZERO PUSH2 0x8BC JUMPI PUSH1 0x0 DUP1 REVERT JUMPDEST POP PUSH1 0x16 SLOAD PUSH2 0x678 SWAP1 PUSH1 0x1 PUSH1 0x1 PUSH1 0xA0 SHL SUB AND DUP2 JUMP JUMPDEST CALLVALUE DUP1 ISZERO PUSH2 0x8DC JUMPI PUSH1 0x0 DUP1 REVERT JUMPDEST POP PUSH2 0x361 PUSH2 0x8EB CALLDATASIZE PUSH1 0x4 PUSH2 0x22B3 JUMP JUMPDEST PUSH2 0x1570 JUMP JUMPDEST CALLVALUE DUP1 ISZERO PUSH2 0x8FC JUMPI PUSH1 0x0 DUP1 REVERT JUMPDEST POP PUSH2 0x361 PUSH2 0x90B CALLDATASIZE PUSH1 0x4 PUSH2 0x22B3 JUMP JUMPDEST PUSH2 0x1632 JUMP JUMPDEST CALLVALUE DUP1 ISZERO PUSH2 0x91C JUMPI PUSH1 0x0 DUP1 REVERT JUMPDEST POP PUSH1 0x18 SLOAD PUSH2 0x678 SWAP1 PUSH1 0x1 PUSH1 0x1 PUSH1 0xA0 SHL SUB AND DUP2 JUMP JUMPDEST CALLVALUE DUP1 ISZERO PUSH2 0x93C JUMPI PUSH1 0x0 DUP1 REVERT JUMPDEST POP PUSH2 0x3D2 PUSH2 0x94B CALLDATASIZE PUSH1 0x4 PUSH2 0x22B3 JUMP JUMPDEST PUSH1 0x1 PUSH1 0x1 PUSH1 0xA0 SHL SUB AND PUSH1 0x0 SWAP1 DUP2 MSTORE PUSH1 0x1 PUSH1 0x20 MSTORE PUSH1 0x40 SWAP1 KECCAK256 SLOAD PUSH1 0xFF AND SWAP1 JUMP JUMPDEST CALLVALUE DUP1 ISZERO PUSH2 0x975 JUMPI PUSH1 0x0 DUP1 REVERT JUMPDEST POP PUSH1 0x19 SLOAD PUSH2 0x3D2 SWAP1 PUSH1 0x1 PUSH1 0xA0 SHL SWAP1 DIV PUSH1 0xFF AND DUP2 JUMP JUMPDEST PUSH1 0x0 SLOAD PUSH1 0x1 PUSH1 0x1 PUSH1 0xA0 SHL SUB AND CALLER EQ PUSH2 0x9D2 JUMPI PUSH1 0x40 MLOAD PUSH3 0x461BCD PUSH1 0xE5 SHL DUP2 MSTORE PUSH1 0x20 PUSH1 0x4 DUP3 ADD MSTORE PUSH1 0x6 PUSH1 0x24 DUP3 ADD MSTORE PUSH6 0x10A7ABA722A9 PUSH1 0xD1 SHL PUSH1 0x44 DUP3 ADD MSTORE PUSH1 0x64 ADD JUMPDEST PUSH1 0x40 MLOAD DUP1 SWAP2 SUB SWAP1 REVERT JUMPDEST PUSH1 0x1 DUP2 LT ISZERO PUSH2 0xA23 JUMPI PUSH1 0x40 MLOAD PUSH3 0x461BCD PUSH1 0xE5 SHL DUP2 MSTORE PUSH1 0x20 PUSH1 0x4 DUP3 ADD MSTORE PUSH1 0x6 PUSH1 0x24 DUP3 ADD MSTORE PUSH32 0x4D696E2031250000000000000000000000000000000000000000000000000000 PUSH1 0x44 DUP3 ADD MSTORE PUSH1 0x64 ADD PUSH2 0x9C9 JUMP JUMPDEST PUSH1 0x64 DUP2 GT ISZERO PUSH2 0xA5F JUMPI PUSH1 0x40 MLOAD PUSH3 0x461BCD PUSH1 0xE5 SHL DUP2 MSTORE PUSH1 0x20 PUSH1 0x4 DUP3 ADD MSTORE PUSH1 0x8 PUSH1 0x24 DUP3 ADD MSTORE PUSH8 0x4D61782031303025 PUSH1 0xC0 SHL PUSH1 0x44 DUP3 ADD MSTORE PUSH1 0x64 ADD PUSH2 0x9C9 JUMP JUMPDEST PUSH1 0x64 DUP2 PUSH1 0x5 SLOAD PUSH2 0xA6F SWAP2 SWAP1 PUSH2 0x2477 JUMP JUMPDEST PUSH2 0xA79 SWAP2 SWAP1 PUSH2 0x248E JUMP JUMPDEST PUSH1 0x6 SSTORE POP JUMP JUMPDEST CALLER PUSH1 0x0 DUP2 DUP2 MSTORE PUSH1 0x9 PUSH1 0x20 SWAP1 DUP2 MSTORE PUSH1 0x40 DUP1 DUP4 KECCAK256 PUSH1 0x1 PUSH1 0x1 PUSH1 0xA0 SHL SUB DUP8 AND DUP1 DUP6 MSTORE SWAP3 MSTORE DUP1 DUP4 KECCAK256 DUP6 SWAP1 SSTORE MLOAD SWAP2 SWAP3 SWAP1 SWAP2 PUSH32 0x8C5BE1E5EBEC7D5BD14F71427D1E84F3DD0314C0F7B2291E5B200AC8C7C3B925 SWAP1 PUSH2 0xADA SWAP1 DUP7 DUP2 MSTORE PUSH1 0x20 ADD SWAP1 JUMP JUMPDEST PUSH1 0x40 MLOAD DUP1 SWAP2 SUB SWAP1 LOG3 POP PUSH1 0x1 JUMPDEST SWAP3 SWAP2 POP POP JUMP JUMPDEST PUSH1 0x0 SLOAD PUSH1 0x1 PUSH1 0x1 PUSH1 0xA0 SHL SUB AND CALLER EQ PUSH2 0xB2F JUMPI PUSH1 0x40 MLOAD PUSH3 0x461BCD PUSH1 0xE5 SHL DUP2 MSTORE PUSH1 0x20 PUSH1 0x4 DUP3 ADD MSTORE PUSH1 0x6 PUSH1 0x24 DUP3 ADD MSTORE PUSH6 0x10A7ABA722A9 PUSH1 0xD1 SHL PUSH1 0x44 DUP3 ADD MSTORE PUSH1 0x64 ADD PUSH2 0x9C9 JUMP JUMPDEST PUSH1 0x2 DUP2 LT ISZERO PUSH2 0xB80 JUMPI PUSH1 0x40 MLOAD PUSH3 0x461BCD PUSH1 0xE5 SHL DUP2 MSTORE PUSH1 0x20 PUSH1 0x4 DUP3 ADD MSTORE PUSH1 0x6 PUSH1 0x24 DUP3 ADD MSTORE PUSH32 0x4D696E2032250000000000000000000000000000000000000000000000000000 PUSH1 0x44 DUP3 ADD MSTORE PUSH1 0x64 ADD PUSH2 0x9C9 JUMP JUMPDEST PUSH1 0x64 DUP2 GT ISZERO PUSH2 0xBBC JUMPI PUSH1 0x40 MLOAD PUSH3 0x461BCD PUSH1 0xE5 SHL DUP2 MSTORE PUSH1 0x20 PUSH1 0x4 DUP3 ADD MSTORE PUSH1 0x8 PUSH1 0x24 DUP3 ADD MSTORE PUSH8 0x4D61782031303025 PUSH1 0xC0 SHL PUSH1 0x44 DUP3 ADD MSTORE PUSH1 0x64 ADD PUSH2 0x9C9 JUMP JUMPDEST PUSH1 0x64 DUP2 PUSH1 0x5 SLOAD PUSH2 0xBCC SWAP2 SWAP1 PUSH2 0x2477 JUMP JUMPDEST PUSH2 0xBD6 SWAP2 SWAP1 PUSH2 0x248E JUMP JUMPDEST PUSH1 0x7 SSTORE POP JUMP JUMPDEST PUSH1 0x0 SLOAD PUSH1 0x1 PUSH1 0x1 PUSH1 0xA0 SHL SUB AND CALLER EQ PUSH2 0xC1F JUMPI PUSH1 0x40 MLOAD PUSH3 0x461BCD PUSH1 0xE5 SHL DUP2 MSTORE PUSH1 0x20 PUSH1 0x4 DUP3 ADD MSTORE PUSH1 0x6 PUSH1 0x24 DUP3 ADD MSTORE PUSH6 0x10A7ABA722A9 PUSH1 0xD1 SHL PUSH1 0x44 DUP3 ADD MSTORE PUSH1 0x64 ADD PUSH2 0x9C9 JUMP JUMPDEST SELFBALANCE CALLER PUSH2 0x8FC PUSH1 0x64 PUSH2 0xC30 DUP6 DUP6 PUSH2 0x2477 JUMP JUMPDEST PUSH2 0xC3A SWAP2 SWAP1 PUSH2 0x248E JUMP JUMPDEST PUSH1 0x40 MLOAD DUP2 ISZERO SWAP1 SWAP3 MUL SWAP2 PUSH1 0x0 DUP2 DUP2 DUP2 DUP6 DUP9 DUP9 CALL SWAP4 POP POP POP POP ISZERO DUP1 ISZERO PUSH2 0xC62 JUMPI RETURNDATASIZE PUSH1 0x0 DUP1 RETURNDATACOPY RETURNDATASIZE PUSH1 0x0 REVERT JUMPDEST POP POP POP JUMP JUMPDEST PUSH1 0x1 PUSH1 0x1 PUSH1 0xA0 SHL SUB DUP4 AND PUSH1 0x0 SWAP1 DUP2 MSTORE PUSH1 0x9 PUSH1 0x20 SWAP1 DUP2 MSTORE PUSH1 0x40 DUP1 DUP4 KECCAK256 CALLER DUP5 MSTORE SWAP1 SWAP2 MSTORE DUP2 KECCAK256 SLOAD PUSH1 0x0 NOT EQ PUSH2 0xD1B JUMPI PUSH1 0x40 DUP1 MLOAD DUP1 DUP3 ADD DUP3 MSTORE PUSH1 0x16 DUP2 MSTORE PUSH32 0x496E73756666696369656E7420416C6C6F77616E636500000000000000000000 PUSH1 0x20 DUP1 DUP4 ADD SWAP2 SWAP1 SWAP2 MSTORE PUSH1 0x1 PUSH1 0x1 PUSH1 0xA0 SHL SUB DUP8 AND PUSH1 0x0 SWAP1 DUP2 MSTORE PUSH1 0x9 DUP3 MSTORE DUP4 DUP2 KECCAK256 CALLER DUP3 MSTORE SWAP1 SWAP2 MSTORE SWAP2 SWAP1 SWAP2 KECCAK256 SLOAD PUSH2 0xCF6 SWAP2 DUP5 SWAP1 PUSH2 0x175A JUMP JUMPDEST PUSH1 0x1 PUSH1 0x1 PUSH1 0xA0 SHL SUB DUP6 AND PUSH1 0x0 SWAP1 DUP2 MSTORE PUSH1 0x9 PUSH1 0x20 SWAP1 DUP2 MSTORE PUSH1 0x40 DUP1 DUP4 KECCAK256 CALLER DUP5 MSTORE SWAP1 SWAP2 MSTORE SWAP1 KECCAK256 SSTORE JUMPDEST PUSH2 0xD26 DUP5 DUP5 DUP5 PUSH2 0x1794 JUMP JUMPDEST SWAP1 POP JUMPDEST SWAP4 SWAP3 POP POP POP JUMP JUMPDEST PUSH1 0x4 SLOAD PUSH1 0x1 PUSH1 0x1 PUSH1 0xA0 SHL SUB AND PUSH1 0x0 SWAP1 DUP2 MSTORE PUSH1 0x8 PUSH1 0x20 MSTORE PUSH1 0x40 DUP2 KECCAK256 SLOAD PUSH2 0xD7D SWAP1 PUSH1 0x3 SLOAD PUSH1 0x1 PUSH1 0x1 PUSH1 0xA0 SHL SUB AND PUSH1 0x0 SWAP1 DUP2 MSTORE PUSH1 0x8 PUSH1 0x20 MSTORE PUSH1 0x40 SWAP1 KECCAK256 SLOAD PUSH2 0xD77 SWAP1 PUSH1 0x5 SLOAD SWAP1 PUSH2 0x1B4C JUMP JUMPDEST SWAP1 PUSH2 0x1B4C JUMP JUMPDEST SWAP1 POP SWAP1 JUMP JUMPDEST PUSH1 0x0 PUSH2 0xAE6 DUP3 PUSH1 0x0 NOT PUSH2 0xA7F JUMP JUMPDEST PUSH1 0x60 PUSH1 0x0 PUSH1 0x14 SLOAD PUSH1 0x13 SLOAD PUSH2 0xDA4 SWAP2 SWAP1 PUSH2 0x24B0 JUMP JUMPDEST PUSH8 0xFFFFFFFFFFFFFFFF DUP2 GT ISZERO PUSH2 0xDBC JUMPI PUSH2 0xDBC PUSH2 0x24C3 JUMP JUMPDEST PUSH1 0x40 MLOAD SWAP1 DUP1 DUP3 MSTORE DUP1 PUSH1 0x20 MUL PUSH1 0x20 ADD DUP3 ADD PUSH1 0x40 MSTORE DUP1 ISZERO PUSH2 0xDE5 JUMPI DUP2 PUSH1 0x20 ADD PUSH1 0x20 DUP3 MUL DUP1 CALLDATASIZE DUP4 CALLDATACOPY ADD SWAP1 POP JUMPDEST POP SWAP1 POP PUSH1 0x0 DUP1 JUMPDEST PUSH1 0x14 SLOAD PUSH1 0x13 SLOAD PUSH2 0xDFC SWAP2 SWAP1 PUSH2 0x24B0 JUMP JUMPDEST DUP2 LT ISZERO PUSH2 0xEE3 JUMPI PUSH1 0x0 DUP2 DUP2 MSTORE PUSH1 0x12 PUSH1 0x20 SWAP1 DUP2 MSTORE PUSH1 0x40 DUP1 DUP4 KECCAK256 SLOAD PUSH1 0x1 PUSH1 0x1 PUSH1 0xA0 SHL SUB AND DUP4 MSTORE PUSH1 0x11 SWAP1 SWAP2 MSTORE SWAP1 KECCAK256 SLOAD PUSH1 0xFF DUP7 DUP2 AND SWAP2 AND EQ DUP1 ISZERO PUSH2 0xE6F JUMPI POP PUSH2 0x1F4 PUSH1 0x5 SLOAD PUSH2 0xE47 SWAP2 SWAP1 PUSH2 0x248E JUMP JUMPDEST PUSH1 0x0 DUP3 DUP2 MSTORE PUSH1 0x12 PUSH1 0x20 SWAP1 DUP2 MSTORE PUSH1 0x40 DUP1 DUP4 KECCAK256 SLOAD PUSH1 0x1 PUSH1 0x1 PUSH1 0xA0 SHL SUB AND DUP4 MSTORE PUSH1 0x8 SWAP1 SWAP2 MSTORE SWAP1 KECCAK256 SLOAD LT ISZERO JUMPDEST ISZERO PUSH2 0xED1 JUMPI PUSH1 0x5 SLOAD PUSH1 0x0 DUP3 DUP2 MSTORE PUSH1 0x12 PUSH1 0x20 SWAP1 DUP2 MSTORE PUSH1 0x40 DUP1 DUP4 KECCAK256 SLOAD PUSH1 0x1 PUSH1 0x1 PUSH1 0xA0 SHL SUB AND DUP4 MSTORE PUSH1 0x8 SWAP1 SWAP2 MSTORE SWAP1 KECCAK256 SLOAD PUSH2 0xEA6 SWAP2 SWAP1 PUSH2 0x248E JUMP JUMPDEST DUP4 DUP4 DUP2 MLOAD DUP2 LT PUSH2 0xEB8 JUMPI PUSH2 0xEB8 PUSH2 0x24D9 JUMP JUMPDEST PUSH1 0x20 SWAP1 DUP2 MUL SWAP2 SWAP1 SWAP2 ADD ADD MSTORE DUP2 PUSH2 0xECD DUP2 PUSH2 0x24EF JUMP JUMPDEST SWAP3 POP POP JUMPDEST DUP1 PUSH2 0xEDB DUP2 PUSH2 0x24EF JUMP JUMPDEST SWAP2 POP POP PUSH2 0xDEC JUMP JUMPDEST POP SWAP1 SWAP4 SWAP3 POP POP POP JUMP JUMPDEST PUSH1 0x0 SLOAD PUSH1 0x1 PUSH1 0x1 PUSH1 0xA0 SHL SUB AND CALLER EQ PUSH2 0xF2F JUMPI PUSH1 0x40 MLOAD PUSH3 0x461BCD PUSH1 0xE5 SHL DUP2 MSTORE PUSH1 0x20 PUSH1 0x4 DUP3 ADD MSTORE PUSH1 0x6 PUSH1 0x24 DUP3 ADD MSTORE PUSH6 0x10A7ABA722A9 PUSH1 0xD1 SHL PUSH1 0x44 DUP3 ADD MSTORE PUSH1 0x64 ADD PUSH2 0x9C9 JUMP JUMPDEST ADDRESS PUSH1 0x0 SWAP1 DUP2 MSTORE PUSH1 0x8 PUSH1 0x20 MSTORE PUSH1 0x40 DUP2 KECCAK256 SLOAD SWAP1 PUSH2 0xF55 PUSH1 0x64 PUSH2 0xF4F DUP5 DUP7 PUSH2 0x1B8E JUMP JUMPDEST SWAP1 PUSH2 0x1C10 JUMP JUMPDEST SWAP1 POP PUSH2 0xF62 ADDRESS CALLER DUP4 PUSH2 0x1C52 JUMP JUMPDEST POP POP POP POP JUMP JUMPDEST PUSH1 0x60 PUSH1 0x0 PUSH1 0x14 SLOAD PUSH1 0x13 SLOAD PUSH2 0xF7C SWAP2 SWAP1 PUSH2 0x24B0 JUMP JUMPDEST PUSH8 0xFFFFFFFFFFFFFFFF DUP2 GT ISZERO PUSH2 0xF94 JUMPI PUSH2 0xF94 PUSH2 0x24C3 JUMP JUMPDEST PUSH1 0x40 MLOAD SWAP1 DUP1 DUP3 MSTORE DUP1 PUSH1 0x20 MUL PUSH1 0x20 ADD DUP3 ADD PUSH1 0x40 MSTORE DUP1 ISZERO PUSH2 0xFBD JUMPI DUP2 PUSH1 0x20 ADD PUSH1 0x20 DUP3 MUL DUP1 CALLDATASIZE DUP4 CALLDATACOPY ADD SWAP1 POP JUMPDEST POP SWAP1 POP PUSH1 0x0 DUP1 JUMPDEST PUSH1 0x14 SLOAD PUSH1 0x13 SLOAD PUSH2 0xFD4 SWAP2 SWAP1 PUSH2 0x24B0 JUMP JUMPDEST DUP2 LT ISZERO PUSH2 0xEE3 JUMPI PUSH1 0x0 DUP2 DUP2 MSTORE PUSH1 0x12 PUSH1 0x20 SWAP1 DUP2 MSTORE PUSH1 0x40 DUP1 DUP4 KECCAK256 SLOAD PUSH1 0x1 PUSH1 0x1 PUSH1 0xA0 SHL SUB AND DUP4 MSTORE PUSH1 0x11 SWAP1 SWAP2 MSTORE SWAP1 KECCAK256 SLOAD PUSH1 0xFF DUP7 DUP2 AND SWAP2 AND EQ DUP1 ISZERO PUSH2 0x1047 JUMPI POP PUSH2 0x1F4 PUSH1 0x5 SLOAD PUSH2 0x101F SWAP2 SWAP1 PUSH2 0x248E JUMP JUMPDEST PUSH1 0x0 DUP3 DUP2 MSTORE PUSH1 0x12 PUSH1 0x20 SWAP1 DUP2 MSTORE PUSH1 0x40 DUP1 DUP4 KECCAK256 SLOAD PUSH1 0x1 PUSH1 0x1 PUSH1 0xA0 SHL SUB AND DUP4 MSTORE PUSH1 0x8 SWAP1 SWAP2 MSTORE SWAP1 KECCAK256 SLOAD LT ISZERO JUMPDEST ISZERO PUSH2 0x10A1 JUMPI PUSH1 0x0 DUP2 DUP2 MSTORE PUSH1 0x12 PUSH1 0x20 MSTORE PUSH1 0x40 SWAP1 KECCAK256 SLOAD DUP4 MLOAD PUSH1 0x1 PUSH1 0x1 PUSH1 0xA0 SHL SUB SWAP1 SWAP2 AND SWAP1 DUP5 SWAP1 DUP5 SWAP1 DUP2 LT PUSH2 0x107B JUMPI PUSH2 0x107B PUSH2 0x24D9 JUMP JUMPDEST PUSH1 0x1 PUSH1 0x1 PUSH1 0xA0 SHL SUB SWAP1 SWAP3 AND PUSH1 0x20 SWAP3 DUP4 MUL SWAP2 SWAP1 SWAP2 ADD SWAP1 SWAP2 ADD MSTORE DUP2 PUSH2 0x109D DUP2 PUSH2 0x24EF JUMP JUMPDEST SWAP3 POP POP JUMPDEST DUP1 PUSH2 0x10AB DUP2 PUSH2 0x24EF JUMP JUMPDEST SWAP2 POP POP PUSH2 0xFC4 JUMP JUMPDEST PUSH1 0x0 PUSH2 0xD29 CALLER DUP5 DUP5 PUSH2 0x1794 JUMP JUMPDEST PUSH1 0x0 SLOAD PUSH1 0x1 PUSH1 0x1 PUSH1 0xA0 SHL SUB AND CALLER EQ PUSH2 0x1103 JUMPI PUSH1 0x40 MLOAD PUSH3 0x461BCD PUSH1 0xE5 SHL DUP2 MSTORE PUSH1 0x20 PUSH1 0x4 DUP3 ADD MSTORE PUSH1 0x6 PUSH1 0x24 DUP3 ADD MSTORE PUSH6 0x10A7ABA722A9 PUSH1 0xD1 SHL PUSH1 0x44 DUP3 ADD MSTORE PUSH1 0x64 ADD PUSH2 0x9C9 JUMP JUMPDEST PUSH1 0x1 PUSH1 0x1 PUSH1 0xA0 SHL SUB AND PUSH1 0x0 SWAP1 DUP2 MSTORE PUSH1 0x1 PUSH1 0x20 DUP2 SWAP1 MSTORE PUSH1 0x40 SWAP1 SWAP2 KECCAK256 DUP1 SLOAD PUSH1 0xFF NOT AND SWAP1 SWAP2 OR SWAP1 SSTORE JUMP JUMPDEST PUSH1 0x0 SLOAD PUSH1 0x1 PUSH1 0x1 PUSH1 0xA0 SHL SUB AND CALLER EQ PUSH2 0x116D JUMPI PUSH1 0x40 MLOAD PUSH3 0x461BCD PUSH1 0xE5 SHL DUP2 MSTORE PUSH1 0x20 PUSH1 0x4 DUP3 ADD MSTORE PUSH1 0x6 PUSH1 0x24 DUP3 ADD MSTORE PUSH6 0x10A7ABA722A9 PUSH1 0xD1 SHL PUSH1 0x44 DUP3 ADD MSTORE PUSH1 0x64 ADD PUSH2 0x9C9 JUMP JUMPDEST PUSH1 0x19 DUP1 SLOAD PUSH32 0xFFFFFFFFFFFFFFFFFFFFFF00FFFFFFFFFFFFFFFFFFFFFFFFFFFFFFFFFFFFFFFF AND PUSH1 0x1 PUSH1 0xA0 SHL OR SWAP1 SSTORE JUMP JUMPDEST PUSH1 0x0 SLOAD PUSH1 0x1 PUSH1 0x1 PUSH1 0xA0 SHL SUB AND CALLER EQ PUSH2 0x11E0 JUMPI PUSH1 0x40 MLOAD PUSH3 0x461BCD PUSH1 0xE5 SHL DUP2 MSTORE PUSH1 0x20 PUSH1 0x4 DUP3 ADD MSTORE PUSH1 0x6 PUSH1 0x24 DUP3 ADD MSTORE PUSH6 0x10A7ABA722A9 PUSH1 0xD1 SHL PUSH1 0x44 DUP3 ADD MSTORE PUSH1 0x64 ADD PUSH2 0x9C9 JUMP JUMPDEST PUSH1 0xD DUP4 SWAP1 SSTORE PUSH1 0xE DUP3 SWAP1 SSTORE PUSH1 0xF DUP2 SWAP1 SSTORE DUP1 PUSH2 0x11FA DUP4 DUP6 PUSH2 0x24B0 JUMP JUMPDEST PUSH2 0x1204 SWAP2 SWAP1 PUSH2 0x24B0 JUMP JUMPDEST PUSH1 0x10 DUP2 SWAP1 SSTORE PUSH1 0x15 GT PUSH2 0xC62 JUMPI PUSH1 0x40 MLOAD PUSH3 0x461BCD PUSH1 0xE5 SHL DUP2 MSTORE PUSH1 0x20 PUSH1 0x4 DUP3 ADD MSTORE PUSH1 0x1B PUSH1 0x24 DUP3 ADD MSTORE PUSH32 0x5461782063616E6E6F74206265206D6F7265207468616E203230250000000000 PUSH1 0x44 DUP3 ADD MSTORE PUSH1 0x64 ADD PUSH2 0x9C9 JUMP JUMPDEST PUSH2 0x1F4 PUSH1 0x5 SLOAD PUSH2 0x1268 SWAP2 SWAP1 PUSH2 0x248E JUMP JUMPDEST CALLER PUSH1 0x0 SWAP1 DUP2 MSTORE PUSH1 0x8 PUSH1 0x20 MSTORE PUSH1 0x40 SWAP1 KECCAK256 SLOAD LT ISZERO PUSH2 0x12C6 JUMPI PUSH1 0x40 MLOAD PUSH3 0x461BCD PUSH1 0xE5 SHL DUP2 MSTORE PUSH1 0x20 PUSH1 0x4 DUP3 ADD MSTORE PUSH1 0x15 PUSH1 0x24 DUP3 ADD MSTORE PUSH32 0x596F75206E65656420746F20686F6C64206D6F72650000000000000000000000 PUSH1 0x44 DUP3 ADD MSTORE PUSH1 0x64 ADD PUSH2 0x9C9 JUMP JUMPDEST DUP1 PUSH1 0xFF AND PUSH1 0x1 EQ DUP1 PUSH2 0x12DB JUMPI POP DUP1 PUSH1 0xFF AND PUSH1 0x2 EQ JUMPDEST PUSH2 0x1327 JUMPI PUSH1 0x40 MLOAD PUSH3 0x461BCD PUSH1 0xE5 SHL DUP2 MSTORE PUSH1 0x20 PUSH1 0x4 DUP3 ADD MSTORE PUSH1 0x13 PUSH1 0x24 DUP3 ADD MSTORE PUSH32 0x4E6F742063686F6F73696E672061207465616D00000000000000000000000000 PUSH1 0x44 DUP3 ADD MSTORE PUSH1 0x64 ADD PUSH2 0x9C9 JUMP JUMPDEST CALLER PUSH1 0x0 SWAP1 DUP2 MSTORE PUSH1 0x11 PUSH1 0x20 MSTORE PUSH1 0x40 SWAP1 KECCAK256 SLOAD PUSH1 0xFF AND ISZERO PUSH2 0x1387 JUMPI PUSH1 0x40 MLOAD PUSH3 0x461BCD PUSH1 0xE5 SHL DUP2 MSTORE PUSH1 0x20 PUSH1 0x4 DUP3 ADD MSTORE PUSH1 0x1E PUSH1 0x24 DUP3 ADD MSTORE PUSH32 0x596F75206861766520616C72656164792063686F73656E2061207465616D0000 PUSH1 0x44 DUP3 ADD MSTORE PUSH1 0x64 ADD PUSH2 0x9C9 JUMP JUMPDEST CALLER PUSH1 0x0 DUP2 DUP2 MSTORE PUSH1 0x11 PUSH1 0x20 MSTORE PUSH1 0x40 DUP2 KECCAK256 DUP1 SLOAD PUSH1 0xFF NOT AND PUSH1 0xFF DUP6 AND OR SWAP1 SSTORE PUSH1 0x13 SLOAD PUSH1 0x14 SLOAD PUSH1 0x12 SWAP3 SWAP2 PUSH2 0x13B6 SWAP2 PUSH2 0x24B0 JUMP JUMPDEST DUP2 MSTORE PUSH1 0x20 ADD SWAP1 DUP2 MSTORE PUSH1 0x20 ADD PUSH1 0x0 KECCAK256 PUSH1 0x0 PUSH2 0x100 EXP DUP2 SLOAD DUP2 PUSH1 0x1 PUSH1 0x1 PUSH1 0xA0 SHL SUB MUL NOT AND SWAP1 DUP4 PUSH1 0x1 PUSH1 0x1 PUSH1 0xA0 SHL SUB AND MUL OR SWAP1 SSTORE POP DUP1 PUSH1 0xFF AND PUSH1 0x1 EQ PUSH2 0x140C JUMPI PUSH1 0x14 DUP1 SLOAD SWAP1 PUSH1 0x0 PUSH2 0x1403 DUP4 PUSH2 0x24EF JUMP JUMPDEST SWAP2 SWAP1 POP SSTORE PUSH2 0x1421 JUMP JUMPDEST PUSH1 0x13 DUP1 SLOAD SWAP1 PUSH1 0x0 PUSH2 0x141C DUP4 PUSH2 0x24EF JUMP JUMPDEST SWAP2 SWAP1 POP SSTORE JUMPDEST POP PUSH1 0x40 DUP1 MLOAD CALLER DUP2 MSTORE PUSH1 0xFF DUP4 AND PUSH1 0x20 DUP3 ADD MSTORE PUSH32 0x76580AC7C171CD3D2029D56FD501D1351F2DB92DA148447B53227803BF940C02 SWAP2 ADD JUMPDEST PUSH1 0x40 MLOAD DUP1 SWAP2 SUB SWAP1 LOG1 POP JUMP JUMPDEST PUSH1 0x0 SLOAD PUSH1 0x1 PUSH1 0x1 PUSH1 0xA0 SHL SUB AND CALLER EQ PUSH2 0x14A4 JUMPI PUSH1 0x40 MLOAD PUSH3 0x461BCD PUSH1 0xE5 SHL DUP2 MSTORE PUSH1 0x20 PUSH1 0x4 DUP3 ADD MSTORE PUSH1 0x6 PUSH1 0x24 DUP3 ADD MSTORE PUSH6 0x10A7ABA722A9 PUSH1 0xD1 SHL PUSH1 0x44 DUP3 ADD MSTORE PUSH1 0x64 ADD PUSH2 0x9C9 JUMP JUMPDEST PUSH1 0x15 DUP1 SLOAD PUSH1 0x1 PUSH1 0x1 PUSH1 0xA0 SHL SUB SWAP5 DUP6 AND PUSH20 0xFFFFFFFFFFFFFFFFFFFFFFFFFFFFFFFFFFFFFFFF NOT SWAP2 DUP3 AND OR SWAP1 SWAP2 SSTORE PUSH1 0x16 DUP1 SLOAD SWAP4 DUP6 AND SWAP4 DUP3 AND SWAP4 SWAP1 SWAP4 OR SWAP1 SWAP3 SSTORE PUSH1 0x17 DUP1 SLOAD SWAP2 SWAP1 SWAP4 AND SWAP2 AND OR SWAP1 SSTORE JUMP JUMPDEST PUSH1 0x0 SLOAD PUSH1 0x1 PUSH1 0x1 PUSH1 0xA0 SHL SUB AND CALLER EQ PUSH2 0x1533 JUMPI PUSH1 0x40 MLOAD PUSH3 0x461BCD PUSH1 0xE5 SHL DUP2 MSTORE PUSH1 0x20 PUSH1 0x4 DUP3 ADD MSTORE PUSH1 0x6 PUSH1 0x24 DUP3 ADD MSTORE PUSH6 0x10A7ABA722A9 PUSH1 0xD1 SHL PUSH1 0x44 DUP3 ADD MSTORE PUSH1 0x64 ADD PUSH2 0x9C9 JUMP JUMPDEST PUSH1 0x19 DUP1 SLOAD SWAP3 ISZERO ISZERO PUSH1 0x1 PUSH1 0xA8 SHL MUL PUSH32 0xFFFFFFFFFFFFFFFFFFFF00FFFFFFFFFFFFFFFFFFFFFFFFFFFFFFFFFFFFFFFFFF SWAP1 SWAP4 AND SWAP3 SWAP1 SWAP3 OR SWAP1 SWAP2 SSTORE PUSH1 0x1A SSTORE JUMP JUMPDEST PUSH1 0x0 SLOAD PUSH1 0x1 PUSH1 0x1 PUSH1 0xA0 SHL SUB AND CALLER EQ PUSH2 0x15B3 JUMPI PUSH1 0x40 MLOAD PUSH3 0x461BCD PUSH1 0xE5 SHL DUP2 MSTORE PUSH1 0x20 PUSH1 0x4 DUP3 ADD MSTORE PUSH1 0x6 PUSH1 0x24 DUP3 ADD MSTORE PUSH6 0x10A7ABA722A9 PUSH1 0xD1 SHL PUSH1 0x44 DUP3 ADD MSTORE PUSH1 0x64 ADD PUSH2 0x9C9 JUMP JUMPDEST PUSH1 0x0 SLOAD PUSH1 0x1 PUSH1 0x1 PUSH1 0xA0 SHL SUB SWAP1 DUP2 AND SWAP1 DUP3 AND SUB PUSH2 0x1611 JUMPI PUSH1 0x40 MLOAD PUSH3 0x461BCD PUSH1 0xE5 SHL DUP2 MSTORE PUSH1 0x20 PUSH1 0x4 DUP3 ADD MSTORE PUSH1 0x1A PUSH1 0x24 DUP3 ADD MSTORE PUSH32 0x4F574E45522063616E7420626520756E617574686F72697A6564000000000000 PUSH1 0x44 DUP3 ADD MSTORE PUSH1 0x64 ADD PUSH2 0x9C9 JUMP JUMPDEST PUSH1 0x1 PUSH1 0x1 PUSH1 0xA0 SHL SUB AND PUSH1 0x0 SWAP1 DUP2 MSTORE PUSH1 0x1 PUSH1 0x20 MSTORE PUSH1 0x40 SWAP1 KECCAK256 DUP1 SLOAD PUSH1 0xFF NOT AND SWAP1 SSTORE JUMP JUMPDEST PUSH1 0x0 SLOAD PUSH1 0x1 PUSH1 0x1 PUSH1 0xA0 SHL SUB AND CALLER EQ PUSH2 0x1675 JUMPI PUSH1 0x40 MLOAD PUSH3 0x461BCD PUSH1 0xE5 SHL DUP2 MSTORE PUSH1 0x20 PUSH1 0x4 DUP3 ADD MSTORE PUSH1 0x6 PUSH1 0x24 DUP3 ADD MSTORE PUSH6 0x10A7ABA722A9 PUSH1 0xD1 SHL PUSH1 0x44 DUP3 ADD MSTORE PUSH1 0x64 ADD PUSH2 0x9C9 JUMP JUMPDEST PUSH1 0x0 SLOAD PUSH1 0x1 PUSH1 0x1 PUSH1 0xA0 SHL SUB SWAP1 DUP2 AND SWAP1 DUP3 AND SUB PUSH2 0x16D3 JUMPI PUSH1 0x40 MLOAD PUSH3 0x461BCD PUSH1 0xE5 SHL DUP2 MSTORE PUSH1 0x20 PUSH1 0x4 DUP3 ADD MSTORE PUSH1 0x11 PUSH1 0x24 DUP3 ADD MSTORE PUSH32 0x416C726561647920746865206F776E6572000000000000000000000000000000 PUSH1 0x44 DUP3 ADD MSTORE PUSH1 0x64 ADD PUSH2 0x9C9 JUMP JUMPDEST PUSH1 0x0 DUP1 SLOAD PUSH1 0x1 PUSH1 0x1 PUSH1 0xA0 SHL SUB SWAP1 DUP2 AND DUP3 MSTORE PUSH1 0x1 PUSH1 0x20 DUP2 DUP2 MSTORE PUSH1 0x40 DUP1 DUP6 KECCAK256 DUP1 SLOAD PUSH1 0xFF NOT SWAP1 DUP2 AND SWAP1 SWAP2 SSTORE DUP6 SLOAD PUSH20 0xFFFFFFFFFFFFFFFFFFFFFFFFFFFFFFFFFFFFFFFF NOT AND SWAP5 DUP8 AND SWAP5 DUP6 OR DUP7 SSTORE DUP5 DUP7 MSTORE SWAP5 DUP2 SWAP1 KECCAK256 DUP1 SLOAD SWAP1 SWAP6 AND SWAP1 SWAP3 OR SWAP1 SWAP4 SSTORE MLOAD SWAP1 DUP2 MSTORE PUSH32 0x4DBA622D284ED0014EE4B9A6A68386BE1A4C08A4913AE272DE89199CC686163 SWAP2 ADD PUSH2 0x1456 JUMP JUMPDEST PUSH1 0x0 DUP2 DUP5 DUP5 GT ISZERO PUSH2 0x177E JUMPI PUSH1 0x40 MLOAD PUSH3 0x461BCD PUSH1 0xE5 SHL DUP2 MSTORE PUSH1 0x4 ADD PUSH2 0x9C9 SWAP2 SWAP1 PUSH2 0x21E0 JUMP JUMPDEST POP PUSH1 0x0 PUSH2 0x178B DUP5 DUP7 PUSH2 0x2508 JUMP JUMPDEST SWAP6 SWAP5 POP POP POP POP POP JUMP JUMPDEST PUSH1 0x1B SLOAD PUSH1 0x0 SWAP1 PUSH1 0xFF AND ISZERO PUSH2 0x17B4 JUMPI PUSH2 0x17AD DUP5 DUP5 DUP5 PUSH2 0x1C52 JUMP JUMPDEST SWAP1 POP PUSH2 0xD29 JUMP JUMPDEST PUSH1 0x1 PUSH1 0x1 PUSH1 0xA0 SHL SUB DUP5 AND PUSH1 0x0 SWAP1 DUP2 MSTORE PUSH1 0x1 PUSH1 0x20 MSTORE PUSH1 0x40 SWAP1 KECCAK256 SLOAD PUSH1 0xFF AND ISZERO DUP1 ISZERO PUSH2 0x17F6 JUMPI POP PUSH1 0x1 PUSH1 0x1 PUSH1 0xA0 SHL SUB DUP4 AND PUSH1 0x0 SWAP1 DUP2 MSTORE PUSH1 0x1 PUSH1 0x20 MSTORE PUSH1 0x40 SWAP1 KECCAK256 SLOAD PUSH1 0xFF AND ISZERO JUMPDEST ISZERO PUSH2 0x1854 JUMPI PUSH1 0x19 SLOAD PUSH1 0x1 PUSH1 0xA0 SHL SWAP1 DIV PUSH1 0xFF AND PUSH2 0x1854 JUMPI PUSH1 0x40 MLOAD PUSH3 0x461BCD PUSH1 0xE5 SHL DUP2 MSTORE PUSH1 0x20 PUSH1 0x4 DUP3 ADD MSTORE PUSH1 0x14 PUSH1 0x24 DUP3 ADD MSTORE PUSH32 0x54726164696E67206E6F74206F70656E20796574000000000000000000000000 PUSH1 0x44 DUP3 ADD MSTORE PUSH1 0x64 ADD PUSH2 0x9C9 JUMP JUMPDEST PUSH1 0x1 PUSH1 0x1 PUSH1 0xA0 SHL SUB DUP5 AND PUSH1 0x0 SWAP1 DUP2 MSTORE PUSH1 0x1 PUSH1 0x20 MSTORE PUSH1 0x40 SWAP1 KECCAK256 SLOAD PUSH1 0xFF AND ISZERO DUP1 ISZERO PUSH2 0x1896 JUMPI POP PUSH1 0x1 PUSH1 0x1 PUSH1 0xA0 SHL SUB DUP5 AND PUSH1 0x0 SWAP1 DUP2 MSTORE PUSH1 0xC PUSH1 0x20 MSTORE PUSH1 0x40 SWAP1 KECCAK256 SLOAD PUSH1 0xFF AND ISZERO JUMPDEST DUP1 ISZERO PUSH2 0x18BB JUMPI POP PUSH1 0x1 PUSH1 0x1 PUSH1 0xA0 SHL SUB DUP4 AND PUSH1 0x0 SWAP1 DUP2 MSTORE PUSH1 0xC PUSH1 0x20 MSTORE PUSH1 0x40 SWAP1 KECCAK256 SLOAD PUSH1 0xFF AND ISZERO JUMPDEST DUP1 ISZERO PUSH2 0x18D5 JUMPI POP PUSH1 0x19 SLOAD PUSH1 0x1 PUSH1 0x1 PUSH1 0xA0 SHL SUB DUP5 DUP2 AND SWAP2 AND EQ ISZERO JUMPDEST ISZERO PUSH2 0x1955 JUMPI PUSH1 0x7 SLOAD DUP3 PUSH2 0x18FD DUP6 PUSH1 0x1 PUSH1 0x1 PUSH1 0xA0 SHL SUB AND PUSH1 0x0 SWAP1 DUP2 MSTORE PUSH1 0x8 PUSH1 0x20 MSTORE PUSH1 0x40 SWAP1 KECCAK256 SLOAD SWAP1 JUMP JUMPDEST PUSH2 0x1907 SWAP2 SWAP1 PUSH2 0x24B0 JUMP JUMPDEST GT ISZERO PUSH2 0x1955 JUMPI PUSH1 0x40 MLOAD PUSH3 0x461BCD PUSH1 0xE5 SHL DUP2 MSTORE PUSH1 0x20 PUSH1 0x4 DUP3 ADD MSTORE PUSH1 0x18 PUSH1 0x24 DUP3 ADD MSTORE PUSH32 0x6D61782077616C6C6574206C696D697420726561636865640000000000000000 PUSH1 0x44 DUP3 ADD MSTORE PUSH1 0x64 ADD PUSH2 0x9C9 JUMP JUMPDEST PUSH1 0x6 SLOAD DUP3 GT ISZERO DUP1 PUSH2 0x197E JUMPI POP PUSH1 0x1 PUSH1 0x1 PUSH1 0xA0 SHL SUB DUP5 AND PUSH1 0x0 SWAP1 DUP2 MSTORE PUSH1 0xB PUSH1 0x20 MSTORE PUSH1 0x40 SWAP1 KECCAK256 SLOAD PUSH1 0xFF AND JUMPDEST DUP1 PUSH2 0x19A1 JUMPI POP PUSH1 0x1 PUSH1 0x1 PUSH1 0xA0 SHL SUB DUP4 AND PUSH1 0x0 SWAP1 DUP2 MSTORE PUSH1 0xB PUSH1 0x20 MSTORE PUSH1 0x40 SWAP1 KECCAK256 SLOAD PUSH1 0xFF AND JUMPDEST PUSH2 0x19ED JUMPI PUSH1 0x40 MLOAD PUSH3 0x461BCD PUSH1 0xE5 SHL DUP2 MSTORE PUSH1 0x20 PUSH1 0x4 DUP3 ADD MSTORE PUSH1 0x11 PUSH1 0x24 DUP3 ADD MSTORE PUSH32 0x5458204C696D6974204578636565646564000000000000000000000000000000 PUSH1 0x44 DUP3 ADD MSTORE PUSH1 0x64 ADD PUSH2 0x9C9 JUMP JUMPDEST PUSH2 0x19F5 PUSH2 0x1D41 JUMP JUMPDEST ISZERO PUSH2 0x1A02 JUMPI PUSH2 0x1A02 PUSH2 0x1D97 JUMP JUMPDEST PUSH1 0x40 DUP1 MLOAD DUP1 DUP3 ADD DUP3 MSTORE PUSH1 0x14 DUP2 MSTORE PUSH32 0x496E73756666696369656E742042616C616E6365000000000000000000000000 PUSH1 0x20 DUP1 DUP4 ADD SWAP2 SWAP1 SWAP2 MSTORE PUSH1 0x1 PUSH1 0x1 PUSH1 0xA0 SHL SUB DUP8 AND PUSH1 0x0 SWAP1 DUP2 MSTORE PUSH1 0x8 SWAP1 SWAP2 MSTORE SWAP2 SWAP1 SWAP2 KECCAK256 SLOAD PUSH2 0x1A5D SWAP2 DUP5 SWAP1 PUSH2 0x175A JUMP JUMPDEST PUSH1 0x1 PUSH1 0x1 PUSH1 0xA0 SHL SUB DUP6 AND PUSH1 0x0 SWAP1 DUP2 MSTORE PUSH1 0x8 PUSH1 0x20 SWAP1 DUP2 MSTORE PUSH1 0x40 DUP1 DUP4 KECCAK256 SWAP4 SWAP1 SWAP4 SSTORE PUSH1 0xA SWAP1 MSTORE SWAP1 DUP2 KECCAK256 SLOAD PUSH1 0xFF AND DUP1 PUSH2 0x1AAA JUMPI POP PUSH1 0x1 PUSH1 0x1 PUSH1 0xA0 SHL SUB DUP5 AND PUSH1 0x0 SWAP1 DUP2 MSTORE PUSH1 0xA PUSH1 0x20 MSTORE PUSH1 0x40 SWAP1 KECCAK256 SLOAD PUSH1 0xFF AND JUMPDEST PUSH2 0x1ABD JUMPI PUSH2 0x1AB8 DUP6 DUP5 PUSH2 0x208F JUMP JUMPDEST PUSH2 0x1ABF JUMP JUMPDEST DUP3 JUMPDEST PUSH1 0x1 PUSH1 0x1 PUSH1 0xA0 SHL SUB DUP6 AND PUSH1 0x0 SWAP1 DUP2 MSTORE PUSH1 0x8 PUSH1 0x20 MSTORE PUSH1 0x40 SWAP1 KECCAK256 SLOAD SWAP1 SWAP2 POP PUSH2 0x1AE5 SWAP1 DUP3 PUSH2 0x213A JUMP JUMPDEST PUSH1 0x1 PUSH1 0x1 PUSH1 0xA0 SHL SUB DUP1 DUP7 AND PUSH1 0x0 DUP2 DUP2 MSTORE PUSH1 0x8 PUSH1 0x20 MSTORE PUSH1 0x40 SWAP1 DUP2 SWAP1 KECCAK256 SWAP4 SWAP1 SWAP4 SSTORE SWAP2 MLOAD SWAP1 DUP8 AND SWAP1 PUSH32 0xDDF252AD1BE2C89B69C2B068FC378DAA952BA7F163C4A11628F55A4DF523B3EF SWAP1 PUSH2 0x1B39 SWAP1 DUP6 DUP2 MSTORE PUSH1 0x20 ADD SWAP1 JUMP JUMPDEST PUSH1 0x40 MLOAD DUP1 SWAP2 SUB SWAP1 LOG3 POP PUSH1 0x1 SWAP5 SWAP4 POP POP POP POP JUMP JUMPDEST PUSH1 0x0 PUSH2 0xD29 DUP4 DUP4 PUSH1 0x40 MLOAD DUP1 PUSH1 0x40 ADD PUSH1 0x40 MSTORE DUP1 PUSH1 0x1E DUP2 MSTORE PUSH1 0x20 ADD PUSH32 0x536166654D6174683A207375627472616374696F6E206F766572666C6F770000 DUP2 MSTORE POP PUSH2 0x175A JUMP JUMPDEST PUSH1 0x0 DUP3 PUSH1 0x0 SUB PUSH2 0x1BA0 JUMPI POP PUSH1 0x0 PUSH2 0xAE6 JUMP JUMPDEST PUSH1 0x0 PUSH2 0x1BAC DUP4 DUP6 PUSH2 0x2477 JUMP JUMPDEST SWAP1 POP DUP3 PUSH2 0x1BB9 DUP6 DUP4 PUSH2 0x248E JUMP JUMPDEST EQ PUSH2 0xD29 JUMPI PUSH1 0x40 MLOAD PUSH3 0x461BCD PUSH1 0xE5 SHL DUP2 MSTORE PUSH1 0x20 PUSH1 0x4 DUP3 ADD MSTORE PUSH1 0x21 PUSH1 0x24 DUP3 ADD MSTORE PUSH32 0x536166654D6174683A206D756C7469706C69636174696F6E206F766572666C6F PUSH1 0x44 DUP3 ADD MSTORE PUSH1 0x77 PUSH1 0xF8 SHL PUSH1 0x64 DUP3 ADD MSTORE PUSH1 0x84 ADD PUSH2 0x9C9 JUMP JUMPDEST PUSH1 0x0 PUSH2 0xD29 DUP4 DUP4 PUSH1 0x40 MLOAD DUP1 PUSH1 0x40 ADD PUSH1 0x40 MSTORE DUP1 PUSH1 0x1A DUP2 MSTORE PUSH1 0x20 ADD PUSH32 0x536166654D6174683A206469766973696F6E206279207A65726F000000000000 DUP2 MSTORE POP PUSH2 0x2199 JUMP JUMPDEST PUSH1 0x40 DUP1 MLOAD DUP1 DUP3 ADD DUP3 MSTORE PUSH1 0x14 DUP2 MSTORE PUSH32 0x496E73756666696369656E742042616C616E6365000000000000000000000000 PUSH1 0x20 DUP1 DUP4 ADD SWAP2 SWAP1 SWAP2 MSTORE PUSH1 0x1 PUSH1 0x1 PUSH1 0xA0 SHL SUB DUP7 AND PUSH1 0x0 SWAP1 DUP2 MSTORE PUSH1 0x8 SWAP1 SWAP2 MSTORE SWAP2 DUP3 KECCAK256 SLOAD PUSH2 0x1CAC SWAP2 DUP5 SWAP1 PUSH2 0x175A JUMP JUMPDEST PUSH1 0x1 PUSH1 0x1 PUSH1 0xA0 SHL SUB DUP1 DUP7 AND PUSH1 0x0 SWAP1 DUP2 MSTORE PUSH1 0x8 PUSH1 0x20 MSTORE PUSH1 0x40 DUP1 DUP3 KECCAK256 SWAP4 SWAP1 SWAP4 SSTORE SWAP1 DUP6 AND DUP2 MSTORE KECCAK256 SLOAD PUSH2 0x1CDB SWAP1 DUP4 PUSH2 0x213A JUMP JUMPDEST PUSH1 0x1 PUSH1 0x1 PUSH1 0xA0 SHL SUB DUP1 DUP6 AND PUSH1 0x0 DUP2 DUP2 MSTORE PUSH1 0x8 PUSH1 0x20 MSTORE PUSH1 0x40 SWAP1 DUP2 SWAP1 KECCAK256 SWAP4 SWAP1 SWAP4 SSTORE SWAP2 MLOAD SWAP1 DUP7 AND SWAP1 PUSH32 0xDDF252AD1BE2C89B69C2B068FC378DAA952BA7F163C4A11628F55A4DF523B3EF SWAP1 PUSH2 0x1D2F SWAP1 DUP7 DUP2 MSTORE PUSH1 0x20 ADD SWAP1 JUMP JUMPDEST PUSH1 0x40 MLOAD DUP1 SWAP2 SUB SWAP1 LOG3 POP PUSH1 0x1 SWAP4 SWAP3 POP POP POP JUMP JUMPDEST PUSH1 0x19 SLOAD PUSH1 0x0 SWAP1 PUSH1 0x1 PUSH1 0x1 PUSH1 0xA0 SHL SUB AND CALLER EQ DUP1 ISZERO SWAP1 PUSH2 0x1D62 JUMPI POP PUSH1 0x1B SLOAD PUSH1 0xFF AND ISZERO JUMPDEST DUP1 ISZERO PUSH2 0x1D77 JUMPI POP PUSH1 0x19 SLOAD PUSH1 0x1 PUSH1 0xA8 SHL SWAP1 DIV PUSH1 0xFF AND JUMPDEST DUP1 ISZERO PUSH2 0xD7D JUMPI POP POP PUSH1 0x1A SLOAD ADDRESS PUSH1 0x0 SWAP1 DUP2 MSTORE PUSH1 0x8 PUSH1 0x20 MSTORE PUSH1 0x40 SWAP1 KECCAK256 SLOAD LT ISZERO SWAP1 JUMP JUMPDEST PUSH1 0x1B DUP1 SLOAD PUSH1 0xFF NOT AND PUSH1 0x1 OR SWAP1 SSTORE PUSH1 0xD SLOAD PUSH1 0x10 SLOAD PUSH1 0x1A SLOAD PUSH1 0x0 SWAP2 PUSH2 0x1DC3 SWAP2 PUSH1 0x2 SWAP2 PUSH2 0xF4F SWAP2 DUP3 SWAP1 DUP8 PUSH2 0x1B8E JUMP JUMPDEST SWAP1 POP PUSH1 0x0 PUSH2 0x1DDC DUP3 PUSH1 0x1A SLOAD PUSH2 0x1B4C SWAP1 SWAP2 SWAP1 PUSH4 0xFFFFFFFF AND JUMP JUMPDEST PUSH1 0x40 DUP1 MLOAD PUSH1 0x2 DUP1 DUP3 MSTORE PUSH1 0x60 DUP3 ADD DUP4 MSTORE SWAP3 SWAP4 POP PUSH1 0x0 SWAP3 SWAP1 SWAP2 PUSH1 0x20 DUP4 ADD SWAP1 DUP1 CALLDATASIZE DUP4 CALLDATACOPY ADD SWAP1 POP POP SWAP1 POP ADDRESS DUP2 PUSH1 0x0 DUP2 MLOAD DUP2 LT PUSH2 0x1E16 JUMPI PUSH2 0x1E16 PUSH2 0x24D9 JUMP JUMPDEST PUSH1 0x1 PUSH1 0x1 PUSH1 0xA0 SHL SUB SWAP3 DUP4 AND PUSH1 0x20 SWAP2 DUP3 MUL SWAP3 SWAP1 SWAP3 ADD ADD MSTORE PUSH1 0x2 SLOAD DUP3 MLOAD SWAP2 AND SWAP1 DUP3 SWAP1 PUSH1 0x1 SWAP1 DUP2 LT PUSH2 0x1E47 JUMPI PUSH2 0x1E47 PUSH2 0x24D9 JUMP JUMPDEST PUSH1 0x1 PUSH1 0x1 PUSH1 0xA0 SHL SUB SWAP3 DUP4 AND PUSH1 0x20 SWAP2 DUP3 MUL SWAP3 SWAP1 SWAP3 ADD ADD MSTORE PUSH1 0x18 SLOAD PUSH1 0x40 MLOAD PUSH4 0x791AC947 PUSH1 0xE0 SHL DUP2 MSTORE SWAP2 AND SWAP1 PUSH4 0x791AC947 SWAP1 PUSH2 0x1E8D SWAP1 DUP6 SWAP1 PUSH1 0x0 SWAP1 DUP7 SWAP1 ADDRESS SWAP1 TIMESTAMP SWAP1 PUSH1 0x4 ADD PUSH2 0x251B JUMP JUMPDEST PUSH1 0x0 PUSH1 0x40 MLOAD DUP1 DUP4 SUB DUP2 PUSH1 0x0 DUP8 DUP1 EXTCODESIZE ISZERO DUP1 ISZERO PUSH2 0x1EA7 JUMPI PUSH1 0x0 DUP1 REVERT JUMPDEST POP GAS CALL ISZERO DUP1 ISZERO PUSH2 0x1EBB JUMPI RETURNDATASIZE PUSH1 0x0 DUP1 RETURNDATACOPY RETURNDATASIZE PUSH1 0x0 REVERT JUMPDEST POP SELFBALANCE SWAP3 POP PUSH1 0x0 SWAP2 POP PUSH2 0x1EDC SWAP1 POP PUSH2 0x1ED3 DUP8 PUSH1 0x2 PUSH2 0x1C10 JUMP JUMPDEST PUSH1 0x10 SLOAD SWAP1 PUSH2 0x1B4C JUMP JUMPDEST SWAP1 POP PUSH1 0x0 PUSH2 0x1EF1 PUSH1 0x2 PUSH2 0xF4F DUP5 DUP2 DUP8 DUP13 PUSH2 0x1B8E JUMP JUMPDEST SWAP1 POP PUSH1 0x0 PUSH2 0x1F0E DUP4 PUSH2 0xF4F PUSH1 0xE SLOAD DUP8 PUSH2 0x1B8E SWAP1 SWAP2 SWAP1 PUSH4 0xFFFFFFFF AND JUMP JUMPDEST SWAP1 POP PUSH1 0x0 PUSH2 0x1F2B DUP5 PUSH2 0xF4F PUSH1 0xF SLOAD DUP9 PUSH2 0x1B8E SWAP1 SWAP2 SWAP1 PUSH4 0xFFFFFFFF AND JUMP JUMPDEST PUSH1 0x16 SLOAD PUSH1 0x40 MLOAD SWAP2 SWAP3 POP PUSH1 0x1 PUSH1 0x1 PUSH1 0xA0 SHL SUB AND SWAP1 DUP4 ISZERO PUSH2 0x8FC MUL SWAP1 DUP5 SWAP1 PUSH1 0x0 DUP2 DUP2 DUP2 DUP6 DUP9 DUP9 CALL SWAP4 POP POP POP POP ISZERO DUP1 ISZERO PUSH2 0x1F66 JUMPI RETURNDATASIZE PUSH1 0x0 DUP1 RETURNDATACOPY RETURNDATASIZE PUSH1 0x0 REVERT JUMPDEST POP PUSH1 0x17 SLOAD PUSH1 0x40 MLOAD PUSH1 0x1 PUSH1 0x1 PUSH1 0xA0 SHL SUB SWAP1 SWAP2 AND SWAP1 DUP3 ISZERO PUSH2 0x8FC MUL SWAP1 DUP4 SWAP1 PUSH1 0x0 DUP2 DUP2 DUP2 DUP6 DUP9 DUP9 CALL SWAP4 POP POP POP POP ISZERO DUP1 ISZERO PUSH2 0x1FA1 JUMPI RETURNDATASIZE PUSH1 0x0 DUP1 RETURNDATACOPY RETURNDATASIZE PUSH1 0x0 REVERT JUMPDEST POP DUP8 ISZERO PUSH2 0x207A JUMPI PUSH1 0x18 SLOAD PUSH1 0x15 SLOAD PUSH1 0x40 MLOAD PUSH4 0xF305D719 PUSH1 0xE0 SHL DUP2 MSTORE ADDRESS PUSH1 0x4 DUP3 ADD MSTORE PUSH1 0x24 DUP2 ADD DUP12 SWAP1 MSTORE PUSH1 0x0 PUSH1 0x44 DUP3 ADD DUP2 SWAP1 MSTORE PUSH1 0x64 DUP3 ADD MSTORE PUSH1 0x1 PUSH1 0x1 PUSH1 0xA0 SHL SUB SWAP2 DUP3 AND PUSH1 0x84 DUP3 ADD MSTORE TIMESTAMP PUSH1 0xA4 DUP3 ADD MSTORE SWAP2 AND SWAP1 PUSH4 0xF305D719 SWAP1 DUP6 SWAP1 PUSH1 0xC4 ADD PUSH1 0x60 PUSH1 0x40 MLOAD DUP1 DUP4 SUB DUP2 DUP6 DUP9 GAS CALL ISZERO DUP1 ISZERO PUSH2 0x2018 JUMPI RETURNDATASIZE PUSH1 0x0 DUP1 RETURNDATACOPY RETURNDATASIZE PUSH1 0x0 REVERT JUMPDEST POP POP POP POP POP PUSH1 0x40 MLOAD RETURNDATASIZE PUSH1 0x1F NOT PUSH1 0x1F DUP3 ADD AND DUP3 ADD DUP1 PUSH1 0x40 MSTORE POP DUP2 ADD SWAP1 PUSH2 0x203D SWAP2 SWAP1 PUSH2 0x2557 JUMP JUMPDEST POP POP PUSH1 0x40 DUP1 MLOAD DUP6 DUP2 MSTORE PUSH1 0x20 DUP2 ADD DUP12 SWAP1 MSTORE PUSH32 0x424DB2872186FA7E7AFA7A5E902ED3B49A2EF19C2F5431E672462495DD6B4506 SWAP3 POP ADD PUSH1 0x40 MLOAD DUP1 SWAP2 SUB SWAP1 LOG1 JUMPDEST POP POP PUSH1 0x1B DUP1 SLOAD PUSH1 0xFF NOT AND SWAP1 SSTORE POP POP POP POP POP POP POP JUMP JUMPDEST PUSH1 0x0 DUP1 PUSH2 0x20AC PUSH1 0x64 PUSH2 0xF4F PUSH1 0x10 SLOAD DUP7 PUSH2 0x1B8E SWAP1 SWAP2 SWAP1 PUSH4 0xFFFFFFFF AND JUMP JUMPDEST SWAP1 POP DUP1 ISZERO PUSH2 0x2128 JUMPI ADDRESS PUSH1 0x0 SWAP1 DUP2 MSTORE PUSH1 0x8 PUSH1 0x20 MSTORE PUSH1 0x40 SWAP1 KECCAK256 SLOAD PUSH2 0x20CE SWAP1 DUP3 PUSH2 0x213A JUMP JUMPDEST ADDRESS PUSH1 0x0 DUP2 DUP2 MSTORE PUSH1 0x8 PUSH1 0x20 MSTORE PUSH1 0x40 SWAP1 DUP2 SWAP1 KECCAK256 SWAP3 SWAP1 SWAP3 SSTORE SWAP1 MLOAD PUSH1 0x1 PUSH1 0x1 PUSH1 0xA0 SHL SUB DUP7 AND SWAP1 PUSH32 0xDDF252AD1BE2C89B69C2B068FC378DAA952BA7F163C4A11628F55A4DF523B3EF SWAP1 PUSH2 0x211F SWAP1 DUP6 DUP2 MSTORE PUSH1 0x20 ADD SWAP1 JUMP JUMPDEST PUSH1 0x40 MLOAD DUP1 SWAP2 SUB SWAP1 LOG3 JUMPDEST PUSH2 0x2132 DUP4 DUP3 PUSH2 0x1B4C JUMP JUMPDEST SWAP5 SWAP4 POP POP POP POP JUMP JUMPDEST PUSH1 0x0 DUP1 PUSH2 0x2147 DUP4 DUP6 PUSH2 0x24B0 JUMP JUMPDEST SWAP1 POP DUP4 DUP2 LT ISZERO PUSH2 0xD29 JUMPI PUSH1 0x40 MLOAD PUSH3 0x461BCD PUSH1 0xE5 SHL DUP2 MSTORE PUSH1 0x20 PUSH1 0x4 DUP3 ADD MSTORE PUSH1 0x1B PUSH1 0x24 DUP3 ADD MSTORE PUSH32 0x536166654D6174683A206164646974696F6E206F766572666C6F770000000000 PUSH1 0x44 DUP3 ADD MSTORE PUSH1 0x64 ADD PUSH2 0x9C9 JUMP JUMPDEST PUSH1 0x0 DUP2 DUP4 PUSH2 0x21BA JUMPI PUSH1 0x40 MLOAD PUSH3 0x461BCD PUSH1 0xE5 SHL DUP2 MSTORE PUSH1 0x4 ADD PUSH2 0x9C9 SWAP2 SWAP1 PUSH2 0x21E0 JUMP JUMPDEST POP PUSH1 0x0 PUSH2 0x178B DUP5 DUP7 PUSH2 0x248E JUMP JUMPDEST PUSH1 0x0 PUSH1 0x20 DUP3 DUP5 SUB SLT ISZERO PUSH2 0x21D9 JUMPI PUSH1 0x0 DUP1 REVERT JUMPDEST POP CALLDATALOAD SWAP2 SWAP1 POP JUMP JUMPDEST PUSH1 0x0 PUSH1 0x20 DUP1 DUP4 MSTORE DUP4 MLOAD DUP1 DUP3 DUP6 ADD MSTORE PUSH1 0x0 JUMPDEST DUP2 DUP2 LT ISZERO PUSH2 0x220D JUMPI DUP6 DUP2 ADD DUP4 ADD MLOAD DUP6 DUP3 ADD PUSH1 0x40 ADD MSTORE DUP3 ADD PUSH2 0x21F1 JUMP JUMPDEST POP PUSH1 0x0 PUSH1 0x40 DUP3 DUP7 ADD ADD MSTORE PUSH1 0x40 PUSH1 0x1F NOT PUSH1 0x1F DUP4 ADD AND DUP6 ADD ADD SWAP3 POP POP POP SWAP3 SWAP2 POP POP JUMP JUMPDEST PUSH1 0x1 PUSH1 0x1 PUSH1 0xA0 SHL SUB DUP2 AND DUP2 EQ PUSH2 0x2243 JUMPI PUSH1 0x0 DUP1 REVERT JUMPDEST POP JUMP JUMPDEST PUSH1 0x0 DUP1 PUSH1 0x40 DUP4 DUP6 SUB SLT ISZERO PUSH2 0x2259 JUMPI PUSH1 0x0 DUP1 REVERT JUMPDEST DUP3 CALLDATALOAD PUSH2 0x2264 DUP2 PUSH2 0x222E JUMP JUMPDEST SWAP5 PUSH1 0x20 SWAP4 SWAP1 SWAP4 ADD CALLDATALOAD SWAP4 POP POP POP JUMP JUMPDEST PUSH1 0x0 DUP1 PUSH1 0x0 PUSH1 0x60 DUP5 DUP7 SUB SLT ISZERO PUSH2 0x2287 JUMPI PUSH1 0x0 DUP1 REVERT JUMPDEST DUP4 CALLDATALOAD PUSH2 0x2292 DUP2 PUSH2 0x222E JUMP JUMPDEST SWAP3 POP PUSH1 0x20 DUP5 ADD CALLDATALOAD PUSH2 0x22A2 DUP2 PUSH2 0x222E JUMP JUMPDEST SWAP3 SWAP6 SWAP3 SWAP5 POP POP POP PUSH1 0x40 SWAP2 SWAP1 SWAP2 ADD CALLDATALOAD SWAP1 JUMP JUMPDEST PUSH1 0x0 PUSH1 0x20 DUP3 DUP5 SUB SLT ISZERO PUSH2 0x22C5 JUMPI PUSH1 0x0 DUP1 REVERT JUMPDEST DUP2 CALLDATALOAD PUSH2 0xD29 DUP2 PUSH2 0x222E JUMP JUMPDEST PUSH1 0x0 PUSH1 0x20 DUP3 DUP5 SUB SLT ISZERO PUSH2 0x22E2 JUMPI PUSH1 0x0 DUP1 REVERT JUMPDEST DUP2 CALLDATALOAD PUSH1 0xFF DUP2 AND DUP2 EQ PUSH2 0xD29 JUMPI PUSH1 0x0 DUP1 REVERT JUMPDEST PUSH1 0x20 DUP1 DUP3 MSTORE DUP3 MLOAD DUP3 DUP3 ADD DUP2 SWAP1 MSTORE PUSH1 0x0 SWAP2 SWAP1 DUP5 DUP3 ADD SWAP1 PUSH1 0x40 DUP6 ADD SWAP1 DUP5 JUMPDEST DUP2 DUP2 LT ISZERO PUSH2 0x232B JUMPI DUP4 MLOAD DUP4 MSTORE SWAP3 DUP5 ADD SWAP3 SWAP2 DUP5 ADD SWAP2 PUSH1 0x1 ADD PUSH2 0x230F JUMP JUMPDEST POP SWAP1 SWAP7 SWAP6 POP POP POP POP POP POP JUMP JUMPDEST PUSH1 0x0 DUP2 MLOAD DUP1 DUP5 MSTORE PUSH1 0x20 DUP1 DUP6 ADD SWAP5 POP DUP1 DUP5 ADD PUSH1 0x0 JUMPDEST DUP4 DUP2 LT ISZERO PUSH2 0x2370 JUMPI DUP2 MLOAD PUSH1 0x1 PUSH1 0x1 PUSH1 0xA0 SHL SUB AND DUP8 MSTORE SWAP6 DUP3 ADD SWAP6 SWAP1 DUP3 ADD SWAP1 PUSH1 0x1 ADD PUSH2 0x234B JUMP JUMPDEST POP SWAP5 SWAP6 SWAP5 POP POP POP POP POP JUMP JUMPDEST PUSH1 0x20 DUP2 MSTORE PUSH1 0x0 PUSH2 0xD29 PUSH1 0x20 DUP4 ADD DUP5 PUSH2 0x2337 JUMP JUMPDEST PUSH1 0x0 DUP1 PUSH1 0x0 PUSH1 0x60 DUP5 DUP7 SUB SLT ISZERO PUSH2 0x23A3 JUMPI PUSH1 0x0 DUP1 REVERT JUMPDEST POP POP DUP2 CALLDATALOAD SWAP4 PUSH1 0x20 DUP4 ADD CALLDATALOAD SWAP4 POP PUSH1 0x40 SWAP1 SWAP3 ADD CALLDATALOAD SWAP2 SWAP1 POP JUMP JUMPDEST PUSH1 0x0 DUP1 PUSH1 0x0 PUSH1 0x60 DUP5 DUP7 SUB SLT ISZERO PUSH2 0x23CF JUMPI PUSH1 0x0 DUP1 REVERT JUMPDEST DUP4 CALLDATALOAD PUSH2 0x23DA DUP2 PUSH2 0x222E JUMP JUMPDEST SWAP3 POP PUSH1 0x20 DUP5 ADD CALLDATALOAD PUSH2 0x23EA DUP2 PUSH2 0x222E JUMP JUMPDEST SWAP2 POP PUSH1 0x40 DUP5 ADD CALLDATALOAD PUSH2 0x23FA DUP2 PUSH2 0x222E JUMP JUMPDEST DUP1 SWAP2 POP POP SWAP3 POP SWAP3 POP SWAP3 JUMP JUMPDEST PUSH1 0x0 DUP1 PUSH1 0x40 DUP4 DUP6 SUB SLT ISZERO PUSH2 0x2418 JUMPI PUSH1 0x0 DUP1 REVERT JUMPDEST DUP3 CALLDATALOAD PUSH2 0x2423 DUP2 PUSH2 0x222E JUMP JUMPDEST SWAP2 POP PUSH1 0x20 DUP4 ADD CALLDATALOAD PUSH2 0x2433 DUP2 PUSH2 0x222E JUMP JUMPDEST DUP1 SWAP2 POP POP SWAP3 POP SWAP3 SWAP1 POP JUMP JUMPDEST PUSH1 0x0 DUP1 PUSH1 0x40 DUP4 DUP6 SUB SLT ISZERO PUSH2 0x2451 JUMPI PUSH1 0x0 DUP1 REVERT JUMPDEST DUP3 CALLDATALOAD DUP1 ISZERO ISZERO DUP2 EQ PUSH2 0x2264 JUMPI PUSH1 0x0 DUP1 REVERT JUMPDEST PUSH4 0x4E487B71 PUSH1 0xE0 SHL PUSH1 0x0 MSTORE PUSH1 0x11 PUSH1 0x4 MSTORE PUSH1 0x24 PUSH1 0x0 REVERT JUMPDEST DUP1 DUP3 MUL DUP2 ISZERO DUP3 DUP3 DIV DUP5 EQ OR PUSH2 0xAE6 JUMPI PUSH2 0xAE6 PUSH2 0x2461 JUMP JUMPDEST PUSH1 0x0 DUP3 PUSH2 0x24AB JUMPI PUSH4 0x4E487B71 PUSH1 0xE0 SHL PUSH1 0x0 MSTORE PUSH1 0x12 PUSH1 0x4 MSTORE PUSH1 0x24 PUSH1 0x0 REVERT JUMPDEST POP DIV SWAP1 JUMP JUMPDEST DUP1 DUP3 ADD DUP1 DUP3 GT ISZERO PUSH2 0xAE6 JUMPI PUSH2 0xAE6 PUSH2 0x2461 JUMP JUMPDEST PUSH4 0x4E487B71 PUSH1 0xE0 SHL PUSH1 0x0 MSTORE PUSH1 0x41 PUSH1 0x4 MSTORE PUSH1 0x24 PUSH1 0x0 REVERT JUMPDEST PUSH4 0x4E487B71 PUSH1 0xE0 SHL PUSH1 0x0 MSTORE PUSH1 0x32 PUSH1 0x4 MSTORE PUSH1 0x24 PUSH1 0x0 REVERT JUMPDEST PUSH1 0x0 PUSH1 0x1 DUP3 ADD PUSH2 0x2501 JUMPI PUSH2 0x2501 PUSH2 0x2461 JUMP JUMPDEST POP PUSH1 0x1 ADD SWAP1 JUMP JUMPDEST DUP2 DUP2 SUB DUP2 DUP2 GT ISZERO PUSH2 0xAE6 JUMPI PUSH2 0xAE6 PUSH2 0x2461 JUMP JUMPDEST DUP6 DUP2 MSTORE DUP5 PUSH1 0x20 DUP3 ADD MSTORE PUSH1 0xA0 PUSH1 0x40 DUP3 ADD MSTORE PUSH1 0x0 PUSH2 0x253A PUSH1 0xA0 DUP4 ADD DUP7 PUSH2 0x2337 JUMP JUMPDEST PUSH1 0x1 PUSH1 0x1 PUSH1 0xA0 SHL SUB SWAP5 SWAP1 SWAP5 AND PUSH1 0x60 DUP4 ADD MSTORE POP PUSH1 0x80 ADD MSTORE SWAP4 SWAP3 POP POP POP JUMP JUMPDEST PUSH1 0x0 DUP1 PUSH1 0x0 PUSH1 0x60 DUP5 DUP7 SUB SLT ISZERO PUSH2 0x256C JUMPI PUSH1 0x0 DUP1 REVERT JUMPDEST DUP4 MLOAD SWAP3 POP PUSH1 0x20 DUP5 ADD MLOAD SWAP2 POP PUSH1 0x40 DUP5 ADD MLOAD SWAP1 POP SWAP3 POP SWAP3 POP SWAP3 JUMP INVALID LOG2 PUSH5 0x6970667358 0x22 SLT KECCAK256 0x4D EXTCODECOPY 0x21 0xBD 0xB6 0x2E DUP13 0xF6 JUMPDEST PUSH17 0x3DD339E5411ED3247134612F75835FA050 LT PUSH6 0xA73E3D64736F PUSH13 0x63430008110033000000000000 "
    },
    "gasEstimates": {
      "creation": {
        "codeDepositCost": "1931800",
        "executionCost": "infinite",
        "totalCost": "infinite"
      },
      "external": {
        "_maxTxAmount()": "2375",
        "_maxWalletToken()": "2395",
        "addChoice(uint8)": "85544",
        "allowance(address,address)": "infinite",
        "approve(address,uint256)": "24585",
        "approveMax(address)": "infinite",
        "authorize(address)": "26868",
        "autoLiquidityReceiver()": "2426",
        "balanceOf(address)": "2609",
        "choiceNumber(uint256)": "2544",
        "choices(address)": "2596",
        "clearContractSells(uint256)": "infinite",
        "clearStuckBalance(uint256)": "infinite",
        "decimals()": "281",
        "devFee()": "2374",
        "devFeeReceiver()": "2449",
        "feeDenominator()": "297",
        "getChiefsCount()": "2394",
        "getCirculatingSupply()": "infinite",
        "getEaglesCount()": "2371",
        "getOwner()": "2433",
        "getWagerWinners(uint8)": "infinite",
        "isAuthorized(address)": "2631",
        "isOwner(address)": "2555",
        "liquidityFee()": "2374",
        "marketingFee()": "2396",
        "marketingFeeReceiver()": "2404",
        "name()": "infinite",
        "openTrading()": "26578",
        "pair()": "2405",
        "router()": "2403",
        "setFeeReceivers(address,address,address)": "infinite",
        "setFees(uint256,uint256,uint256)": "infinite",
        "setSwapBackSettings(bool,uint256)": "48889",
        "swapEnabled()": "2394",
        "swapThreshold()": "2354",
        "symbol()": "infinite",
        "totalFee()": "2352",
        "totalSupply()": "2350",
        "tradingOpen()": "2437",
        "transfer(address,uint256)": "infinite",
        "transferFrom(address,address,uint256)": "infinite",
        "transferOwnership(address)": "80711",
        "unauthorize(address)": "28980",
        "updateMaxTransaction(uint256)": "26870",
        "updateMaxWallet(uint256)": "26869",
        "wagerWinnerAmounts(uint8)": "infinite"
      },
      "internal": {
        "_basicTransfer(address,address,uint256)": "infinite",
        "_transferFrom(address,address,uint256)": "infinite",
        "shouldSwapBack()": "10738",
        "swapBack()": "infinite",
        "takeFee(address,uint256)": "infinite"
      }
    },
    "methodIdentifiers": {
      "_maxTxAmount()": "7d1db4a5",
      "_maxWalletToken()": "78109e54",
      "addChoice(uint8)": "d42b92fd",
      "allowance(address,address)": "dd62ed3e",
      "approve(address,uint256)": "095ea7b3",
      "approveMax(address)": "571ac8b0",
      "authorize(address)": "b6a5d7de",
      "autoLiquidityReceiver()": "ca33e64c",
      "balanceOf(address)": "70a08231",
      "choiceNumber(uint256)": "dc62b296",
      "choices(address)": "410346b3",
      "clearContractSells(uint256)": "7b13f8c8",
      "clearStuckBalance(uint256)": "1da1db5e",
      "decimals()": "313ce567",
      "devFee()": "6827e764",
      "devFeeReceiver()": "dab84ee7",
      "feeDenominator()": "180b0d7e",
      "getChiefsCount()": "3cb5df06",
      "getCirculatingSupply()": "2b112e49",
      "getEaglesCount()": "41db0fe6",
      "getOwner()": "893d20e8",
      "getWagerWinners(uint8)": "9d608be1",
      "isAuthorized(address)": "fe9fbb80",
      "isOwner(address)": "2f54bf6e",
      "liquidityFee()": "98118cb4",
      "marketingFee()": "6b67c4df",
      "marketingFeeReceiver()": "e96fada2",
      "name()": "06fdde03",
      "openTrading()": "c9567bf9",
      "pair()": "a8aa1b31",
      "router()": "f887ea40",
      "setFeeReceivers(address,address,address)": "d7c01032",
      "setFees(uint256,uint256,uint256)": "cec10c11",
      "setSwapBackSettings(bool,uint256)": "df20fd49",
      "swapEnabled()": "6ddd1713",
      "swapThreshold()": "0445b667",
      "symbol()": "95d89b41",
      "totalFee()": "1df4ccfc",
      "totalSupply()": "18160ddd",
      "tradingOpen()": "ffb54a99",
      "transfer(address,uint256)": "a9059cbb",
      "transferFrom(address,address,uint256)": "23b872dd",
      "transferOwnership(address)": "f2fde38b",
      "unauthorize(address)": "f0b37c04",
      "updateMaxTransaction(uint256)": "0517d13d",
      "updateMaxWallet(uint256)": "1c499ab0",
      "wagerWinnerAmounts(uint8)": "5ba5203f"
    }
  },
  "storageLayout": {
    "storage": [
      {
        "astId": 236,
        "contract": "main.sol:SBWager",
        "label": "owner",
        "offset": 0,
        "slot": "0",
        "type": "t_address"
      },
      {
        "astId": 240,
        "contract": "main.sol:SBWager",
        "label": "authorizations",
        "offset": 0,
        "slot": "1",
        "type": "t_mapping(t_address,t_bool)"
      },
      {
        "astId": 444,
        "contract": "main.sol:SBWager",
        "label": "WETH",
        "offset": 0,
        "slot": "2",
        "type": "t_address"
      },
      {
        "astId": 447,
        "contract": "main.sol:SBWager",
        "label": "DEAD",
        "offset": 0,
        "slot": "3",
        "type": "t_address"
      },
      {
        "astId": 450,
        "contract": "main.sol:SBWager",
        "label": "ZERO",
        "offset": 0,
        "slot": "4",
        "type": "t_address"
      },
      {
        "astId": 470,
        "contract": "main.sol:SBWager",
        "label": "_totalSupply",
        "offset": 0,
        "slot": "5",
        "type": "t_uint256"
      },
      {
        "astId": 475,
        "contract": "main.sol:SBWager",
        "label": "_maxTxAmount",
        "offset": 0,
        "slot": "6",
        "type": "t_uint256"
      },
      {
        "astId": 480,
        "contract": "main.sol:SBWager",
        "label": "_maxWalletToken",
        "offset": 0,
        "slot": "7",
        "type": "t_uint256"
      },
      {
        "astId": 484,
        "contract": "main.sol:SBWager",
        "label": "_balances",
        "offset": 0,
        "slot": "8",
        "type": "t_mapping(t_address,t_uint256)"
      },
      {
        "astId": 490,
        "contract": "main.sol:SBWager",
        "label": "_allowances",
        "offset": 0,
        "slot": "9",
        "type": "t_mapping(t_address,t_mapping(t_address,t_uint256))"
      },
      {
        "astId": 494,
        "contract": "main.sol:SBWager",
        "label": "isFeeExempt",
        "offset": 0,
        "slot": "10",
        "type": "t_mapping(t_address,t_bool)"
      },
      {
        "astId": 498,
        "contract": "main.sol:SBWager",
        "label": "isTxLimitExempt",
        "offset": 0,
        "slot": "11",
        "type": "t_mapping(t_address,t_bool)"
      },
      {
        "astId": 502,
        "contract": "main.sol:SBWager",
        "label": "isWalletLimitExempt",
        "offset": 0,
        "slot": "12",
        "type": "t_mapping(t_address,t_bool)"
      },
      {
        "astId": 505,
        "contract": "main.sol:SBWager",
        "label": "liquidityFee",
        "offset": 0,
        "slot": "13",
        "type": "t_uint256"
      },
      {
        "astId": 508,
        "contract": "main.sol:SBWager",
        "label": "marketingFee",
        "offset": 0,
        "slot": "14",
        "type": "t_uint256"
      },
      {
        "astId": 511,
        "contract": "main.sol:SBWager",
        "label": "devFee",
        "offset": 0,
        "slot": "15",
        "type": "t_uint256"
      },
      {
        "astId": 518,
        "contract": "main.sol:SBWager",
        "label": "totalFee",
        "offset": 0,
        "slot": "16",
        "type": "t_uint256"
      },
      {
        "astId": 525,
        "contract": "main.sol:SBWager",
        "label": "choices",
        "offset": 0,
        "slot": "17",
        "type": "t_mapping(t_address,t_uint8)"
      },
      {
        "astId": 529,
        "contract": "main.sol:SBWager",
        "label": "choiceNumber",
        "offset": 0,
        "slot": "18",
        "type": "t_mapping(t_uint256,t_address)"
      },
      {
        "astId": 532,
        "contract": "main.sol:SBWager",
        "label": "chiefsCount",
        "offset": 0,
        "slot": "19",
        "type": "t_uint256"
      },
      {
        "astId": 535,
        "contract": "main.sol:SBWager",
        "label": "eaglesCount",
        "offset": 0,
        "slot": "20",
        "type": "t_uint256"
      },
      {
        "astId": 543,
        "contract": "main.sol:SBWager",
        "label": "autoLiquidityReceiver",
        "offset": 0,
        "slot": "21",
        "type": "t_address"
      },
      {
        "astId": 545,
        "contract": "main.sol:SBWager",
        "label": "marketingFeeReceiver",
        "offset": 0,
        "slot": "22",
        "type": "t_address"
      },
      {
        "astId": 547,
        "contract": "main.sol:SBWager",
        "label": "devFeeReceiver",
        "offset": 0,
        "slot": "23",
        "type": "t_address"
      },
      {
        "astId": 550,
        "contract": "main.sol:SBWager",
        "label": "router",
        "offset": 0,
        "slot": "24",
        "type": "t_contract(IDEXRouter)435"
      },
      {
        "astId": 552,
        "contract": "main.sol:SBWager",
        "label": "pair",
        "offset": 0,
        "slot": "25",
        "type": "t_address"
      },
      {
        "astId": 555,
        "contract": "main.sol:SBWager",
        "label": "tradingOpen",
        "offset": 20,
        "slot": "25",
        "type": "t_bool"
      },
      {
        "astId": 558,
        "contract": "main.sol:SBWager",
        "label": "swapEnabled",
        "offset": 21,
        "slot": "25",
        "type": "t_bool"
      },
      {
        "astId": 563,
        "contract": "main.sol:SBWager",
        "label": "swapThreshold",
        "offset": 0,
        "slot": "26",
        "type": "t_uint256"
      },
      {
        "astId": 565,
        "contract": "main.sol:SBWager",
        "label": "inSwap",
        "offset": 0,
        "slot": "27",
        "type": "t_bool"
      }
    ],
    "types": {
      "t_address": {
        "encoding": "inplace",
        "label": "address",
        "numberOfBytes": "20"
      },
      "t_bool": {
        "encoding": "inplace",
        "label": "bool",
        "numberOfBytes": "1"
      },
      "t_contract(IDEXRouter)435": {
        "encoding": "inplace",
        "label": "contract IDEXRouter",
        "numberOfBytes": "20"
      },
      "t_mapping(t_address,t_bool)": {
        "encoding": "mapping",
        "key": "t_address",
        "label": "mapping(address => bool)",
        "numberOfBytes": "32",
        "value": "t_bool"
      },
      "t_mapping(t_address,t_mapping(t_address,t_uint256))": {
        "encoding": "mapping",
        "key": "t_address",
        "label": "mapping(address => mapping(address => uint256))",
        "numberOfBytes": "32",
        "value": "t_mapping(t_address,t_uint256)"
      },
      "t_mapping(t_address,t_uint256)": {
        "encoding": "mapping",
        "key": "t_address",
        "label": "mapping(address => uint256)",
        "numberOfBytes": "32",
        "value": "t_uint256"
      },
      "t_mapping(t_address,t_uint8)": {
        "encoding": "mapping",
        "key": "t_address",
        "label": "mapping(address => uint8)",
        "numberOfBytes": "32",
        "value": "t_uint8"
      },
      "t_mapping(t_uint256,t_address)": {
        "encoding": "mapping",
        "key": "t_uint256",
        "label": "mapping(uint256 => address)",
        "numberOfBytes": "32",
        "value": "t_address"
      },
      "t_uint256": {
        "encoding": "inplace",
        "label": "uint256",
        "numberOfBytes": "32"
      },
      "t_uint8": {
        "encoding": "inplace",
        "label": "uint8",
        "numberOfBytes": "1"
      }
    }
  },
  "userdoc": {
    "kind": "user",
    "methods": {},
    "version": 1
  }
}