{
  "abi": [
    {
      "anonymous": false,
      "inputs": [
        {
          "indexed": false,
          "internalType": "address",
          "name": "",
          "type": "address"
        },
        {
          "indexed": false,
          "internalType": "uint8",
          "name": "",
          "type": "uint8"
        }
      ],
      "name": "VoteCasted",
      "type": "event"
    },
    {
      "inputs": [
        {
          "internalType": "uint8",
          "name": "choice",
          "type": "uint8"
        }
      ],
      "name": "addChoice",
      "outputs": [],
      "stateMutability": "nonpayable",
      "type": "function"
    },
    {
      "inputs": [
        {
          "internalType": "address",
          "name": "",
          "type": "address"
        }
      ],
      "name": "choices",
      "outputs": [
        {
          "internalType": "uint8",
          "name": "",
          "type": "uint8"
        }
      ],
      "stateMutability": "view",
      "type": "function"
    }
  ],
  "devdoc": {
    "kind": "dev",
    "methods": {},
    "version": 1
  },
  "evm": {
    "assembly": "    /* \"main.sol\":61:945  contract SuperbowlInu {... */\n  mstore(0x40, 0x80)\n    /* \"main.sol\":159:160  0 */\n  0x00\n    /* \"main.sol\":137:160  uint256 chiefsCount = 0 */\n  0x01\n  sstore\n    /* \"main.sol\":187:188  0 */\n  0x00\n    /* \"main.sol\":165:188  uint256 eaglesCount = 0 */\n  0x02\n  sstore\n    /* \"main.sol\":61:945  contract SuperbowlInu {... */\n  callvalue\n  dup1\n  iszero\n  tag_1\n  jumpi\n  0x00\n  dup1\n  revert\ntag_1:\n  pop\n  dataSize(sub_0)\n  dup1\n  dataOffset(sub_0)\n  0x00\n  codecopy\n  0x00\n  return\nstop\n\nsub_0: assembly {\n        /* \"main.sol\":61:945  contract SuperbowlInu {... */\n      mstore(0x40, 0x80)\n      callvalue\n      dup1\n      iszero\n      tag_1\n      jumpi\n      0x00\n      dup1\n      revert\n    tag_1:\n      pop\n      jumpi(tag_2, lt(calldatasize, 0x04))\n      shr(0xe0, calldataload(0x00))\n      dup1\n      0x410346b3\n      eq\n      tag_3\n      jumpi\n      dup1\n      0xd42b92fd\n      eq\n      tag_4\n      jumpi\n    tag_2:\n      0x00\n      dup1\n      revert\n        /* \"main.sol\":90:130  mapping(address => uint8) public choices */\n    tag_3:\n      tag_5\n      tag_6\n      calldatasize\n      0x04\n      tag_7\n      jump\t// in\n    tag_6:\n      0x00\n      0x20\n      dup2\n      swap1\n      mstore\n      swap1\n      dup2\n      mstore\n      0x40\n      swap1\n      keccak256\n      sload\n      0xff\n      and\n      dup2\n      jump\n    tag_5:\n      mload(0x40)\n        /* \"#utility.yul\":500:504   */\n      0xff\n        /* \"#utility.yul\":488:505   */\n      swap1\n      swap2\n      and\n        /* \"#utility.yul\":470:506   */\n      dup2\n      mstore\n        /* \"#utility.yul\":458:460   */\n      0x20\n        /* \"#utility.yul\":443:461   */\n      add\n        /* \"main.sol\":90:130  mapping(address => uint8) public choices */\n      mload(0x40)\n      dup1\n      swap2\n      sub\n      swap1\n      return\n        /* \"main.sol\":417:940  function addChoice(uint8 choice) public {... */\n    tag_4:\n      tag_11\n      tag_12\n      calldatasize\n      0x04\n      tag_13\n      jump\t// in\n    tag_12:\n      tag_14\n      jump\t// in\n    tag_11:\n      stop\n    tag_14:\n        /* \"main.sol\":528:534  choice */\n      dup1\n        /* \"main.sol\":528:539  choice == 1 */\n      0xff\n      and\n        /* \"main.sol\":538:539  1 */\n      0x01\n        /* \"main.sol\":528:539  choice == 1 */\n      eq\n        /* \"main.sol\":528:554  choice == 1 || choice == 2 */\n      dup1\n      tag_16\n      jumpi\n      pop\n        /* \"main.sol\":543:549  choice */\n      dup1\n        /* \"main.sol\":543:554  choice == 2 */\n      0xff\n      and\n        /* \"main.sol\":553:554  2 */\n      0x02\n        /* \"main.sol\":543:554  choice == 2 */\n      eq\n        /* \"main.sol\":528:554  choice == 1 || choice == 2 */\n    tag_16:\n        /* \"main.sol\":520:578  require(choice == 1 || choice == 2, \"Not choosing a team\") */\n      tag_17\n      jumpi\n      mload(0x40)\n      shl(0xe5, 0x461bcd)\n      dup2\n      mstore\n        /* \"#utility.yul\":993:995   */\n      0x20\n        /* \"main.sol\":520:578  require(choice == 1 || choice == 2, \"Not choosing a team\") */\n      0x04\n      dup3\n      add\n        /* \"#utility.yul\":975:996   */\n      mstore\n        /* \"#utility.yul\":1032:1034   */\n      0x13\n        /* \"#utility.yul\":1012:1030   */\n      0x24\n      dup3\n      add\n        /* \"#utility.yul\":1005:1035   */\n      mstore\n        /* \"#utility.yul\":1071:1092   */\n      0x4e6f742063686f6f73696e672061207465616d00000000000000000000000000\n        /* \"#utility.yul\":1051:1069   */\n      0x44\n      dup3\n      add\n        /* \"#utility.yul\":1044:1093   */\n      mstore\n        /* \"#utility.yul\":1110:1128   */\n      0x64\n      add\n        /* \"main.sol\":520:578  require(choice == 1 || choice == 2, \"Not choosing a team\") */\n      mload(0x40)\n      dup1\n      swap2\n      sub\n      swap1\n      revert\n    tag_17:\n        /* \"main.sol\":660:670  msg.sender */\n      caller\n        /* \"main.sol\":652:659  choices */\n      0x00\n        /* \"main.sol\":652:671  choices[msg.sender] */\n      swap1\n      dup2\n      mstore\n      0x20\n      dup2\n      swap1\n      mstore\n      0x40\n      swap1\n      keccak256\n      sload\n      0xff\n      and\n        /* \"main.sol\":652:676  choices[msg.sender] == 0 */\n      iszero\n        /* \"main.sol\":644:677  require(choices[msg.sender] == 0) */\n      tag_20\n      jumpi\n      0x00\n      dup1\n      revert\n    tag_20:\n        /* \"main.sol\":752:762  msg.sender */\n      caller\n        /* \"main.sol\":744:751  choices */\n      0x00\n        /* \"main.sol\":744:763  choices[msg.sender] */\n      swap1\n      dup2\n      mstore\n      0x20\n      dup2\n      swap1\n      mstore\n      0x40\n      swap1\n      keccak256\n        /* \"main.sol\":744:772  choices[msg.sender] = choice */\n      dup1\n      sload\n      not(0xff)\n      and\n      0xff\n      dup4\n      and\n      swap1\n      dup2\n      or\n      swap1\n      swap2\n      sstore\n      0x01\n        /* \"main.sol\":843:854  choice == 1 */\n      eq\n        /* \"main.sol\":843:886  choice == 1 ? chiefsCount++ : eaglesCount++ */\n      tag_21\n      jumpi\n        /* \"main.sol\":873:884  eaglesCount */\n      0x02\n        /* \"main.sol\":873:886  eaglesCount++ */\n      dup1\n      sload\n      swap1\n        /* \"main.sol\":873:884  eaglesCount */\n      0x00\n        /* \"main.sol\":873:886  eaglesCount++ */\n      tag_22\n      dup4\n      tag_23\n      jump\t// in\n    tag_22:\n      swap2\n      swap1\n      pop\n      sstore\n        /* \"main.sol\":843:886  choice == 1 ? chiefsCount++ : eaglesCount++ */\n      jump(tag_24)\n    tag_21:\n        /* \"main.sol\":857:868  chiefsCount */\n      0x01\n        /* \"main.sol\":857:870  chiefsCount++ */\n      dup1\n      sload\n      swap1\n        /* \"main.sol\":857:868  chiefsCount */\n      0x00\n        /* \"main.sol\":857:870  chiefsCount++ */\n      tag_25\n      dup4\n      tag_23\n      jump\t// in\n    tag_25:\n      swap2\n      swap1\n      pop\n      sstore\n        /* \"main.sol\":843:886  choice == 1 ? chiefsCount++ : eaglesCount++ */\n    tag_24:\n      pop\n        /* \"main.sol\":902:932  VoteCasted(msg.sender, choice) */\n      0x40\n      dup1\n      mload\n        /* \"main.sol\":913:923  msg.sender */\n      caller\n        /* \"#utility.yul\":1546:1620   */\n      dup2\n      mstore\n        /* \"#utility.yul\":1668:1672   */\n      0xff\n        /* \"#utility.yul\":1656:1673   */\n      dup4\n      and\n        /* \"#utility.yul\":1651:1653   */\n      0x20\n        /* \"#utility.yul\":1636:1654   */\n      dup3\n      add\n        /* \"#utility.yul\":1629:1674   */\n      mstore\n        /* \"main.sol\":902:932  VoteCasted(msg.sender, choice) */\n      0x76580ac7c171cd3d2029d56fd501d1351f2db92da148447b53227803bf940c02\n      swap2\n        /* \"#utility.yul\":1519:1537   */\n      add\n        /* \"main.sol\":902:932  VoteCasted(msg.sender, choice) */\n      mload(0x40)\n      dup1\n      swap2\n      sub\n      swap1\n      log1\n        /* \"main.sol\":417:940  function addChoice(uint8 choice) public {... */\n      pop\n      jump\t// out\n        /* \"#utility.yul\":14:323   */\n    tag_7:\n        /* \"#utility.yul\":73:79   */\n      0x00\n        /* \"#utility.yul\":126:128   */\n      0x20\n        /* \"#utility.yul\":114:123   */\n      dup3\n        /* \"#utility.yul\":105:112   */\n      dup5\n        /* \"#utility.yul\":101:124   */\n      sub\n        /* \"#utility.yul\":97:129   */\n      slt\n        /* \"#utility.yul\":94:146   */\n      iszero\n      tag_30\n      jumpi\n        /* \"#utility.yul\":142:143   */\n      0x00\n        /* \"#utility.yul\":139:140   */\n      dup1\n        /* \"#utility.yul\":132:144   */\n      revert\n        /* \"#utility.yul\":94:146   */\n    tag_30:\n        /* \"#utility.yul\":181:190   */\n      dup2\n        /* \"#utility.yul\":168:191   */\n      calldataload\n        /* \"#utility.yul\":231:273   */\n      0xffffffffffffffffffffffffffffffffffffffff\n        /* \"#utility.yul\":224:229   */\n      dup2\n        /* \"#utility.yul\":220:274   */\n      and\n        /* \"#utility.yul\":213:218   */\n      dup2\n        /* \"#utility.yul\":210:275   */\n      eq\n        /* \"#utility.yul\":200:293   */\n      tag_31\n      jumpi\n        /* \"#utility.yul\":289:290   */\n      0x00\n        /* \"#utility.yul\":286:287   */\n      dup1\n        /* \"#utility.yul\":279:291   */\n      revert\n        /* \"#utility.yul\":200:293   */\n    tag_31:\n        /* \"#utility.yul\":312:317   */\n      swap4\n        /* \"#utility.yul\":14:323   */\n      swap3\n      pop\n      pop\n      pop\n      jump\t// out\n        /* \"#utility.yul\":517:786   */\n    tag_13:\n        /* \"#utility.yul\":574:580   */\n      0x00\n        /* \"#utility.yul\":627:629   */\n      0x20\n        /* \"#utility.yul\":615:624   */\n      dup3\n        /* \"#utility.yul\":606:613   */\n      dup5\n        /* \"#utility.yul\":602:625   */\n      sub\n        /* \"#utility.yul\":598:630   */\n      slt\n        /* \"#utility.yul\":595:647   */\n      iszero\n      tag_34\n      jumpi\n        /* \"#utility.yul\":643:644   */\n      0x00\n        /* \"#utility.yul\":640:641   */\n      dup1\n        /* \"#utility.yul\":633:645   */\n      revert\n        /* \"#utility.yul\":595:647   */\n    tag_34:\n        /* \"#utility.yul\":682:691   */\n      dup2\n        /* \"#utility.yul\":669:692   */\n      calldataload\n        /* \"#utility.yul\":732:736   */\n      0xff\n        /* \"#utility.yul\":725:730   */\n      dup2\n        /* \"#utility.yul\":721:737   */\n      and\n        /* \"#utility.yul\":714:719   */\n      dup2\n        /* \"#utility.yul\":711:738   */\n      eq\n        /* \"#utility.yul\":701:756   */\n      tag_31\n      jumpi\n        /* \"#utility.yul\":752:753   */\n      0x00\n        /* \"#utility.yul\":749:750   */\n      dup1\n        /* \"#utility.yul\":742:754   */\n      revert\n        /* \"#utility.yul\":1139:1371   */\n    tag_23:\n        /* \"#utility.yul\":1178:1181   */\n      0x00\n        /* \"#utility.yul\":1199:1216   */\n      0x01\n      dup3\n      add\n        /* \"#utility.yul\":1196:1336   */\n      tag_38\n      jumpi\n        /* \"#utility.yul\":1258:1268   */\n      0x4e487b71\n        /* \"#utility.yul\":1253:1256   */\n      0xe0\n        /* \"#utility.yul\":1249:1269   */\n      shl\n        /* \"#utility.yul\":1246:1247   */\n      0x00\n        /* \"#utility.yul\":1239:1270   */\n      mstore\n        /* \"#utility.yul\":1293:1297   */\n      0x11\n        /* \"#utility.yul\":1290:1291   */\n      0x04\n        /* \"#utility.yul\":1283:1298   */\n      mstore\n        /* \"#utility.yul\":1321:1325   */\n      0x24\n        /* \"#utility.yul\":1318:1319   */\n      0x00\n        /* \"#utility.yul\":1311:1326   */\n      revert\n        /* \"#utility.yul\":1196:1336   */\n    tag_38:\n      pop\n        /* \"#utility.yul\":1363:1364   */\n      0x01\n        /* \"#utility.yul\":1352:1365   */\n      add\n      swap1\n        /* \"#utility.yul\":1139:1371   */\n      jump\t// out\n\n    auxdata: 0xa26469706673582212204446721b81d73f64cea0e9421f64b9ab267859a2cbe1dccbdbbfaee65109aa5a64736f6c63430008110033\n}\n",
    "bytecode": {
      "linkReferences": {},
      "object": "60806040526000600155600060025534801561001a57600080fd5b5061025b8061002a6000396000f3fe608060405234801561001057600080fd5b50600436106100365760003560e01c8063410346b31461003b578063d42b92fd14610074575b600080fd5b61005e61004936600461019e565b60006020819052908152604090205460ff1681565b60405160ff909116815260200160405180910390f35b6100876100823660046101db565b610089565b005b8060ff166001148061009e57508060ff166002145b6100ee5760405162461bcd60e51b815260206004820152601360248201527f4e6f742063686f6f73696e672061207465616d00000000000000000000000000604482015260640160405180910390fd5b3360009081526020819052604090205460ff161561010b57600080fd5b336000908152602081905260409020805460ff191660ff831690811790915560011461014a5760028054906000610141836101fe565b9190505561015f565b6001805490600061015a836101fe565b919050555b506040805133815260ff831660208201527f76580ac7c171cd3d2029d56fd501d1351f2db92da148447b53227803bf940c02910160405180910390a150565b6000602082840312156101b057600080fd5b813573ffffffffffffffffffffffffffffffffffffffff811681146101d457600080fd5b9392505050565b6000602082840312156101ed57600080fd5b813560ff811681146101d457600080fd5b60006001820161021e57634e487b7160e01b600052601160045260246000fd5b506001019056fea26469706673582212204446721b81d73f64cea0e9421f64b9ab267859a2cbe1dccbdbbfaee65109aa5a64736f6c63430008110033",
      "opcodes": "PUSH1 0x80 PUSH1 0x40 MSTORE PUSH1 0x0 PUSH1 0x1 SSTORE PUSH1 0x0 PUSH1 0x2 SSTORE CALLVALUE DUP1 ISZERO PUSH2 0x1A JUMPI PUSH1 0x0 DUP1 REVERT JUMPDEST POP PUSH2 0x25B DUP1 PUSH2 0x2A PUSH1 0x0 CODECOPY PUSH1 0x0 RETURN INVALID PUSH1 0x80 PUSH1 0x40 MSTORE CALLVALUE DUP1 ISZERO PUSH2 0x10 JUMPI PUSH1 0x0 DUP1 REVERT JUMPDEST POP PUSH1 0x4 CALLDATASIZE LT PUSH2 0x36 JUMPI PUSH1 0x0 CALLDATALOAD PUSH1 0xE0 SHR DUP1 PUSH4 0x410346B3 EQ PUSH2 0x3B JUMPI DUP1 PUSH4 0xD42B92FD EQ PUSH2 0x74 JUMPI JUMPDEST PUSH1 0x0 DUP1 REVERT JUMPDEST PUSH2 0x5E PUSH2 0x49 CALLDATASIZE PUSH1 0x4 PUSH2 0x19E JUMP JUMPDEST PUSH1 0x0 PUSH1 0x20 DUP2 SWAP1 MSTORE SWAP1 DUP2 MSTORE PUSH1 0x40 SWAP1 KECCAK256 SLOAD PUSH1 0xFF AND DUP2 JUMP JUMPDEST PUSH1 0x40 MLOAD PUSH1 0xFF SWAP1 SWAP2 AND DUP2 MSTORE PUSH1 0x20 ADD PUSH1 0x40 MLOAD DUP1 SWAP2 SUB SWAP1 RETURN JUMPDEST PUSH2 0x87 PUSH2 0x82 CALLDATASIZE PUSH1 0x4 PUSH2 0x1DB JUMP JUMPDEST PUSH2 0x89 JUMP JUMPDEST STOP JUMPDEST DUP1 PUSH1 0xFF AND PUSH1 0x1 EQ DUP1 PUSH2 0x9E JUMPI POP DUP1 PUSH1 0xFF AND PUSH1 0x2 EQ JUMPDEST PUSH2 0xEE JUMPI PUSH1 0x40 MLOAD PUSH3 0x461BCD PUSH1 0xE5 SHL DUP2 MSTORE PUSH1 0x20 PUSH1 0x4 DUP3 ADD MSTORE PUSH1 0x13 PUSH1 0x24 DUP3 ADD MSTORE PUSH32 0x4E6F742063686F6F73696E672061207465616D00000000000000000000000000 PUSH1 0x44 DUP3 ADD MSTORE PUSH1 0x64 ADD PUSH1 0x40 MLOAD DUP1 SWAP2 SUB SWAP1 REVERT JUMPDEST CALLER PUSH1 0x0 SWAP1 DUP2 MSTORE PUSH1 0x20 DUP2 SWAP1 MSTORE PUSH1 0x40 SWAP1 KECCAK256 SLOAD PUSH1 0xFF AND ISZERO PUSH2 0x10B JUMPI PUSH1 0x0 DUP1 REVERT JUMPDEST CALLER PUSH1 0x0 SWAP1 DUP2 MSTORE PUSH1 0x20 DUP2 SWAP1 MSTORE PUSH1 0x40 SWAP1 KECCAK256 DUP1 SLOAD PUSH1 0xFF NOT AND PUSH1 0xFF DUP4 AND SWAP1 DUP2 OR SWAP1 SWAP2 SSTORE PUSH1 0x1 EQ PUSH2 0x14A JUMPI PUSH1 0x2 DUP1 SLOAD SWAP1 PUSH1 0x0 PUSH2 0x141 DUP4 PUSH2 0x1FE JUMP JUMPDEST SWAP2 SWAP1 POP SSTORE PUSH2 0x15F JUMP JUMPDEST PUSH1 0x1 DUP1 SLOAD SWAP1 PUSH1 0x0 PUSH2 0x15A DUP4 PUSH2 0x1FE JUMP JUMPDEST SWAP2 SWAP1 POP SSTORE JUMPDEST POP PUSH1 0x40 DUP1 MLOAD CALLER DUP2 MSTORE PUSH1 0xFF DUP4 AND PUSH1 0x20 DUP3 ADD MSTORE PUSH32 0x76580AC7C171CD3D2029D56FD501D1351F2DB92DA148447B53227803BF940C02 SWAP2 ADD PUSH1 0x40 MLOAD DUP1 SWAP2 SUB SWAP1 LOG1 POP JUMP JUMPDEST PUSH1 0x0 PUSH1 0x20 DUP3 DUP5 SUB SLT ISZERO PUSH2 0x1B0 JUMPI PUSH1 0x0 DUP1 REVERT JUMPDEST DUP2 CALLDATALOAD PUSH20 0xFFFFFFFFFFFFFFFFFFFFFFFFFFFFFFFFFFFFFFFF DUP2 AND DUP2 EQ PUSH2 0x1D4 JUMPI PUSH1 0x0 DUP1 REVERT JUMPDEST SWAP4 SWAP3 POP POP POP JUMP JUMPDEST PUSH1 0x0 PUSH1 0x20 DUP3 DUP5 SUB SLT ISZERO PUSH2 0x1ED JUMPI PUSH1 0x0 DUP1 REVERT JUMPDEST DUP2 CALLDATALOAD PUSH1 0xFF DUP2 AND DUP2 EQ PUSH2 0x1D4 JUMPI PUSH1 0x0 DUP1 REVERT JUMPDEST PUSH1 0x0 PUSH1 0x1 DUP3 ADD PUSH2 0x21E JUMPI PUSH4 0x4E487B71 PUSH1 0xE0 SHL PUSH1 0x0 MSTORE PUSH1 0x11 PUSH1 0x4 MSTORE PUSH1 0x24 PUSH1 0x0 REVERT JUMPDEST POP PUSH1 0x1 ADD SWAP1 JUMP INVALID LOG2 PUSH5 0x6970667358 0x22 SLT KECCAK256 DIFFICULTY CHAINID PUSH19 0x1B81D73F64CEA0E9421F64B9AB267859A2CBE1 0xDC 0xCB 0xDB 0xBF 0xAE 0xE6 MLOAD MULMOD 0xAA GAS PUSH5 0x736F6C6343 STOP ADDMOD GT STOP CALLER "
    },
    "gasEstimates": {
      "creation": {
        "codeDepositCost": "120600",
        "executionCost": "10177",
        "totalCost": "130777"
      },
      "external": {
        "addChoice(uint8)": "52480",
        "choices(address)": "2456"
      }
    },
    "methodIdentifiers": {
      "addChoice(uint8)": "d42b92fd",
      "choices(address)": "410346b3"
    }
  },
  "storageLayout": {
    "storage": [
      {
        "astId": 5,
        "contract": "main.sol:SuperbowlInu",
        "label": "choices",
        "offset": 0,
        "slot": "0",
        "type": "t_mapping(t_address,t_uint8)"
      },
      {
        "astId": 8,
        "contract": "main.sol:SuperbowlInu",
        "label": "chiefsCount",
        "offset": 0,
        "slot": "1",
        "type": "t_uint256"
      },
      {
        "astId": 11,
        "contract": "main.sol:SuperbowlInu",
        "label": "eaglesCount",
        "offset": 0,
        "slot": "2",
        "type": "t_uint256"
      }
    ],
    "types": {
      "t_address": {
        "encoding": "inplace",
        "label": "address",
        "numberOfBytes": "20"
      },
      "t_mapping(t_address,t_uint8)": {
        "encoding": "mapping",
        "key": "t_address",
        "label": "mapping(address => uint8)",
        "numberOfBytes": "32",
        "value": "t_uint8"
      },
      "t_uint256": {
        "encoding": "inplace",
        "label": "uint256",
        "numberOfBytes": "32"
      },
      "t_uint8": {
        "encoding": "inplace",
        "label": "uint8",
        "numberOfBytes": "1"
      }
    }
  },
  "userdoc": {
    "kind": "user",
    "methods": {},
    "version": 1
  }
}